:020000040800F2
:1000000000040020010D0008210E0008210E000848
:10001000210E0008210E0008210E0008210E000804
:10002000210E0008210E0008210E0008510E0008C4
:10003000210E0008210E0008210E0008310F0008D3
:10004000210E0008210E0008210E0008210E0008D4
:10005000210E0008210E0008210E0008210E0008C4
:10006000210E0008210E0008210E0008210E0008B4
:10007000210E0008210E0008210E0008210E0008A4
:10008000210E0008210E0008210E0008E1270008BB
:10009000912A0008210E0008210E0008210E0008F8
:1000A000210E0008210E0008210E0008210E000874
:1000B000210E0008210E0008210E0008210E000864
:1000C000210E0008210E0008210E0008210E000854
:1000D000210E0008210E0008E1240008210E00086E
:1000E000210E0008210E0008210E0008210E000834
:1000F000210E0008210E0008210E0008210E000824
:10010000210E0008210E0008210E0008210E000813
:10011000210E0008210E0008210E0008210E000803
:10012000210E0008210E0008210E0008210E0008F3
:1001300010B5002482B001F0B3FD00F079FF114842
:10014000214601F04DFE00940F484FF49871402273
:100150000E4B01F0E5FA54B194F820300E2B08BF95
:1001600000244FF47A7001F013FB002CF4D10094BA
:1001700007484FF40B614022064B01F0D1FA0446C8
:10018000EFE700BFAC0D0020B00E0020E13E0008FC
:10019000E00F0020213F0008AFF30080AFF30080A4
:1001A0000F2AF0B440D941EA00039B073ED10C4628
:1001B000034615462668103D1E6066685E60A668A8
:1001C0009E60E6681034DE6010330F2DF2D8A2F185
:1001D000100502F00F0425F00F051035032C00EB7D
:1001E0000503294424D9A4F1040C1D460C464FEA0A
:1001F0009C0C01EB8C07043754F8046BBC4245F8A7
:10020000046BF9D10CF1010402F00302A4000919F6
:100210001B193AB101399A1811F8014F03F8014B33
:100220009342F9D1F0BC70470346F2E70346F1E789
:100230002246EEE700000000000000000000000081
:100240008842F0B411D98C18A0420ED28518531EE2
:100250004AB121462A4611F8014D013BB3F1FF3F57
:1002600002F8014DF7D1F0BC70470F2A40D941EA9E
:1002700000039B073ED10C46034615462668103DF9
:100280001E6066685E60A6689E60E6681034DE6088
:1002900010330F2DF2D8A2F1100502F00F0425F053
:1002A0000F051035032C00EB0503294424D9A4F1D4
:1002B000040C1D460C464FEA9C0C01EB8C070437DE
:1002C00054F8046BBC4245F8046BF9D10CF10104FD
:1002D00002F00302A40009191B19002AC3D0013936
:1002E0009A1811F8014F03F8014B9342F9D1BAE77C
:1002F0000346F2E70346F2E72246EEE7000000007D
:1003000070B48407034644D0541E002A3FD0CEB2B6
:1003100002E0002C3BD0144603F8016B13F0030FEE
:100320001D4604F1FF32F4D1032C29D9CAB20F2C97
:1003300084BF2B46264642EA022242EA024211D9F3
:10034000103E1A605A609A60DA6010330F2EF7D8A8
:10035000A4F1100304F00F0423F00F031033032C57
:100360001D440DD92E462346043B46F8042B032B8F
:10037000FAD8231F04F0030423F003030433ED1819
:100380002CB1C9B22C1905F8011BA542FBD170BCD8
:10039000704705461446C7E7000000000000000053
:1003A000C9B2F0B400294BD083070FD00378002BDB
:1003B00073D0994242D0431C05E013F8012B002A68
:1003C0003BD091423AD09A071846F6D1036841EAE9
:1003D0000127A3F1013247EA074722EA030212F09C
:1003E000803F1CD17B40A3F1013222EA030313F0CA
:1003F000803F14D1021D02E014F0803F0FD110465F
:1004000052F8043BA3F1013687EA030426EA03030A
:10041000A4F1013513F0803F25EA0404ECD0037801
:10042000002B3AD0994209D0431C01E0914205D0FB
:10043000184613F8012B002AF8D11046F0BC70477B
:1004400081070DD00378002BF8D0431C02E002781E
:10045000002AF3D013F0030F184603F10103F6D17D
:100460000368A3F1013222EA030313F0803F0AD1AB
:10047000021D104652F8041BA1F1013424EA0101C7
:1004800011F0803FF5D00378002BD7D0431C1846DD
:1004900001330278002AFAD1D0E71846CEE700BF30
:1004A00080EA010212F0030F40F03A8010F00302DC
:1004B00020F0030021F0030150F804CB08BF51F8ED
:1004C000043B0DD082F003024FEAC2026FF07F437B
:1004D00023FA02F251F8043B4CEA020C43EA02030D
:1004E000ACF101329C4501BF22EA0C0212F0803FC0
:1004F00050F804CB51F8043BF2D04FEA0C604FEABD
:100500001C2C012828BFB0EB036F08BF1B0AF4D0D6
:1005100003F0FF034FEA1060A0EB0300704700BF39
:1005200010F0030F0AD010F8012B11F8013B012A3B
:1005300028BF9A42F4D0A2EB030070474DF8045D47
:100540004DF8044D4FF0010242EA022242EA024213
:1005500001F0030C21F0030150F8044B51F8045B47
:10056000BCF1020F26D04BD824F07F4CBCEB152FEA
:10057000A4EB020323EA04030DD113EAC21308BF5C
:1005800051F8045B0AD18CEA040CBCEB056F0CD16A
:1005900050F8044BE8E74FEA15255CE033F07F4361
:1005A00052D10D784FEA146C55E04FEA146C05F007
:1005B000FF0550E04FEA044CA4EB02034FEA1C4C49
:1005C00023EA0403BCEB154F17D113EAC21308BF8B
:1005D00051F8045B07D18CEA040CBCEB054F08D141
:1005E00050F8044BE6E71B042ED10D884FEA144C5B
:1005F00031E04FEA05454FEA144C4FEA15452AE031
:1006000004F0FF0CBCEB156FA4EB020323EA040318
:100610000DD113EAC21308BF51F8045B0AD18CEA6A
:10062000040CBCEB052F0AD150F8044BE8E74FEA65
:10063000156510E014F0FF0F06D051F8045B4FEA87
:10064000142C25F07F4506E04FF000005DF8044BC8
:100650005DF8045B70470CF0FF0205F0FF00012815
:1006600028BF904204BF4FEA1C2C2D0AF3D0A2EB06
:1006700000005DF8044B5DF8045B7047000000006B
:1006800020F0030110F00300C0F1000051F8043B1A
:1006900000F1040C4FEACC0C6FF000021CBF22FAF0
:1006A0000CF213434FF0010C4CEA0C2C4CEA0C4CAE
:1006B000A3EB0C0222EA030212EACC1204BF51F8A7
:1006C000043B0430F4D013F0FF0F1FBF013013F4CC
:1006D0007F4F013013F47F0F18BF0130704700BF08
:1006E0002DE9F00701273C4600254FF0FF3663193E
:1006F00000EB060C8B420DD21CF804C010F80380EE
:10070000E0452ED201241D469F1B63198B4200EB4E
:10071000060CF1D34FF0010A002554464FF0FF3C80
:100720001760631900EB0C0899420ED918F8048081
:1007300010F80390C1451AD901241D46CCEB030AD9
:100740006319994200EB0C08F0D80CF10100013656
:10075000B0423CBFBA463046C2F800A0BDE8F00740
:1007600070470BD001272E463C46ED19BFE709D054
:100770004FF0010AAC4654465544D2E7BC4205D07E
:100780000134B4E7544505D00134CAE727461D4675
:100790000124ACE7A2461D460124C2E72DE9F04F33
:1007A000ADF2244D164680460D461046194607AA5E
:1007B0001C46FFF795FF07AB0DF21C42039043F870
:1007C000044F9342FBD1671E002308A834B1F25CAA
:1007D000F91A0133A34240F82210F8D107993046A4
:1007E000039A711800F044FA00287FD1DDF80CC09C
:1007F0002A468246671E0CF1FF3CCDF808C0B4447F
:10080000CDF814C0DDF80CC005460194CCF1010C04
:10081000CDF810C009E02DB1079A93423CBF019971
:10082000C2EB01039A4400252246019B08EB02001B
:1008300000210AEB0304A21A00F0CAF900284FD1E4
:10084000002C4DD008EB040308A913F8013C51F823
:100850002330002BDFD1039A954228BF2A46BA42A3
:1008600011D208EB0A0316F802C0B118985C84454F
:1008700006D02FE011F8010F13F802C0844529D1EA
:100880000132BA42F6D3039B02989D4228BF184614
:1008900018D2DDF808C008EB0A0316F80C1013F89C
:1008A0000C20914240F08680059A06EB050B06E08D
:1008B00013F801C012F8019DE14503D10846411E1D
:1008C0005A45F5D10135854276D8079D019BAA444A
:1008D0005D1BA9E7DDF810C00025E2449244A3E7C0
:1008E000002009B00DF5806DBDE8F08FDDF80CC07B
:1008F0002A46DDF80CA04FF0000BCCEB04030DF101
:100900002009634538BF6346671E013325460793B8
:100910000CF1FF330193B444039BCDF808C0C3F13D
:10092000010304930BEB050408EB02000021A21A5B
:1009300000F04EF90028D3D1002CD1D008EB0403ED
:1009400013F8013C59F8233063BBBA4508EB0B00A0
:1009500015D2DDF808C010F80A309CF800209A4241
:1009600018BF534621D1029A534605E012F8011FE1
:1009700010F803C08C4518D10133BB42F6D3019B5C
:100980005A1CAED0DDF804C016F80C1010F80C207C
:10099000914206D113F1FF33A3D3F15CC25C9142C3
:1009A000F8D0079B9B442246BCE7DDF810C0E34427
:1009B0009B44F8E7039885E708EB0A0091E700BF3E
:1009C0002DE9F04F8046037887B00E46002B00F0EB
:1009D000F7800A789AB184460131012702E011F8C4
:1009E000012B5AB1934214BF002707F001071CF8EE
:1009F000013F0D46002BF2D12B7803BB1FB14046BF
:100A000007B0BDE8F08F08F101003178FFF7C8FCAE
:100A1000AD1B012D18BF0028074608BF8046EED049
:100A2000A844404594BFC0EB080401241F2D09D9F8
:100A3000214632462B46FFF7B1FE8046DFE74FF0F6
:100A40000008DCE7294605AA3046FFF749FE05996C
:100A5000711801903046019A00F00AF9002852D12D
:100A6000019B83468046013B0093F3180393019B4F
:100A7000C3F101030293224608EB0504B8180021D4
:100A8000A21A00F0A5F80028D9D1002CD7D0019BDC
:100A90009B4528BF5B469D4213D9F918F05CF218BC
:100AA00011F80810884240F0858007EB080C05E03B
:100AB00012F8011F1CF8030088427BD101339D42CC
:100AC000F6D89DE80A005B457DD907EB0809725C02
:100AD00019F801309A4276D1039B06EB0B0A06E027
:100AE00019F8020013F801CD844503D111464A1EBE
:100AF0005345F5D10BF1010B8B4566D8059B984406
:100B0000C3EB050BB7E701984FF0000B22462B1AF9
:100B100006EB000900F1FF388246834238BF0346E6
:100B20003918013300910593C0F1010302930BEBD7
:100B30000504B8180021A21A00F04AF800287FF432
:100B40007EAF002C3FF47BAF554598BF07EB0B0001
:100B500014D9009899F8002010F80B309A4224D14B
:100B60004A46534607EB0B0005E012F8011F10F848
:100B700003C08C451AD101339D42F6D8B8F1FF3F2E
:100B800043463FF45AAF16F8081010F80820914277
:100B900007D113F1FF33FFF450AFF15CC25C914217
:100BA000F7D0059B9B442246C1E75346029A9344E3
:100BB0009B44F8E702994FF0000B884498445AE7A9
:100BC0000D46012718E7019994E7B84417E700BFDD
:100BD0008307C9B270B440D0541E002A3FD00378B6
:100BE0008B4221D0431C04E004B30278013C8A42CA
:100BF0001AD013F0030F184603F10103F4D1032CAC
:100C000016D8651E94B103788B420DD0421C002388
:100C100002E004788C4207D09D42104603F10103A4
:100C200002F10102F5D1002070BC70472046FBE7BD
:100C300041EA012646EA064602460430136873403C
:100C4000A3F1013525EA030313F0803F03D1043CEF
:100C5000032CF1D8D5E71046D3E71446CFE710466A
:100C6000E2E700BF000000000000000000000000FC
:100C7000032A70B422D941EA00039B0713D00578F8
:100C8000013A0C780023A54206D01BE010F8015F62
:100C900011F8014FA54215D1934203F10103F5D19B
:100CA000002070BC70470C460346043104301E68B7
:100CB0002568AE4208D1043A032AF4D8002ADED1CE
:100CC0001046EEE7281BECE721461846002AD6D14D
:100CD000F6E700BF00000000000000000000000078
:100CE000704700BFAFF30080AFF30080AFF3008028
:100CF000FEE700BFAFF30080AFF30080AFF30080EA
:100D000072B6374880F30988022383F31488BFF34F
:100D10006F8F344A344B9A420BD2D143C91821F019
:100D20000301131F89184FF0553243F8042F8B42EB
:100D3000FBD12E4A82420CD22D49131DC91A21F033
:100D40000301131F89184FF0553243F8042F8B42CB
:100D5000FBD102F075F82749274B99420BD2C843C3
:100D6000C01820F00300254C043000231A595A50B3
:100D700004338342FAD1224A224B9A420AD2D14307
:100D8000C91821F00301131F8918002243F8042F0A
:100D90008B42FBD1FFF7A4FF1B4D1C4B9D420BD296
:100DA000EE43F618B608043D0136002455F8043F1A
:100DB00001349847B442F9D1FFF7BAF9144D154BF5
:100DC0009D420BD2EE43F618B608043D01360024CE
:100DD00055F8043F01349847B442F9D1FFF788FF32
:100DE0000008002000000020000400200004002073
:100DF00003080020000800202408002010470008F5
:100E00002808002090180020300100083001000858
:100E10003001000830010008AFF30080AFF300801C
:100E2000FEE700BFAFF30080AFF30080AFF30080B8
:100E300072B6FEE7AFF30080AFF30080AFF300803F
:100E400000F076F900F0C4FB00F08AF900DF00BF83
:100E5000EFF30983203383F30988002383F3118898
:100E6000704700BFAFF30080AFF30080AFF30080A6
:100E700008B500224FF46D43CEF20003C0F2FA52DF
:100E80000021996007201021DA6000F0A9F80A20FB
:100E90004FF4007100F0A4F80B208021BDE8084059
:100EA00000F09EB8AFF30080AFF30080AFF3008096
:100EB000202383F311884FF46D43CEF200035B6867
:100EC00013F4006319D0EFF30983A3F1200282F336
:100ED0000988124A4FF08070916943F8040C79B187
:100EE0001168D26989689268914294BF00220122F8
:100EF00082B10B4A43F8082C704783F3118870477E
:100F00001168D26989689268914234BF0022012237
:100F1000002AEED1034A43F8082C70475C0D0020EC
:100F2000410E00084C0E0008AFF30080AFF30080C4
:100F300008B500F06DF9202383F3118800F030F933
:100F400000F0B6F800F044F9002383F3118800F0B4
:100F50007FF9BDE80840FFF7ABBF00BFAFF30080EB
:100F60002DE9F04FC1F80CD0D0F80CD0BDE8F08FCF
:100F700008B500F0F5F8002383F311882846A04750
:100F800000F046FC08BD00BFAFF30080AFF3008067
:100F900000F0030370B4DB00FF2505FA03F501FA46
:100FA00003F1012200F01F0302FA03F284084FF458
:100FB0006143CEF20003C03453F82460400926EAAE
:100FC00005050D4300F1600643F8245043F8262040
:100FD00043F8202070BC7047AFF30080AFF300806F
:100FE00000F00303DB00FF2202FA03F201FA03F12F
:100FF00080084FF46D43CEF20003063010B453F86E
:10100000204024EA02020A4343F8202010BC704723
:10101000024B034ADB699A61FEE700BF5C0D0020CA
:10102000403F0008AFF30080AFF30080AFF30080D3
:1010300030B583B0FFF71CFF00F0FAF900F090F92B
:1010400000F0D6FD00F01CFE00F052F940F628003A
:101050004021C2F2000000F0E3FA40F65C5440F296
:101060000043C2F20003C2F200040125E06180F8EF
:101070002050C36100F044F8002383F3118862B666
:1010800044F2C001E269C0F60001916140F67800C7
:10109000009341F21103C0212A46C0F60003C2F2B8
:1010A000000000F03DFB03B030BD00BFAFF3008097
:1010B00038B500F0EDF8104B9A69002A01DD013ACD
:1010C0009A61DA690D4C516A236801315162E26814
:1010D0000132A342E2600ED09D68013D9D6055B98A
:1010E0001A68D9681869DD605460226088472368EF
:1010F0009A68002AF4D038BD5C0D00204C0D002009
:10110000054B1B6813B9054B1B6823B1044A054BFB
:101110001A60FFF78DBE704738090020440D00208B
:10112000603F0008480D0020AFF30080AFF300805F
:10113000074B10B51B68074C0BB9236823B1064A4F
:10114000064B1A60FFF774FE0123236010BD00BF39
:1011500038090020440D0020683F0008480D002099
:10116000084B10B51B68084C2BB92368002B02DD17
:101170000023236010BD054A054B1A60FFF758FE97
:10118000F6E700BF38090020440D0020703F00083A
:10119000480D0020AFF30080AFF30080AFF3008074
:1011A000074B10B51B68074C002B01DD236823B1EA
:1011B000054A064B1A60FFF73BFE0123236010BD72
:1011C00038090020440D0020783F0008480D002019
:1011D000084B10B51B68084C002B05DD2368002B5D
:1011E00002DD0023236010BD044A054B1A60FFF79F
:1011F0001FFEF6E738090020440D0020803F00085C
:10120000480D0020AFF30080AFF30080AFF3008003
:1012100010B5202383F31188094C2368002B02DBCF
:10122000084A12682AB1084B084A1A60FFF700FE04
:10123000236801332360002383F3118810BD00BFAE
:1012400038090020440D0020480D0020883F000888
:1012500010B5202383F31188094C2368002B02DD8D
:10126000084A12682AB1084B084A1A60FFF7E0FDE5
:101270002368013B2360002383F3118810BD00BF66
:1012800038090020440D0020480D0020903F000840
:10129000064B1B68002B04DB054B1B68002B00DD95
:1012A0007047044A044B1A60FFF7C2BD380900209A
:1012B000440D0020983F0008480D0020AFF3008047
:1012C000064B1B6823B9064B1B68002B00DD7047DB
:1012D000044A054B1A60FFF7ABBD00BF3809002078
:1012E000440D0020A03F0008480D0020AFF300800F
:1012F00040F63C13C2F200031A46402142F8081B94
:101300005A607047AFF30080AFF30080AFF3008006
:101310000C4910B40C4ACC680C495368C9691C606C
:101320005960846A03F110019C6090F8204002F536
:10133000816081421C732ABF02F10803516053602F
:1013400010BC70474C0D00203C0900205C0D0020B3
:1013500040F64853C2F200031860FFF769BD00BFB2
:1013600040F64C53C2F200034FF0FF329A60002265
:101370005B601B60DA607047AFF30080AFF3008002
:10138000F8B5054616460C461F46FFF781FF002DAF
:1013900018BF002E1AD0CCB10E492F610B68EE6039
:1013A0009A68944204D91B68A41A9A68A242FAD394
:1013B0005A68AC608B426A602B60156018BF9A68EF
:1013C0005D601CBFC4EB02049C60F8BD0248FFF7DF
:1013D000BFFFE1E74C0D0020B03F0008AFF30080F5
:1013E00010B50446FFF754FF84B1E36893B1236856
:1013F0000A4A93421FBF9968A2688A189A60626875
:10140000002113602368E1605A6010BD0448FFF7B3
:101410009FFFEAE70348FFF79BFFE8E74C0D00203A
:10142000C03F0008D03F0008AFF30080AFF300805A
:1014300040F65C53C2F2000300229A6014225B6003
:101440001B609A615B611B61704700BFAFF3008056
:1014500010B590F820300446002B18BF0E2B0FD08B
:101460000022A168084B84F820201B689A688A42F1
:10147000FBD25A682360626014605C60204610BD35
:101480000248FFF765FFEBE75C0D0020F03F000826
:1014900090F820300D2B11D8DFE803F0151010075D
:1014A000100B101010101010100B836A9A68013284
:1014B0009A6090E80C001A60026853604FF0FF33A6
:1014C0008362FFF7C5BF7047AFF30080AFF30080C2
:1014D00070B5114C0646FFF7F3FE2368E5691A68FC
:1014E0001421A1610121546085F82060284683F809
:1014F00020102260E361FFF70BFFEB69ADF12402DE
:10150000934202D90548FFF723FFE0692946BDE869
:101510007040FFF725BD00BF5C0D002004400008AF
:1015200070B50C4686B00646FFF7CAFE631C12D0A3
:101530000B4D2146EB690B4A01A8FFF721FF30460E
:10154000FFF7C6FF049B13B101A8FFF749FFEB6942
:10155000986A06B070BD3046FFF7BAFF004DF6E757
:101560005C0D002091140008AFF30080AFF3008001
:1015700070B5154D04460E46FFF7A2FEE869A26855
:101580008368A6629A4215D9FFF762FF01230646D7
:1015900084F820301423AB61EC61FFF7B9FEF369E6
:1015A000ADF1240293420AD820463146BDE870408E
:1015B000FFF7D6BC2046BDE87040FFF749BF03489F
:1015C000FFF7C6FEF0E700BF5C0D002004400008F6
:1015D00038B5104C14212368E5691A68A16101210E
:1015E000546083F8201028462260E361FFF730FF43
:1015F0002846FFF78DFEEB69ADF12402934202D934
:101600000548FFF7A5FEE0692946BDE83840FFF729
:10161000A7BC00BF5C0D002004400008AFF30080B1
:101620002DE9F00140F65C54C2F200046569002225
:1016300000F13006816000F12C0C00F14C074FF0F6
:101640000208416401210461456180F820806061E5
:1016500080F821200264C263426280F82210826115
:101660002861C0F82CC046630663C761BDE8F0017D
:10167000704700BFAFF30080AFF30080AFF300808E
:101680002DE9F04704460D4690469946FFF700FEC7
:10169000002C18BFAF2D0AD9B8F17F0F94BF0023DB
:1016A0000123B9F1000F08BF43F0010313B119483A
:1016B000FFF74EFE184EA5F12403E7187169E760A5
:1016C00044F80390089B00257B60144B04F1300222
:1016D0003B62022304F12C0A04F14C0C84F8203004
:1016E00001232661C4F8088061612046746184F892
:1016F0002150C4F844802564E563656284F8223093
:10170000A5610C61C4F82CA062632263C4F81CC0FC
:10171000BDE8F087204000085C0D0020710F000834
:101720002DE9F04F804683B0894692469B4600F1F2
:101730004C0700F1010400F14D06FF2504F8015C9F
:101740000134B442FAD108EB0904A74204D255256A
:1017500007F8015BA742FBD1202383F31188FFF731
:10176000E7FC0C985B465246494600904046FFF71E
:1017700087FF00210446FFF7FBFEFFF7F1FC002383
:1017800083F31188204603B0BDE8F08FAFF30080EB
:1017900010B5044610B90948FFF7DAFD202383F39A
:1017A0001188FFF7C5FC21460620FFF7B9FEFFF7B9
:1017B000D7FC002383F3118810BD00BF60400008F0
:1017C00038B5104BDC69254655F82C3FA062AB427A
:1017D00007D01A681846E262FFF73AFEE36AAB42A6
:1017E000F7D194F821309B0704D1636922691A610B
:1017F000226953610E20FFF76BFE0348BDE83840B5
:10180000FFF7A6BD5C0D002070400008AFF300801C
:1018100010B52023044683F31188FFF789FC204686
:10182000BDE81040FFF7CCBFAFF30080AFF30080FE
:1018300010B5044620B1002364602460A36010BD8D
:101840000148FFF785FDF6E7E0400008AFF30080B0
:1018500038B504460D46FFF71BFDC4B1E26B94F8A2
:10186000203045EA0201082BE1630CD0092B00D09F
:1018700038BDA36A19408B42FAD12046FFF7E8FD34
:101880000023836238BDA36A1942F6D138BD0248ED
:10189000FFF75EFDE2E700BFBC410008AFF3008048
:1018A00070B505460E46FFF7F3FC5DB12C68A54206
:1018B00007D0A16860683143FFF7CAFF2468A542DA
:1018C000F7D170BD0148FFF743FDEFE7E0410008A5
:1018D00010B4024659B1084B0D20DB699A62546876
:1018E00083E814005360236010BCFFF719BE4FF06B
:1018F000FF3010BC704700BF5C0D0020AFF30080CC
:1019000010B48A18002440600060846041618161E5
:10191000C1600261C36110BC704700BFAFF30080BB
:1019200038B504460D46FFF7B3FCA26963699342DC
:10193000A26818D00132A26003F8015B22696361DA
:10194000934228BFE368206828BF6361A04208D0A3
:10195000036823605C60FFF77BFD00238362184609
:1019600038BD002038BD002AE4D06FF0030038BD38
:10197000F8B504460E46202383F31188FFF7D8FB01
:10198000E3690BB120469847A5682046314655B912
:10199000FFF79EFF071EF7DAFFF7E2FB2B4683F304
:1019A00011883846F8BDA369013DA56013F8017B95
:1019B0002269A361934224BFE368A361FFF7D0FBD0
:1019C000002383F311883846F8BD00BFAFF30080D1
:1019D0002DE9F0470446154688461E46C769002A89
:1019E0003AD0202383F31188FFF7A2FB08F1010A04
:1019F0004FF00009A8440FB12046B847A56820461B
:101A000031465DB9FFF764FF0028F7D0FFF7A8FB68
:101A10002B4683F311884846BDE8F087A369013D52
:101A2000A56013F8012B0AF8012C2269A3619342E7
:101A300024BFE368A361FFF793FB002383F31188BE
:101A4000C24509F10109E6D0202383F31188FFF78D
:101A50006FFB0AF1010ACEE70148FFF779FCC0E706
:101A600020420008AFF30080AFF30080AFF30080A6
:101A700010B48C1840600060826041618161C16077
:101A80000461C36110BC7047AFF30080AFF3008006
:101A90002DE9F041202304468846164683F3118839
:101AA000FFF746FBA568204631465DB9FFF710FFFA
:101AB000071EF7DAFFF754FB2B4683F311883846ED
:101AC000BDE8F0816369013DA56003F8018B2269DF
:101AD0006361934224BFE3686361E3690BB120460D
:101AE0009847FFF73DFB002383F311881F463846D4
:101AF000BDE8F081AFF30080AFF30080AFF300806A
:101B000038B50446FFF7C4FB6269A3699A42A2682C
:101B100016D00132A26013F8015B2269A3619342DF
:101B200028BFE368206828BFA361A04206D00368ED
:101B300023605C60FFF78CFC00238362284638BD7D
:101B4000002AE6D06FF0020038BD00BFAFF300807E
:101B50002DE9F0470446164688469A46D0F81C9070
:101B6000002A39D0202383F31188FFF7E1FA0027F8
:101B7000A56820466B1E0DB3A36018F8013B65698C
:101B800005F8013B236965619D4224BFE3686361F9
:101B9000B9F1000F00D0C847FFF7E2FA002383F342
:101BA00011880137013E14D0202383F31188FFF7F9
:101BB000BFFAA56820466B1E002DDDD12046514698
:101BC000FFF786FE0028D3D0FFF7CAFA2B4683F32F
:101BD00011883846BDE8F0870148FFF7B9FBC1E737
:101BE00034420008AFF30080AFF30080AFF3008011
:101BF00040F20001084840F6805240F67C53C2F2A1
:101C00000101C2F2000220F00700C2F2000321F03D
:101C1000070110601960704797180020AFF300802B
:101C200010B50446FFF734FB074A084913680968F2
:101C3000E01D20F00700C91A88429ABF18181060EA
:101C40000023184610BD00BF800D00207C0D002031
:101C500010B52023044683F31188FFF769FA204664
:101C6000FFF7DEFF0446FFF77BFA002383F31188BA
:101C7000204610BDAFF30080AFF30080AFF30080CB
:101C800040F68853C2F2000341F651410022C0F6EB
:101C9000000103F1100019609A60DA60FFF7C8BD17
:101CA00008B500F075FB00F043FB44F28030C0F64D
:101CB000000000F03DFD00F063F800F001F900F0D5
:101CC0005FFBBDE8084001F0C3B800BFAFF3008080
:101CD000806BD0F1010038BF00207047AFF3008067
:101CE0008069D0F1010038BF00207047AFF3008059
:101CF00070B52023054683F311880024FFF718FAF6
:101D0000AE68AC60FFF72CFA234683F311883046A7
:101D100070BD00BFAFF30080AFF30080AFF3008071
:101D20001030FFF755BE00BFAFF30080AFF3008067
:101D300010304FF0FF33FFF74BBE00BFAFF3008012
:101D40003030FFF705BF00BFAFF30080AFF3008076
:101D500030304FF0FF33FFF7FBBE00BFAFF3008022
:101D60001030FFF705BE00BFAFF30080AFF3008077
:101D70003030FFF78DBE00BFAFF30080AFF30080BF
:101D800000F07EBCAFF30080AFF30080AFF30080C3
:101D90000B4644F2B02170B5C0F60001054604467A
:101DA00045F8041B65600025A5600125164604F171
:101DB0005001102200F110002573FFF7A1FD04F17E
:101DC000300004F1600110223346BDE87040FFF797
:101DD0004FBE00BFAFF30080AFF30080AFF30080D1
:101DE00038B504460D46B8B1202383F31188FFF7B8
:101DF0009FF9237B013B012B02D90948FFF7A8FA81
:101E00002046294600F054FC02232373FFF7A8F96B
:101E1000002383F3118838BD0248FFF799FAE3E7FE
:101E20005C42000850420008AFF30080AFF300802E
:101E300038B504460D46FFF72BFA002C21D0A169D6
:101E400039B104F110002946FFF76AFD00280EDBC6
:101E500038BDA268201D42F00402A260FFF720FDF9
:101E600004F110002946FFF75BFD0028F0DAA368B3
:101E7000201D43F080030021A360BDE83840FFF738
:101E80000FBD0248FFF764FAD9E700BF8842000897
:101E900010B590F84230044680F84A3000F0B8FCA3
:101EA00063681B6813B12046012198470323237000
:101EB00010BD00BFAFF30080AFF30080AFF3008030
:101EC00000F09EBCAFF30080AFF30080AFF3008062
:101ED000002301220270436083608381C3817047C5
:101EE00010B40022034602240470A0F8482083F8AE
:101EF0004A2080F84B208281C28102614261826166
:101F0000C261026242628262C26283F8302010BC07
:101F100000F00EBDAFF30080AFF30080AFF30080A0
:101F2000F8B50023044680F8303000F1400200F09C
:101F30003FFD63689B68002B1ED020469847D8B1B0
:101F4000A56B94F84030B4F84620AA423CBFA26387
:101F500015461B0677D4002D66D1042384F8303053
:101F6000204629462A462B4600F0EAFE204629460E
:101F7000BDE8F84000F004BF94F8403013F060076B
:101F800011D00021204600F01BFF2046002100F068
:101F900007FF63681B6813B1204605219847052396
:101FA00084F83030F8BD94F8416003F07F0242EAD3
:101FB0000626B6F5407F00F0A68016DDB6F5C06FA8
:101FC00000F0CB805EDDB6F5106F00F0B38040F618
:101FD0000242964269D0B6F5006FD2D1012504F1D4
:101FE0004B026263A563E763ADE7022E74D057DD51
:101FF000B6F5807F60D0B6F5817FC2D194F84220DB
:10200000002ABED194F8442012F00F0107D0150623
:10201000204600F1D98000F0E3FE94F8403000251E
:102020006563A563E5638EE70323002184F8303000
:102030002046626B2B4600F06BFE20460021BDE877
:10204000F84000F08DBE75B10123002184F83030D6
:102050002046626B2B4600F073FE20460021BDE84F
:10206000F84000F08DBE022384F830302046294627
:102070002A462B4600F04CFE20462946BDE8F84093
:1020800000F06EBE40F2023296427BD0B6F5A06FF1
:102090007FF477AF514A6763A763E2633D4652E737
:1020A000002E40D0012E7FF46CAF4D4A02256263B2
:1020B0000022A563E26346E794F84220012A7FF4F8
:1020C00060AFB4F84820676322F00202A4F8482009
:1020D000A763E7633D4636E794F84410204611F0C5
:1020E000800F01F00F0163D100F042FC012863D0A2
:1020F00002287FF446AF3B4BA0636363E76394F829
:10210000403005461FE794F84220012A7FF439AF9A
:10211000B4F84820676342F00202A4F84820A7639D
:10212000E7633D460FE7022504F148026263A563B9
:10213000E66308E794F8422084F84B20002A34D163
:102140000322227062681268002A3FF468AF2046BA
:102150000221904794F8403061E7636820465D684B
:1021600094F8431094F84220B4F84430A84700286B
:102170003FF407AF436805686363A563E76394F8BA
:102180004030E0E694F84220002A7FF4FAAE94F85A
:10219000442012F00F013FF442AF1206204618D43B
:1021A00000F0FEFD94F8403039E704222270C9E7C0
:1021B00000F0EEFB01289BD10B4BA6636363E76342
:1021C00094F840303546BEE600F022FE94F84030E8
:1021D00025E700F0F5FD94F8403020E7911E000857
:1021E000E0420008F042000800430008AFF300801E
:1021F00038B590F830300446012B19D0042B10D09C
:10220000002100F0DDFD2046002100F0C9FD6368DB
:102210001B6813B1204605219847052384F8303008
:1022200038BDC36B03B19847002384F8303038BD04
:10223000856BB0F84630AB4206D903691B8AB5FB03
:10224000F3F203FB125575B1002102200A460B463A
:1022500084F83000204600F05BFD20460021BDE8F8
:10226000384000F07DBD29462A462B4600F068FD27
:1022700020462946BDE8384000F082BDAFF300801B
:1022800038B590F830300446022B21D0032B11D002
:102290000021204600F094FD2046002100F080FD42
:1022A00063681B6813B1204605219847052384F80D
:1022B000303038BD002104250A460B4680F83050E6
:1022C00000F03EFD20460021BDE8384000F058BD3A
:1022D00003699B69DB68002BDAD1C36B03B19847B4
:1022E000002384F8303038BDAFF30080AFF30080B6
:1022F0004FF48053CEF200035B688360704700BFE9
:102300004FF48053CEF20003084982685B68096885
:102310009B1AC2685B1A9342836004D80269934295
:1023200038BF03617047C360704700BFA80D00202D
:1023300010B540F6A85486B00022C2F20004226014
:1023400004924FF0FF3205924FF4805342F2F12293
:10235000C0F60002CEF200035B68019242F2013245
:10236000C0F6000201A803930292FFF7C9FF039B86
:10237000236006B010BD00BFAFF30080AFF3008054
:10238000704700BFAFF30080AFF30080AFF3008071
:102390004FF4805370B4C4F2020300214FF0FF35B4
:1023A0004EF2100241F63F141869CEF200021D6190
:1023B000C0F201041961DE684EF6F050DD60D960AC
:1023C0005460916007211160CEF20000C2684FF4A2
:1023D000805142F08072C260CEF2000108684FF472
:1023E000E04240F001000860D969C4F2000241F007
:1023F0008051D961D96941F00061D961136843F412
:102400008073136070BC7047AFF30080AFF300803F
:102410004FF48053C4F202031A68194642F00102D5
:102420001A600A684FF480539207C4F20203F8D589
:102430001A68194602F0F9021A6000225A604A68C6
:102440004FF4805312F00C0FC4F20203F7D11A6854
:10245000194642F480321A600A684FF480539003A0
:10246000C4F20203F8D55A68194642F4E8125A60D9
:102470001A6842F080721A600A684FF48053920121
:10248000C4F20203F8D54FF4C841C0F21D014FF465
:1024900000525960C4F202021221116059681A46B2
:1024A00041F002015960536803F00C03082BFAD184
:1024B000704700BFAFF30080AFF30080AFF3008040
:1024C0004FF48843C4F200039A8992B242F080022A
:1024D0009A817047AFF30080AFF30080AFF30080C4
:1024E0002DE9F843624EFEF793FE356FAF892C88D5
:1024F000B5F80480A4B22207BFB21FFA88F861D1F0
:1025000004F480739BB2002B43D104F020039BB2F0
:10251000002B2ED107F080039BB223B104F080037F
:102520009BB2002B7CD104F04004A4B2DCB1202388
:1025300083F31188FEF734FEB3684E4843F010036E
:102540000021B360FFF7ACF9FEF742FE002383F3EE
:1025500011884FF6BF733B40AB812B8823F04003BB
:102560001B041B0C2B80FEF773FEBDE8F843FEF73F
:102570009FBC202383F31188FEF712FE3C485FFACC
:1025800088F1FFF755FCFEF723FE002383F3118843
:10259000C0E7202383F31188FEF702FEB3683548B5
:1025A00043F400730021B360FFF77AF9FEF710FEE1
:1025B000002383F311882B8823F480731B041B0CE6
:1025C0002B80A2E704F008091FFA89F9B9F1000F7E
:1025D00014BF4FF080094FF00009E30704F0020335
:1025E0009BB248BF49F020090BB149F0400904F003
:1025F00004039BB20BB149F48079202383F3118843
:10260000FEF7CEFDB3681B4849EA03030021B3601F
:10261000FFF746F9FEF7DCFD002383F311886FE72F
:10262000202383F31188DFF84880FEF7B9FD08F115
:102630003000FFF765FA0028A4BF80B2A88005DB50
:10264000FEF7C6FD002383F311886CE7D8F8083045
:1026500008F1040043F008030021C8F80830FFF730
:102660001FF927F0C00343F04003AB81E8E700BF48
:10267000AC0D0020B00D0020AFF30080AFF3008060
:1026800010B540F6AC54C2F2000442F2C1422046FA
:102690000021C0F60002FFF77BFB4FF48843C4F231
:1026A0000003236710BD00BFAFF30080AFF30080CD
:1026B00038B5037B1B4C0546002918BF0C46012B7F
:1026C0001FD021684FF4A242C0F225222B6FB2FB2B
:1026D000F1F292B21A81A288E088218942F4045270
:1026E00040F0400041F0010142F02C0292B280B271
:1026F00089B2188299829A8100221A801A889B884E
:1027000038BD094B9842DCD14FF48053C4F2020328
:10271000DA69262042F40032DA61C021FEF738FC83
:10272000CFE700BF10430008AC0D0020AFF30080DE
:102730004FF48053C4F202039A6930B442F4FE723B
:1027400042F001029A6102684FF40063C4F201038F
:10275000DA6081684FF4406259604168C4F2010256
:102760001960C1684FF48053D1604169C4F201031C
:10277000516001694FF4A05411608269C4F20104F0
:10278000DA60026A4FF4C0515A60C269C4F20101B2
:102790001A60436A4FF4E052E360C36AC4F2010274
:1027A0006360856A4FF400532560046BC4F2010333
:1027B000CC60846B4C60446B0C60C16BD160416C2D
:1027C0005160016C1160826CDA60026D5A60C26CFB
:1027D0001A6030BC704700BFAFF30080AFF30080D9
:1027E00008B5FEF715FDFEF733FDBDE80840FEF71E
:1027F0005FBB00BFAFF30080AFF30080AFF300809A
:1028000040F62060C2F20000FFF762BBAFF3008029
:1028100090F84A204FF4B84342F08002C4F200031B
:10282000DA647047AFF30080AFF30080AFF300804D
:102830000B1D2DE9F04150F8235006462A6802F09E
:102840000303013B022B96BF35484FF4007330F869
:102850001330A86808B143F02003E86820B1D2061D
:1028600058BF43F4005348D443EA010020F4F04039
:102870004FF4B842C4F2000220F0700042F8210088
:1028800052F8214047F6700018406B8A604042F8C9
:102890002100581E3E2B39D840F00100013000EBDA
:1028A000D070400200F47C404FF4B842C4F2000201
:1028B000176DF46C2A8A07F1005707F5405707EBAC
:1028C000C101A04614194F000022B4F5007FBA8060
:1028D000B881F46404D91348FEF73AFD6B8AF46CAE
:1028E0001B19B3F5007FC7F80080F36402D90D48C7
:1028F000FEF72EFDBC60BDE8F081012202FA01F274
:10290000F08943F440530243F281ADE740F01F00E9
:10291000013040116FEAC0606FEA504080B2C3E7F7
:102920004043000850430008AFF30080AFF300803D
:10293000416830B44FF4B843CD680024C4F20003BA
:102940001C65A54214BF4FF41E454FF41C455C6442
:1029500021468024DC641D644023C364024B036170
:1029600030BCFFF765BF00BF60430008AFF30080D5
:102970004FF4B843C4F2000353F8210010F4405060
:1029800004D0B0F5805F0CBF01200220704700BF6B
:102990004FF4B843C4F2000353F8213003F030037E
:1029A000102B9ABF014AD05C0220704720430008D8
:1029B0004FF4B843C4F200031B6D023203F100531D
:1029C00003F5405303EBC1014B00986800F1005040
:1029D00000F540504000031F0C3053F8041F22F84C
:1029E000021C02328342F8D1704700BFAFF300806F
:1029F0004FF4B840C4F20000006D10B400F1005074
:102A000000F5405000EBC10149008C68888904F151
:102A100000518005800D834228BF034601F54051D7
:102A2000013349005B0808D00232043951F8044FE1
:102A300022F8024C0232013BF8D110BC704700BFB3
:102A40004FF4B840C4F20000006D10B400F1005023
:102A500000F5405000EBC101480001689CB201F153
:102A6000005101F54051013349005B08848007D0D3
:102A7000023232F8020C0232013B41F8040BF8D169
:102A800010BC7047AFF30080AFF30080AFF300805D
:102A90002DE9F84FFEF7BCFB4FF4B843C4F2000336
:102AA0005C6C620500F11781230517D5DFF850A291
:102AB0004FF4B843C4F20003DAF80420196C12682A
:102AC00041F00801196412B15046032190474FF4B8
:102AD000B843C4F200036FF400625A64E0040ED5F8
:102AE0004FF4B843C4F200039A6C110440F1E38040
:102AF0004FF4B843C4F200036FF480525A64A20545
:102B00000ED5DFF8FCA1DAF80430DB680BB15046D3
:102B100098474FF4B843C4F200036FF400725A644C
:102B2000230440F19F80DFF8D8A14FF4B845C4F2E8
:102B30000005D0464FF0010911E009FA04F1BAF896
:102B40000E205AF82B3022EA0102AAF80E20DB6888
:102B50006B48214698476C6C210440F1838004F057
:102B60000F0455F8246004F1040B30065AF82B705A
:102B700036D555F8243023F4F14323F0700345F89B
:102B800024303B68D90673D42B6D796903F1005367
:102B900003F5405303EBC4035B00B3F804E00A6899
:102BA00088684B681FFA8EFE72447044CEEB0303B4
:102BB0000A6088604B60002B5AD0B7F810E050488C
:102BC000734528BF73462146FFF73AFF55F8243076
:102BD00023F4F04323F0400383F0300345F824301E
:102BE0003204B8D555F8243023F4784323F0700329
:102BF00045F82430330548D43B68D8069DD4BB69DA
:102C0000E6B25A6831469B683D48FFF7F1FEBB6962
:102C100055F82420B3F800C022F4904EDA685F68BB
:102C200011189A683F182EF0700E101A0CF1FF3C24
:102C300098608EF4405E1FFA8CF045F824E05F60E7
:102C4000D9601880002827D055F8243023F4904309
:102C500023F0700383F4405345F824306C6C210456
:102C60003FF57DAFFEF7F4FABDE8F84FFEF720B967
:102C700009FA04F1B8F80C20BB6822EA0102A8F8AE
:102C80000C201F4821469847AAE75AF82B301C48C9
:102C90005B68214698475EE709FA04F4B8F80E200D
:102CA00058F82B3022EA0404A8F80E40DB681448D8
:102CB000314698474FE7DFF848A0196CDAF804204E
:102CC00021F0080112681964002A3FF411AF504640
:102CD000042190470CE7DFF828A05046FFF700F9E1
:102CE000DAF804301B6813B15046002198474FF4BE
:102CF000B843C4F200036FF480625A64D4E600BFA4
:102D0000200E0020AFF30080AFF30080AFF300800F
:102D1000043150F8210081694A6000228B60CA604A
:102D200033B1428A501EC318B3FBF2F20A807047D7
:102D300001230B80704700BFAFF30080AFF300802A
:102D400070B40C1D50F8245000266C692D8A84E85C
:102D50000C00AB4228BF2B46A66070BCFFF770BECC
:102D60004FF4B843C4F2000353F8212022F49042F8
:102D700022F0700282F4405243F82120704700BFD5
:102D80004FF4B843C4F2000353F8212022F4F04278
:102D900022F0400282F0300243F82120704700BF49
:102DA0004FF4B843C4F2000353F8212022F49042B8
:102DB00022F0700282F4805243F82120704700BF55
:102DC0004FF4B843C4F2000353F8212022F4F04238
:102DD00022F0400282F0100243F82120704700BF29
:102DE0004FF4B843C4F2000353F8212002F44052D8
:102DF000B2F5405F1FBF53F8212022F4F04222F0C9
:102E0000400282F4005218BF43F82120704700BFEF
:102E10004FF4B843C4F2000353F8212002F030020B
:102E2000302A1FBF53F8212022F4F04222F0400242
:102E300082F0200218BF43F821207047AFF30080D2
:102E4000FFF7E6BAAFF30080AFF30080AFF3008086
:102E5000704700BFAFF30080AFF30080AFF3008096
:102E600070B400F10B0600F10A04B1FBF2F502FBAD
:102E7000151101F13003392BC8BF01F13703DBB263
:102E80002946254604F801390029EED1711B2A464E
:102E9000411801E012F8013F00F8013B8842F9D1E6
:102EA00070BC7047AFF30080AFF30080AFF30080D9
:102EB0000EB42DE9F04F86B00FAB53F8044B0DF173
:102EC0000D0C0DF10C090293C9EB0C03CDF800C0F9
:102ED00005460193264616F8011B69B1252910D035
:102EE0002B68344628461B694FF0FF322646984728
:102EF00016F8011B0029F1D106B0BDE8F04F03B070
:102F0000704763782D2B18BF4FF0000800F0188130
:102F100020272E2B00F0108134460299002606E06F
:102F20000A78043106EB8606237802EB4606A3F105
:102F30003002D2B20134092AF4D92A2BF0D0002071
:102F40002E2B029149D003F0DF024C2A55D1227872
:102F5000012112B1013413460121A3F14402342AA4
:102F600000F2E280DFE812F0D000E000E000E000D4
:102F7000E000E000E000E000E000E000E000E6004B
:102F8000E000E000E000E000E000C800E000E00059
:102F9000BB00E000E000E000E000E000E000E00056
:102FA000E000E000E0009900D000E000E000E00078
:102FB000E000E000E000E000E000E000E000E6000B
:102FC000E000E000E0005000E000C800E000E000A9
:102FD000BB000A78043102EB4C0014F8013B00EB13
:102FE000800CA3F13002D2B2092AF4D92A2BF0D0F6
:102FF00003F0DF024C2A0291A9D0A3F14101192963
:103000008CBF00210121A8E7029B44F2E032D3F8F3
:1030100000A0C0F60002BAF1000F08BF92460433C8
:103020009AF80020029347F6FF73002808BF18465D
:10303000002A00F0A8805346504402E0904200F07D
:103040009E8059785A1C13460029F7D1CAEB020B0F
:10305000CBEB0606202726EAE676B8F1000F2DD046
:10306000BBF1000FC8BF0AEB0B0809DD2B681AF88B
:10307000011B1B6928464FF0FF329847C245F5D126
:10308000002E3FF427AF2B6828461B6939464FF0C6
:10309000FF329847013EF6D11CE7029BDDF804B0F1
:1030A0001A68043302938DF80C202027CA46CBEB14
:1030B000060626EAE676B8F1000FD1D17642002E58
:1030C000CED09AF800102D294CD02B6828461B69C9
:1030D00039464FF0FF3298470136F6D1C0E710224B
:1030E000029B69B1191D029119684846FFF7B8FEA5
:1030F000CA46C9EB000BDAE70A22029B0029F1D18C
:10310000181D19680290F0E7029B1A1DE9B91968A9
:1031100002920029A8BF48461DDB0A22FFF7A0FE45
:10312000CA46C9EB000BC2E78DF80C30DDF804B0DD
:10313000CA46BCE70822D3E7737830270136EBE6AE
:10314000A61CA3784FF00108E2E619680292002954
:10315000A8BF4846E1DA2D238DF80C3049420DF125
:103160000D00DAE7302FB0D12B6828461B694FF0ED
:10317000FF3298470AF1010A0BF1FF3BA5E7CAEBC2
:10318000000B202793E79346202790E7AFF30080BA
:103190002DE9F047284C00270128054627600E46F8
:1031A0002FD041DD08682549FDF77AF98046D0B96E
:1031B000DFF894A0013DDAF8007056F82590384603
:1031C0004946FDF7FDFB874218BF47462FD0DAF886
:1031D000045049462846FDF7F3FB85420BD144F8DD
:1031E0002750013707E0164A384613582350043059
:1031F0001828FAD10627002344F827300E48BDE8E6
:10320000F087104DD1F8009005F1180855F8046FBB
:1032100049463046FDF7D4FB864204BF44F8276098
:1032200001374545F2D1E6E73846054ADDE7276034
:1032300056F825900127CAE7800E0020F0430008C9
:10324000080800200408002000080020AFF30080D8
:1032500000F00EBCAFF30080AFF30080AFF300804E
:10326000024644F2F83140F6AC50C2F20000C0F61B
:103270000001FFF71DBE00BFAFF30080AFF3008079
:1032800044F2FC3008B5C0F60000FFF7E9FF44F255
:103290002440C0F60000FFF7E3FF44F27C40C0F694
:1032A0000000FFF7DDFF44F29440C0F60000FFF796
:1032B000D7FF44F2AC40C0F60000FFF7D1FF44F264
:1032C000D440C0F60000FFF7CBFF44F23C50C0F6FC
:1032D0000000BDE80840FFF7C3BF00BFAFF30080A8
:1032E0002DE9F843061E0F4640DDDFF878910024F3
:1032F00011E00134A64261DD57F824502846FDF75D
:10330000BFF9072856D8421C29464048FCF748FF19
:103310000134A6422ADD57F824503D4928464FEA99
:103320008408FDF7BDF820B328463A49FDF7B8F800
:103330000028DED028463849FDF7B2F8F8B9013444
:10334000A6424DDD57F8245034492846FDF7A8F829
:10335000002857D028463249FDF7A2F800284AD164
:1033600030480134FFF77CFFA642D4DC0020BDE8E2
:10337000F8832D48FFF774FFFFF782FFC8E7284660
:103380002A49FDF78DF878B328462949FDF788F8D2
:10339000D8B92848FFF764FF274D2848FFF760FF9A
:1033A00055F8040FFFF75CFF2548FFF759FF4D451F
:1033B000F3D1ADE72348FFF753FFA9E71348FFF721
:1033C0004FFF1F48FFF74CFFA2E71F48FFF748FFDA
:1033D00057F80800FFF744FF1C48FFF741FF97E745
:1033E0001B48FFF73DFF93E71A48FFF739FF1A48DC
:1033F000FFF736FF8CE72846FFF732FF1748FFF745
:103400002FFF85E71648FFF72BFF81E79C0E002072
:1034100090450008BC450008F0430008DC45000862
:10342000F4450008FC45000898450008504600088F
:10343000644600086C460008040800208046000826
:10344000D8450008C4450008844600089046000896
:103450002846000858460008604600080C46000848
:10346000E44500081C080020AFF30080AFF30080A3
:1034700010B5ECB00D49684600F00AFA68460C49F0
:1034800000F046FA68460B4900F03AFA68460A49E5
:1034900000F046FA094C23684FF0FF315B6907489A
:1034A00098470146684600F003FBF4E761320008E4
:1034B000E13200089131000851320008AC0D0020C3
:1034C00030B40023054690F8102118461AB98B42F3
:1034D00019DB30BC70478B42FBDA00F1600403F566
:1034E00088720130AA18072845F8242002DD0FE071
:1034F0008B42EED012F8014F0133002CF8D19942E3
:10350000E7DD8B42E5DA0133EA1892F81021DDE7B6
:103510004FF0FF30DDE700BFAFF30080AFF3008076
:1035200030B4002282B0B0F5803F0092ADF80420A4
:103530001CD2D8B14CF6CD45CCF6CC45A5FB00430A
:10354000DB0803EB8304A0EB440000F130040DF82A
:10355000024018460132002BF0D100A883188A18C7
:1035600013F8010D01F8010B9142F9D100230B7002
:1035700002B030BC704700BFAFF30080AFF30080F3
:1035800010B544F2B063C0F600031B6884B01A0C97
:103590000DF1020104467120ADF800308DF80220D3
:1035A000FFF7BEFF6846FDF76BF844F2B463C0F660
:1035B000000302461868D11C00AB4DF802005918F0
:1035C0000A20FFF7ADFF6846FDF75AF844F2B863EA
:1035D000C0F600031A88D4F8A8312DF800206846F8
:1035E000984704B010BD00BFAFF30080AFF3008078
:1035F00010B5174A84B012680023140C00938DF89C
:1036000002400446081E019302930393ADF8002084
:1036100010DD0DF10201FFF783FF6846FDF730F87A
:103620000C4B1B882DF80030D4F8A8316846984719
:1036300004B010BDFCD00DF102014042FFF770FF55
:103640006846FDF71DF8044B1B882DF80030EBE7AA
:10365000B0460008B8460008BC460008AFF300803A
:10366000F0B5D0F8A83183B0054615480C4617468A
:103670009847D5F87821002394428DF804308DF8CE
:10368000053014DA20260AE08DF80430D5F8A83188
:1036900001A89847D5F878310134A34207DD2B19EA
:1036A00093F81031002BEFD18DF80460EEE7284637
:1036B000FFF766FF28463946FFF79AFF03B0F0BDD3
:1036C000C0460008AFF30080AFF30080AFF3008086
:1036D000F8B5D0F800410646025D00F58870002A72
:1036E00066D023461546002701355B19FF2BC8BF5E
:1036F000A3F58073F55C0137002DF5D159BBD6F8E1
:103700000851BD4226DC2AB37B1E0AE00132A41810
:10371000FF2CC8BFA4F58074325D0131CB43DB19A7
:10372000C2B19D42F2D1A3180135FF2BC6F8085152
:1037300028DDC4F1FF05611C71182A46FCF730FD35
:10374000325D05F5887030183146521BFCF728FDB4
:10375000335DF3B9F8BDD6F80831002BFADD013B33
:10376000C6F808314AB90AE00132A418013FFF2C1B
:10377000C8BFA4F58074325D0AB1BB42F4D1A3186E
:10378000FF2BD6DC611C7118FCF70AFD335D002BA2
:10379000E0D03046C6F87831C6F87C31FFF7F0FE4D
:1037A000D6F87C2130460021BDE8F840FFF758BF2D
:1037B0001746A3E7AFF30080AFF30080AFF30080BC
:1037C00010B5044644F2C460C0F60000D4F8A83135
:1037D0009847D4F87C31D4F8782103F20F1003F520
:1037E0008871D21A611801322018FCF729FDD4F82B
:1037F0007C21D4F87831013AE118C4F87C21013BEE
:10380000002281F81021C4F8783110BDAFF3008098
:10381000D0F878312DE9F04116469A18642A074607
:10382000884602DD0020BDE8F081D0F87C21B01888
:1038300002F5887100F58870381879189A1AFCF723
:10384000FFFC002E10DDD7F87C210023BA181946A2
:1038500018F80340D5180133202C85F8104108BF13
:1038600085F81011B342F3D1D7F87831D7F87C211D
:10387000F318F9189619C7F878310023C7F87C6156
:1038800081F810310120BDE8F08100BFAFF3008066
:1038900038B5652204460D4600F588700021FCF716
:1038A0002FFD002120464FF48072FCF729FD40F6E1
:1038B0002003C2F200031A6844F2D8500023C4F86F
:1038C0000031C4F80431C4F80831C4F87831C4F8C0
:1038D0007C31C4F8A031C4F8A431C4F8AC31C0F6CE
:1038E0000000C4F80C21C4F8A851A847D4F8A831A6
:1038F000D4F80C01984738BDAFF30080AFF30080D7
:10390000C0F8A411704700BFAFF30080AFF3008090
:10391000C0F8A011704700BFAFF30080AFF3008084
:10392000C0F8AC11704700BFAFF30080AFF3008068
:103930002DE9F8430446D0F8A83148489847D4F810
:103940007851002D40DDFE2D3EDCD4F80031D4F856
:103950000461E05CC6F58077002865D09A1BD91910
:103960000139013AB34252DC8D4252DA00285BD071
:10397000C6F1FF08701C45455FFA85F904F58877A4
:103980005DDB394642462018FCF70AFC08F58871D1
:1039900020466118C8EB0502FCF702FCD4F80421AC
:1039A000AD186B1CFF2BC4F80431C8BFA5F1FF0391
:1039B00004F80290C8BFC4F804310022E254D4F8DD
:1039C0007851C4F8082101E004F58877204629469B
:1039D000FFF776FD421C38D0002805DDD4F8A03171
:1039E00013B104F5C07198470025D4F80C01D4F840
:1039F000A8319847C4F87851C4F87C513846294614
:103A00006522FCF77DFCC4F80851BDE8F8839542B7
:103A1000ACDB1818431CFF2BC8BFA0F1FF03E05C10
:103A2000C4F80031002899D1C6F1FF085FFA85F982
:103A3000701C454504F8039004F58877A1DA201836
:103A400039462A46FCF7ACFBA8E7D4F8A83104486D
:103A50009847D4F8A83101489847C5E7D8450008E9
:103A6000CC460008AFF30080AFF30080AFF30080D6
:103A700010B5044644F2D850D4F8A831C0F600007E
:103A80009847D4F80C01D4F8A8319847002104F5E0
:103A900088706522C4F87811C4F87C11BDE8104024
:103AA000FCF72EBCAFF30080AFF30080AFF30080D3
:103AB0002DE9F0417D4D82B02B6804460191002B29
:103AC00040F090804B1E7E2B00F27981DFE813F0EE
:103AD000710162015B0177014F013F017701320102
:103AE000FA00E900E000CD00CA00C6007701C2007C
:103AF00077017701770177018100770177017701FD
:103B000077017701BF0077017701770177017701AE
:103B100077017701770177017701770177017701E5
:103B200077017701770177017701770177017701D5
:103B300077017701770177017701770177017701C5
:103B400077017701770177017701770177017701B5
:103B500077017701770177017701770177017701A5
:103B60007701770177017701770177017701770195
:103B70007701770177017701770177017701770185
:103B80007701770177017701770177017701770175
:103B90007701770177017701770177017701770165
:103BA0007701770177017701770177017701770155
:103BB0007701770177017701770177017701770145
:103BC0007701770177017701770177013201FFF7FC
:103BD000F7FDD4F87C212046002AF8DC0021FFF70D
:103BE0003FFD08E0C9B25B292DD0314A1368012B93
:103BF00004D07E2916D002B0BDE8F081412900F042
:103C00004A81422900F05481432900F0EE80442982
:103C100000F01A81372900F048813829EBD10323BD
:103C20001360E8E7022B00F03A81032BE3D1D0F8D0
:103C30007C31D0F87811C91AFFF7DAFCD4F8783162
:103C4000C4F87C31D7E01A4B01221A60D3E7012374
:103C50002B60D0E70021FFF73BFDCCE70121FFF708
:103C600037FDC8E7FFF764FEC5E7D0F8A831114873
:103C70009847D4F8A83110489847D4F80C01D4F8E4
:103C8000A8319847D4F8A83104F588709847B2E76E
:103C9000D0F8A83109489847D4F87C31C4F8783175
:103CA000A9E7074B0A221A60A5E700BFAC0E002067
:103CB000A40E00205846000860460008C0460008D0
:103CC000A80E0020D0F8A431002B94D0D4F87C1199
:103CD000FFF7F6FBD4F87C310746E31893F80F3171
:103CE0002BB97A4A00F1600344F82320471CD4F82A
:103CF000A431384604F5C07198470646006800288C
:103D00003FF479AF7268002A00F0AC8001200025F2
:103D1000431E5AB156F82330515D5B5D8B426DD125
:103D2000002B6BD00135431E002AF3D1013056F829
:103D30002020EDE7D0F87C11002903DDFFF740FDDE
:103D4000D4F87C1120460A46FFF78AFC53E7D0F8E6
:103D50007C21D0F878319A42BFF64DAF0121FFF7B0
:103D600047FCD4F87C310133C4F87C3143E7D0F808
:103D70007C31D0F87811C91AFFF73AFCD4F87831C1
:103D8000C4F87C3137E7D0F8AC31002B3FF433AFC7
:103D9000984730E7D0F87C31002B3FF42CAF4FF040
:103DA000FF31FFF725FCD4F87C31013BC4F87C31AE
:103DB00021E7FFF7E5FB0023C4F87C311BE720294E
:103DC00004D1D0F87831002B3FF415AF204601A97B
:103DD0000122FFF71DFD00283FF40DAFD4F87C2130
:103DE0002046511EFFF73CFC05E7D0F87C11D0F8C7
:103DF0007821914260DB00232B60FCE63448D4F844
:103E0000A8319847306858B1B046D4F8A8319847DF
:103E10003048D4F8A831984758F8040F0028F4D156
:103E2000D4F8A8312A489847D4F8A831D4F80C011E
:103E30009847DDB92046FFF7A3FB20460021D4F8C0
:103E40007C21FFF70DFCD6E6D0F87C31002BD2DDCB
:103E50004FF0FF31FFF7CCFBD4F87C31013BC4F8C5
:103E60007C31C8E7FCF70CFC0546E2E75F3754F805
:103E70002700FCF705FC3168024689182046AA1A7B
:103E8000FFF7C6FC7368002BD4D1204611490122EC
:103E9000FFF7BEFCCEE70021FFF71AFCABE7FFF708
:103EA0006FFB0023C4F87C31A5E702231360A2E670
:103EB0001946FFF70DFC9EE71946FFF799FBD4F86A
:103EC0007C310133C4F87C3195E700BFF045000830
:103ED000D8450008E4460008AFF30080AFF3008047
:103EE0000A4B0B4ADB6970B54FF4406480259A6138
:103EF000C4F201042E4666614FF4FA70FDF748FCE7
:103F000025614FF4FA70FDF743FCF4E75C0D0020E7
:103F100000470008AFF30080AFF30080AFF30080EC
:103F200008B540F65C53C2F20003DB6944F2087244
:103F3000C0F600029A61FFF79BFA08BDAFF300805C
:103F400069646C65000000000000000000000000D3
:103F50005356233100000000535623320000000066
:103F60005356233300000000535623340000000052
:103F7000535623350000000053562336000000003E
:103F8000535623370000000053562338000000002A
:103F900053562339000000005356233130000000EF
:103FA00053562331310000000000000000000000E3
:103FB0002263685654536574492228290000000082
:103FC000226368565452657365744922282900009B
:103FD0006368565452657365744928292C2023312F
:103FE00000000000000000000000000000000000D1
:103FF000636853636852656164794928292C2023DA
:1040000031000000737461636B206F766572666CBB
:104010006F770000000000000000000000000000BA
:104020002263685468644372656174654922282973
:10403000000000002263685468645365745072691C
:104040006F7269747922282900000000636854683F
:1040500064526573756D6528292C2023310000009A
:10406000226368546864536C6565702228290000D7
:104070006368546864457869745328292C20233177
:104080000000000022636854686457616974222844
:104090002900000063685468645761697428292CFA
:1040A0002023310063685468645761697428292C9F
:1040B000202332000000000000000000000000008B
:1040C0006D61696E0016031104044C080C1014187D
:1040D0001C2021220024000000000000000000003D
:1040E0002263684D7478496E6974222829000000A3
:1040F0002263684D74784C6F636B5322282900004B
:1041000063684D74784C6F636B5328292C202331DE
:104110000000000063684D74784C6F636B5328296E
:104120002C202332000000002263684D7478547202
:10413000794C6F636B5322282900000063684D742B
:1041400078556E6C6F636B28292C2023310000009A
:1041500063684D7478556E6C6F636B28292C20232F
:104160003200000063684D7478556E6C6F636B535A
:1041700028292C202331000063684D7478556E6C1B
:104180006F636B5328292C202332000000000000AD
:1041900022636845767452656769737465724D6110
:1041A000736B222829000000226368457674556EDF
:1041B00072656769737465722228290022636845F5
:1041C00076745369676E616C4922282900000000EB
:1041D0002263684576745369676E616C22282900F2
:1041E00022636845767442726F6164636173744DD3
:1041F00061736B49222829002263684576744469FB
:104200007370617463682228290000006368457632
:1042100074446973706174636828292C2023310009
:1042200022636849515265616454696D656F7574A4
:10423000222829002263684F5157726974655469B6
:104240006D656F75742228290000000000000000D1
:104250002273645374617274222829007364537446
:1042600061727428292C20233100000022736453CA
:10427000746F702228290000736453746F702829AA
:104280002C20233100000000227364496E636F6D9F
:10429000696E67446174614922282900227364525F
:1042A0006571756573744461746149222829000041
:1042B000511D0008311D0008D11C0008E11C000838
:1042C000711D0008611D0008411D0008211D000826
:1042D000F11C0008000000000000000000000000C9
:1042E00000000000000000000000000000000000CE
:1042F00000000000000000000000000000000000BE
:1043000001000000000000000000000000000000AC
:1043100000960000000000400000000000000000C7
:10432000000202020202020202020202020202026F
:10433000010000000000000000000000000000007C
:104340000004000000060000000000000000000063
:10435000706D5F616C6C6F6328292C202331000025
:1043600000000000211F0008F12100088122000840
:1043700040004000700E0020700E00200000000081
:10438000FFFFFFFF844B888888488488FFFFFFFF7A
:104390008888443883AA8888FFFFFFFF8888888838
:1043A000BBBB8B88FFFFFFFF448B88888888888889
:1043B000FFFFFFFF888888888888888800000000C1
:1043C00000000000000000000000000000000000ED
:1043D00000000000000000000000000000000000DD
:1043E000286E756C6C2900000000000000000000C1
:1043F00076657273696F6E002573000055736520D2
:10440000544142206B657920666F7220636F6D7036
:104410006C6574696F6E0A0D436F6D6D616E643A01
:104420000A0D00000976657273696F6E207B6D69F5
:1044300063726F726C207C2064656D6F7D202D200F
:104440007072696E742076657273696F6E206F6624
:10445000206D6963726F726C206C6962206F7220CC
:1044600076657273696F6E206F6620746869732059
:1044700064656D6F207372630A0D00000968656CD6
:104480007020202D2074686973206D6573736167D7
:10449000650A0D0009636C656172202D20636C65EF
:1044A00061722073637265656E0A0D00096C697331
:1044B0007420202D206C69737420616C6C20636FF4
:1044C0006D6D616E647320696E20747265650A0D8E
:1044D00000000000096E616D65205B737472696E87
:1044E000675D202D207072696E7420276E616D6586
:1044F000272076616C7565206966206E6F202773B2
:104500007472696E67272C20736574206E616D6507
:104510002076616C756520746F2027737472696EE4
:1045200067272069662027737472696E6727207079
:10453000726573656E740A0D00000000096C697382
:1045400070202D2064756D6D7920636F6D6D616EC7
:104550006420666F722064656D6F6E737461746938
:104560006F6E206175746F2D636F6D706C6574690B
:104570006F6E2C207768696C6520696E7075746544
:104580006420276C2B3C5441423E270A0D0000005A
:1045900068656C70000000006D6963726F726C205A
:1045A0006C696272617279206261736564207368FC
:1045B000656C6C207620312E300A0D006E616D65C1
:1045C000000000006E616D652076616C7565207479
:1045D0006F6F206C6F6E67210A0D000064656D6F50
:1045E0000000000064656D6F207620312E300A0DCA
:1045F000000000006D6963726F726C006D69637218
:104600006F726C207620312E320A0D002077726F87
:104610006E6720617267756D656E742C20736565B9
:104620002068656C700A0D0076657273696F6E2084
:104630006E65656473203120706172616D6574729E
:104640002C207365652068656C700A0D0000000001
:10465000636C6561720000001B5B324A0000000061
:104660001B5B48006C69737400000000617661692F
:104670006C61626C6520636F6D6D616E643A0A00F7
:1046800009000000636F6D6D616E643A20270000C1
:1046900027204E6F7420666F756E642E0A0D000021
:1046A0006C69737000000000000000000000000052
:1046B0001B5B0000441B5B00430000004400000043
:1046C0001B5B4B001B5B44201B5B44004552524F5D
:1046D000523A746F6F206D616E7920746F6B656EE6
:1046E00073000000200000001B5B33326D436869DB
:1046F00062694F53203E1B5B306D200000000000BC
:10470000626C696E6B6572007368656C6C000000AA
:10471000F4450008DC4500089045000850460008B4
:1047200064460008BC450008F0430008A0460008A5
:04473000E84600084F
:0400000508000130BE
:00000001FF
