:020000040800F2
:1000000000040020D1010008F1020008F1020008FC
:10001000F1020008F1020008F1020008F1020008F4
:10002000F1020008F1020008F102000811030008C3
:10003000F1020008F1020008F1020008E1030008E3
:10004000F1020008F1020008F1020008F1020008C4
:10005000F1020008F1020008F1020008F1020008B4
:10006000F1020008F1020008F1020008F1020008A4
:10007000F1020008F1020008F1020008F102000894
:10008000F1020008F1020008F1020008F102000884
:10009000F1020008F1020008F1020008F102000874
:1000A000F1020008F1020008F1020008F102000864
:1000B000F1020008F1020008F1020008F102000854
:1000C000F1020008F1020008F1020008F102000844
:1000D000F1020008F1020008F1020008115E0008B8
:1000E000F1020008F1020008F1020008F102000824
:1000F000F1020008F1020008F1020008F102000814
:10010000F1020008F1020008F1020008F102000803
:10011000F1020008F1020008F1020008F1020008F3
:10012000F1020008F1020008F1020008F1020008E3
:10013000F1020008F1020008F1020008F1020008D3
:10014000F1020008F1020008F1020008F1020008C3
:1001500010B582B005F0ACFC00F0B2F90E480021F9
:1001600005F026FD002300930C484FF498714022BF
:100170000B4B4FF4805400F0EBFBC4F2010403E09E
:100180004FF4FA7000F034FCA3689B04F8D40248E2
:1001900001F0AEFFF4E700BF20110020981100200D
:1001A00021600008AFF30080AFF30080AFF3008060
:1001B000704700BFAFF30080AFF30080AFF3008063
:1001C000FEE700BFAFF30080AFF30080AFF3008025
:1001D00072B6374880F30988022383F31488BFF38B
:1001E0006F8F344A344B9A420BD2D143C91821F055
:1001F0000301131F89184FF0553243F8042F8B4227
:10020000FBD12E4A82420CD22D49131DC91A21F06E
:100210000301131F89184FF0553243F8042F8B4206
:10022000FBD105F0E5FE2749274B99420BD2C84385
:10023000C01820F00300254C043000231A595A50EE
:1002400004338342FAD1224A224B9A420AD2D14342
:10025000C91821F00301131F8918002243F8042F45
:100260008B42FBD1FFF7A4FF1B4D1C4B9D420BD2D1
:10027000EE43F618B608043D0136002455F8043F55
:1002800001349847B442F9D1FFF762FF144D154B82
:100290009D420BD2EE43F618B608043D0136002409
:1002A00055F8043F01349847B442F9D1FFF788FF6D
:1002B00000080020000000200004002000040020AE
:1002C0000308002000080020B8080020386D00084E
:1002D000B8080020C8120020500100085001000892
:1002E0005001000850010008AFF30080AFF3008018
:1002F000FEE700BFAFF30080AFF30080AFF30080F4
:1003000000F0B6FA00DF00BFAFF30080AFF300806B
:10031000EFF30983203383F30988002383F31188E3
:10032000704700BFAFF30080AFF30080AFF30080F1
:1003300008B54FF440724FF46D43CEF20003C0F2A3
:10034000FA520021996007201021DA6000F090F83D
:100350000A204FF4007100F08BF80B208021BDE8DB
:10036000084000F085B800BFAFF30080AFF3008015
:10037000202383F311884FF46D43CEF200035B68B2
:1003800013F4006319D0EFF30983A3F1200282F381
:10039000098810494FF080708A6943F8040CD07FB7
:1003A00009689268896858B1914294BF002201227D
:1003B00062B1094A43F8082C704783F311887047EB
:1003C000914234BF00220122002AF2D1034A43F8AD
:1003D000082C7047D009002001030008040300081E
:1003E00008B5202383F3118800F0A2F8002383F3DB
:1003F0001188BDE80840FFF7BBBF00BFAFF3008026
:100400002DE9F04FC1F80CD0D0F80CD0BDE8F08F3A
:10041000002383F311882846A04700F049FB70476A
:1004200000F0030370B4DB00FF2505FA03F501FAC1
:1004300003F1012200F01F0302FA03F284084FF4D3
:100440006143CEF20003C03453F82460400926EA29
:1004500005050D4300F1600643F8245043F82620BB
:1004600043F8202070BC7047AFF30080AFF30080EA
:1004700000F00303DB00FF2202FA03F201FA03F1AA
:1004800080084FF46D43CEF20003063010B453F8E9
:10049000204024EA02020A4343F8202010BC70479F
:1004A000024B034A9B699A61FEE700BFD009002016
:1004B00070600008AFF30080AFF30080AFF30080FE
:1004C00000B583B0FFF734FF00F0FAF800F060F8F1
:1004D00001F02EFB01F074FB40F6B8004021C2F29F
:1004E000000000F0D5F940F6D011C2F20001886199
:1004F00001220277002383F3118862B646F280005E
:100500008969C0F600008861009340F6001040F24F
:10051000A143C021C0F60003C2F2000000F018FAA7
:1005200003B000BDAFF30080AFF30080AFF30080F5
:1005300038B5134B9B69DA7F0AB1013ADA771A6A48
:10054000104C01321A62E36822680133A242E36070
:1005500014D09568013D956085B91368D1685C60D9
:100560002360D560002383F3118810698847202316
:1005700083F3118822689368002BEED038BD00BF4A
:10058000D0090020C0090020AFF30080AFF3008045
:1005900040F6C013C2F200034FF0FF329A6000220F
:1005A0005B601B60DA607047AFF30080AFF30080E0
:1005B00070B40D4E03613468C260A568A94204D9C5
:1005C0002468491BA5688D42FAD363688160B442F0
:1005D00043600460186018BFA36860601CBFC1EB73
:1005E0000301A16070BC7047C0090020AFF3008018
:1005F0000368074A93421FBF996882688A189A6005
:100600004268002113600368C1605A60704700BFF0
:10061000C0090020AFF30080AFF30080AFF300808B
:100620000B4A81420346D26809D8824234BF002374
:1006300001238A422CBF184643F0010070478A42CA
:100640002CBF002001209A4238BF0020704700BF15
:10065000C0090020AFF30080AFF30080AFF300804B
:10066000202383F31188037F0D2B11D8DFE803F0DB
:1006700020101007100B101010101010100B436AF0
:100680009A6801329A6090E80C001A600268536020
:100690004FF0FF32426281680022074B02771B68ED
:1006A0009A688A42FBD25A680360426010605860C0
:1006B000002383F311887047D0090020AFF3008036
:1006C00040F6D013C2F2000300225B601B609A6008
:1006D0005B611B61704700BFAFF30080AFF3008028
:1006E00000228168054B02771B689A688A42FBD218
:1006F0005A6803604260106058607047D00900205B
:1007000040F6D013C2F2000310B499691A68087752
:1007100014201468C87701201077104663601C60AD
:100720009A6110BCFFF76CBEAFF30080AFF300809E
:1007300030B54B1C87B0054611D00B4C0B4AA36952
:1007400001A8FFF735FF2846FFF7DAFF049B13B136
:1007500001A8FFF74DFFA369586A07B030BDFFF746
:10076000CFFF014CF7E700BFD00900206106000869
:10077000F0B4144F0446BE698568B0680023854212
:1007800061620CD823773B461B689A689542FBD977
:100790005A682360626014605C60F0BC7047337715
:1007A0003B461B689A689042FBD95A683360726076
:1007B00020465E603146012316602377BC61F0BCA1
:1007C000FFF71EBED0090020AFF30080AFF300801A
:1007D0000E4B30B41868996902688C6853601A60CF
:1007E000986114230125CB77002305770B77034607
:1007F00000E01B689A68A242FBD25A680B604A600C
:100800001160596030BCFFF7FBBD00BFD00900206C
:100810000D4B30B41868996902688C6853600125E3
:100820001A609861002305770B77034600E01B6888
:100830009A68A242FBD85A680B604A6011605960FE
:1008400030BCFFF7DDBD00BFD0090020AFF3008052
:10085000044B1A689B6992689B689A4200D870475B
:10086000FFF7D6BFD0090020AFF30080AFF30080C0
:10087000034B9B69DB7F0BB1FFF7CABFFFF7A8BF34
:10088000D0090020AFF30080AFF30080AFF3008009
:10089000F0B440F6D014C2F200046569002204618D
:1008A00000F12C06816000F1280745614FF0020C31
:1008B000606101641424012180F81CC04277C47770
:1008C000C263826302628177826128618762066304
:1008D000C662F0BC704700BFAFF30080AFF300808A
:1008E0002DE9F003243940F6D015C2F2000547186F
:1008F000D5F814C0C7604350069B00267B6040F2C9
:100900001143C0F600033B62022303771423904691
:1009100000F1280900F12C02C37701230561C0F81A
:100920000880C0F814C0044668614677C0F840806B
:10093000C6638663066283778661CCF81000C0F8D0
:1009400028900263C262BDE8F0037047AFF30080F5
:1009500010B51C4682B0202383F311882346049CE3
:100960000094FFF7BDFF00210446FFF701FF0023BD
:1009700083F31188204602B010BD00BFAFF30080A2
:1009800010B5202383F31188084B9B691C6C996870
:100990008C4201D0814200D298601864FFF758FF62
:1009A000002383F31188204610BD00BFD00900202A
:1009B00010B52023044683F311880021FFF7D8FEE9
:1009C000002383F31188204610BD00BFAFF30080E1
:1009D000202383F31188427F002342F004024277F0
:1009E00083F31188704700BFAFF30080AFF300803E
:1009F00008B50146202383F311880620FFF798FEEF
:100A0000002383F3118808BDAFF30080AFF30080AB
:100A100008B5202383F31188054BD968411A02D009
:100A20000620FFF785FE002383F3118808BD00BF71
:100A3000C0090020AFF30080AFF30080AFF3008067
:100A400008B5202383F31188064B1A689B699268C6
:100A50009B689A4201D3FFF7BBFE002383F3118802
:100A600008BD00BFD0090020AFF30080AFF30080C5
:100A700038B50E4B9C69254655F8283F6062AB425D
:100A800007D01A681846A262FFF72AFEA36AAB4293
:100A9000F7D1637F9B0704D1636922691A612269D8
:100AA00053610E20BDE83840FFF72ABED009002070
:100AB000202383F31188FFF7DBBF00BFAFF3008073
:100AC00038B50446202383F31188037F0E2B07D00B
:100AD000084B826A9B6907201A60A362FFF710FE29
:100AE000656A002383F31188204600F019F8284630
:100AF00038BD00BFD0090020AFF30080AFF3008005
:100B0000202383F31188817F00230131817783F3D0
:100B100011887047AFF30080AFF30080AFF300801F
:100B20000146202383F31188827F0023013AD2B249
:100B3000827783F3118812B9037F0E2B00D07047A0
:100B4000437F03F00303012B09D0022BF7D1436944
:100B50000269406C1A610A69536101F039B943694D
:100B600002691A610269536101F092B8AFF3008023
:100B7000F0B583B00D4617461E4601F041F8044615
:100B800090B1202383F31188089C334629463A46C6
:100B90000094FFF7A5FE0123437700210446FFF7E9
:100BA000E7FD002383F31188204603B0F0BD00BFAA
:100BB0002DE9F04182B005460F4690461E4601F0F1
:100BC000EFF8044690B1202383F311886968434607
:100BD0003A460096FFF784FE0223437745640021DE
:100BE0000446FFF7C5FD002383F31188204602B0B9
:100BF000BDE8F081AFF30080AFF30080AFF3008079
:100C0000202383F3118840F6D013C2F20003186941
:100C10000023827F0132827783F31188704700BFFF
:100C200010B5202383F31188074B04699C4209D037
:100C3000A37F0133A377002383F31188FFF770FFAD
:100C4000204610BD0024F6E7D0090020AFF3008055
:100C50004060006081607047AFF30080AFF30080B8
:100C600070B5856804460135002D81600BDC6FF09E
:100C7000010660680135436863601C60FFF730FD62
:100C8000012D4662F5D170BDAFF30080AFF3008057
:100C900008B5202383F31188FFF7E2FFFFF7D8FDA3
:100CA000002383F3118808BDAFF30080AFF3008009
:100CB000826810B5013A002A0346826001DB0020F9
:100CC00010BD074C0320A26953625968136051603C
:100CD0005A600A60FFF714FDA369586A10BD00BF8F
:100CE000D0090020AFF30080AFF30080AFF30080A5
:100CF00008B5202383F31188FFF7DAFF002383F37D
:100D0000118808BDAFF30080AFF30080AFF300801F
:100D10000346806810B4421E002A0C469A6002DB2B
:100D2000002010BC704759B1074A032092695362F2
:100D30005C6882E818005A60226010BCFFF7F8BCBB
:100D400098604FF0FF30ECE7D0090020AFF300804F
:100D500008B5202383F31188FFF7DAFF002383F31C
:100D6000118808BDAFF30080AFF30080AFF30080BF
:100D700008B50246202383F3118883680133002BD2
:100D8000836003DD002383F3118808BD0068002120
:100D9000036813605A60FFF7EBFCF3E7AFF30080E2
:100DA000826803460132002A826000DD70470268D3
:100DB0001168104619604B6000235362FFF790BC26
:100DC00070B50C1E054611DD002601E0013C0DD07A
:100DD000AB680133002BAB60F8DC286803682B603C
:100DE0005D60FFF77DFC013C4662F1D170BD00BF44
:100DF00010B5024682B0202383F311888368013343
:100E0000002B836019DD8B68013B002B8B6007DBB7
:100E1000FFF71EFD0020002383F3118802B010BDF0
:100E20000B4A4B689469032084E80A004C601C60FC
:100E30006162FFF765FC606AEDE7006803681360B4
:100E40005A600191FFF74CFC002343620199DAE7F5
:100E5000D0090020AFF30080AFF30080AFF3008033
:100E60000023406000608360704700BFAFF30080E4
:100E7000F8B52F4A836805469469002B51D0A168C4
:100E80009A68914206D91A7F9960042A31D0052ABE
:100E90001CD092B12B461B689D4203D09968A26872
:100EA0009142F8D25A6804202360626014605C604A
:100EB0006562BDE8F840FFF723BC93E806001160C7
:100EC00018461B685A60FFF70BFCE3E758681A687E
:100ED0005E6A02601F68324678601268964202D0ED
:100EE00090688842F9D251681A6059600B6053606B
:100EF000D0E758681A685E6A02601F6832467860F8
:100F00001268964212D090688842F9D251681A60ED
:100F100059600B605360B368A1689A688A42B2D383
:100F2000B8E7E36B8460C360E063F8BD3246EDE789
:100F3000D0090020AFF30080AFF30080AFF3008052
:100F400008B5202383F31188FFF792FF002383F372
:100F5000118808BDAFF30080AFF30080AFF30080CD
:100F60000246202383F31188836800201BB10023ED
:100F700083F311887047044B01209B69D96B936000
:100F8000D160DA63F3E700BFD0090020AFF300803F
:100F9000154A38B59069202383F31188C46B2568FE
:100FA000E368A542C3631CD0016C4BB11A689A4236
:100FB00003D09268914238BF1146DB68002BF5D10F
:100FC0002B68EA6B8160236028465C600021A56085
:100FD000E260EC63FFF7CCFB002383F3118820462B
:100FE00038BD0023A360F7E7D0090020AFF30080ED
:100FF00038B5124B9869C46B2568E368A542C36392
:1010000018D0016C4BB11A689A4203D09268914291
:1010100038BF1146DB68002BF5D12B68EA6B816085
:10102000236028465C60A560E260EC63FFF758FB34
:10103000204638BD0023A360204638BDD0090020DB
:10104000124A70B52023946983F31188E36BC3B10E
:1010500000261A68D9689A42E163104608BF9E606C
:1010600008D01168D56B19604B609A60DD60D3635E
:10107000FFF736FBE36B002BEBD1236CA360FFF78C
:10108000E7FB002383F3118870BD00BFD009002067
:1010900040600060704700BFAFF30080AFF3008096
:1010A00008B50246202383F311880068904205D0DA
:1010B0000368002113605A60FFF75AFB002383F393
:1010C000118808BDAFF30080AFF30080AFF300805C
:1010D00008B503460068984206D002681A6053605B
:1010E000FFF7FEFA0023436208BD00BFAFF30080A4
:1010F00038B504460068A0420AD06FF001050368C5
:1011000023605C60FFF7ECFA45622068A042F6D1EC
:1011100038BD00BFAFF30080AFF30080AFF30080B5
:1011200008B5202383F31188FFF7E2FFFFF790FB58
:10113000002383F3118808BDAFF30080AFF3008074
:10114000F8B5104B05469C69FFF752FF2E4607463F
:1011500065622B4603E09968A268914210D31B6830
:101160009D42F8D17368266063601C60746005203E
:10117000FFF7C6FA646A3846FFF77AFE2046F8BDE4
:101180001E46EFE7D0090020AFF30080AFF30080E8
:1011900008B5202383F31188FFF7D2FF002383F3E0
:1011A000118808BDAFF30080AFF30080AFF300807B
:1011B0002DE9F04106468846FFF71AFF0E4A07461A
:1011C0009269334656621B689E4203D09D689468BC
:1011D000A542F8D25C68052082E8180041462260EA
:1011E0005A60FFF7A5FA431C044602D03846FFF7C1
:1011F0003FFE2046BDE8F081D0090020AFF300801B
:1012000008B5202383F31188FFF7D2FF002383F36F
:10121000118808BDAFF30080AFF30080AFF300800A
:1012200070B4202383F3118840F6D013C2F2000378
:101230009D69066800240E60234601604D608A6047
:10124000CC6083F3118870BC704700BFAFF300809F
:10125000202383F31188024600E01A461368834274
:1012600003D09942F9D10B681360002383F31188EE
:10127000704700BFAFF30080AFF30080AFF3008092
:1012800010B4202383F3118840F6D013C2F2000378
:10129000996900238A6B22EA00048C6383F3118826
:1012A000104010BC704700BFAFF30080AFF3008068
:1012B000202383F3118840F6D013C2F200039A6909
:1012C0000023916B0843906383F31188704700BF3C
:1012D00008B5826B037F1143082B81630BD0092B68
:1012E00000D008BD436A19408B42FAD1FFF7F8F9E4
:1012F0000023436208BD436A1942F7D108BD00BF0D
:1013000008B5202383F31188FFF7E2FFFFF7A0FA67
:10131000002383F3118808BDAFF30080AFF3008092
:1013200070B504680546A0420E4609D0E3686068BF
:101330003343E360A168FFF7CBFF2468A542F5D1F2
:1013400070BD00BFAFF30080AFF30080AFF300804B
:1013500008B5202383F31188FFF7E2FFFFF778FA3F
:10136000002383F3118808BDAFF30080AFF3008042
:10137000F8B50D46074689B10024012601E0013485
:1013800065B106FA04F32B42F9D057F82420204621
:1013900025EA030501349047002DF2D1F8BD00BFC6
:1013A00038B50D4B05469C69202383F31188A36B48
:1013B00010EA030206D160620820FFF7A1F9A36BCF
:1013C00005EA03025042104023EA0003A36300230E
:1013D00083F3118838BD00BFD0090020AFF300802F
:1013E00038B50B4B05469C69202383F31188A36B0A
:1013F000184006D108206562FFF782F9A36B05EA61
:10140000030023EA0003A363002383F3118838BD9C
:10141000D0090020AFF30080AFF30080AFF300806D
:1014200038B50C4B04469D69202383F31188AB6BC0
:1014300000EA0302824204D068620920FFF760F9E3
:10144000AB6B23EA0403AB63002383F311882046CC
:1014500038BD00BFD0090020AFF30080AFF300809B
:10146000114B70B59E690546202383F31188B36B39
:1014700010EA03040ED121B9234683F311882046D4
:1014800070BD70620820FFF753F90028F4DBB36BDE
:1014900005EA03046242144023EA0403B363002311
:1014A00083F31188204670BDD0090020AFF300807F
:1014B000104B70B59E690446202383F31188B26BEC
:1014C00014EA02050ED121B92B4683F31188284670
:1014D00070BD08207462FFF72BF90028F4DBB26BB3
:1014E00004EA020522EA0502B263002383F31188AD
:1014F000284670BDD0090020AFF30080AFF3008014
:1015000038B5134B04469D69202383F31188AA6BD9
:1015100004EA0203A3420DD029B90B4683F31188D4
:101520000C46204638BD09206C62FFF701F90028FF
:1015300008DBAA6B22EA0402AA63002383F3118862
:10154000204638BD002383F311881C46F8E700BF0E
:10155000D0090020AFF30080AFF30080AFF300802C
:1015600070B50E4B9C69202383F3118800F12C0584
:101570006562067F036B0C2E256061636360046304
:101580001C6007D00A20FFF7BBF8606A002383F3D2
:10159000118870BDFFF7A4F8F4E700BFD009002060
:1015A00010B5202383F311880B4CA3691A4652F817
:1015B0002C0F904208D00168D9624A600B22027752
:1015C000002383F3118810BD0C20FFF799F8A3695D
:1015D0001A4652F82C0FEEE7D0090020AFF3008036
:1015E00008B5202383F31188FFF7C2F8002383F3A3
:1015F000118808BDAFF30080AFF30080AFF3008027
:1016000038B50B46044601EB820500F11C0011467B
:10161000E360A36084E82800FFF71AFB04F11000E0
:101620000021BDE83840FFF713BB00BFAFF30080D7
:1016300010B52023044683F3118803684168E360F2
:10164000C91AA360891000F11C00FFF709FB04F11F
:1016500010000021FFF704FBFFF7FAF8002383F3E3
:10166000118810BDAFF30080AFF30080AFF30080AE
:1016700070B504460E4600F11C001146FFF748FB0A
:10168000054678B9A368626843F8046B9342A36087
:1016900028BF236804F1100028BFA360FFF780FB78
:1016A000FFF7D6F8284670BDAFF30080AFF3008097
:1016B00008B5202383F31188FFF7DAFF002383F3B3
:1016C000118808BDAFF30080AFF30080AFF3008056
:1016D000426A10B5002A0FDD83684468013A42620D
:1016E00043F8041BA342836024BF03688360103067
:1016F000FFF756FB002010BD4FF0FF3010BD00BFBC
:1017000070B504460E4600F11C001146FFF700FBC1
:10171000054660B9E3682268043B9342E36008D35E
:1017200004F110001E60FFF73BFBFFF791F828461D
:1017300070BD6368043BE360F2E700BFAFF3008075
:1017400008B5202383F31188FFF7DAFF002383F322
:10175000118808BDAFF30080AFF30080AFF30080C5
:10176000426A10B5002A10DDC3680468043B013AE0
:10177000A3424262C36002D24368043BC36010309C
:101780001960FFF70DFB002010BD4FF0FF3010BDBA
:1017900070B504460E4600F110001146FFF7B8FA86
:1017A000054678B9E368626853F8041B04F11C002D
:1017B00093423160E36024BF2368E360FFF7F0FAEF
:1017C000FFF746F8284670BDAFF30080AFF3008006
:1017D00008B5202383F31188FFF7DAFF002383F392
:1017E000118808BDAFF30080AFF30080AFF3008035
:1017F000826910B5002A10DDC368013A826153F88E
:10180000044B42680C609342C36024BF0368C3600A
:101810001C30FFF7C5FA002010BD4FF0FF3010BD9F
:1018200010B4024659B1084B0D209B695A625468A6
:1018300083E814005360236010BCFEF779BF4FF0BB
:10184000FF3010BC704700BFD0090020AFF300800C
:1018500010B4C361019B8A1800244060006084605A
:1018600041618161C1600261036210BC704700BFC9
:1018700038B50446C36800686361A3610023A042D1
:10188000A3600AD06FF00105036823605C60FEF777
:1018900027FF45622068A042F6D138BDAFF3008033
:1018A000426908B503468069824298681AD00130BF
:1018B000986002F8011B19695A618A420BD21868B4
:1018C00098420DD002681A605360FEF709FF0023AA
:1018D0004362184608BD1868DA6898425A61F1D127
:1018E000002008BD0028E2D06FF0030008BD00BF53
:1018F00070B5202304460E4683F31188C36903B1F3
:101900009847A568204631463DB9FFF789FF002872
:10191000F7DA2B4683F3118870BDA369013DA560FA
:1019200013F8010B2269A361934224BFE368A3610A
:10193000002383F3118870BDAFF30080AFF3008004
:101940002DE9F0471E460446C769202383F311881A
:101950004FF0000801F1010901EB020A0FB1204626
:10196000B847A568204631464DB9FFF759FF002812
:10197000F7D02B4683F311884046BDE8F087A36972
:10198000013DA56013F8012B09F8012C2269A36120
:10199000934224BFE368A361002383F31188D145F8
:1019A00008F10108E8D0202383F3118809F1010927
:1019B000D4E700BFAFF30080AFF30080AFF3008047
:1019C00010B4C361019B8C1840600060826041616B
:1019D0008161C1600461036210BC7047AFF3008095
:1019E00038B502690446C3680068D21AA042636130
:1019F000A361A2600AD06FF00105036823605C60F8
:101A0000FEF76EFE45622068A042F6D138BD00BFE9
:101A1000F8B504460F461646202383F31188A568BF
:101A2000204631463DB9FFF7FBFE0028F7DA2B468A
:101A300083F31188F8BD6369013DA56003F8017B5C
:101A400022696361934224BFE3686361E3690BB178
:101A500020469847002383F311881846F8BD00BF3D
:101A60004169826910B591420346816816D00131FF
:101A7000996012F8014B19699A618A420BD2186871
:101A8000984206D002681A605360FEF729FE0023D0
:101A90004362204610BDDA689A61F0E70029E6D07B
:101AA0006FF0020010BD00BFAFF30080AFF3008005
:101AB0002DE9F0479A46044688461646D0F81C9011
:101AC000202383F311880027A56820466B1EEDB103
:101AD000A36018F8013B656905F8013B236965615E
:101AE0009D4224BFE3686361B9F1000F00D0C8478D
:101AF000002383F311880137013E10D0202383F3A4
:101B00001188A56820466B1E002DE1D12046514664
:101B1000FFF786FE0028D7D02B4683F3118838467E
:101B2000BDE8F087AFF30080AFF30080AFF3008033
:101B300040F20001084840F6F01240F6EC13C2F201
:101B40000101C2F2000220F00700C2F2000321F0FE
:101B50000701106019607047CF120020AFF30080BA
:101B6000202383F31188094B09491A680968073053
:101B700020F00700891A88429ABF101818600022C6
:101B8000002383F311881046704700BFF00900203E
:101B9000EC090020AFF30080AFF30080AFF30080CA
:101BA00040F6EC1240F6F013C2F20002C2F200035B
:101BB00010681B68C01A7047AFF30080AFF3008055
:101BC00040F6F813C2F2000341F661310022C0F67C
:101BD000000103F1100019609A60DA60FFF740B964
:101BE000002303608160C360083A10300B604A60D4
:101BF000FFF736B9AFF30080AFF30080AFF300809A
:101C0000F8B51F4E0731002818BF064606F1100030
:101C100021F0070506F10804FFF792F900E01C46E1
:101C20002368E3B15A689542F9D805F10801914259
:101C300012D84FF6F870CFF6FF70401B8218186864
:101C40005F1858507A6027605D601C4644F8086B46
:101C5000FFF79EF92046F8BD1A682260F5E7FFF706
:101C600097F933684BB105F10800984728B100F1A6
:101C70000804066045602046F8BD0024EAE700BF7E
:101C8000F8090020AFF30080AFF30080AFF30080CD
:101C900070B5064650F8080CA6F1080400F10805D6
:101CA0001030FFF74DF92B46AB421A6801D0A34222
:101CB00002D21AB1944201D31346F5E756F8041C38
:101CC00046F8082C1C6001F1080256F8085CA018C0
:101CD000A84209D05A6802F1080159188C4211D063
:101CE000BDE87040FFF754B94068A25809180831A0
:101CF00046F8041C46F8082C5A6802F108015918E5
:101D00008C42EDD156F8040C56F8081C1218083213
:101D100083E80600E4E700BFAFF30080AFF3008084
:101D200038B50E4C0D46002818BF044604F11000CB
:101D3000FFF706F9A3686BB10022144658681B68C8
:101D400012180134002BF9D105B12A60FFF720F9F0
:101D5000204638BD1A461C46F6E700BFF8090020A9
:101D60000023036041608260704700BFAFF30080D2
:101D700010B462B1202383F31188046800230C603F
:101D8000016083F311884368013A1944F2D110BC11
:101D9000704700BFAFF30080AFF30080AFF3008067
:101DA00008B50246202383F31188006828B1036830
:101DB0001360002383F3118808BD9368002BF8D0CB
:101DC00050689847F5E700BFAFF30080AFF300809D
:101DD000202383F31188026800230A60016083F3E3
:101DE00011887047AFF30080AFF30080AFF300803D
:101DF00041F20D03C2F2000301221A70704700BFC6
:101E000038B5084D4C2428682D2103689B689847F5
:101E1000013CF8D1034B04491868022203681B688F
:101E2000984738BD40100020C0600008AFF3008024
:101E300070B584B0002826D00DF101054CF6CD46D2
:101E40002B46CCF6CC46A6FB0012D20802EB820150
:101E5000A0EB41013031C9B21C4603F8011C104609
:101E60000133002AEFD16B469C420AD9094E02E0A9
:101E700014F8021C013C306803689B689847AC4228
:101E8000F6D104B070BD034B3021186803689B681D
:101E90009847F6E740100020AFF30080AFF30080D2
:101EA00038B5017849B1054D0446286803689B6838
:101EB000984714F8011F0029F7D138BD40100020C1
:101EC00038B50178084D41B10446286803689B681D
:101ED000984714F8011F0029F7D1286803490368BF
:101EE00002221B68984738BD40100020C0600008DF
:101EF000202383F3118841F21002C2F2000211681C
:101F0000002301F8010B116083F31188704700BFB3
:101F100041B9054A01231370044A1370044A106042
:101F200018467047002070470C1000201410002045
:101F300008100020AFF30080AFF30080AFF3008003
:101F4000F0B40F4E0F4F35683B4604E011F8014BDB
:101F50001278A24209D19D421A4603F10103F5D835
:101F60000B7813B93760184607E0074A012313704E
:101F7000064A1370064A10601846F0BC704700BF4E
:101F800010100020441000200C100020141000201D
:101F900008100020AFF30080AFF30080AFF30080A3
:101FA00010B5044608461146FEF73AFB40B9054A0B
:101FB00001231370044A18461370044A146010BDBC
:101FC000002010BD0C10002014100020081000206C
:101FD00038B5064C04F1140554F8043F18460BB10B
:101FE000FEF7F6FCAC42F7D138BD00BF2810002048
:101FF00070B5074C002604F1140554F8043B18464C
:102000001BB1FEF75DFD44F8046CAC42F5D170BD28
:102010002C100020AFF30080AFF30080AFF30080FE
:102020004FF47A7303FB00F0134A44F6D353411E76
:1020300010B4C1F262039469A3FB0123226A501C0D
:1020400000EB93118A42236A0AD28B422CBF0020F4
:102050000120934238BF00200028F3D110BC704704
:10206000934234BF002001208B4238BF40F0010072
:102070000028E7D1F2E700BFD0090020AFF30080CD
:1020800008B50120FEF7B4FC40F6C013C2F200030D
:10209000D86808BDAFF30080AFF30080AFF30080D5
:1020A00041F20D0310B5C2F2000300241C7020237E
:1020B00083F311884FF47A7303FB00F044F6D35393
:1020C0000138C1F26203A3FB002341F21800990911
:1020D00041F6F1522346C2F200000131C0F600027F
:1020E000FEF766FA234683F3118810BDAFF3008034
:1020F0002DE9F04F9D4C83B020609D48FFF7E0FE36
:102100009C48FFF7DDFE9C4D9C48FFF7D9FE2A2135
:10211000206803689B68984715F8011F0029F7D1CC
:102120009748984DFFF7CCFE2A21206803689B68EA
:10213000984715F8011F0029F7D19348934DFFF7F1
:10214000BFFE2A21206803689B68984715F8011F85
:102150000029F7D18E488F4DFFF7B2FE2A21206863
:1021600003689B68984715F8011F0029F7D18A4832
:102170008A4DFFF7A5FE2A21206803689B689847CF
:1021800015F8011F0029F7D18548864DFFF798FE05
:102190002A21206803689B68984715F8011F0029C9
:1021A000F7D18148814DFFF78BFE2A212068036813
:1021B0009B68984715F8011F0029F7D17C487D4D91
:1021C000FFF77EFE2A21206803689B68984715F870
:1021D000011F0029F7D178480091FFF771FE64488C
:1021E000FFF76EFE0099754A41F21403C2F2000334
:1021F000734F744EDFF80092019219708A460AF10B
:10220000010A4FF0000857F8043B002B00F08580CE
:102210006D4DFFF7F5FD2D21206803689B689847F9
:1022200015F8011F0029F7D15046FFF701FE4F4B6B
:102230002E21186808F101080368644D9B689847CF
:102240004046FFF7F5FD2021206803689B6898470A
:1022500015F8011F0029F7D157F8043C1D682978AB
:1022600039B1206803689B68984715F8011F002959
:10227000F7D15748FFF724FEC820FEF7B9FB554AAF
:1022800057F804BC0023136053609360D36013615C
:10229000514DDBF80420C6F800902B7002B1904736
:1022A000DBF80C309847DBF8083003B19847FFF7AC
:1022B0009FFE2B78002B00F0A180484D2D21206837
:1022C00003689B68984715F8011F0029F7D1444B14
:1022D000444D1868FFF7ACFD2021206803689B6817
:1022E000984715F8011F0029F7D133684B4588BF7F
:1022F0003D4D0AD9206815F8011C03689B68984772
:1023000033682A4601359A42F4D33848FFF7D8FD9E
:1023100057F8043B002B7FF47BAF019A52F8047FFF
:102320000192002F7FF46BAFFFF76AFD304D10482C
:10233000FFF7C6FD4621206803689B68984715F89B
:10234000011F0029F7D141F21402C2F200021378F2
:10235000002B57D12748FFF7B3FD41F21403C2F217
:102360000003187803B0BDE8F08F00BF40100020D4
:10237000A86A0008C4600008E4600008E060000883
:10238000446100084C610008606100087861000841
:102390008C61000898610008AC610008B461000815
:1023A000C8610008D4610008E86100080062000804
:1023B000146200083062000844620008806200086D
:1023C000F062000810100020F86000085C6200084D
:1023D000086100082C1000200C1000200C6100087F
:1023E00008100020606200084510002024610008E9
:1023F0006462000834610008441000200348FFF7BD
:102400005FFD00E70248FFF75BFDA6E728610008D3
:102410003C610008AFF30080AFF30080AFF30080B1
:10242000F8B54D4EB3699C68651C2846FEF7A8FABE
:10243000021B5142514107460120FFF769FD00B1DF
:10244000F8BDB369022099686B1A59425941FFF7E8
:102450005FFD0028F4D13846FEF792FAB5EB000C88
:10246000DCF1000151EB0C010320FFF751FD0028C6
:10247000E6D1B36904209968B1EB040EDEF10001E6
:1024800051EB0E01FFF744FD0028D9D1202383F33F
:102490001188B269034691680231916083F3118813
:1024A000B369A71C99680520CA1B51425141FFF727
:1024B0002FFD0028C4D12846FEF762FA031B5942BB
:1024C00059410620FFF724FD0028B9D1B369072040
:1024D0009968B7EB010CDCF1000151EB0C01FFF73F
:1024E00017FD0028ACD1B3690820196CB5EB010EBB
:1024F000DEF1000151EB0E01FFF70AFD00289FD12C
:10250000E71C3846FEF73CFA281A414241410920AF
:10251000FFF7FEFC002893D1B3690A2099687A1A64
:1025200051425141FFF7F4FC002889D1B3690B20D7
:10253000196C7B1A59425941FFF7EAFC00287FF4D5
:102540007FAF202383F31188B2690346946014643B
:1025500083F3118874E700BFD0090020AFF3008037
:10256000F0B540F6D017C2F20007BB6946F2A006EC
:102570009A6842F2417546F2103183B0C0F6000607
:10258000C0F60005C0F60001043A2B4600917068C1
:102590004FF49871FEF7DCF941F22C04BB69C2F2EA
:1025A00000049A683168606046F22430C0F600008A
:1025B000053A2B46009008464FF49871FEF7C8F98B
:1025C000BB6931699A68206046F21430C0F6000099
:1025D000013A2B46009008464FF49871FEF7B8F97F
:1025E000BB69F1689A68206146F21830C0F60000B5
:1025F0002B460090023A08464FF49871FEF7A8F96E
:102600002023E06083F31188BB6946F21C319A688D
:10261000C0F600012B460091B0684FF49871033A60
:10262000FEF75EF9A060002383F31188A068FEF72F
:10263000BFF9FFF7DDFC46F220310120C0F60001B2
:1026400003B0BDE8F040FFF77BBC00BFAFF30080F4
:102650002DE9F04140F6D018C2F20008D8F8183041
:1026600046F2A0069A6842F2417546F2243482B0DE
:10267000C0F60005C0F60006C0F60004053A2B4679
:10268000009430684FF49871FEF762F941F22C041F
:10269000D8F81830C2F200049A687768206046F2D1
:1026A0001030C0F60000043A2B4600904FF49871A9
:1026B0003846FEF74DF9D8F81830B7689A68606068
:1026C00046F21C30C0F60000033A2B4600904FF44F
:1026D00098713846FEF73CF9D8F81830F7689A68D0
:1026E000A06046F21830C0F60000023A2B46009077
:1026F0004FF498713846FEF72BF9D8F81830366940
:102700009A68E06046F21430C0F600004FF4987109
:10271000013A2B4600903046FEF71AF92061FFF788
:1027200067FC46F220310120C0F6000102B0BDE88E
:10273000F041FFF705BC00BFAFF30080AFF30080AE
:1027400008B50078FFF7D4FB002008BDAFF3008088
:1027500038B51C4DFFF794FCEC686420FEF748F98F
:10276000012004F1640104F16502FFF719FC00B1D6
:1027700038BDEC686420FEF73BF9022004F16401E7
:1027800004F16502FFF70CFC0028F1D1EC684FF46E
:102790007A70FEF72DF9032004F57A7104F2E9321C
:1027A000FFF7FEFB0028E3D1EC6804F1640528463E
:1027B000FEF72EF90420294604F16502BDE83840F1
:1027C000FFF7EEBBC0090020AFF30080AFF300803D
:1027D00040F60000C2F200000021FEF739BA00BF47
:1027E00040F60000C2F200000021FEF731BA00BF3F
:1027F00040F60000C2F200000021FEF729BA00BF37
:1028000000B587B0002103A8FEF722FA002103A833
:10281000FEF73EFA059901200029CCBF00210121D5
:10282000FFF776FB08B107B000BD2F4B03A89B69EB
:102830004FF498719A6800902C48013A2C4B00682C
:10284000FEF786F82B4B186003A8FEF751FA05999E
:1028500002200029CCBF00210121FFF759FB0028ED
:10286000E1D1202383F31188059B002B34DDFDF794
:10287000EFFF002383F31188059903209942D4BF09
:1028800000210121FFF744FB0028CCD10599042049
:102890004A1E51425141FFF73BFB0028C3D1202380
:1028A00083F31188059B002B1ADDFDF7D1FF002370
:1028B00083F31188059903209942D4BF0021012197
:1028C000FFF726FB0028AED1059905204B1E594283
:1028D0005941FFF71DFBA6E703A8FEF761FAC6E71B
:1028E00003A8FEF75DFAE0E7D0090020A060000829
:1028F000012900082C100020AFF30080AFF3008006
:1029000008B5202383F311888368002B06DDFDF7CB
:102910009FFF002383F31188184608BDFEF740FA95
:10292000F5E700BFAFF30080AFF30080AFF30080A6
:1029300010B540F60004C2F200042046FEF7D8F9B4
:102940002046FEF715FA002010BD00BFAFF300804F
:1029500010B5044640F60000C2F20000FEF7C8F9C8
:102960002078FFF7C5FA002010BD00BFAFF300804C
:1029700008B53220FEF73CF8202383F3118840F697
:102980000000C2F20000FEF70BFAFDF761FF002322
:1029900083F31188184608BDAFF30080AFF30080C1
:1029A0002DE9F043DFF84081454CD8F8183027680E
:1029B0009A68444E85B04FF498710532424B0096A8
:1029C0003846FDF7C5FFD8F81830404D9A6863685F
:1029D00028603F4803934FF4987101323A4B0090BE
:1029E0000398FDF7B5FFA268D8F8183003929A68EB
:1029F000686038484FF498710332334B0090039865
:102A0000FDF7A6FFE268D8F8183003929A68A8602C
:102A100031484FF4987104322B4B00900398FDF726
:102A200097FFD8F8183024699A68E8602B484FF46B
:102A300098710232244B00902046FDF789FF284C04
:102A400028612046FEF794F92046FEF791F92046CA
:102A5000FEF78EF92046FEF78BF92046FEF788F93F
:102A6000FFF7C6FA01201F49FFF76AFA814610B145
:102A700005B0BDE8F083D8F8183038469A684FF4AE
:102A8000987100960532104BFDF762FF20232860F5
:102A900083F3118802212046FEF792F94B4683F317
:102AA0001188FFF7A5FAA1680220B1F1010EDEF14D
:102AB000000151EB0E0105B0BDE8F043FFF728BA65
:102AC000A060000814630008512900082C100020A1
:102AD000186300081C6300081063000824630008E2
:102AE0000008002020630008D0090020AFF3008018
:102AF00010B5224B82B09B6900209A680090204854
:102B000001324FF498711F4B0068FDF721FF1E4CF6
:102B10001E4B214618602046FEF76AF92168012005
:102B20000B1B59425941FFF7F3F908B102B010BD30
:102B3000A1680220D1F1010138BF0021FFF7E8F9B7
:102B40000028F3D121462046FEF752F921680320E0
:102B5000B1EB040CDCF1000151EB0C01FFF7D8F9EB
:102B60000028E3D1A1680420D1F1010138BF002180
:102B700002B0BDE81040FFF7CBB900BFD00900207C
:102B8000A060000831290008000800202C10002057
:102B900070B54C4C002182B02046FEF7D9F8B0F158
:102BA000FF33594259410120FFF7B2F908B102B091
:102BB00070BD21680220B1EB040CDCF1000151EB87
:102BC0000C01FFF7A5F90028F1D1A1680320D1F18C
:102BD000010138BF0021FFF79BF90028E7D13A4BEC
:102BE0004FF498719B699A6800903848013A384BC5
:102BF0000068FDF7ADFE374B4FF4FA7118602046C0
:102C0000FEF7A6F80546FFF7F3F90420D5F1010118
:102C100038BF0021FFF77CF90028C8D121680520C2
:102C2000B1EB040EDEF1000151EB0E01FFF770F97C
:102C30000028BCD1A1680620D1F1010138BF0021D4
:102C4000FFF766F90028B2D1FFF71AFA224B4125A7
:102C5000DE682846FFF74CF94FF4FA711948FEF781
:102C600077F8B0F1FF30414241410720FFF750F9BA
:102C700000289CD1216808200A1B51425141FFF7CE
:102C800047F9002893D1A1680920D1F1010138BF8B
:102C90000021FFF73DF90135EDB2002887D1462D1F
:102CA000D7D10A200D49FFF74BF900287FF47FAFF9
:102CB0000B2006F6C41106F6C91202B0BDE870403A
:102CC000FFF76EB900080020D0090020A0600008BE
:102CD000712900082C100020C00900202063000882
:102CE000F0B540F6D013C2F200039B6946F2A0058E
:102CF0009E6846F2143483B0C0F60005C0F60004A6
:102D000042F60163721C009428684FF49871C0F673
:102D10000003FDF71DFE41F22C04C2F200046F68AF
:102D2000206046F21C30C0F6000042F6D153B21CBF
:102D300000904FF49871C0F600033846FDF708FE86
:102D4000AD68606046F21830C0F6000042F691535C
:102D50004FF49871F21CC0F6000300902846FDF76E
:102D6000F7FD40F62C05C2F20005A0602846FEF7EC
:102D700097F92846FEF794F9FFF73AF946F2A04191
:102D80000120C0F6000103B0BDE8F040FFF7D8B85D
:102D900010B5044640F61C00C2F20000FEF7D0F861
:102DA0002078FFF7A5F8FEF7F3F8002010BD00BF6C
:102DB00010B5044640F60C00C2F20000FEF7C0F861
:102DC0002078FFF795F8FEF7E3F8002010BD00BF6C
:102DD00010B5044640F60C00C2F20000FEF7B0F851
:102DE00040F62C00C2F20000FEF7D2F92078FFF77F
:102DF0007FF8FEF7CDF8002010BD00BFAFF30080D4
:102E000010B5044640F61C00C2F20000FEF798F828
:102E100040F60C00C2F20000FEF792F840F62C00DB
:102E20004FF0FF31C2F20000FEF7EAF92078FFF719
:102E30005FF8FEF7ADF8FEF7ABF8002010BD00BF5D
:102E400040F62C0008B5C2F20000FEF721F940F66A
:102E50000C00C2F20000FEF703F840F61C00C2F2BC
:102E60000000BDE80840FDF7FBBF00BFAFF30080E6
:102E700040F62C0008B5C2F20000FEF709F940F652
:102E80000C00C2F20000BDE80840FDF7E9BF00BF3A
:102E900040F62C0008B5C2F20000FEF7F9F840F643
:102EA0000C00C2F20000BDE80840FDF7D9BF00BF2A
:102EB00040F60C00C2F20000FDF7D2BFAFF3008075
:102EC00040F60C0008B5C2F20000FDF7C9FF40F65D
:102ED0001C00C2F20000BDE80840FDF7C1BF00BF02
:102EE00040F60C0008B5C2F20000FDF7B9FF40F64D
:102EF0001C00C2F20000BDE80840FDF7B1BF00BFF2
:102F000040F60C00C2F20000FDF7AABFAFF300804C
:102F100040F60C00C2F20000FDF7A2BFAFF3008044
:102F2000F0B540F6D013C2F200039B6946F2A0064A
:102F30009F6842F6D15546F2243483B0C0F60005AE
:102F4000C0F60006C0F600047A1C2B4600943068D8
:102F50004FF49871FDF7FCFC41F22C04C2F200041E
:102F6000206046F21030C0F60000BA1C2B460090DC
:102F70004FF498717068FDF7EBFC606046F21C300E
:102F8000C0F60000FA1C2B4600904FF49871B06810
:102F9000FDF7DEFCA06046F21830C0F600003A1DD6
:102FA0002B4600904FF49871F068FDF7D1FC36691C
:102FB000E06046F21430C0F600004FF498717A1DBC
:102FC0002B4600903046FDF7C3FC206140F62C00F4
:102FD000C2F20000FEF7A4F8FFF70AF846F220312B
:102FE0000120C0F6000103B0BDE8F040FEF7A8BF25
:102FF000F0B540F6D013C2F200039B6946F2A0067A
:103000009F6842F6D15546F2243183B0C0F60006DF
:10301000C0F60005C0F600017A1C2B46009130680E
:103020004FF49871FDF794FC41F22C04C2F20004B5
:103030007168206046F21030C0F60000BA1C2B46C2
:10304000009008464FF49871FDF782FCB16860600B
:1030500046F21C30C0F60000FA1C2B4600900846D1
:103060004FF49871FDF774FCF168A06046F21830D7
:10307000C0F600003A1D2B46009008464FF49871A8
:10308000FDF766FC326946F21431C0F60001E060DB
:103090002B46009110464FF498717A1DFDF758FCAD
:1030A0002023206183F3118840F62C04C2F200042F
:1030B0002046FEF70DF82046FEF70AF82046FEF7F8
:1030C00007F82046FEF704F82046FEF701F8FDF762
:1030D000BFFB002383F31188FEF78AFF46F22031FD
:1030E0000120C0F6000103B0BDE8F040FEF728BFA4
:1030F000F0B52C4F2C4EBB692C4D9C6885B02C48EC
:10310000FDF71EFF621C30684FF49871294B009543
:10311000FDF71EFC284D7368286028480393A21C05
:103120004FF49871234B00900398FDF711FCB3689E
:10313000686023480393E21C4FF498711D4B009084
:103140000398FDF705FCF368A8601E480393221D51
:103150004FF49871174B00900398FDF7F9FB36690F
:10316000E86019484FF49871621D124B0090304688
:10317000FDF7EEFB2861FDF70BFFFEF739FFBB699A
:10318000012099680B1B59425941FEF7C1FE08B155
:1031900005B0F0BD0D49022005B0BDE8F040FEF7D6
:1031A000CFBE00BFD0090020A06000082463000843
:1031B0000C080020B12D00082C100020106300081E
:1031C0001C630008186300081463000820630008EB
:1031D000F8B52E4D2E4CAB6920469E68FDF7C0FE1B
:1031E00001460120FEF794FE00B1F8BD2046FDF730
:1031F000B7FE80F00101C9B20220FEF789FE074642
:103200000028F2D1202383F31188FDF7F1FE3B461D
:1032100083F3118821680320B1EB040CDCF1000179
:1032200051EB0C01FEF774FE0028DED1A1680420EA
:10323000D1F1010138BF0021FEF76AFE0028D4D188
:10324000AB6905209968B1EB060EDEF1000151EB88
:103250000E01FEF75DFE0028C7D12046FDF770FE87
:10326000FDF7EEFE216806200A1B51425141FEF790
:103270004FFE0028B9D1A1680720D1F1010138BF64
:103280000021BDE8F840FEF743BE00BFD009002092
:103290000C080020AFF30080AFF30080AFF3008094
:1032A0002DE9F0468A4D8B4EAB6932689C6885B03B
:1032B0008948039204F101094FF498714A46874BFB
:1032C00000900398FDF744FB854F76683860854889
:1032D00004F1020A4FF498715246834B0090304635
:1032E000FDF736FB78608148FDF72AFEAB690120C7
:1032F00099680A1B51425141FEF70AFE10B105B010
:10330000BDE8F0866420FDF773FBAB690220996885
:10331000B1EB090359425941FEF7FAFD0028EED1FD
:103320007348FDF70DFEAB6903209968B1EB090CFA
:10333000DCF1000151EB0C01FEF7EAFD0028DED1C3
:103340006420FDF755FBAB6904209968B1EB0A0EC8
:10335000DEF1000151EB0E01FEF7DAFD0028CED1BF
:10336000FDF716FEAB6905209968B1EB09025142E1
:103370005141FEF7CDFD0028C1D16420FDF738FB97
:10338000AB6906209968B1EB090359425941FEF730
:10339000BFFD0028B3D1FDF753FEAB690720996844
:1033A000B1EB040CDCF1000151EB0C01FEF7B0FDB8
:1033B0000028A4D1FEF71CFE4E484FF498714A46EF
:1033C000464B00900398FDF7C3FA38604A484FF423
:1033D0009871454B524600903046FDF7B9FA786037
:1033E0004248FDF7ADFDAB6908209968B1EB040ECA
:1033F000DEF1000151EB0E01FEF78AFD00287FF49B
:103400007EAF6420FDF7F4FAAB6909209968B1EB4F
:10341000090251425141FEF77BFD00287FF46FAF56
:103420003348FDF78DFDAB690A209968B1EB0903BC
:1034300059425941FEF76CFD00287FF460AF6420CB
:10344000FDF7D6FAAB690B209968B1EB0A0CDCF1F9
:10345000000151EB0C01FEF75BFD064600287FF4EE
:103460004EAF202383F31188FDF7C2FD334683F36B
:103470001188AB690C209968B1EB090EDEF10001EF
:1034800051EB0E01FEF744FD00287FF438AF6420B5
:10349000FDF7AEFAAB690D209968B1EB0902514214
:1034A0005141FEF735FD00287FF429AFFDF7C8FD37
:1034B000AB690E2099680B1B59425941FEF728FD54
:1034C00000287FF41CAF05B0BDE8F046FEF790BDC4
:1034D000D0090020A060000818630008213500080A
:1034E0002C10002014630008013500081C0800207F
:1034F0000C080020106300081C630008AFF3008074
:1035000008B59620FDF774FA40F60C00C2F20000F0
:10351000FDF716FDFDF73CFD002008BDAFF3008070
:1035200008B53220FDF764FA40F61C00C2F2000034
:10353000FDF706FDFDF72CFD002008BDAFF3008070
:103540002DE9F041304E84B0FEF79AFDB369DFF803
:10355000DC809A6800252D4C4FF49871053A2C4B6D
:103560000095D8F80000E768FDF7F2F9B369294C37
:103570009A68D8F80430206003934FF49871043AA5
:10358000254B00950398FDF7E3F9B369D8F80820B7
:103590004FF4987103929A686060033A1F4B00954C
:1035A0000398FDF7D5F9B369D8F80C204FF498715A
:1035B00003929A68A060023A194B00950398FDF7B0
:1035C000C7F9B369D8F810609A684FF49871E06051
:1035D000013A144B00953046FDF7BAF92061FEF729
:1035E00007FD01201049FEF7ABFC10B104B0BDE8A7
:1035F000F081022007F16E0107F1730204B0BDE80B
:10360000F041FEF7CDBC00BFD0090020C00900206A
:10361000B13700082C10002061370008313700084E
:1036200011370008E136000820630008A060000898
:103630002DE9F041224E84B0FEF722FDB369DFF898
:103640009C809A6800251F4C4FF49871013A1E4BDC
:103650000095D8F80000E768FDF77AF9B3691B4CCC
:103660009A68D8F80430206003934FF49871023AB6
:10367000174B00950398FDF76BF9B369D8F808600C
:103680009A684FF498716060033A124B0095304687
:10369000FDF75EF9A060FEF7ABFC01200E49FEF7D6
:1036A0004FFC10B104B0BDE8F081022007F16401C5
:1036B00007F1690204B0BDE8F041FEF771BC00BF3C
:1036C000D0090020C0090020313800082C1000204B
:1036D00011380008E1370008A0640008A060000865
:1036E00008B53220FDF784F940F61C00C2F2000054
:1036F000FDF726FC0A20FEF793FCFDF749FC41206C
:10370000FEF7F6FB002008BDAFF30080AFF30080AA
:1037100008B52820FDF76CF91420FEF781FC422043
:10372000FEF7E6FB002008BDAFF30080AFF300809A
:1037300008B51420FDF75CF940F61C00C2F2000049
:10374000FDF7FEFB0A20FEF76BFCFDF721FC432092
:10375000FEF7CEFB002008BDAFF30080AFF3008082
:1037600008B50A20FDF744F940F61C00C2F200003B
:10377000FDF7E6FB1420FEF753FC40F60C00C2F206
:103780000000FDF7DDFB0A20FEF74AFCFDF700FC18
:103790000A20FEF745FCFDF7FBFB4420FEF7A8FBE3
:1037A000002008BDAFF30080AFF30080AFF30080CE
:1037B00040F60C0008B5C2F20000FDF7C1FB1E2068
:1037C000FEF72EFCFDF7E4FB4520FEF791FB002001
:1037D00008BD00BFAFF30080AFF30080AFF30080FF
:1037E00040F60C0008B5C2F20000FDF7A9FB282046
:1037F000FEF716FCFDF7CCFB0A20FEF711FC432078
:10380000FEF776FB002008BDAFF30080AFF3008029
:1038100008B51420FDF7ECF82820FEF701FC422043
:10382000FEF766FB002008BDAFF30080AFF3008019
:1038300008B52820FDF7DCF840F60C00C2F20000C5
:10384000FDF77EFB0A20FEF7EBFBFDF7A1FB412015
:10385000FEF74EFB002008BDAFF30080AFF3008001
:1038600010B540F6D013C2F200039C6946F2A003E3
:10387000A268C0F6000382B0186843F6F103013273
:103880004FF498710094C0F60003FDF761F841F21F
:103890002C03C2F200031860FDF782FE446B214640
:1038A000FDF79EFEE0B2FEF723FBFDF779FE446BC9
:1038B0002146FDF795FEE0B2FEF71AFBFDF770FE1C
:1038C000446B2146FDF78CFEE0B2FEF711FB46F299
:1038D000A0410120C0F6000102B0BDE81040FEF793
:1038E0002FBB00BFAFF30080AFF30080AFF30080C9
:1038F00010B541210446FDF733FE42212046FDF775
:103900002FFE20464321FDF72BFE002010BD00BFF7
:10391000F0B5B44E0120716A83B04B1F5942594132
:10392000FEF7F6FA00BB4224AE4D214628464FF082
:10393000FF32FDF7BDFED0F1010138BF00210220AA
:103940000134FEF7E5FA78B9462CEDD1412128463D
:103950004FF0FF32FDF7F4FED0F1010138BF002136
:103960000320FEF7D5FA08B103B0F0BD58210122BB
:103970002846FDF79DFEB0F1FF3CDCF1000151EB64
:103980000C010420FEF7C4FA04460028ECD12023E1
:1039900083F3118858212846FDF79AFE23460146F5
:1039A00083F311880520B1F1FF3EDEF1000151EBF8
:1039B0000E01FEF7ADFA0028D6D158210122284683
:1039C000FDF7BEFEB0F1FF32514251410620FEF735
:1039D0009FFA04460028C7D1202383F31188582179
:1039E0002846FDF7BDFE2346014683F311880720D4
:1039F000B1F1FF3359425941FEF78AFA07460028D0
:103A0000B2D1202383F31188696A0820D1F1010122
:103A100038BF0021FEF77CFA044618B13B4683F319
:103A20001188A1E7034683F31188202383F31188CB
:103A3000A9690920B1F1050CDCF1000151EB0C0181
:103A4000FEF766FA034618B1234683F311888BE725
:103A500083F31188202383F31188E968AB680A2077
:103A6000B1EB030EDEF1000151EB0E01FEF750FA4F
:103A7000002383F3118800287FF476AF052505E045
:103A80009DF80400FEF734FA013D10D0554C01A911
:103A90004FF0FF322046FDF79BFED0F1010138BF09
:103AA00000210B20FEF734FA0028E9D05CE70C2057
:103AB0004D49FEF745FA00287FF456AF47212046CE
:103AC0004FF0FF32FDF7F4FDD0F1010138BF0021C6
:103AD0000D20FEF71DFA00287FF446AF01A920460D
:103AE0004FF0FF32FDF774FED0F1010138BF002125
:103AF0000E20FEF70DFA00287FF436AF2168A36888
:103B00000F20CA1A51425141FEF702FA00287FF4F1
:103B10002BAF2168E3681020CB1A59425941FEF7B8
:103B2000F7F900287FF420AF01A901222046FDF714
:103B30004FFEB0F1FF3CDCF1000151EB0C01112014
:103B4000FEF7E6F900287FF40FAF202383F31188F6
:103B500001A92046FDF74CFE2B46014683F3118850
:103B60001220B1F1FF3EDEF1000151EB0E01FEF734
:103B7000CFF900287FF4F8AE202383F31188616A1F
:103B800013204A1F51425141FEF7C2F9002383F32B
:103B9000118800287FF4E8AE202383F31188B169EF
:103BA0001420D1F1010138BF0021FEF7B1F90D4C0D
:103BB000054618B1002383F31188D5E6034683F345
:103BC0001188202383F31188E168A3681520CB1A9C
:103BD00059425941FEF79CF9034638B12B4683F30D
:103BE0001188C1E6340800202063000883F311889F
:103BF000202383F3118841212046FDF769FDD0F190
:103C0000010138BF00211620FEF782F900287FF459
:103C1000ABAE42212046FDF75BFDD0F1010138BF7C
:103C200000211720FEF774F900287FF49DAE432190
:103C30002046FDF74DFDD0F1010138BF00211820CD
:103C4000FEF766F900287FF48FAE44212046FDF789
:103C50003FFDD0F1010138BF00211920FEF758F9CE
:103C6000054600287FF480AE45212046FDF730FD53
:103C70002B46014683F311881A20D1F1010138BF88
:103C80000021FEF745F900287FF46EAEE168A368D5
:103C90001B20B1EB030CDCF1000151EB0C01FEF732
:103CA00037F900287FF460AE0525202383F31188BF
:103CB000A04C01A92046FDF79BFD0023014683F39C
:103CC00011881C20B1EB030EDEF1000151EB0E0157
:103CD000FEF71EF900287FF447AE9DF80400FEF7BA
:103CE00007F9013DE1D11D209349FEF729F900288C
:103CF0007FF43AAE202383F31188616A1E204A1FA5
:103D000051425141FEF704F92B4683F311880028F4
:103D10007FF42AAE202383F31188A1691F20D1F1FB
:103D2000010138BF0021FEF7F3F82B4683F3118819
:103D300000287FF419AEE168A3682020CB1A59420D
:103D40005941FEF7E5F800287FF40EAE202383F3F7
:103D5000118845212046FDF703FDD0F1010138BF50
:103D600000212120FEF7D4F800287FF4FDAD442186
:103D70002046FDF7F5FCD0F1010138BF00212220DB
:103D8000FEF7C6F800287FF4EFAD43212046FDF78B
:103D9000E7FCD0F1010138BF00212320FEF7B8F87D
:103DA00000287FF4E1AD42212046FDF7D9FCD0F197
:103DB000010138BF00212420FEF7AAF800287FF473
:103DC000D3AD5C4C41212046FDF7CAFC00230146DF
:103DD00083F311882520B1EB030CDCF1000151EBDA
:103DE0000C01FEF795F800287FF4BEADE168A368EA
:103DF0002620B1EB030EDEF1000151EB0E01FEF7C0
:103E000087F800287FF4B0AD0524202383F31188C0
:103E1000484D01A92846FDF7EBFC0023014683F33A
:103E200011882720CA1A51425141FEF771F8002823
:103E30007FF49AAD9DF80400FEF75AF8013CE4D1F6
:103E400028203D49FEF77CF800287FF48DAD202323
:103E500083F31188696A29204B1F59425941FEF7A3
:103E600057F8234683F3118800287FF47DAD202383
:103E700083F31188A9692A20D1F1010138BF0021FB
:103E8000FEF746F8234683F3118800287FF46CADD3
:103E9000E968AB682B20B1EB030CDCF1000151EBBE
:103EA0000C01FEF735F800287FF45EAD2846FDF7DB
:103EB000BFFB202383F31188696A2C20B1F1050E22
:103EC000DEF1000151EB0E01FEF722F8234683F3E9
:103ED000118800287FF448AD202383F31188A96955
:103EE0002D20D1F1010138BF0021FEF711F8234642
:103EF00083F3118800287FF437AD202383F31188E2
:103F00002968AB682E20CA1A51425141FEF700F8C9
:103F1000234683F3118800287FF426AD202383F302
:103F200011882968EB682F20CB1A59425941FDF7B7
:103F3000EFFF3FE63408002020630008AFF3008065
:103F400040F6340040F61821C2F20000C2F200012F
:103F50000522FDF755BB00BFAFF30080AFF3008033
:103F60004FF0FF30FDF78CB9AFF30080AFF3008066
:103F70004FF0FF30FDF784B9AFF30080AFF300805E
:103F80004FF0FF30FDF77CB9AFF30080AFF3008056
:103F90002DE9F04205208CB0FDF78AF94FF0FF3093
:103FA000FDF7FEF90138414241410120FDF7B0FF24
:103FB00010B10CB0BDE8F0824FF0FF30FDF7F0F922
:103FC000021F514251410220FDF7A2FF0028F0D10B
:103FD0004FF0FF30FDF754F9D0F1010138BF002157
:103FE0000320FDF795FF0028E3D1754DFEF748F853
:103FF000744BAC691B68A2680393734F4FF49871BC
:10400000013A724B00940398FC68FCF7A1FC704ED7
:1040100030604FF0FF30FDF7C3F904F13201814603
:1040200004F137020420FDF7BBFF0028C1D10520B1
:10403000B9F1010359425941FDF76AFF0028B8D18F
:104040004FF0FF30FDF71CF9D0F1010138BF00211E
:104050000620FDF75DFF0028ABD1FDF7C9FF052065
:10406000FDF726F94FF0FF30FDF7BAF9B0F1050C76
:10407000DCF1000151EB0C010720FDF749FF00289E
:1040800097D14FF0FF30FDF7FBF8D0F1010138BFB9
:1040900000210820FDF73CFF00288AD1FDF7F0FF42
:1040A000A8694FF498718268484B013A00900398D0
:1040B000FC68FCF74DFC30604FF0FF30FDF790F9E5
:1040C00004F13201814604F137020920FDF768FF4F
:1040D00000287FF46EAF0A20B9F1010EDEF1000175
:1040E00051EB0E01FDF714FF00287FF462AF4FF093
:1040F000FF30FDF7C5F8D0F1010138BF00210B20DA
:10410000FDF706FF00287FF454AFDFF8D490314C60
:10411000FDF76EFF484604A90122C9F8009024600B
:10412000FDF77EF808A904222046FDF779F8FDF78F
:10413000A7FFAB6928489A684FF49871013A00903C
:10414000264B0398FD68FCF703FC30600520FDF763
:1041500067F90C2005F1320105F13702FDF720FF68
:1041600000287FF426AF4FF0FF30FDF789F8D0F13B
:10417000010138BF00210D20FDF7CAFE00287FF4A1
:1041800018AFFDF735FF484604A9FDF761F8204652
:1041900008A9FDF75DF8D9F800100E20B1EB09026F
:1041A00051425141FDF7B4FE00287FF402AF21686F
:1041B0000F200B1B59425941FDF7AAFEF9E600BF3B
:1041C000D0090020A0600008C0090020214200089A
:1041D0002C1000206008002014630008F141000842
:1041E0005C080020AFF30080AFF30080AFF30080E5
:1041F00040F65C0008B50021C2F20000FDF7A8F807
:104200003220FCF7F5FB40F66000C2F2000000210E
:10421000FDF79EF8002008BDAFF30080AFF30080EB
:1042200010B504463220FCF7E3FB20460121FDF7E0
:1042300067F8002010BD00BFAFF30080AFF300802F
:1042400010B51E4C88B00122204669462460FCF758
:10425000E7FF204604A90222FCF7E2FF21680120C3
:10426000091B18BF0121FDF753FE08B108B010BDAE
:1042700020466946FCF7ECFF21680220091B18BFA5
:104280000121FDF745FE0028F0D1204604A9FCF7E6
:10429000DFFF21680320B1EB040EDEF1000151EBDA
:1042A0000E01FDF735FE0028E0D107210448FDF797
:1042B0005FF804200349FDF743FED7E75C080020C0
:1042C00000670008A0640008AFF30080AFF300802F
:1042D0004320FDF70DBE00BFAFF30080AFF30080B9
:1042E0004220FDF705BE00BFAFF30080AFF30080B2
:1042F0004120FDF7FDBD00BFAFF30080AFF30080AC
:1043000008B500214FF0FF30FDF7AAF8D0F1010108
:1043100038BF00210120FDF7FBFD00B108BD0146BB
:104320004FF0FF30FDF7C4F8D0F1010138BF002194
:104330000220FDF7EDFD0028F0D101464FF0FF30DF
:10434000FDF7DEF8D0F1010138BF00210320FDF7B1
:10435000DFFD0028E2D10A214FF0FF30FDF780F8A1
:10436000D0F1010138BF00210420FDF7D1FD002864
:10437000D4D10A214FF0FF30FDF79AF8D0F10101B6
:1043800038BF00210520FDF7C3FD0028C6D10A2152
:104390004FF0FF30FDF7B4F8D0F1010138BF002134
:1043A0000620BDE80840FDF7B3BD00BFAFF30080B5
:1043B00070B582B0FDF7F4FB01A90020FDF7B0FC59
:1043C00010210020FDF71CFC011C18BF0121044630
:1043D0000120FDF79DFD054608B102B070BD2046E5
:1043E000FDF756FC6FF0FF012846FDF709FCD0F100
:1043F000010138BF00210220FDF78AFD0028ECD121
:1044000001A97C48FDF78CFC10217A48FDF7F8FBE8
:10441000102105467748FDF7F3FB10210446754847
:10442000FDF7EEFB06462846FDF732FC2046FDF779
:104430002FFC3046FDF72CFC69466E48FDF770FCFA
:10444000B0F1010EDEF1000151EB0E010320FDF78A
:104450005FFD0028C1D110216648FDF7D1FB102176
:1044600004466448FDF7CCFB102105466148FDF782
:10447000C7FBFDF70DFC2846FDF70AFC2046FDF7BB
:1044800007FC69465B48FDF74BFC0138414241415E
:104490000420FDF73DFD00289FD111215548FDF76F
:1044A000AFFB102104465348FDF7AAFB0546204602
:1044B000FDF7EEFB69464F48FDF732FC821E514284
:1044C00051410520FDF724FD002886D110214948DF
:1044D000FDF796FB694604464648FDF721FC012896
:1044E00008BF014606D069464248FDF719FC831E05
:1044F000594259410620FDF70BFD00287FF46DAFAE
:104500002846FDF7C5FB2046FDF7C2FB6946394842
:10451000FDF706FCB0F1010CDCF1000151EB0C01E0
:104520000720FDF7F5FC00287FF457AF1021314834
:10453000FDF766FB102105462E48FDF761FB04469A
:104540002846FDF7A5FB69462A48FDF7E9FBB0F1CF
:10455000020EDEF1000151EB0E010820FDF7D8FC40
:1045600000287FF43AAF20212248FDF749FBFDF7F0
:104570008FFB2046FDF78CFB69461E48FDF7D0FBFC
:104580000138414241410920FDF7C2FC00287FF477
:1045900024AF69461748FDF7C3FB00991548FDF79E
:1045A0002FFB694604461348FDF7BAFBD0F1010121
:1045B00038BF00210A20FDF7ABFC00287FF40DAFC7
:1045C0002046FDF765FB69460A48FDF7A9FB421E38
:1045D000514251410B20FDF79BFC00287FF4FDAEBA
:1045E0009DE80A000C20CB1A59425941FDF790FC76
:1045F000F3E600BF58100020AFF30080AFF3008057
:1046000041F2580040F61821C2F20000C2F2000147
:104610004FF4BE62FDF7E4BAAFF30080AFF3008061
:1046200000207047AFF30080AFF30080AFF300804D
:1046300040F66400C2F200004FF498710022FDF7CA
:104640008FBB00BFAFF30080AFF30080AFF30080FB
:104650002D4B70B51D682D4805222946FDF788FBB6
:1046600005242A48FDF79CFB011C18BF01210120ED
:10467000FDF74EFC002835D1013CF2D12348FDF76F
:104680008FFBD0F1010138BF00210220FDF740FC73
:1046900040BB1D4C294604F110061C48FDF798FB51
:1046A000B44207D054F8045F18482946FDF790FB40
:1046B000B442F7D105241548FDF772FB011C18BF61
:1046C00001210320FDF724FC60B9013CF3D10F4820
:1046D000FDF766FBD0F1010138BF00210420FDF792
:1046E00017FC00B170BD1021094A0848FDF738FBDE
:1046F0000648FDF755FBD0F1010138BF0021052028
:10470000BDE87040FDF704BCA0600008640800200C
:1047100021460008AFF30080AFF30080AFF30080C4
:1047200038B50546FCF76CFA002403461846AB4240
:1047300008BF44F00104FCF773FA03460028F5D1E2
:10474000204638BDAFF30080AFF30080AFF30080A8
:1047500010B5494B82B09B694FF498719A68474BEA
:10476000013A00934648474BFCF702FA817F044622
:104770000120B1EB000CDCF1000151EB0C01FDF765
:10478000C7FB08B102B010BD2046FCF7B9F9A17F04
:104790000220B1EB000EDEF1000151EB0E01FDF73E
:1047A000B7FB0028EED12046FCF7BAF9A17F032021
:1047B0004A1E51425141FDF7ABFB0028E2D1204691
:1047C000FFF7AEFF01460420FDF7A2FB0028D9D178
:1047D0002046FFF7A5FF01460520FDF799FB0028BD
:1047E000D0D12046FCF79CF9A17F0620D1F1010130
:1047F00038BF0021FDF78CFB0028C3D1217F0720A3
:10480000D1F1010138BF0021FDF782FB0028B9D1A9
:104810002046FFF785FF01460820FDF779FB0028B9
:10482000B0D12046FFF77CFF01460920FDF770FB61
:104830000028A7D13220FCF7DBF8217F0A20B1F154
:104840000E0359425941FDF763FB00289AD12046D7
:10485000FFF766FF01460B20FDF75AFB002891D1B8
:104860002046FFF75DFF80F00101C9B20C2002B0C5
:10487000BDE81040FDF74CBBD009002014630008D0
:104880008810002091480008AFF30080AFF300804B
:1048900008B50078FDF72CFB002008BDAFF30080C1
:1048A00041F2880040F61821C2F20000C2F2000175
:1048B0004FF4BE62FDF794B9AFF30080AFF3008010
:1048C00041F2880040F61821C2F20000C2F2000155
:1048D0004FF4BE62FDF784B9AFF30080AFF3008000
:1048E000324B70B59B69324C9D6804F1100654F848
:1048F000041F3048FDF76CFAB442F8D1691E2E4A05
:104900002E4B2C48FCF754F92D4CA91E20602A4A46
:104910002C4B2848FCF74CF9E91E6060264A2A4BCC
:104920002448FCF745F9291FA060234A274B21485A
:10493000FCF73EF9691FE0601F4A1E48244BFCF754
:1049400037F92168206149B1616839B1A16829B19D
:10495000E16819B1D0F1010138BF00210120FDF754
:10496000D7FA00B170BDFDF743FB02201949FDF7EE
:10497000E7FA0028F6D104240E48FDF711FA011CCD
:1049800018BF01210320FDF7C3FA0028EAD1013C3A
:10499000F2D10848FDF704FAD0F1010138BF002137
:1049A0000420BDE87040FDF7B3BA00BFD009002075
:1049B0009C600008781000209148000814630008EB
:1049C0002C100020186300081C6300081063000806
:1049D00024630008E0670008AFF30080AFF30080B5
:1049E00041F27800C2F200004FF498710022FDF706
:1049F000B7B900BFAFF30080AFF30080AFF3008022
:104A000070B5334B84B09B6903A932489D68FDF7AC
:104A100087F931484FF498716A1E304B00902D4849
:104A2000FCF7A6F82E4CAA1E20602E482B4B4FF404
:104A3000987100902748FCF79BF802A96060254810
:104A4000FDF76EF902992348FDF7DAF80646264885
:104A50004FF49871EA1E214B00901E48FCF788F82D
:104A6000A0603046FDF714F9216829B1616819B1D9
:104A7000A168002923D000210120FDF749FA08B1DF
:104A800004B070BDFDF7B4FA02201849FDF758FADA
:104A90000028F5D102A90F48FDF742F9421E514204
:104AA00051410320FDF734FA0028E9D10299039B14
:104AB0000420CB1A59425941FDF72AFAE0E7E3688E
:104AC000002BD9D12169D1F1010138BF0021D3E7F1
:104AD000D0090020881000201463000891480008C5
:104AE0002C100020186300081C630008E867000809
:104AF000704700BFAFF30080AFF30080AFF30080DA
:104B000040F6700008B50021C822C2F20000FCF790
:104B10007FFF002008BD00BFAFF30080AFF300802F
:104B200000B546F2A003C0F6000383B01968002365
:104B3000009340F6700044F6F123C2F20000042214
:104B4000C0F60003FCF73CFF03B000BDAFF30080EC
:104B500040F6940008B5C821C2F20000FCF7C8FE78
:104B6000002008BDAFF30080AFF30080AFF30080FA
:104B700000B546F2A003C0F6000383B01968002315
:104B8000009340F6940044F6F123C2F200000422A0
:104B9000C0F60003FCF75CFE03B000BDAFF300807D
:104BA0002DE9F041202382B083F31188904B59699D
:104BB0009A69914263D000210120FDF7A9F90028EC
:104BC0003AD1034683F311884124894D21460134AB
:104BD00028464FF0FF32E4B2FCF71AFF452CF4D11F
:104BE000202383F31188A9680220D1F1010138BF85
:104BF0000021FDF78DF9F8B9034683F311880424E9
:104C0000202383F311887A4D2846FCF729FF0023DF
:104C100083F31188C0B2FDF76BF9013CF0D120237A
:104C200083F311886A69AB699A4218BF21462BD079
:104C30000320FDF76DF928B1002383F3118802B03A
:104C4000BDE8F081034683F3118804206949FDF72C
:104C500077F904460028F2D1202383F31188644DAC
:104C60002846FCF7FDFE033014BF0021012105207A
:104C7000FDF74EF968B1234683F31188DFE79968A1
:104C8000003118BF012197E7A968003118BF012141
:104C9000CEE7034683F31188574E082274682846EE
:104CA0002146FCF705FF031F594259410620FDF735
:104CB0002FF907460028C2D1202383F31188A96861
:104CC0000720D1F1010138BF0021FDF721F980460D
:104CD00018B13B4683F31188B1E7034683F311888B
:104CE000464B30689B694FF498719A68CDF8008004
:104CF0000132434BFBF72CFE424A2023106083F322
:104D000011882969EA68AB688A1AD11A0820B1F1BA
:104D1000040CDCF1000151EB0C01FDF7F9F806463B
:104D200018B1434683F3118889E7034683F311885A
:104D3000FDF75EF9202383F311882846FCF750FE27
:104D4000334683F31188202383F311882969EA68A5
:104D5000AB68891A0920B1EB030EDEF1000151EBBB
:104D60000E01FDF7D5F8034618B1334683F31188D9
:104D700065E783F31188022221462846FCF798FE56
:104D80000238414241410A20FDF7C2F8034600289B
:104D90007FF455AF214602222846FCF789FE821E89
:104DA000514251410B20FDF7B3F800287FF447AF83
:104DB000202383F31188A9680C20D1F1010138BFA9
:104DC0000021FDF7A5F8002383F3118800287FF464
:104DD00036AF19460A220648FCF71AFEB0F1FF3337
:104DE000594259410D2002B0BDE8F041FDF790B89D
:104DF00070080020E0670008A0600008D0090020CB
:104E0000014B00082C100020AFF30080AFF30080AE
:104E1000F0B5202383B083F31188A24C0120A16850
:104E2000D1F1010138BF0021FDF772F8054638BB0A
:104E3000034683F31188202383F311884121204600
:104E4000FCF72EFD42212046FCF72AFD4321204697
:104E5000FCF726FD20464421FCF722FD2B4683F378
:104E60001188202383F311886269A3699A4218BFCD
:104E7000294600F012810220FDF74AF8044620B1CD
:104E8000002383F3118803B0F0BD034683F3118838
:104E9000202383F3118883482146FCF701FD043069
:104EA00014BF002101210320FDF732F8002840F053
:104EB000F080034683F3118804247A4D4FF0FF31CC
:104EC0002846FCF715FDC0B2FDF712F8013CF4D1FD
:104ED000202383F31188A9680420D1F1010138BF90
:104EE0000021FDF715F8234683F311880028CAD165
:104EF00005206D49FDF724F80028C4D1202383F351
:104F0000118841212846FCF7CBFC42212846FCF7BA
:104F1000C7FC43212846FCF7C3FC28464421FCF784
:104F2000BFFC234683F31188604F08227E68284621
:104F30003146FCF705FDB0F1040CDCF1000151EB4A
:104F40000C010620FCF7E4FF00289CD1202383F30A
:104F50001188A9680720D1F1010138BF0021FCF7B1
:104F6000D7FF234683F3118800288CD1202383F3B5
:104F7000118841212846FCF793FC42212846FCF782
:104F80008FFC43212846FCF78BFC28464421FCF784
:104F900087FC234683F31188022231462846FCF71A
:104FA000CFFCB0F1020EDEF1000151EB0E01082042
:104FB000FCF7AEFF00287FF466AF31460222284698
:104FC0002346FCF7BDFC0238414241410920FCF771
:104FD0009FFF00287FF457AF202383F31188A9682F
:104FE0000A20D1F1010138BF0021FCF791FF2346CF
:104FF00083F3118800287FF446AF202383F31188C0
:1050000021462846FCF74CFC2846FCF731FC234699
:1050100083F31188202383F31188A9680B20D1F131
:10502000010138BF0021FCF773FF234683F3118889
:1050300000287FF428AF1E4A386892694FF49871AF
:1050400092681C4B01320094FBF782FC1A4A202321
:10505000106083F31188A9680C20D1F1010138BFD9
:105060000021FCF755FF002383F3118800287FF40B
:105070000AAFFCF7BDFF0A210A48FCF739FCB0F182
:10508000FF32514251410D2003B0BDE8F040FCF722
:105090003FBF234683F31188F5E6A168003118BFAE
:1050A0000121E8E694080020E0670008A0600008FD
:1050B000D0090020514B00082C100020AFF30080D5
:1050C000704700BFAFF30080AFF30080AFF3008004
:1050D000704700BFAFF30080AFF30080AFF30080F4
:1050E00046F6901010B5C0F6000046F6A014C0F6C3
:1050F0000004FCF7D5FE4FF4CA70FCF799FE204679
:10510000FCF7DEFE46F6A810C0F60000FCF7C8FE6D
:105110004820FCF78DFE2046FCF7D2FE46F6B8107C
:10512000C0F60000FCF7BCFE1420FCF781FE204610
:10513000FCF7C6FE46F6C810C0F60000FCF7B0FE4D
:105140000C20FCF775FE2046FCF7BAFE46F6D81098
:10515000C0F60000FCF7A4FE0420FCF769FE204620
:10516000FCF7AEFE46F6E810C0F60000FCF798FE2D
:105170001020FCF75DFE2046FCF7A2FE46F6F81074
:10518000C0F60000FCF78CFE1020FCF751FE204614
:10519000FCF796FE46F60820C0F60000FCF780FEFD
:1051A0000820FCF745FE2046FCF78AFE46F618204C
:1051B000C0F60000FCF774FE2420FCF739FE204600
:1051C000FCF77EFE46F62820C0F60000FCF768FEDD
:1051D0002820FCF72DFE2046BDE81040FCF770BEED
:1051E00038B5FCF74DFF4FF47A70FCF759FF124DBC
:1051F00000241248FBF7A4FEFBF7CAFE0F48FBF79A
:105200009FFEFBF7C5FE0D48FBF79AFEFBF7C0FEBD
:105210000A48FBF795FEFBF7BBFE2B780134002B09
:10522000E7D00748FCF73CFEA000FCF701FE05486C
:10523000BDE83840FCF744BE0D100020CC10002023
:10524000386A0008486A0008AFF30080AFF30080B6
:1052500041F2CC00C2F20000FBF702BEAFF30080C7
:1052600010B5074C02E00748FBF742FDA3695B7FDE
:1052700003F00403DBB2002BF5D0002010BD00BF0B
:10528000D0090020DC100020AFF30080AFF30080D5
:1052900038B5FCF7F5FE4FF47A70FCF701FF144DBA
:1052A00000241448FBF724FD1248FBF761FD114868
:1052B000FBF71EFD0F48FBF75BFD0E48FBF718FDE3
:1052C0000C48FBF755FD0B48FBF712FD0948FBF7AF
:1052D0004FFD2B780134002BE3D00748FCF7E0FDAD
:1052E000A000FCF7A5FD0548BDE83840FCF7E8BD87
:1052F0000D100020DC100020386A0008586A0008F1
:1053000041F2DC00C2F200000121FBF7A1BC00BFAA
:1053100041F2DC00C2F200000021FBF799BC00BFA3
:1053200038B5FCF7ADFE4FF47A70FCF7B9FE154DB9
:105330000024202383F31188012100231248134AFB
:10534000FBF736F9002342F21071104A1048FBF7C0
:105350002FF90D48FBF74CF90D48FBF749F90023ED
:1053600083F311882B780134002BE2D00948FCF735
:1053700097FD6000FCF75CFD0748BDE83840FCF78E
:105380009FBD00BF0D1000200C110020D15000085F
:10539000E8100020386A0008686A0008AFF300804F
:1053A00030B5002483B024491022234623480094BA
:1053B000FCF74EFAFCF764FE4FF47A70FCF770FECF
:1053C0001F4D202383F3118800211C48FCF768FA45
:1053D00001211A48FCF764FA02211848FCF760FA28
:1053E00003211648FCF75CFA002383F311884FF081
:1053F000FF311248FCF77CFA4FF0FF310F48FCF701
:1054000077FA4FF0FF310D48FCF772FA0B484FF076
:10541000FF31FCF76DFA2B780134002BD1D009480D
:10542000FCF73EFDA000FCF703FD074803B0BDE814
:105430003040FCF745BD00BFFC100020A810002044
:105440000D100020386A0008746A0008AFF300806D
:105450002DE9F041144B154A9B6982B09F68D2F840
:105460000080FCF70DFE4FF47A70FCF719FE002463
:105470000F4E013725460F4B009540464FF498716B
:105480003A46FBF765FA33780134002BF3D00A482B
:10549000FCF706FD2046FCF7CBFC084802B0BDE84F
:1054A000F041FCF70DBD00BFD0090020A06000084E
:1054B0000D100020C1500008386A0008806A0008FA
:1054C0002DE9F04340F6D01985B004ACC2F20009D2
:1054D000002344F8043DFCF7D3FDD9F8183046F218
:1054E000A0089A6845F2B156C0F60008C0F600065A
:1054F000013A3346D8F800004FF498710094FBF756
:1055000027FAD9F81830D8F804709A6841F22C05B7
:10551000C2F200052860013A33464FF498710094B6
:105520003846FBF715FAD9F81830D8F808709A6899
:105530004FF498716860013A334600943846FBF79F
:1055400007FAD9F81830D8F80C709A684FF49871A7
:10555000A860013A334600943846FBF7F9F9D9F8C8
:105560001830D8F810709A684FF49871013A3346A1
:10557000E86000943846FBF7EBF928614FF47A7045
:10558000FBF736FAFCF724FDFCF732FD46F638202F
:10559000C0F60000FCF784FC0398FCF749FC46F6D3
:1055A0008C20C0F60000FCF78BFC05B0BDE8F08352
:1055B00038B50B4D0446FBF743FAFBF741FAFBF70E
:1055C0003FFAFBF73DFA2268AB69043222605B7F49
:1055D00003F00403DBB2002BEDD0002038BD00BF88
:1055E000D0090020AFF30080AFF30080AFF300805C
:1055F000F0B5374F374EBB6985B09A6800243068E4
:105600004FF498710532344B0094FBF7A1F9BB6954
:10561000324D9A687368286003934FF4987104328E
:105620002D4B00940398FBF793F9BB69B2684FF4D4
:10563000987103929A6868600332274B009403982C
:10564000FBF786F9BB69F2684FF4987103929A6888
:10565000A8600232204B00940398FBF779F9BB69EC
:1056600036699A684FF49871E86001321A4B0094D9
:105670003046FBF76DF92861FCF702FD4FF47A70B4
:10568000FCF70EFD164D17480021FBF701FB2B78A8
:105690000134002BF7D0FCF79BFC00211148FBF7ED
:1056A000F7FAFCF7A5FC1048FCF7FAFB2046FCF7DC
:1056B000BFFB0E48FCF7F4FB04EB44004000FCF792
:1056C000B7FB0B4805B0BDE8F040FCF7F9BB00BFE5
:1056D000D0090020A0600008615200082C100020B2
:1056E0000D100020DC100020386A0008986A0008BD
:1056F0008C6A0008AFF30080AFF30080AFF3008046
:105700002DE9F041154B164A9B6982B09F68D2F88B
:105710000080FCF7B5FC4FF47A70FCF7C1FC002464
:10572000104E013F2546104B4FF498713A460095B4
:105730004046FBF70DF9FBF7C3F933780134002B32
:10574000F1D00A48FCF7ACFB2046FCF771FB084897
:1057500002B0BDE8F041FCF7B3BB00BFD0090020A8
:10576000A06000080D100020C1500008386A000831
:10577000806A0008AFF30080AFF30080AFF30080D1
:1057800070B5254B25489B6982B09A6800254FF477
:1057900098710132224B00950068FBF7D9F8214B34
:1057A00004461860FCF76CFC4FF47A701E4EFCF750
:1057B00077FC202383F3118800212046FAF7D8FFD5
:1057C00020460021FAF7D4FF20460021FAF7D0FF47
:1057D00020460021FAF7CCFF002383F311883378A9
:1057E0000435002BE5D0202383F311884FF0FF31DF
:1057F0002046FAF7BDFF002383F31188FCF7F8FB7E
:105800000A48FCF74DFB6800FCF712FB084802B0A1
:10581000BDE87040FCF754BBD0090020A060000830
:10582000815A00082C1000200D100020386A000852
:105830008C6A0008AFF30080AFF30080AFF3008004
:1058400070B50546FCF71CFC4FF47A70FCF728FC99
:10585000074E002428460121FBF782FE33780134ED
:10586000002BF7D028460021FBF77AFE204670BDBA
:105870000D100020AFF30080AFF30080AFF3008085
:105880002DE9F04140F6D016C2F20006B36946F2A7
:10589000A0059A6882B00027C0F6000545F661238E
:1058A000013228684FF49871C0F600030097FBF7A7
:1058B0004FF8B36941F22C049A6845F2C108C2F26C
:1058C0000004C0F600082060023A43464FF4987185
:1058D00000976868FBF73CF8B3694FF498719A68D1
:1058E0006060033A43460097A868FBF731F8B36954
:1058F0004FF498719A68A060043A43460097E868AC
:10590000FBF726F8B3692D699A684FF49871053A48
:105910004346E06000972846FBF71AF820612068AC
:10592000FFF78EFF0446FCF763FB46F63820C0F60F
:105930000000FCF7B5FA2046FCF77AFA46F6AC20F0
:10594000C0F60000FCF7ACFA6000FCF771FA46F60E
:105950008C20C0F6000002B0BDE8F041FCF7B0BA00
:1059600010B540F6D013C2F200039A6946F2A003C4
:105970009268C0F6000382B00024186845F66123DF
:105980004FF4987101320094C0F60003FAF7E0FF7B
:1059900041F22C03C2F200031860FFF751FF0446E6
:1059A000FCF726FB46F63820C0F60000FCF778FA34
:1059B0002046FCF73DFA46F6AC20C0F60000FCF7A6
:1059C0006FFA6000FCF734FA46F68C20C0F600004F
:1059D00002B0BDE81040FCF773BA00BFAFF300801F
:1059E00010B540F6D013C2F200039A6946F2A00344
:1059F0009268C0F6000382B00024186845F661235F
:105A00004FF49871013A0094C0F60003FAF7A0FF32
:105A100041F22C03C2F200031860FFF711FF0446A5
:105A2000FCF7E6FA46F63820C0F60000FCF738FA34
:105A30002046FCF7FDF946F6AC20C0F60000FCF766
:105A40002FFA6000FCF7F4F946F68C20C0F600004F
:105A500002B0BDE81040FCF733BA00BFAFF30080DE
:105A600010B5FBF79DFD446B2146FBF7B9FD002CFB
:105A7000F7D1204610BD00BFAFF30080AFF3008028
:105A8000084A10B52023946983F311880220FAF79D
:105A900037FE636A002BF9D0002383F31188184680
:105AA00010BD00BFD0090020AFF30080AFF300802D
:105AB00008B500F0ADF846F6F040C0F6000000F082
:105AC00057F900F045F8BDE8084000F099BA00BF6A
:105AD0000C30FBF735BF00BFAFF30080AFF30080A1
