:020000040800F2
:10000000000400202117000811180008111800082A
:10001000111800081118000811180008111800081C
:1000200011180008111800081118000861180008BC
:1000300011180008111800081118000831180008DC
:1000400011180008C14F0008111800081118000805
:100050001118000811180008814C0008C14C000854
:10006000014D0008414D0008814D00083143000852
:1000700091430008F143000851440008B1440008CE
:1000800011450008714500081118000811180008F2
:10009000111800081118000811180008C14D0008B7
:1000A000111800081118000811180008111800088C
:1000B00011180008515F000811180008515B000872
:1000C000715B0008111800081118000811180008C9
:1000D00011180008316E0008816500081118000829
:1000E000B14E00081118000801500008111800084E
:1000F000111800081118000811180008111800083C
:10010000111800081118000811180008111800082B
:10011000111800081118000811180008111800081B
:10012000D14500083146000891460008F146000814
:1001300081F0004102E000BF83F0004330B54FEA98
:1001400041044FEA430594EA050F08BF90EA020F05
:100150001FBF54EA000C55EA020C7FEA645C7FEA98
:10016000655C00F0E2804FEA5454D4EB5555B8BFBB
:100170006D420CDD2C4480EA020281EA030382EA2C
:10018000000083EA010180EA020281EA0303362DBE
:1001900088BF30BD11F0004F4FEA01314FF4801C91
:1001A0004CEA113102D0404261EB410113F0004FA3
:1001B0004FEA03334CEA133302D0524263EB43035A
:1001C00094EA050F00F0A780A4F10104D5F1200EF8
:1001D0000DDB02FA0EFC22FA05F2801841F1000153
:1001E00003FA0EF2801843FA05F359410EE0A5F127
:1001F00020050EF1200E012A03FA0EFC28BF4CF058
:10020000020C43FA05F3C01851EBE37101F000450D
:1002100007D54FF0000EDCF1000C7EEB00006EEB1A
:100220000101B1F5801F1BD3B1F5001F0CD34908A4
:100230005FEA30004FEA3C0C04F101044FEA4452FB
:1002400012F5800F80F09A80BCF1004F08BF5FEA82
:10025000500C50F1000041EB045141EA050130BD62
:100260005FEA4C0C404141EB010111F4801FA4F105
:100270000104E9D191F0000F04BF01460020B1FA5A
:1002800081F308BF2033A3F10B03B3F120020CDA92
:100290000C3208DD02F1140CC2F10C0201FA0CF070
:1002A00021FA02F10CE002F11402D8BFC2F1200CD5
:1002B00001FA02F120FA0CFCDCBF41EA0C0190408B
:1002C000E41AA2BF01EB0451294330BD6FEA0404D4
:1002D0001F3C1CDA0C340EDC04F11404C4F12002BF
:1002E00020FA04F001FA02F340EA030021FA04F3D1
:1002F00045EA030130BDC4F10C04C4F1200220FA28
:1003000002F001FA04F340EA0300294630BD21FA65
:1003100004F0294630BD94F0000F83F4801306BF2B
:1003200081F480110134013D4EE77FEA645C18BF1F
:100330007FEA655C29D094EA050F08BF90EA020FB6
:1003400005D054EA000C04BF1946104630BD91EAAE
:10035000030F1EBF0021002030BD5FEA545C05D1B1
:100360004000494128BF41F0004130BD14F58004F0
:100370003CBF01F5801130BD01F0004545F0FE4164
:1003800041F470014FF0000030BD7FEA645C1ABF99
:10039000194610467FEA655C1CBF0B46024650EAD0
:1003A000013406BF52EA033591EA030F41F40021FC
:1003B00030BD00BF90F0000F04BF0021704730B582
:1003C0004FF4806404F132044FF000054FF0000157
:1003D00050E700BF90F0000F04BF0021704730B518
:1003E0004FF4806404F1320410F0004548BF4042ED
:1003F0004FF000013EE700BF42004FEAE2014FEA42
:1004000031014FEA02701FBF12F07F4393F07F4F1C
:1004100081F06051704792F0000F14BF93F07F4F4E
:10042000704730B54FF4607401F0004521F0004191
:1004300020E700BF50EA010208BF704730B54FF017
:1004400000050AE050EA010208BF704730B511F01C
:10045000004502D5404261EB41014FF4806404F154
:1004600032045FEA915C3FF4DCAE4FF003025FEAD6
:10047000DC0C18BF03325FEADC0C18BF033202EB5E
:10048000DC02C2F1200300FA03FC20FA02F001FAB8
:1004900003FE40EA0E0021FA02F11444C1E600BF57
:1004A00070B54FF0FF0C4CF4E06C1CEA11541DBF0A
:1004B0001CEA135594EA0C0F95EA0C0F00F0DEF8D5
:1004C0002C4481EA030621EA4C5123EA4C5350EABA
:1004D000013518BF52EA033541F4801143F480130B
:1004E00038D0A0FB02CE4FF00005E1FB02E506F09C
:1004F0000042E0FB03E54FF00006E1FB03569CF0F1
:10050000000F18BF4EF0010EA4F1FF04B6F5007FF6
:1005100064F5407404D25FEA4E0E6D4146EB060668
:1005200042EAC62141EA55514FEAC52040EA5E50F1
:100530004FEACE2EB4F1FD0C88BFBCF5E06F1ED89B
:10054000BEF1004F08BF5FEA500E50F1000041EBD2
:10055000045170BD06F0004646EA010140EA02007F
:1005600081EA0301B4EB5C04C2BFD4EB0C0541EAA1
:10057000045170BD41F480114FF0000E013C00F3B6
:10058000AB8014F1360FDEBF002001F0004170BDDA
:10059000C4F10004203C35DA0C341BDC04F11404F3
:1005A000C4F1200500FA05F320FA04F001FA05F27F
:1005B00040EA020001F0004221F0004110EBD3704C
:1005C00021FA04F642EB06015EEA430E08BF20EA78
:1005D000D37070BDC4F10C04C4F1200500FA04F31B
:1005E00020FA05F001FA04F240EA020001F00041AD
:1005F00010EBD37041F100015EEA430E08BF20EA20
:10060000D37070BDC4F1200500FA05F24EEA020E67
:1006100020FA04F301FA05F243EA020321FA04F096
:1006200001F0004121FA04F220EA020000EBD3704D
:100630005EEA430E08BF20EAD37070BD94F0000F4D
:100640000FD101F00046400041EB010111F4801F81
:1006500008BF013CF7D041EA060195F0000F18BF32
:10066000704703F00046520043EB030313F4801F6E
:1006700008BF013DF7D043EA0603704794EA0C0F28
:100680000CEA135518BF95EA0C0F0CD050EA41063E
:1006900018BF52EA4306D1D181EA030101F00041BB
:1006A0004FF0000070BD50EA410606BF10461946E3
:1006B00052EA430619D094EA0C0F02D150EA0136EF
:1006C00013D195EA0C0F05D152EA03361CBF104630
:1006D00019460AD181EA030101F0004141F0FE41CF
:1006E00041F470014FF0000070BD41F0FE4141F453
:1006F000780170BD70B54FF0FF0C4CF4E06C1CEA53
:1007000011541DBF1CEA135594EA0C0F95EA0C0F07
:1007100000F0A7F8A4EB050481EA030E52EA0335C2
:100720004FEA013100F088804FEA03334FF08055E3
:1007300045EA131343EA12634FEA022245EA111510
:1007400045EA10654FEA00260EF000419D4208BFC1
:10075000964244F1FD0404F5407402D25B084FEA6E
:100760003202B61A65EB03055B084FEA32024FF41A
:1007700080104FF4002CB6EB020E75EB030E22BF77
:10078000B61A754640EA0C005B084FEA3202B6EB37
:10079000020E75EB030E22BFB61A754640EA5C00E6
:1007A0005B084FEA3202B6EB020E75EB030E22BF76
:1007B000B61A754640EA9C005B084FEA3202B6EB77
:1007C000020E75EB030E22BFB61A754640EADC0036
:1007D00055EA060E18D04FEA051545EA16754FEA98
:1007E00006164FEAC30343EA52734FEAC2025FEAB6
:1007F0001C1CC0D111F4801F0BD141EA00014FF045
:1008000000004FF0004CB6E711F4801F04BF014315
:100810000020B4F1FD0C88BFBCF5E06F3FF6AFAE31
:10082000B5EB030C04BFB6EB020C5FEA500C50F1C1
:10083000000041EB045170BD0EF0004E4EEA113144
:1008400014EB5C04C2BFD4EB0C0541EA045170BD4B
:1008500041F480114FF0000E013C90E645EA060E8F
:100860008DE60CEA135594EA0C0F08BF95EA0C0FBD
:100870003FF43BAF94EA0C0F0AD150EA01347FF405
:1008800034AF95EA0C0F7FF425AF104619462CE7DC
:1008900095EA0C0F06D152EA03353FF4FDAE10463F
:1008A000194622E750EA410618BF52EA43067FF490
:1008B000C5AE50EA41047FF40DAF52EA43057FF420
:1008C000EBAE12E700000000000000000000000096
:1008D0004FF0FF3C06E000BF4FF0010C02E000BF0C
:1008E0004FF0010C4DF804CD4FEA410C7FEA6C5CEF
:1008F0004FEA430C18BF7FEA6C5C1BD001B050EA92
:10090000410C0CBF52EA430C91EA030F02BF90EA7C
:10091000020F0020704710F1000F91EA030F58BF3B
:10092000994208BF90422CBFD8176FEAE37040F09D
:10093000010070474FEA410C7FEA6C5C02D150EA3B
:10094000013C07D14FEA430C7FEA6C5CD6D152EAF6
:10095000033CD3D05DF8040B704700BF84461046BB
:1009600062468C461946634600E000BF01B5FFF7BA
:10097000B7FF002848BF10F1000F01BD4DF808ED8A
:10098000FFF7F4FF0CBF012000205DF808FB00BF5B
:100990004DF808EDFFF7EAFF34BF012000205DF8B5
:1009A00008FB00BF4DF808EDFFF7E0FF94BF012002
:1009B00000205DF808FB00BF4DF808EDFFF7CEFF03
:1009C00094BF012000205DF808FB00BF4DF808ED42
:1009D000FFF7C4FF34BF012000205DF808FB00BF13
:1009E0004FEA410212F5001215D211D56FF4787357
:1009F000B3EB625212D94FEAC12343F0004343EAFA
:100A0000505311F0004F23FA02F018BF40427047D4
:100A10004FF00000704750EA013005D111F000405E
:100A200008BF6FF0004070474FF00000704700BFF4
:100A30004FEA4102B2F1E04324BFB3F5001CDCF100
:100A4000FE5C0DD901F0004C4FEAC0024CEA507038
:100A5000B2F1004F40EB830008BF20F00100704767
:100A600011F0804F21D113F13872BCBF01F000406A
:100A7000704741F480114FEA5252C2F11802C2F19C
:100A8000200C10FA0CF320FA02F018BF40F001001D
:100A90004FEAC1234FEAD32303FA0CFC40EA0C00CF
:100AA00023FA02F34FEA4303CCE77FEA625307D10C
:100AB00050EA01331EBF4FF0FE4040F44000704743
:100AC00001F0004040F0FE4040F40000704700BFDD
:100AD00080F0004002E000BF81F0004142001FBFF3
:100AE0005FEA410392EA030F7FEA226C7FEA236CFC
:100AF0006AD04FEA1262D2EB1363C1BFD2184140F1
:100B000048404140B8BF5B42192B88BF704710F086
:100B1000004F40F4000020F07F4018BF404211F029
:100B2000004F41F4000121F07F4118BF494292EA91
:100B3000030F3FD0A2F1010241FA03FC10EB0C00BD
:100B4000C3F1200301FA03F100F0004302D549424A
:100B500060EB4000B0F5000F13D3B0F1807F06D3F7
:100B600040084FEA310102F10102FE2A51D2B1F1EF
:100B7000004F40EBC25008BF20F0010040EA0300E4
:100B80007047490040EB000010F4000FA2F1010291
:100B9000EDD1B0FA80FCACF1080CB2EB0C0200FA1B
:100BA0000CF0AABF00EBC25052421843BCBFD04069
:100BB0001843704792F0000F81F4000106BF80F4E3
:100BC00000000132013BB5E74FEA41037FEA226CA6
:100BD00018BF7FEA236C21D092EA030F04D092F071
:100BE000000F08BF0846704790EA010F1CBF0020A5
:100BF000704712F07F4F04D1400028BF40F0004002
:100C0000704712F100723CBF00F50000704700F021
:100C1000004343F0FE4040F4000070477FEA226248
:100C200016BF08467FEA23630146420206BF5FEA19
:100C3000412390EA010F40F4800070474FF0000319
:100C400004E000BF10F0004348BF40425FEA000CE0
:100C500008BF704743F0964301464FF000001CE088
:100C600050EA010208BF70474FF000030AE000BFDE
:100C700050EA010208BF704711F0004302D540421C
:100C800061EB41015FEA010C02BF8446014600208E
:100C900043F0B64308BFA3F18053A3F50003BCFAA9
:100CA0008CF2083AA3EBC25310DB01FA02FC634456
:100CB00000FA02FCC2F12002BCF1004F20FA02F25D
:100CC00043EB020008BF20F00100704702F1200250
:100CD00001FA02FCC2F1200250EA4C0021FA02F2B1
:100CE00043EB020008BF20EADC7070470000000000
:100CF0004FF0FF0C1CEAD0521EBF1CEAD15392EAFF
:100D00000C0F93EA0C0F6FD01A4480EA010C4002DA
:100D100018BF5FEA41211ED04FF0006343EA501034
:100D200043EA5111A0FB01310CF00040B1F5000F76
:100D30003EBF490041EAD3715B0040EA010062F125
:100D40007F02FD2A1DD8B3F1004F40EBC25008BF0F
:100D500020F00100704790F0000F0CF0004C08BF2D
:100D600049024CEA502040EA51207F3AC2BFD2F1FA
:100D7000FF0340EAC250704740F400004FF0000308
:100D8000013A5DDC12F1190FDCBF00F00040704742
:100D9000C2F10002410021FA02F1C2F1200200FA80
:100DA00002FC5FEA310040F1000053EA4C0308BF47
:100DB00020EADC70704792F0000F00F0004C02BF98
:100DC000400010F4000F013AF9D040EA0C0093F013
:100DD000000F01F0004C02BF490011F4000F013B6D
:100DE000F9D041EA0C018FE70CEAD15392EA0C0FDB
:100DF00018BF93EA0C0F0AD030F0004C18BF31F046
:100E0000004CD8D180EA010000F00040704790F01B
:100E1000000F17BF90F0004F084691F0000F91F0BF
:100E2000004F14D092EA0C0F01D142020FD193EA85
:100E30000C0F03D14B0218BF084608D180EA01000D
:100E400000F0004040F0FE4040F40000704740F0E9
:100E5000FE4040F4400070474FF0FF0C1CEAD052B7
:100E60001EBF1CEAD15392EA0C0F93EA0C0F69D013
:100E7000A2EB030280EA010C49024FEA402037D07E
:100E80004FF0805343EA111143EA10130CF0004075
:100E90008B4238BF5B0042F17D024FF4000C8B4265
:100EA00024BF5B1A40EA0C00B3EB510F24BFA3EB45
:100EB000510340EA5C00B3EB910F24BFA3EB910315
:100EC00040EA9C00B3EBD10F24BFA3EBD10340EA6F
:100ED000DC001B0118BF5FEA1C1CE0D1FD2A3FF6B5
:100EE00050AF8B4240EBC25008BF20F0010070476A
:100EF0000CF0004C4CEA50207F32C2BFD2F1FF030D
:100F000040EAC250704740F400004FF00003013A3D
:100F100037E792F0000F00F0004C02BF400010F4E1
:100F2000000F013AF9D040EA0C0093F0000F01F0F5
:100F3000004C02BF490011F4000F013BF9D041EA17
:100F40000C0195E70CEAD15392EA0C0F08D142024A
:100F50007FF47DAF93EA0C0F7FF470AF084676E71D
:100F600093EA0C0F04D14B023FF44CAF08466EE7F6
:100F700030F0004C18BF31F0004CCAD130F00042C4
:100F80007FF45CAF31F000437FF43CAF5FE700BF1C
:100F90004FF0FF3C06E000BF4FF0010C02E000BF45
:100FA0004FF0010C4DF804CD4FEA40024FEA4103E7
:100FB0007FEA226C18BF7FEA236C11D001B052EA9D
:100FC000530C18BF90EA010F58BFB2EB030088BF63
:100FD000C81738BF6FEAE17018BF40F001007047D2
:100FE0007FEA226C02D15FEA402C05D17FEA236CB4
:100FF000E4D15FEA412CE1D05DF8040B704700BFFB
:10100000844608466146FFE70FB5FFF7C9FF002891
:1010100048BF10F1000F0FBD4DF808EDFFF7F4FFCA
:101020000CBF012000205DF808FB00BF4DF808ED63
:10103000FFF7EAFF34BF012000205DF808FB00BF86
:101040004DF808EDFFF7E0FF94BF012000205DF8A8
:1010500008FB00BF4DF808EDFFF7D2FF94BF012059
:1010600000205DF808FB00BF4DF808EDFFF7C8FF52
:1010700034BF012000205DF808FB00BF0000000025
:101080004FEA4002B2F1FE4F0FD34FF09E03B3EB95
:1010900012620DD94FEA002343F0004310F0004FD5
:1010A00023FA02F018BF404270474FF0000070472B
:1010B00012F1610F01D1420205D110F0004008BFCA
:1010C0006FF0004070474FF00000704700000000D4
:1010D0004A0011D212F5001211D20DD56FF47873B7
:1010E000B3EB62520ED44FEAC12343F0004343EA0C
:1010F000505323FA02F070474FF00000704750EA57
:10110000013002D14FF0FF3070474FF000007047C0
:101110004BB942B9002908BF002802D04FF0FF3177
:10112000084600F03DB882B0EC462DE9005000F0D2
:101130001FF8DDF804E002B00CBC704700000000AE
:101140002DE9F0411646984604460D4600F030F869
:1011500006FB01FCA6FB002300FB08C7FB18A21A34
:1011600065EB0303069CC4E90023BDE8F08100BFE2
:101170002DE9F041904606460F461D4600F078F9ED
:1011800000FB05F3A0FB084508FB0138069B45441E
:10119000341B67EB0505C3E90045BDE8F08100BFDE
:1011A000704700BF000000000000000000000000C9
:1011B00000292DE9F00F1D46C0F29D800024002D6E
:1011C000C0F2948080460F4694461E46E3BB8A4296
:1011D00055D9B2FA82F747B1C7F1200520FA05F6D2
:1011E00001FA07F1BA40B8403143170CB1FBF7F6EA
:1011F0001FFA82FC07FB16110CFB06F5030C43EAF1
:1012000001439D4208D9711E9B1880F013819D42B5
:1012100040F21081023E9B18591BB1FBF7F507FB0A
:1012200015130CFB05FC80B240EA03418C4507D93D
:101230006B1E8A1880F00081944540F2FD80023DCB
:1012400045EA0641002503E08B420CD900252946DA
:101250000A462B4614B1524263EB4303104619462B
:10126000BDE8F00F7047B3FA83F5002D40F087809A
:101270008B4201D38242EAD800250121E8E712B966
:101280000126B6FBF2F2B2FA82F6002E39D18E1A9E
:10129000130C1FFA82FC0125B6FBF3F703FB176161
:1012A0000CFB07F84FEA104949EA0146B04506D958
:1012B000791EB61802D2B04500F2D3800F46C8EBB3
:1012C0000606B6FBF3F103FB11630CFB01FC80B2D5
:1012D00040EA03439C4506D94E1E9A1802D2944513
:1012E00000F2C280314641EA0741B1E7E44352428D
:1012F00063EB430366E7404261EB41014FF0FF348B
:101300005DE7B240C6F1200921FA09F720FA09F990
:1013100001FA06F1130CB7FBF3F81FFA82FC03FB8A
:1013200018770CFB08F549EA01094FEA194141EA2F
:101330000747B040BD420AD9BF1808F1FF3680F018
:101340008E80BD4240F28B80A8F10208BF18791B45
:10135000B1FBF3F503FB15170CFB05F61FFA89F932
:1013600049EA07418E4206D96F1E891871D28E4212
:101370006FD9023D89188E1B45EA08458CE7C5F1F7
:10138000200122FA01F306FA05F627FA01F207FA1C
:1013900005F720FA01F11E434FEA1649B2FBF9F8AE
:1013A0001FFA86FA09FB18220AFB08FB0F433B0CC5
:1013B00043EA024293450CFA05FC08D9921908F158
:1013C000FF314AD2934548D9A8F102089219CBEBD4
:1013D0000203B3FBF9F109FB11320AFB01FABFB2B8
:1013E00047EA02439A4506D94A1E9B1933D29A45C9
:1013F00031D902399B1941EA08410F0C1FFA8CF8C8
:1014000008FB07F68AB24FEA1C4C08FB02F80CFBFB
:1014100002620CFB07FC02EB1842964288BF0CF5F7
:10142000803CCAEB03030CEB124C63450ED305D092
:1014300000250DE70E46EFE61D4601E700FA05F030
:101440001FFA88F808EB0245A842F1D201390025BD
:10145000FEE63D468FE71146CDE78846B7E7B04642
:1014600075E7023FB6182AE702393CE700000000A2
:101470002DE9F007144605460E46002B3DD18A4261
:1014800049D9B2FA82F747B1C7F1200120FA01F237
:1014900006FA07F6BC40BD401643220CB6FBF2F03C
:1014A000A1B202FB106601FB00F32F0C47EA0646CF
:1014B000B34208D9471E361980F0FA80B34240F291
:1014C000F78002383619F61AB6FBF2F302FB136204
:1014D00001FB03F1ADB245EA0242914207D95E1E1B
:1014E000121980F0E780914240F2E480023B43EA27
:1014F00000400021BDE8F00770478B4243D8B3FAA3
:1015000083F4002C42D18B4202D3824200F2E1806C
:1015100000210120EEE712B90127B7FBF2F4B4FA7B
:1015200084F2002A40F089800A1B230CA7B2012113
:10153000B2FBF3F603FB162207FB06F04FEA154C4D
:101540004CEA0242904207D9121906F1FF3C02D23E
:10155000904200F2D0806646121AB2FBF3F003FB11
:10156000102307FB00F7ADB245EA03439F4207D9BA
:10157000421E1B1980F0A0809F4240F29D800238DD
:1015800040EA0640B6E700210846B3E7C4F120066A
:1015900022FA06F703FA04F321FA06F501FA04F138
:1015A00020FA06F63B434FEA134CB5FBFCF71FFA53
:1015B00083F80CFB175508FB07F946EA010A4FEAC6
:1015C0001A4141EA0545A94502FA04F204D97E1EF2
:1015D000ED18C0F081803746C9EB0501B1FBFCF680
:1015E0000CFB161508FB06F81FFA8AFA4AEA0541B1
:1015F000884503D9751EC91874D32E4646EA074696
:10160000370C1FFA82FC0CFB07F5120CB3B20CFB73
:1016100003FC02FB035302FB07F203EB1C439D4256
:1016200088BF02F58032C8EB010102EB1342914200
:101630004CD343D0304600215CE79440C2F12005F2
:1016400021FA05F620FA05F501FA02F1230CB6FBA2
:10165000F3FCA7B203FB1C6607FB0CF829430D0C37
:1016600045EA0646B04500FA02F508D936190CF1EC
:10167000FF303ED2B0453CD9ACF1020C3619C8EB74
:101680000602B2FBF3F003FB102607FB00F889B259
:1016900041EA0642904506D9461E121927D29045C6
:1016A00025D902381219C8EB020240EA0C413FE783
:1016B000384608E733461AE7104661E700FA04F0B7
:1016C0001FFA8CFC0CEB03439842B3D2701E00212E
:1016D00010E7214620460DE7A9457FF67CAF023F83
:1016E000ED1879E7884588D9023EC91886E7304663
:1016F000D9E78446C3E7023E12192DE70000000037
:10170000704700BFAFF30080AFF30080AFF30080FD
:10171000FEE700BFAFF30080AFF30080AFF30080BF
:1017200072B640F60004C2F2000484F309884FF058
:10173000020484F31488BFF36F8F40F20004C2F2F6
:10174000000440F20045C2F2000504E04FF05533BA
:10175000236004F10404AC42F8D340F20044C2F226
:10176000000440F60005C2F2000504E04FF05533D6
:10177000236004F10404AC42F8D305F051FD49F2B2
:10178000A875C0F6010540F60004C2F2000405E0A9
:101790002B68236004F1040405F1040541F22813C9
:1017A000C2F200039C42F3D341F22814C2F20004B7
:1017B00042F6DC55C2F2000504E04FF0000323605E
:1017C00004F10404AC42F8D3FFF79AFF40F230145E
:1017D000C0F6000403E02368984704F1040440F2D3
:1017E0003013C0F600039C42F5D305F049FD40F2EA
:1017F0003014C0F6000403E02368984704F10404A1
:1018000040F23013C0F600039C42F5D3FFF780FF8F
:10181000FEE700BFAFF30080AFF30080AFF30080BE
:1018200072B6FEE7AFF30080AFF30080AFF3008045
:1018300008B500F00DFB4FF0200383F3118800F092
:10184000C7FA00F005FA00F0E3FA4FF0000383F363
:10185000118800F02DFB00F043F808BDAFF30080C5
:1018600010B483B0EFF309840194019B03F12003CA
:101870000193019B83F309884FF0000383F31188E0
:1018800003B010BC704700BFAFF30080AFF300801F
:1018900008B54FF46D43CEF200034FF000029A609A
:1018A0004FF46D43CEF200034FF00002C0F2FA5243
:1018B000DA604FF007004FF0100100F031F94FF0FF
:1018C0000A004FF4007100F02BF94FF00B004FF0BD
:1018D000800100F025F908BDAFF30080AFF3008070
:1018E00010B483B04FF0200383F311884FF46D439D
:1018F000CEF200035B6803F40063002B47D0EFF3E4
:1019000009840194019BA3F120030193019B83F3BC
:101910000988019B4FF08072DA6141F25863C2F28C
:1019200000039B69002B11D041F25863C2F20003FF
:101930001B689A6841F25863C2F20003DB699B6836
:101940009A4294BF00230123DBB210E041F25863B6
:10195000C2F200031B689A6841F25863C2F20003A6
:10196000DB699B689A4234BF00230123DBB2002B62
:1019700006D0019A41F6A113C0F6000393610AE074
:10198000019A41F6AC13C0F60003936103E04FF0F7
:10199000000383F3118803B010BC7047AFF30080DD
:1019A00000F0D6F900F0C4FD00F0F2F900DF00BF4E
:1019B00003460A462DE9F04FC2F80CD0D3F80CD0FC
:1019C000BDE8F08FAFF30080AFF30080AFF300808D
:1019D00008B500F0DDF94FF0000383F311882846C5
:1019E000A04700F015FF08BDAFF30080AFF3008003
:1019F00010B485B001900091019B03F003034FEAFE
:101A0000C30303934FF46143CEF20003019A4FEAFC
:101A100092004FF46142CEF2000201994FEA910127
:101A200001F1C00152F82110039A4FF0FF0404FAAB
:101A300002F26FEA02021140039A009C04FA02F2D9
:101A4000114300F1C00243F822104FF46143CEF27B
:101A50000003019A4FEA5212019901F01F014FF061
:101A6000010000FA01F102F1600243F822104FF484
:101A70006143CEF20003019A4FEA5212019901F03C
:101A80001F014FF0010000FA01F143F8221005B0E8
:101A900010BC7047AFF30080AFF30080AFF300805D
:101AA00010B485B00190019B03F003034FEAC30318
:101AB00003934FF46143CEF20003019A4FEA5212AE
:101AC000019901F01F014FF0010000FA01F102F14C
:101AD000200243F822104FF46143CEF20003019A32
:101AE0004FEA92004FF46142CEF2000201994FEAB0
:101AF000910101F1C00152F82110039A4FF0FF0447
:101B000004FA02F26FEA0202114000F1C00243F847
:101B1000221005B010BC7047AFF30080AFF3008017
:101B200010B485B001900091019B03F003034FEACC
:101B3000C30303934FF46D43CEF20003019A4FEABF
:101B400092004FF46D42CEF2000201994FEA9101EA
:101B500001F1060152F82110039A4FF0FF0404FA34
:101B600002F26FEA02021140039A009C04FA02F2A8
:101B7000114300F1060243F8221005B010BC704773
:101B800082B0019041F25863C2F20003DA6947F66D
:101B90002013C0F601039361FEE700BFAFF300809E
:101BA00000B583B0FFF774FE00F03AFB00F050FA86
:101BB00001F066FC01F0D4FC00F0DAF941F2E81023
:101BC000C2F200004FF0400100F00AFD024641F26F
:101BD0005863C2F20003DA6141F25863C2F20003B3
:101BE000DB694FF0010283F8202041F25863C2F212
:101BF0000003DA6940F20043C2F20003D36100F04F
:101C00008FF84FF0000383F3118862B641F25863F6
:101C1000C2F20003DA6948F6F033C0F601039361BB
:101C20004FF00003009341F22810C2F200004FF081
:101C3000C0014FF0010241F68133C0F6000300F00D
:101C400087FD03B000BD00BFAFF30080AFF300809D
:101C500000B583B000F05CF941F25863C2F20003B2
:101C60009B69002B0BDD41F25863C2F200039B69B4
:101C700003F1FF3241F25863C2F200039A6141F26C
:101C80005863C2F20003DB695A6A02F101025A6228
:101C900041F24863C2F20003DB6803F1010241F242
:101CA0004863C2F20003DA6041F24863C2F2000303
:101CB0001A6841F24863C2F200039A422DD041F201
:101CC0004863C2F200031B689A6802F1FF329A600F
:101CD00019E0019BDB680093019B4FF00002DA6082
:101CE000019B1A6841F24863C2F200035360019BF2
:101CF0001A6841F24863C2F200031A60019B1A6934
:101D0000009B1046984741F24863C2F200031B68EB
:101D10000193019B9B68002BDBD003B000BD00BF8B
:101D200008B541F23423C2F200031B68002B06D130
:101D300041F23823C2F200031B68002B05D047F69E
:101D40004010C0F6010000F073F908BDAFF3008049
:101D500008B541F23423C2F200031B68002B06D100
:101D600041F23823C2F200031B68002B05D047F66E
:101D70004810C0F6010000F05BF941F23823C2F2CE
:101D800000034FF001021A6008BD00BFAFF30080EE
:101D900008B541F23423C2F200031B68002B06D1C0
:101DA00041F23823C2F200031B68002B05DC47F622
:101DB0005010C0F6010000F03BF941F23823C2F2A6
:101DC00000034FF000021A6008BD00BFAFF30080AF
:101DD00008B541F23423C2F200031B68002B06DD74
:101DE00041F23823C2F200031B68002B05D047F6EE
:101DF0005810C0F6010000F01BF941F23823C2F27E
:101E000000034FF001021A6008BD00BFAFF300806D
:101E100008B541F23423C2F200031B68002B06DD33
:101E200041F23823C2F200031B68002B05DC47F6A1
:101E30006010C0F6010000F0FBF841F23823C2F256
:101E400000034FF000021A6008BD00BFAFF300802E
:101E500008B54FF0200383F3118841F23423C2F216
:101E600000031B68002B06DB41F23823C2F200039B
:101E70001B68002B05D047F66810C0F6010000F083
:101E8000D7F841F23423C2F200031B6803F10102C8
:101E900041F23423C2F200031A604FF0000383F3CF
:101EA000118808BDAFF30080AFF30080AFF300806E
:101EB00008B54FF0200383F3118841F23423C2F2B6
:101EC00000031B68002B06DD41F23823C2F2000339
:101ED0001B68002B05D047F67010C0F6010000F01B
:101EE000A7F841F23423C2F200031B6803F1FF326A
:101EF00041F23423C2F200031A604FF0000383F36F
:101F0000118808BDAFF30080AFF30080AFF300800D
:101F100008B541F23423C2F200031B68002B06DB34
:101F200041F23823C2F200031B68002B05DC47F6A0
:101F30007810C0F6010000F07BF808BDAFF3008018
:101F400008B541F23423C2F200031B68002B06D10E
:101F500041F23823C2F200031B68002B05DC47F670
:101F60008010C0F6010000F063F808BDAFF30080F8
:101F700041F23C23C2F200034FF040021A6041F2EA
:101F80003C23C2F20003014A5A6070474412002009
:101F900082B0019041F23C23C2F200035A6841F240
:101FA0004863C2F20003DB68136041F23C23C2F2D3
:101FB00000035A6841F25863C2F20003DB695360C0
:101FC00041F23C23C2F200035B68019A926A9A6074
:101FD00041F23C23C2F200035B68019A92F8202090
:101FE0001A7341F23C23C2F200035B6803F1100252
:101FF00041F23C23C2F200035A6041F23C23C2F298
:1020000000035A68054B9A4205D341F23C23C2F2C1
:102010000003034A5A6002B0704700BF4416002014
:1020200044120020AFF30080AFF30080AFF30080D4
:1020300000B583B0019041F24463C2F20003019AFB
:102040001A60FFF7EDFB03B000BD00BFAFF30080E7
:1020500041F24863C2F2000341F24862C2F2000258
:102060005A6041F24863C2F200035A6841F2486381
:10207000C2F200031A6041F24863C2F200034FF05B
:10208000FF329A6041F24863C2F200034FF000024F
:10209000DA607047AFF30080AFF30080AFF30080E9
:1020A00000B587B00390029101920093FFF730FFD3
:1020B000039B002B05D0019B002B02D0029B002B21
:1020C00005D147F69010C0F60100FFF7B1FF039B62
:1020D000009A1A61039B019ADA6041F24863C2F2E6
:1020E00000031B68059307E0059B9B68029AD31ABF
:1020F0000293059B1B680593059B9A68029B9A4275
:10210000F2D3039B059A1A60039B1B685A68039BD2
:102110005A60039B5B68059A03995160059A52685F
:102120001A60039B029A9A60059A41F24863C2F2D0
:1021300000039A4205D0059B9A68029BD21A059B20
:102140009A6007B000BD00BFAFF30080AFF300801E
:1021500000B583B00190FFF7DBFE019B002B05D19A
:1021600047F6A010C0F60100FFF762FF019BDB6895
:10217000002B05D147F6B010C0F60100FFF758FF5D
:10218000019B1A6841F24863C2F200039A4208D0E8
:10219000019B1B68019A12689168019A92688A18DB
:1021A0009A60019B5B68019A12681A60019B1B6828
:1021B000019A52685A60019B4FF00002DA6003B046
:1021C00000BD00BFAFF30080AFF30080AFF300802D
:1021D00084B00190019B1B680393039B1A68019BC9
:1021E0001A60019B1B68019A5A60039B184604B051
:1021F000704700BFAFF30080AFF30080AFF3008003
:1022000082B00190019B5B68019A12681A60019B81
:102210001B68019A52685A60019B184602B07047C9
:1022200041F25863C2F2000341F25862C2F2000266
:102230005A6041F25863C2F200035A6841F258638F
:10224000C2F200031A6041F25863C2F200034FF079
:1022500000029A6041F25863C2F200034FF0140288
:102260009A6141F25863C2F2000341F25862C2F22D
:1022700000025A6141F25863C2F200035A6941F206
:102280005863C2F200031A61704700BFAFF30080C9
:1022900000B585B00190019B93F82030002B04D04D
:1022A000019B93F820300E2B05D147F6D010C0F6D5
:1022B0000100FFF7BDFE019B4FF0000283F82020D4
:1022C00041F25863C2F200030393039B1B6803931C
:1022D000039B9A68019B9B689A42F6D2019B039AE2
:1022E0001A60039B5A68019B5A60019B5B68039AC2
:1022F00001995160039A52681A60019B184605B013
:1023000000BD00BFAFF30080AFF30080AFF30080EB
:1023100000B585B003468DF80730FFF711FE41F296
:102320005863C2F20003DB690393039B9DF8072007
:1023300083F8202041F25863C2F200034FF01402E8
:102340009A6141F25860C2F20000FFF741FF024675
:1023500041F25863C2F20003DA6141F25863C2F2FB
:102360000003DB694FF0010283F820200398FFF798
:102370000FFE6B46A3F12402039BDB699A4205D250
:1023800047F6E410C0F60100FFF752FE41F2586331
:10239000C2F20003DB6918460399FFF709FB05B099
:1023A00000BD00BFAFF30080AFF30080AFF300804B
:1023B00000B585B00190019B0393039B93F82030F7
:1023C0000D2B28D801A252F823F000BF27240008C3
:1023D0001724000817240008052400081724000803
:1023E00011240008172400081724000817240008E7
:1023F00017240008172400081724000817240008D1
:1024000011240008039B9B6A9A6802F101029A60FA
:102410000398FFF7F5FE039B4FF0FF329A62039893
:10242000FFF736FF00E000BF05B000BDAFF300804E
:1024300000B589B0034600918DF80730FFF780FDA5
:10244000009BB3F1FF3F1AD041F25863C2F2000380
:10245000DB6903AA1046009942F2B132C0F60002CD
:10246000FFF71EFE9DF807301846FFF751FF069B49
:10247000002B09D003AB1846FFF76AFE04E09DF875
:1024800007301846FFF744FF41F25863C2F20003D9
:10249000DB699B6A184609B000BD00BFAFF300803E
:1024A00000B585B001900091FFF74AFD019B009AAD
:1024B0009A62019B9A6841F25863C2F20003DB6999
:1024C0009B689A4203D80198FFF7E2FE2EE041F2A2
:1024D0005863C2F20003DB691846FFF7D9FE039088
:1024E00041F25863C2F200034FF014029A6141F2C4
:1024F0005863C2F20003019ADA61019B4FF00102B6
:1025000083F820200398FFF743FD6B46A3F12402D4
:10251000039BDB699A4205D247F6E410C0F601003E
:10252000FFF786FD01980399FFF742FA05B000BD59
:1025300000B583B041F25863C2F200034FF01402B9
:102540009A6141F25863C2F20003DB69019341F2E0
:102550005860C2F20000FFF73BFE024641F25863AA
:10256000C2F20003DA6141F25863C2F20003DB6990
:102570004FF0010283F820200198FFF789FE0198AF
:10258000FFF706FD6B46A3F12402019BDB699A422B
:1025900005D247F6E410C0F60100FFF749FD41F20D
:1025A0005863C2F20003DB6918460199FFF700FA8D
:1025B00003B000BDAFF30080AFF30080AFF3008045
:1025C00084B00190019B1B680393039B1A68019BD5
:1025D0001A60039B184604B0704700BFAFF3008039
:1025E00082B001900091019B009A9A60019B4FF08C
:1025F000020283F82020019B4FF0000283F8212083
:10260000019B009A5A64019B4FF000021A64019BDF
:102610004FF00002DA63019B4FF000025A62019B07
:102620004FF0010283F82220019B4FF000029A61D3
:10263000019A41F25863C2F20003136141F25863F8
:10264000C2F200035A69019B5A61019B5A6941F227
:102650005863C2F200030199596141F25863C2F212
:1026600000035B691361019B03F12C02019BDA6299
:10267000019B03F13002019B5A63019B5A6B019B42
:102680001A63019B03F14C02019BDA61019B18461E
:1026900002B07047AFF30080AFF30080AFF300806B
:1026A00084B00390029113468DF8073007E0039B36
:1026B0009DF807201A70039B03F101030393039A0B
:1026C000029B9A42F3D304B0704700BFAFF300807F
:1026D00000B587B00390029101920093039B05938C
:1026E000FFF716FC039B002B08D0029BAF2B05D9EC
:1026F000019B7F2B02D8009B002B05D147F60020C1
:10270000C0F60100FFF794FC029BA3F12403039A97
:10271000D218059BDA60059BDB68009A1A60059B5E
:10272000DB68089A5A60059BDA6841F6D113C0F657
:102730000003136205980199FFF752FF03461846FC
:1027400007B000BDAFF30080AFF30080AFF30080AF
:1027500000B589B00590049103920293059B03F1A3
:102760004C03059819464FF0FF02FFF799FF059BB0
:1027700003F14C020599049BCB18104619464FF003
:102780005502FFF78DFF4FF0200383F31188FFF709
:10279000DFFA0A9B009305980499039A029BFFF7BE
:1027A00097FF079007984FF00001FFF779FEFFF7BA
:1027B000EFFA4FF0000383F31188079B184609B026
:1027C00000BD00BFAFF30080AFF30080AFF3008027
:1027D00000B583B00190019B002B05D147F6402046
:1027E000C0F60100FFF724FC4FF0200383F31188AB
:1027F000FFF7AEFA4FF006000199FFF719FEFFF759
:10280000C7FA4FF0000383F3118803B000BD00BF87
:1028100000B583B001904FF0200383F31188FFF7D8
:1028200097FA019800F004F803B000BDAFF3008000
:1028300000B585B0019041F25863C2F20003DB6934
:102840000393039B019A9A6209E0039B03F12C0313
:102850001846FFF7B5FE03461846FFF719FD039B20
:10286000DA6A039B03F12C039A42EED1039B93F89F
:10287000213003F00303002B09D1039B5B69039A0A
:1028800012691A61039B1B69039A52695A614FF0DE
:102890000E00FFF73DFD47F65020C0F60100FFF7A0
:1028A000C7FB05B000BD00BFAFF30080AFF30080F1
:1028B00082B001900091019B009A1A60009B5A68B7
:1028C000019B5A60019B5B68009A01995160009AD4
:1028D00052681A6002B07047AFF30080AFF3008017
:1028E00084B00190019B1B680393039B1A68019BB2
:1028F0001A60019B1B68019A5A60039B184604B03A
:10290000704700BFAFF30080AFF30080AFF30080EB
:1029100000B583B001900091019B002B02D0009B79
:10292000002B05DA47F6A020C0F60100FFF780FB78
:10293000019A019B5A60019B5A68019B1A60019B96
:10294000009A9A6003B000BDAFF30080AFF300803F
:1029500000B585B001904FF0200383F31188FFF795
:10296000F7F9019800F00CF80390FFF711FA4FF017
:10297000000383F31188039B184605B000BD00BF18
:1029800000B583B00190FFF7DBFA019B002B05D166
:1029900047F6D420C0F60100FFF74AFB019B9B6875
:1029A000002B04DB019B1A68019B9A420ED0019B0D
:1029B0009B68002B04DA019B1A68019B9A4205D19F
:1029C00047F6E420C0F60100FFF732FB019B9B684D
:1029D00003F1FF32019B9A60019B9B68002B1BDA7D
:1029E00041F25863C2F20003DB69019A9A6241F234
:1029F0005863C2F20003DA69019B10461946FFF7DB
:102A000057FF4FF00300FFF783FC41F25863C2F217
:102A10000003DB699B6A01E04FF00003184603B036
:102A200000BD00BFAFF30080AFF30080AFF30080C4
:102A300000B583B00190019B002B05D147F62830EB
:102A4000C0F60100FFF7F4FA019B9B68002B04DB42
:102A5000019B1A68019B9A420ED0019B9B68002B38
:102A600004DA019B1A68019B9A4205D147F6383077
:102A7000C0F60100FFF7DCFA4FF0200383F3118862
:102A8000FFF766F9019B9B6803F10102019B9A60C5
:102A9000019B9B68002B09DC019B1846FFF720FF78
:102AA000034618464FF00001FFF7FAFCFFF770F9F4
:102AB0004FF0000383F3118803B000BDAFF3008033
:102AC00000B585B00190FFF723FA019B002B05D1DB
:102AD00047F64C30C0F60100FFF7AAFA019B9B684D
:102AE000002B04DB019B1A68019B9A420ED0019BCC
:102AF0009B68002B04DA019B1A68019B9A4205D15E
:102B000047F66030C0F60100FFF792FA019B9B6820
:102B100003F10102019B9A60019B9B68002B0BDC77
:102B2000019B1846FFF7DCFE0390039B4FF0000269
:102B30009A620398FFF7ACFB05B000BDAFF30080CD
:102B400084B001900091009B0393039B1B68039347
:102B5000039A009B9A4205D0039B9A68019B9B684D
:102B60009A42F2D2019B039A1A60039B5A68019B16
:102B70005A60019B5B68039A01995160039A5268FD
:102B80001A6004B0704700BFAFF30080AFF300805D
:102B900084B00190019B1B680393039B1A68019BFF
:102BA0001A60019B1B68019A5A60039B184604B087
:102BB000704700BFAFF30080AFF30080AFF3008039
:102BC00082B00190019B5B68019A12681A60019BB8
:102BD0001B68019A52685A60019B184602B0704700
:102BE00000B583B00190019B002B05D147F6F03072
:102BF000C0F60100FFF71CFA019A019B5A60019B85
:102C00005A68019B1A60019B4FF000029A6003B062
:102C100000BD00BFAFF30080AFF30080AFF30080D2
:102C200000B583B001904FF0200383F31188FFF7C4
:102C30008FF8019800F00CF8FFF7AAF84FF00003A6
:102C400083F3118803B000BDAFF30080AFF30080C1
:102C500000B585B0019041F25863C2F20003DB6910
:102C60000293FFF76DF9019B002B05D147F6004059
:102C7000C0F60100FFF7DCF9019B9B68002B62D0D6
:102C8000019B9B68039335E0029B9A68039B9A60C3
:102C9000039B93F82030042B04D0052B11D0002B7C
:102CA0001AD026E00398FFF78BFF0246039B9B6A2E
:102CB00010461946FFF744FF039B9B6A9B680393EA
:102CC00018E00398FFF77CFF0246039B9B6A1046BF
:102CD0001946FFF735FF0CE0039B4FF0010283F824
:102CE00020200398FFF76CFF03461846FFF7D0FA41
:102CF00000BF05E0039B9A68029B9B689A42C3D37E
:102D0000019B02981946FFF71BFF029B019A9A62EA
:102D10004FF00400FFF7FCFA019B9A68029B9A426D
:102D200005D047F61040C0F60100FFF781F9029B7D
:102D30001A6C019B9A4210D047F62440C0F601005D
:102D4000FFF776F909E0019B029A9A60029B1A6CE0
:102D5000019BDA60029B019A1A6405B000BD00BFB6
:102D600000B587B041F25863C2F20003DB690393F8
:102D70004FF0200383F31188FEF7EAFF039B1B6CDF
:102D8000002B05D147F64C40C0F60100FFF750F983
:102D9000039B1B6C9A68039B9A4205D047F66040E0
:102DA000C0F60100FFF744F9039B1B6C0293029BE2
:102DB000DA68039B1A64029B1A68029B9A4233D01A
:102DC000039B5B6C0493039B1B6C059311E0059BB9
:102DD0001A68059B9A4209D0059B1B689A68049B58
:102DE0009A4203D9059B1B689B680493059BDB688B
:102DF0000593059B002BEAD1039B049A9A60029BE2
:102E00001846FFF7C5FE0190029B019A9A60019B4C
:102E10001A6C029BDA60019B029A1A6401984FF0C7
:102E20000001FFF73DFB03E0029B4FF000029A60B8
:102E3000FEF7AEFF4FF0000383F31188029B1846A4
:102E400007B000BDAFF30080AFF30080AFF30080A8
:102E500000B583B001900091FFF75AF8019B002B59
:102E600005D147F6DC40C0F60100FFF7E1F8019B11
:102E7000DA6B009B1A43019BDA63019B93F82030C5
:102E8000082B06D1019BDA6B019B9B6A1340002B38
:102E90000DD1019B93F82030092B0FD1019BDA6BE8
:102EA000019B9B6A1A40019B9B6A9A4206D101983A
:102EB000FFF7EEF903464FF000029A6203B000BD3F
:102EC00000B585B001900091FFF722F8019B002B1F
:102ED00005D147F6F040C0F60100FFF7A9F8019BC5
:102EE0001B6803930CE0039B5A68039B9968009B43
:102EF0000B4310461946FFF7ABFF039B1B68039378
:102F0000039A019B9A42EED105B000BDAFF3008059
:102F100082B001900091019B009A1A60009B5A6850
:102F2000019B5A60019B5B68009A01995160009A6D
:102F300052681A6002B07047AFF30080AFF30080B0
:102F400084B00190019B1B680393039B1A68019B4B
:102F50001A60019B1B68019A5A60039B184604B0D3
:102F6000704700BFAFF30080AFF30080AFF3008085
:102F700000B583B001900091009B002B02D14FF06F
:102F8000FF3316E041F25863C2F20003DB69019A95
:102F90009A6241F25863C2F20003DA69019B10465B
:102FA0001946FFF7B5FF4FF00D000099FFF740FA03
:102FB0000346184603B000BDAFF30080AFF30080B6
:102FC00084B00390029101920093039A039B5A608C
:102FD000039B5A68039B1A60039B4FF000029A60A0
:102FE000039B029A5A61039B5A69039B9A61039B54
:102FF0009A69039BDA60029A019BD218039B1A61BB
:10300000039B009ADA6104B0704700BFAFF3008001
:1030100000B583B001900B468DF80330FEF778FFC2
:10302000019B5A69019B9B699A4206D1019B9B684F
:10303000002B02D06FF003032BE0019B9B6803F190
:103040000102019B9A60019B5B699DF803201A7045
:1030500003F10102019B5A61019B5A69019B1B69A3
:103060009A4203D3019BDA68019B5A61019B1A685B
:10307000019B9A420BD0019B1846FFF761FF034664
:103080001846FFF705F903464FF000029A624FF029
:103090000003184603B000BDAFF30080AFF300801B
:1030A00000B585B0019000914FF0200383F31188A3
:1030B000FEF74EFE019BDB69002B14D0019BDB6900
:1030C000019898470FE001980099FFF751FF03908E
:1030D000039B002B08DAFEF75BFE4FF0000383F33F
:1030E0001188039B25E000BF019B9B68002BEAD061
:1030F000019B9B6803F1FF32019B9A60019B9B69D6
:103100001A788DF80B2003F10102019B9A61019B53
:103110009A69019B1B699A4203D3019BDA68019B60
:103120009A61FEF735FE4FF0000383F311889DF896
:103130000B30184605B000BDAFF30080AFF3008040
:1031400000B587B00390029101920093039BDB6965
:1031500004934FF000030593019B002B05D147F624
:103160003050C0F60100FEF763FF4FF0200383F3F9
:103170001188FEF7EDFD049B002B12D0049B0398F1
:1031800098470EE003980099FFF7F2FE0346002BE4
:1031900008D0FEF7FDFD4FF0000383F31188059B77
:1031A0003BE000BF039B9B68002BEBD0039B9B681D
:1031B00003F1FF32039B9A60039B9B691978029A83
:1031C0001170029A02F10102029203F10102039BC3
:1031D0009A61039B9A69039B1B699A4203D3039BE1
:1031E000DA68039B9A61FEF7D3FD4FF0000383F387
:1031F0001188059B03F101030593019B03F1FF3344
:103200000193019B002B01D1059B06E04FF02003A9
:1032100083F31188FEF79CFDADE7184607B000BDAB
:1032200084B00390029101920093039A039B5A6029
:10323000039B5A68039B1A60039B019A9A60039B45
:10324000029A5A61039B5A69039B9A61039B9A698C
:10325000039BDA60029A019BD218039B1A61039BBD
:10326000009ADA6104B07047AFF30080AFF30080DA
:1032700000B587B003900B4601928DF80B304FF0EC
:10328000200383F31188FEF763FD0FE00398019993
:10329000FFF76EFE0590059B002B07DAFEF778FD21
:1032A0004FF0000383F31188059B2CE0039B9B6880
:1032B000002BEBD0039B9B6803F1FF32039B9A60CA
:1032C000039B5B699DF80B201A7003F10102039BBD
:1032D0005A61039B5A69039B1B699A4203D3039B60
:1032E000DA68039B5A61039BDB69002B03D0039BC5
:1032F000DB6903989847FEF74BFD4FF0000383F31B
:1033000011884FF00003184607B000BDAFF30080EE
:1033100000B585B00190FEF7FBFD019B5A69019B4A
:103320009B699A4206D1019B9B68002B02D06FF0EB
:1033300002032BE0019B9B6803F10102019B9A6051
:10334000019B9B691A788DF80F2003F10102019B04
:103350009A61019B9A69019B1B699A4203D3019B65
:10336000DA68019B9A61019B1A68019B9A420BD013
:10337000019B1846FFF7E4FD03461846FEF788FF59
:1033800003464FF000029A629DF80F30184605B0D0
:1033900000BD00BFAFF30080AFF30080AFF300804B
:1033A00000B587B00390029101920093039BDB6903
:1033B00004934FF000030593019B002B05D147F6C2
:1033C0004450C0F60100FEF733FE4FF0200383F3B4
:1033D0001188FEF7BDFC0EE003980099FFF7C8FDC9
:1033E0000346002B07D0FEF7D3FC4FF0000383F316
:1033F0001188059B41E0039B9B68002BECD0039B4D
:103400009B6803F1FF32039B9A60039B5B69029AFE
:1034100012781A7003F10102039B5A61029B03F1B7
:1034200001030293039B5A69039B1B699A4203D3CE
:10343000039BDA68039B5A61049B002B02D0049B18
:1034400003989847FEF7A4FC4FF0000383F311881C
:10345000059B03F101030593019B03F1FF330193E6
:10346000019B002B01D1059B07E04FF0200383F364
:103470001188FEF76DFC00BFBDE7184607B000BD20
:1034800042F6DC53C2F2000303F1070323F0070303
:103490001A4641F27863C2F200031A6045F2000353
:1034A000C2F2000323F007031A4641F27C63C2F222
:1034B00000031A60704700BFAFF30080AFF30080D5
:1034C00000B585B001904FF0200383F31188FEF71B
:1034D0003FFC019800F00CF80390FEF759FC4FF008
:1034E000000383F31188039B184605B000BD00BF9D
:1034F00000B585B00190FEF70BFD019B03F10703BA
:1035000023F00703019341F27C63C2F200031B68BE
:103510001A4641F27863C2F200031B68D31A1A46B6
:10352000019B9A4202D24FF0000312E041F278630D
:10353000C2F200031B68039341F27863C2F20003F6
:103540001A68019BD21841F27863C2F200031A6034
:10355000039B184605B000BDAFF30080AFF30080B9
:1035600008B541F28063C2F2000343F2C142C0F6E3
:1035700000021A6041F28063C2F200034FF00002C1
:103580009A6041F28063C2F200034FF00002DA60F9
:103590000148FFF725FB08BD90160020AFF300801F
:1035A00008B501F05DFA00F083FE48F60050C0F661
:1035B000010003F01DFD00F013F800F099F800F091
:1035C0009FF900F0F5FA00F0ABFB00F069FD03F0A5
:1035D0002FFE08BDAFF30080AFF30080AFF3008093
:1035E00008B501F02DFD08BDAFF30080AFF30080FA
:1035F00082B00190019B4FF001021A70019B4FF0C5
:1036000000025A6002B07047AFF30080AFF3008051
:1036100000B583B001900091019B002B02D0009B6C
:10362000002B05D147F66050C0F60100FEF700FD03
:103630004FF0200383F31188FEF78AFB019B1B7870
:10364000012B09D0019B1B78022B05D047F6705047
:10365000C0F60100FEF7ECFC019B009A5A6001984D
:1036600001F0F6FC019B4FF002021A70FEF790FB8E
:103670004FF0000383F3118803B000BDAFF3008067
:1036800000B583B001900091019B002B09D0009BF5
:10369000122B06D8019B5B68009A53F83230002B3E
:1036A00005D147F69C50C0F60100FEF7C1FC4FF073
:1036B000200383F31188FEF74BFB019B1B78022B41
:1036C00005D047F6B450C0F60100FEF7B1FC0198F2
:1036D000009901F0ADFDFEF75BFB4FF0000383F3B3
:1036E000118803B000BD00BFAFF30080AFF30080CE
:1036F00008B502F04DFA08BDAFF30080AFF30080CB
:1037000000B583B00190019B4FF001021A70019B3C
:103710004FF000025A60019B03F10C031846FFF7BB
:103720005FFA03B000BD00BFAFF30080AFF30080CD
:1037300000B583B001900091019B002B02D0009B4B
:10374000002B05D147F60060C0F60100FEF770FCC3
:10375000019B1B78012B0DD0019B1B78022B09D0FC
:10376000019B1B78052B05D047F61060C0F60100C1
:10377000FEF75EFC4FF0200383F31188FEF7E8FAB2
:10378000019B009A5A60019802F02AFA019B4FF0BF
:1037900002021A70FEF7FCFA4FF0000383F311885F
:1037A00003B000BDAFF30080AFF30080AFF3008043
:1037B00000B583B00190019B002B05D147F63C601A
:1037C000C0F60100FEF734FC019B9B68184603B06D
:1037D00000BD00BFAFF30080AFF30080AFF3008007
:1037E00000B58BB00790059204930B46ADF81A30E4
:1037F000079B002B15D0BDF81A30002B11D0049B6D
:10380000002B0ED0059B002B0BD00D9B002B05D061
:103810000D9B002B05D00C9B002B02D00E9B002B88
:1038200005D147F65060C0F60100FEF701FC079B8A
:103830001B78022B05D047F67060C0F60100FEF73A
:10384000F7FB4FF0200383F31188FEF781FA079B03
:103850004FF000029A60079B4FF003021A70BDF808
:103860001A300C9A00920D9A01920E9A02920798C1
:103870001946059A049B02F063FA0990099BB3F17B
:10388000FF3F04D1079B4FF005021A7003E0079B2E
:103890004FF002021A70FEF77BFA4FF0000383F339
:1038A0001188099B18460BB000BD00BFAFF3008024
:1038B00000B583B00190019B002B05D147F6C46091
:1038C000C0F60100FEF7B4FB019B03F10C031846A0
:1038D000FFF7A6F903B000BDAFF30080AFF300809F
:1038E00000B583B00190019B002B05D147F6D8604D
:1038F000C0F60100FEF79CFBFFF732FA03B000BDF3
:1039000008B502F035FB08BDAFF30080AFF30080CF
:1039100082B00190019B4FF001021A70019B4FF0A1
:1039200000025A6002B07047AFF30080AFF300802E
:1039300000B583B001900091019B002B02D0009B49
:10394000002B05D147F6F060C0F60100FEF770FBD2
:103950004FF0200383F31188FEF7FAF9019B1B78DF
:10396000012B09D0019B1B78022B05D047F6007074
:10397000C0F60100FEF75CFB019B009A5A60009BB9
:103980009A88019B1A81019802F00AFB019B4FF073
:1039900002021A70FEF7FCF94FF0000383F311885E
:1039A00003B000BDAFF30080AFF30080AFF3008041
:1039B00000B583B0019013460A468DF80320ADF898
:1039C0000030019B002B03D09DF80330032B05D959
:1039D00047F65870C0F60100FEF72AFB4FF02003AF
:1039E00083F31188FEF7B4F9019B1B78022B05D0F5
:1039F00047F67070C0F60100FEF71AFB9DF8032031
:103A0000BDF80030019811461A4602F0E9FBFEF7B6
:103A1000BFF94FF0000383F3118803B000BD00BF6E
:103A200000B585B0039002910192039B03F130032E
:103A300018460299019A4FF0FF33FFF7B1FC034695
:103A4000184605B000BD00BFAFF30080AFF30080A3
:103A500000B585B0039002910192039B03F110031E
:103A600018460299019A4FF0FF33FFF769FB0346AE
:103A7000184605B000BD00BFAFF30080AFF3008073
:103A800082B00190019B9B6B002B14BF002301238C
:103A9000DBB2184602B07047AFF30080AFF300808E
:103AA00082B00190019B9B69002B14BF002301236E
:103AB000DBB2184602B07047AFF30080AFF300806E
:103AC00000B585B003900B4601928DF80B30039B37
:103AD00003F130029DF80B3010461946019AFFF7AA
:103AE000C7FB0346184605B000BD00BFAFF300801A
:103AF00000B583B001900091019B03F110031846BB
:103B00000099FFF7CDFA0346184603B000BD00BF89
:103B100000B585B00390029101920093039B03F1DD
:103B2000300318460299019A009BFFF739FC0346BF
:103B3000184605B000BD00BFAFF30080AFF30080B2
:103B400000B585B00390029101920093039B03F1AD
:103B5000100318460299019A009BFFF7F1FA0346F9
:103B6000184605B000BD00BFAFF30080AFF3008082
:103B700000B585B001904FF0200383F31188FEF764
:103B8000E7F8019B9B680393019B4FF000029A604A
:103B9000FEF7FEF84FF0000383F31188039B1846ED
:103BA00005B000BDAFF30080AFF30080AFF300803D
:103BB00008B502F0F5FC08BDAFF30080AFF300805C
:103BC00000B585B0039002910192039A48F6104324
:103BD000C0F601031360039B03F10402039B5A60C8
:103BE000039B4FF000029A60039B4FF001021A738F
:103BF000039B03F11002039B03F150031046194687
:103C00004FF01002029BFFF7DBF9039B03F1300238
:103C1000039B03F16003104619464FF01002019B0D
:103C2000FFF7FEFA05B000BDAFF30080AFF30080F0
:103C300000B583B001900091019B002B05D147F6A0
:103C4000A070C0F60100FEF7F3F94FF0200383F3F4
:103C50001188FEF77DF8019B1B7B012B09D0019B8E
:103C60001B7B022B05D047F6AC70C0F60100FEF7B7
:103C7000DFF90198009902F0ABFC019B4FF00202C2
:103C80001A73FEF785F84FF0000383F3118803B031
:103C900000BD00BFAFF30080AFF30080AFF3008042
:103CA00000B583B001900B468DF80330FEF730F974
:103CB000019B002B05D147F6D870C0F60100FEF736
:103CC000B7F9019B9B69002B0DD1019B9B6843F0C9
:103CD0000402019B9A60019B03F1040318464FF014
:103CE0000001FFF7EDF8019B03F110029DF803308E
:103CF00010461946FFF78CF90346002B0DDA019B9D
:103D00009B6843F08002019B9A60019B03F10403CE
:103D100018464FF00001FFF7D3F803B000BD00BF15
:103D200008B502F005FD08BDAFF30080AFF30080D9
:103D300000B583B00190019B4FF001021A70019B06
:103D40004FF000025A60019B4FF000029A60019B05
:103D500003F10C031846FEF743FF03B000BD00BF9C
:103D600000B583B001900091019B002B02D0009B15
:103D7000002B05D148F20000C0F60100FEF758F90B
:103D80004FF0200383F31188FDF7E2FF019B1B78BE
:103D9000012B09D0019B1B78022B05D048F21000A3
:103DA000C0F60100FEF744F9019B009A5A600198A1
:103DB00002F0F6FC019B4FF002021A70FDF7E8FFDB
:103DC0004FF0000383F3118803B000BDAFF3008010
:103DD00000B583B00190019B002B05D148F2200073
:103DE000C0F60100FEF724F94FF0200383F3118899
:103DF000FDF7AEFF019B1B78012B09D0019B1B78BF
:103E0000022B05D048F22C00C0F60100FEF710F995
:103E1000019802F0A5FD019802F062FD019B4FF0B0
:103E200001021A70FDF7B4FF4FF0000383F311880D
:103E300003B000BDAFF30080AFF30080AFF30080AC
:103E400000B583B00190019B002B05D148F23C00E6
:103E5000C0F60100FEF7ECF84FF0200383F3118861
:103E6000FDF776FF019B1B78022B05D048F24C0032
:103E7000C0F60100FEF7DCF8019802F061FDFDF7E5
:103E800087FF4FF0000383F3118803B000BD00BF2C
:103E900000B583B00190019B002B05D148F25C0076
:103EA000C0F60100FEF7C4F84FF0200383F3118839
:103EB000FDF74EFF019B1B78022B05D048F26C00EA
:103EC000C0F60100FEF7B4F8019802F049FDFDF7D5
:103ED0005FFF4FF0000383F3118803B000BD00BF04
:103EE00000B585B00390029101920093039B002BD3
:103EF00008D0029B002B05D0009B002B02D0019B19
:103F0000002B05D148F27410C0F60100FEF790F8BE
:103F10004FF0200383F31188FDF71AFF039B1B78F2
:103F2000022B05D048F28410C0F60100FEF780F89D
:103F3000039B5B681B68002B05D048F29810C0F605
:103F40000100FEF775F8039B4FF003021A70039807
:103F50000299019A009B02F013FD039B9B68002BC2
:103F600005D048F26410C0F60100FEF761F841F296
:103F70005863C2F20003DA69039B9A604FF00200B3
:103F8000FEF7C6F9FDF704FF4FF0000383F3118835
:103F900005B000BDAFF30080AFF30080AFF3008049
:103FA00000B585B0039002910192039B002B05D0D0
:103FB000029B002B02D0019B002B05D148F2AC10D4
:103FC000C0F60100FEF734F84FF0200383F31188A8
:103FD000FDF7BEFE039B1B78022B05D048F2B810FC
:103FE000C0F60100FEF724F8039B5B681B68002BFA
:103FF00005D048F2C810C0F60100FEF719F8039B7F
:104000004FF003021A7003980299019A02F0F8FC2B
:10401000039B9B68002B05D048F26410C0F601009A
:10402000FEF706F841F25863C2F20003DA69039B17
:104030009A604FF00200FEF76BF9FDF7A9FE4FF012
:10404000000383F3118805B000BD00BFAFF300800B
:1040500000B583B00190019B002B05D148F21020E0
:10406000C0F60100FDF7E4FF019B03F10C031846C5
:10407000FEF7D6FD03B000BDAFF30080AFF30080C4
:1040800000B583B00190019B002B05D148F224209C
:10409000C0F60100FDF7CCFFFEF762FE03B000BDE5
:1040A00008B502F0D5FE08BDAFF30080AFF3008085
:1040B00082B00190019B4FF001021A70019B4FF0FA
:1040C00000025A70019B4FF000029A70019B4FF062
:1040D00000025A6002B07047AFF30080AFF3008077
:1040E00000B583B001900091019B002B02D0009B92
:1040F000002B05D148F24020C0F60100FDF798FFE3
:104100004FF0200383F31188FDF722FE019B1B78FB
:10411000012B09D0019B1B78022B05D048F25020BF
:10412000C0F60100FDF784FF019B009A5A600198D8
:1041300002F0B6FE019B4FF002021A70FDF728FE56
:104140004FF0000383F3118803B000BDAFF300808C
:1041500000B585B0039002910192039B002B05D01E
:10416000029B002B02D0019B002B05D148F280203E
:10417000C0F60100FDF75CFF4FF0200383F31188C8
:10418000FDF7E6FD039B1B78022B03D1039B5B78B5
:10419000002B05D048F29420C0F60100FDF748FF3F
:1041A00003980299019A02F0FBFE039B4FF0010273
:1041B0005A70FDF7EDFD4FF0000383F3118805B051
:1041C00000BD00BFAFF30080AFF30080AFF300800D
:1041D00000B585B0039002910192FDF799FE039B13
:1041E000002B05D0029B002B02D0019B002B05D198
:1041F00048F2A820C0F60100FDF71AFF039B1B78C8
:10420000022B03D1039B5B78012B05D148F2BC2024
:10421000C0F60100FDF70CFF03980299019A02F025
:10422000BFFE039B4FF001025A7005B000BD00BFF6
:1042300082B001904FF48053CEF200035A68019B84
:104240009A6002B0704700BFAFF30080AFF3008008
:1042500084B001904FF48053CEF200035B68039367
:10426000019B9B68039AD21A41F2A063C2F2000339
:104270001B68D21A019B9A60019B9A68019BDB68BC
:104280009A4204D9019B9A68019BDA6009E0019B7C
:104290009A68019B1B699A4203D2019B9A68019B11
:1042A0001A6104B0704700BFAFF30080AFF3008025
:1042B00000B587B041F2A063C2F200034FF00002E4
:1042C0001A6001AB184600F013F8019B01AA1046D2
:1042D0009847029B01AA10469847039A41F2A063AF
:1042E000C2F200031A6007B000BD00BFAFF3008048
:1042F00082B00190019A44F23123C0F600031360AA
:10430000019A44F25123C0F600035360019B4FF021
:1043100000029A60019B4FF00002DA60019B4FF0AF
:10432000FF321A6102B07047AFF30080AFF3008034
:1043300000B583B0FDF78CFD4FF00003C4F202031B
:104340001B6803F00F0301934FF00003C4F2020354
:104350004FF00F025A6041F2A863C2F200031B68DB
:10436000002B0CD041F2A863C2F200031A6841F29C
:10437000A863C2F200035B68184601999047FDF7F5
:1043800097FDFDF7ADFA03B000BD00BFAFF30080AD
:1043900000B583B0FDF75CFD4FF00003C4F20203EB
:1043A0001B684FEA131303F00F0301934FF0000350
:1043B000C4F202034FF0F0025A6041F2A863C2F265
:1043C00000039B68002B0CD041F2A863C2F20003EB
:1043D0009A6841F2A863C2F20003DB6818460199AB
:1043E0009047FDF765FDFDF77BFA03B000BD00BF08
:1043F00000B583B0FDF72CFD4FF00003C4F20203BB
:104400001B684FEA132303F00F0301934FF00003DF
:10441000C4F202034FF470625A6041F2A863C2F220
:1044200000031B69002B0CD041F2A863C2F2000309
:104430001A6941F2A863C2F200035B691846019948
:104440009047FDF735FDFDF74BFA03B000BD00BF07
:1044500000B583B0FDF7FCFC4FF00003C4F202038B
:104460001B684FEA133303F00F0301934FF000036F
:10447000C4F202034FF470425A6041F2A863C2F2E0
:1044800000039B69002B0CD041F2A863C2F2000329
:104490009A6941F2A863C2F20003DB6918460199E8
:1044A0009047FDF705FDFDF71BFA03B000BD00BF07
:1044B00000B583B0FDF7CCFC4FF00003C4F202035B
:1044C0001B684FEA134303F00F0301934FF00003FF
:1044D000C4F202034FF470225A6041F2A863C2F2A0
:1044E00000031B6A002B0CD041F2A863C2F2000348
:1044F0001A6A41F2A863C2F200035B6A1846019986
:104500009047FDF7D5FCFDF7EBF903B000BD00BF08
:1045100000B583B0FDF79CFC4FF00003C4F202032A
:104520001B684FEA135303F00F0301934FF000038E
:10453000C4F202034FF470025A6041F2A863C2F25F
:1045400000039B6A002B0CD041F2A863C2F2000367
:104550009A6A41F2A863C2F20003DB6A1846019925
:104560009047FDF7A5FCFDF7BBF903B000BD00BF08
:1045700000B583B0FDF76CFC4FF00003C4F20203FA
:104580001B684FEA136303F00F0301934FF000031E
:10459000C4F202034FF070625A6041F2A863C2F2A3
:1045A00000031B6B002B0CD041F2A863C2F2000386
:1045B0001A6B41F2A863C2F200035B6B18460199C3
:1045C0009047FDF775FCFDF78BF903B000BD00BF08
:1045D00000B583B0FDF73CFC4FF48063C4F20203E6
:1045E0001B6803F00F0301934FF48063C4F20203CE
:1045F0004FF00F025A6041F2A863C2F200039B6BB6
:10460000002B0CD041F2A863C2F200039A6B41F276
:10461000A863C2F20003DB6B184601999047FDF7CF
:1046200047FCFDF75DF903B000BD00BFAFF30080AC
:1046300000B583B0FDF70CFC4FF48063C4F20203B5
:104640001B684FEA131303F00F0301934FF48063C9
:10465000C4F202034FF0F0025A6041F2A863C2F2C2
:1046600000031B6C002B0CD041F2A863C2F20003C4
:104670001A6C41F2A863C2F200035B6C1846019900
:104680009047FDF715FCFDF72BF903B000BD00BF07
:1046900000B583B0FDF7DCFB4FF48063C4F2020386
:1046A0001B684FEA132303F00F0301934FF4806359
:1046B000C4F202034FF470625A6041F2A863C2F27E
:1046C00000039B6C002B0CD041F2A863C2F20003E4
:1046D0009A6C41F2A863C2F20003DB6C18460199A0
:1046E0009047FDF7E5FBFDF7FBF803B000BD00BF09
:1046F00000B583B0FDF7ACFB4FF48063C4F2020356
:104700001B684FEA133303F00F030193019B03F07F
:104710000F03002B1AD04FF48063C4F202034FF44E
:1047200070425A6041F2A863C2F200031B6D002B75
:104730000CD041F2A863C2F200031A6D41F2A863E3
:10474000C2F200035B6D1846019990474FF48063F5
:10475000C4F202031B684FEA134303F00F030193F3
:10476000019B03F00F03002B1AD04FF48063C4F2B7
:1047700002034FF470225A6041F2A863C2F20003B0
:104780009B6D002B0CD041F2A863C2F200039A6D1E
:1047900041F2A863C2F20003DB6D1846019990470D
:1047A000FDF786FBFDF79CF803B000BDAFF300807A
:1047B00082B041F2A463C2F200034FF000021A601B
:1047C0004FF0000301931CE048F64042C0F601029E
:1047D00001990B464FEA43035B184FEA8303D31852
:1047E0001B684FF000021A6041F2A863C2F2000396
:1047F000019A4FF0000143F83210019B03F10103CD
:104800000193019B0B2BDFDD4FF00003C4F2020389
:104810004FF0FF325A604FF48063C4F202034FF04E
:10482000FF325A6002B07047AFF30080AFF30080F0
:1048300000B585B00390029101920093039B002B79
:1048400005D148F2E030C0F60100FDF7F1FB039B13
:104850005B7A4FF0010202FA03F31A4641F2A463B5
:10486000C2F200031B681340002B02D04FF001037B
:1048700075E0039B5B7A1A4641F2A863C2F200031B
:10488000019943F83210039B5B7A41F2A862C2F2AD
:1048900000024FEAC303D318009A5A60039B5B7A65
:1048A0004FF0010202FA03F31A4641F2A463C2F286
:1048B00000031B681A4341F2A463C2F200031A60AA
:1048C00041F2A463C2F200031B6803F07F03002BD4
:1048D0000BD04FF48053C4F202034FF48052C4F261
:1048E0000202526942F001025A6141F2A463C2F22B
:1048F00000031B6803F47863002B0BD04FF4805344
:10490000C4F202034FF48052C4F20202526942F030
:1049100002025A61039B1B68039A1268126822F014
:1049200001021A60039B5B68039A127A4FF00F0131
:1049300001FA02F21A60039B1B684FF000021A6032
:10494000019B002B09D0039B9B7A1A46029B4FEADE
:10495000031310461946FDF74BF84FF000031846B5
:1049600005B000BDAFF30080AFF30080AFF300806F
:1049700000B583B00190019B002B05D148F2F030C7
:10498000C0F60100FDF754FB019B5B7A4FF001027A
:1049900002FA03F31A4641F2A463C2F200031B6851
:1049A0001340002B05D148F20040C0F60100FDF78E
:1049B0003FFB019B9B7A1846FDF772F8019B5B7ADF
:1049C0004FF0010202FA03F36FEA03031A4641F2C1
:1049D000A463C2F200031B681A4041F2A463C2F24E
:1049E00000031A6041F2A463C2F200031B6803F0E3
:1049F0007F03002B0BD14FF48053C4F202034FF41A
:104A00008052C4F20202526922F001025A6141F25C
:104A1000A463C2F200031B6803F47863002B0BD17C
:104A20004FF48053C4F202034FF48052C4F20202E6
:104A3000526922F002025A6103B000BDAFF3008058
:104A40004FF4E043C4F200034FF4E042C4F200022A
:104A5000126842F480721A60704700BFAFF30080A2
:104A600008B54FF48053C4F202031B694FF480531E
:104A7000C4F202034FF0FF321A614FF48053C4F2C4
:104A800002034FF000021A614FF48053C4F2020394
:104A9000DB684FF48053C4F202034FF0FF32DA6058
:104AA0004FF48053C4F202034FF00002DA604EF27A
:104AB0001003CEF2000341F63F12C0F201025A6029
:104AC0004EF21003CEF200034FF000029A604EF255
:104AD0001003CEF200034FF007021A604EF6F053B7
:104AE000CEF200034EF6F052CEF20002D26842F04F
:104AF0008072DA604FF48053CEF200034FF480529C
:104B0000CEF20002126842F001021A604FF48053A4
:104B1000C4F202034FF48052C4F20202D26942F09E
:104B20008052DA614FF48053C4F202034FF4805292
:104B3000C4F20202D26942F00062DA61FFF780FF3C
:104B4000FFF736FE08BD00BFAFF30080AFF3008073
:104B50004FF48053C4F202034FF48052C4F20202B5
:104B6000126842F001021A6000BF4FF48053C4F291
:104B700002031B6803F00203002BF6D04FF48053AE
:104B8000C4F202034FF48052C4F20202126802F02F
:104B9000F9021A604FF48053C4F202034FF000028E
:104BA0005A6000BF4FF48053C4F202035B6803F005
:104BB0000C03002BF6D14FF48053C4F202034FF4E0
:104BC0008052C4F20202126842F480321A6000BFBE
:104BD0004FF48053C4F202031B6803F40033002B2C
:104BE000F6D04FF48053C4F202034FF48052C4F263
:104BF0000202526842F4E8125A604FF48053C4F241
:104C000002034FF48052C4F20202126842F0807232
:104C10001A6000BF4FF48053C4F202031B6803F014
:104C20000073002BF6D04FF48053C4F202034FF40C
:104C3000C842C0F21D025A604FF40053C4F202038E
:104C40004FF012021A604FF48053C4F202034FF483
:104C50008052C4F20202526842F002025A6000BF5F
:104C60004FF48053C4F202035B6803F00C03082B7B
:104C7000F6D17047AFF30080AFF30080AFF3008050
:104C800008B5FDF7E5F84FF48063C4F201034FF077
:104C900001025A6141F20873C2F200035B685B686B
:104CA00041F20870C2F200004FF000019847FDF792
:104CB000FFF8FCF715FE08BDAFF30080AFF30080EE
:104CC00008B5FDF7C5F84FF48063C4F201034FF057
:104CD00002025A6141F20873C2F200035B68DB68AA
:104CE00041F20870C2F200004FF001019847FDF751
:104CF000DFF8FCF7F5FD08BDAFF30080AFF30080EF
:104D000008B5FDF7A5F84FF48063C4F201034FF036
:104D100004025A6141F20873C2F200035B685B69E6
:104D200041F20870C2F200004FF002019847FDF70F
:104D3000BFF8FCF7D5FD08BDAFF30080AFF30080EE
:104D400008B5FDF785F84FF48063C4F201034FF016
:104D500008025A6141F20873C2F200035B68DB6922
:104D600041F20870C2F200004FF003019847FDF7CE
:104D70009FF8FCF7B5FD08BDAFF30080AFF30080EE
:104D800008B5FDF765F84FF48063C4F201034FF0F6
:104D900010025A6141F20873C2F200035B685B6A59
:104DA00041F20870C2F200004FF004019847FDF78D
:104DB0007FF8FCF795FD08BDAFF30080AFF30080EE
:104DC00000B583B0FDF744F84FF48063C4F20103EB
:104DD0005B6903F4787301934FF48063C4F20103B9
:104DE000019A5A61019B03F02003002B0CD041F281
:104DF0000873C2F200035B68DB6A41F20870C2F21A
:104E000000004FF005019847019B03F04003002B81
:104E10000CD041F20873C2F200035B685B6B41F295
:104E20000870C2F200004FF006019847019B03F0A2
:104E30008003002B0CD041F20873C2F200035B68C0
:104E4000DB6B41F20870C2F200004FF00701984797
:104E5000019B03F48073002B0CD041F20873C2F263
:104E600000035B685B6C41F20870C2F200004FF017
:104E700008019847019B03F40073002B0CD041F20A
:104E80000873C2F200035B68DB6C41F20870C2F287
:104E900000004FF009019847FDF70AF8FCF720FDE4
:104EA00003B000BDAFF30080AFF30080AFF300802C
:104EB00000B583B0FCF7CCFF4FF48063C4F201036C
:104EC0005B6903F47C4301934FF48063C4F20103F4
:104ED000019A5A61019B03F48063002B0CD041F2CC
:104EE0000873C2F200035B685B6D41F20870C2F2A6
:104EF00000004FF00A019847019B03F40063002B68
:104F00000CD041F20873C2F200035B68DB6D41F222
:104F10000870C2F200004FF00B019847019B03F4A8
:104F20008053002B0CD041F20873C2F200035B687F
:104F30005B6E41F20870C2F200004FF00C0198471E
:104F4000019B03F40053002B0CD041F20873C2F212
:104F500000035B68DB6E41F20870C2F200004FF0A4
:104F60000D019847019B03F48043002B0CD041F2C4
:104F70000873C2F200035B685B6F41F20870C2F213
:104F800000004FF00E019847019B03F40043002BF3
:104F90000CD041F20873C2F200035B68DB6F41F290
:104FA0000870C2F200004FF00F019847FCF780FF35
:104FB000FCF796FC03B000BDAFF30080AFF30080B8
:104FC00008B5FCF745FF4FF48063C4F201034FF4CA
:104FD00080325A6141F20873C2F200035B68D3F871
:104FE000843041F20870C2F200004FF0100198477F
:104FF000FCF75EFFFCF774FC08BD00BFAFF3008058
:1050000008B5FCF725FF4FF48063C4F201034FF4A9
:1050100080225A6141F20873C2F200035B68D3F840
:10502000943041F20870C2F200004FF0120198472C
:10503000FCF73EFFFCF754FC08BD00BFAFF3008057
:1050400008B541F20870C2F20000FEF7D1FA08BDBF
:1050500000B589B00190019B1B78012B3BD14FF02B
:1050600006004FF08001FCF7C3FC4FF007004FF043
:105070008001FCF7BDFC4FF008004FF08001FCF709
:10508000B7FC4FF009004FF08001FCF7B1FC4FF086
:105090000A004FF08001FCF7ABFC4FF017004FF017
:1050A0008001FCF7A5FC4FF028004FF08001FCF7D1
:1050B0009FFC4FF001004FF08001FCF799FC4FF08E
:1050C00029004FF08001FCF793FC4FF02A004FF0CD
:1050D0008001FCF78DFC4FF000030393039B0493C6
:1050E000049B0593059B06934FF00003079348E04C
:1050F000019B5B68079A53F8323003F00403002BDE
:105100003BD0019B5A68079B4FEAC303D3185B68E7
:10511000002B08D0079B4FF0010202FA03F3069A16
:105120001343069307E0079B4FF0010202FA03F3D3
:10513000059A13430593019B5B68079A53F8323035
:1051400003F00103002B07D0079B4FF0010202FA86
:1051500003F3049A13430493019B5B68079A53F883
:10516000323003F00203002B07D0079B4FF00102FF
:1051700002FA03F3039A13430393079B03F101031A
:105180000793079B122BB3D94FF00003C4F201031E
:10519000019A5268B2F898209A604FF00003C4F266
:1051A0000103019A5268B2F89A20DA604FF00003C6
:1051B000C4F20103019A5268B2F89C201A614FF0C0
:1051C0000003C4F20103019A5268B2F89E205A61AA
:1051D0004FF48063C4F201034FF000021A614FF4F0
:1051E0008063C4F20103049A9A604FF48063C4F2AE
:1051F0000103039ADA604FF48063C4F201034FF6AF
:10520000FF72C0F207025A614FF48063C4F20103D7
:10521000059A5A604FF48063C4F20103069A1A603B
:1052200009B000BDAFF30080AFF30080AFF30080A2
:1052300082B001900091019B5A68009B4FEAC30322
:10524000D3185B68002B10D04FF48063C4F20103C5
:105250004FF48062C4F201021168009A4FF001001D
:1052600000FA02F20A431A600FE04FF48063C4F2BE
:1052700001034FF48062C4F201025168009A4FF0BA
:10528000010000FA02F20A435A60019B5B68009A2F
:1052900053F8323003F00103002B0FD04FF480633A
:1052A000C4F201034FF48062C4F201029168009AD3
:1052B0004FF0010000FA02F20A439A60019B5B681A
:1052C000009A53F8323003F00203002B0FD04FF452
:1052D0008063C4F201034FF48062C4F20102D1681A
:1052E000009A4FF0010000FA02F20A43DA6002B0BD
:1052F000704700BFAFF30080AFF30080AFF30080D2
:1053000084B00190019B1B6B0393039B4FF40042FD
:105310001A80039B4FF000021A80039B4FF000029B
:105320009A80039B4FF000029A82019BDB6A1B6804
:10533000019AD26A1268126822F001021A60019B77
:10534000DB6A5B68019AD26A127A4FF00F0101FAA8
:1053500002F21A60019B9B6A1B68019A926A1268AA
:10536000126822F001021A60019B9B6A5B68019A35
:10537000926A127A4FF00F0101FA02F21A6004B039
:10538000704700BFAFF30080AFF30080AFF3008041
:1053900000B585B00190019B0393039BDB69002B53
:1053A00010D0039BDB6902930398FFF7A9FF039BCF
:1053B0004FF00002DA61029B4FF0FF329A620298CE
:1053C000FCF766FF05B000BDAFF30080AFF30080CF
:1053D00000B587B00190019B1B6B0493019B5B6838
:1053E0005B680393019B5B681B7A8DF80B30019B14
:1053F000002B09D0039B002B06DD039A4FF41063AA
:10540000C0F23D039A4205DD48F22040C0F601009B
:10541000FCF70EFE049B9B889BB223F03F039AB2DD
:10542000049B9A80049B9B889BB243F024039AB20E
:10543000049B9A804FF00003ADF8163040F6FF73DE
:10544000ADF81430039A48F2A063C0F201039A4207
:1054500044DC9DF80B30012B05D048F23840C0F6F3
:105460000100FCF7E5FD039B4FEA43024FF4A24322
:10547000C0F2252393FBF2F102FB01F29B1A002BF1
:1054800005D048F25040C0F60100FCF7D1FD039B67
:105490004FEA43024FF4A243C0F2252393FBF2F3F9
:1054A000ADF81430BDF81430032B05D848F268402D
:1054B000C0F60100FCF7BCFDBDF814304FEA035301
:1054C0004FEA13539AB2BDF8163013439BB2ADF8AE
:1054D0001630049B4FF025021A8490E0039A4FF493
:1054E000D453C0F206039A4200F389809DF80B3032
:1054F000022B09D09DF80B30032B05D048F28040D9
:10550000C0F60100FCF794FD9DF80B30022B23D16F
:10551000039A13464FEA43039A184FF4A243C0F28A
:10552000252393FBF2F102FB01F29B1A002B05D01D
:1055300048F29840C0F60100FCF77AFD039A134642
:105540004FEA43039A184FF4A243C0F2252393FB7A
:10555000F2F3ADF8143032E09DF80B30032B2ED16E
:10556000039A13464FEA83039B184FEA83029A1863
:105570004FF4A243C0F2252393FBF2F102FB01F2A8
:105580009B1A002B05D048F2B040C0F60100FCF792
:105590004FFD039A13464FEA83039B184FEA830299
:1055A0009A184FF4A243C0F2252393FBF2F3ADF80F
:1055B0001430BDF8163043F48043ADF81630BDF812
:1055C0001430002B05D148F2C840C0F60100FCF7AA
:1055D0002FFDBDF814304FEA03534FEA13539BB22B
:1055E0006FEA43436FEA53439AB2BDF81630134350
:1055F0009BB2ADF81630049B4FF00B021A84BDF835
:10560000142040F6FF739A4205D948F2E040C0F6F4
:105610000100FCF70DFD049BBDF816209A8307B02E
:1056200000BD00BFAFF30080AFF30080AFF3008098
:1056300086B00190019B1B6B0493019B5B681B78F8
:105640008DF80F30049B1B88ADF816309DF80F3095
:10565000022B0AD0032B15D0012B1AD1BDF816301E
:1056600023F00A03ADF8163013E0BDF8163043F00E
:105670000203ADF81630BDF8163023F00803ADF87C
:10568000163006E0BDF8163043F00A03ADF81630C8
:1056900000BF049BBDF816201A8006B0704700BFFB
:1056A00000B587B00190019B1B6B0593059B1B8B7D
:1056B0009BB20493059B9B8A9BB20393049B4FEA86
:1056C0000342039B134323F07F434FF00202C0F2D7
:1056D000030293421ED04FF00202C0F20302934233
:1056E00006D84FF00102C0F2030293420DD092E0BF
:1056F0004FF08202C0F20702934234D04FF084028E
:10570000C0F20702934241D085E0019B1A8C059BB1
:105710001A8282E0059B9B889BB223F400739AB2A5
:10572000059B9A80019B9B6A1B68019A926A12688A
:10573000126842F001021A60059B9B889BB243F4F9
:1057400080539AB2059B9A80019B9B6A1B685B6899
:10575000012B61D8059B1B889BB223F480639AB20E
:10576000059B1A8058E0059B9B889BB223F400732D
:105770009AB2059B9A80019BDB6A1B68019AD26AE8
:105780001268126842F001021A6046E0019B9B6AAF
:105790001B685B68002B0FD0019B1B8C43F001033F
:1057A0009AB2019B1A84059B1B889BB243F4A063A9
:1057B0009AB2059B1A8037E0059B9B889BB223F425
:1057C00000739AB2059B9A80059B1B889BB243F499
:1057D00000739AB2059B1A804FF0200383F311885F
:1057E000FCF7F6FA019BDB69002B0DD0019BDB690E
:1057F0000293019B4FF00002DA61029B4FF000021E
:105800009A620298FCF744FDFCF702FB4FF000039C
:1058100083F3118801E000E000BF039B03F00A035B
:10582000002B01D0059B1B8B07B000BDAFF30080A0
:1058300000B585B001900091019B1B6B0393009B09
:1058400003F00803002B01D0FBF7EAFF019B9B6AE2
:105850001B68019A926A1268126822F001021A60AB
:10586000019B9B6A5B68019A926A127A4FF00F0162
:1058700001FA02F21A60039B9B889BB223F48053C7
:105880009AB2039B9A80039B1B889BB223F480638C
:105890009AB2039B1A80039B1B889BB243F400734C
:1058A0009AB2039B1A804FF0200383F31188FCF710
:1058B0008FFA019BDB69002B0DD0019BDB69029302
:1058C000019B4FF00002DA61029B4FF000029A62E6
:1058D0000298FCF7DDFCFCF79BFA4FF0000383F322
:1058E000118805B000BD00BFAFF30080AFF30080AA
:1058F00000B585B001900091019B1B6B0393009B49
:1059000003F00803002B01D0FBF78AFF019BDB6A41
:105910001B68019AD26A1268126822F001021A60AA
:10592000019BDB6A5B68019AD26A127A4FF00F0121
:1059300001FA02F21A60039B9B889BB243F4007346
:105940009AB2039B9A8005B000BD00BFAFF3008000
:1059500000B587B00190019B1B6B04934FF02003AF
:1059600083F31188FCF734FA019BDB6A1B68019A08
:10597000D26A1268126822F001021A60019BDB6A87
:105980005B68019AD26A127A4FF00F0101FA02F2B3
:105990001A60019B9B6A1B68019A926A12681268DE
:1059A00022F001021A60019B9B6A5B68019A926A6D
:1059B000127A4FF00F0101FA02F21A60FCF728FA8E
:1059C0004FF0000383F311884FF000030593049B0D
:1059D0009B8A9BB203F48073002B0BD0049B9B8AA1
:1059E0009BB223F480739AB2049B9A82059B43F086
:1059F00001030593049B9B8A9BB203F40073002B65
:105A00000BD0049B9B8A9BB223F400739AB2049B35
:105A10009A82059B43F002030593049B9B8A9BB2E9
:105A200003F48063002B1BD0049B9B8A9BB223F45E
:105A300080639AB2049B9A82049B9B889BB223F456
:105A400000739AB2049B9A80049B1B889BB243F418
:105A500000739AB2049B1A80059B43F004030593DC
:105A6000049B9B8A9BB203F40063002B0BD0049B26
:105A70009B8A9BB223F400639AB2049B9A82059B93
:105A800043F008030593049B9B8A9BB203F4805365
:105A9000002B0BD0049B9B8A9BB223F480539AB2B9
:105AA000049B9A82059B43F010030593049B9B8AF9
:105AB0009BB203F48043002B0BD0049B9B8A9BB2C8
:105AC00023F480439AB2049B9A82059B43F02003FF
:105AD0000593049B9B8A9BB29BB21BB2002B0DDAF1
