:020000040800F2
:1000000000040020E10400080106000801060008C1
:1000100001060008010600080106000801060008A4
:100020000106000801060008010600083106000864
:100030000106000801060008010600081107000873
:100040000106000801060008010600080106000874
:100050000106000801060008010600080106000864
:10006000010600080106000801060008011E00083C
:10007000311E0008611E0008911E0008C11E000804
:10008000F11E0008211F00080106000801060008F3
:100090000106000801060008010600080106000824
:1000A0000106000801060008010600080106000814
:1000B0000106000801060008010600080106000804
:1000C00001060008010600080106000801060008F4
:1000D0000106000801060008B12200080106000818
:1000E00001060008010600080106000801060008D4
:1000F00001060008010600080106000801060008C4
:1001000001060008010600080106000801060008B3
:1001100001060008010600080106000801060008A3
:10012000511F0008811F0008B11F0008E11F0008CF
:1001300010B54FF4406488B001F0AAF9C4F201048C
:1001400000F076FB2548002101F03AFA03F0C8FBE5
:1001500020464FF48051062202F05AFB4FF48053A0
:1001600023611F4C1F4A00941F4C204B20482149FB
:100170000194002401F014FC1D48214601F028FCE4
:100180001D4B4FF49871402200941C4800F028FD4C
:100190001B4802A9012200F093FE1A4805A9022279
:1001A00000F08EFE64B1237F0E2B11D04FF0FF3094
:1001B00000F0DEFE0146144800F0C2FE002CF2D131
:1001C00012484FF40B61402203F092FB0446EDE726
:1001D000204600F055FD0024E8E700BF000A00209B
:1001E000D13E00081C080020B13E0008280800206D
:1001F0001C0E0020780A0020713F0008E80C002047
:10020000380E00203C0E0020B04A0008F0470008DD
:100210000F4B70B41D6810F8013BEC181A46647857
:1002200004F00304012C11F8014B08BF03F1200274
:100230002E192346767806F00306012E08BF04F136
:100240002003D21A01D1002BE5D1104670BC7047B3
:100250000008002000000000000000000000000076
:10026000C9B2F0B400294BD083070FD00378002B1C
:1002700073D0994242D0431C05E013F8012B002AA9
:100280003BD091423AD09A071846F6D1036841EA2A
:100290000127A3F1013247EA074722EA030212F0DD
:1002A000803F1CD17B40A3F1013222EA030313F00B
:1002B000803F14D1021D02E014F0803F0FD11046A0
:1002C00052F8043BA3F1013687EA030426EA03034C
:1002D000A4F1013513F0803F25EA0404ECD0037843
:1002E000002B3AD0994209D0431C01E0914205D03D
:1002F000184613F8012B002AF8D11046F0BC7047BD
:1003000081070DD00378002BF8D0431C02E002785F
:10031000002AF3D013F0030F184603F10103F6D1BE
:100320000368A3F1013222EA030313F0803F0AD1EC
:10033000021D104652F8041BA1F1013424EA010108
:1003400011F0803FF5D00378002BD7D0431C18461E
:1003500001330278002AFAD1D0E71846CEE700BF71
:1003600080EA0102844612F0030F4FD111F0030F0F
:1003700032D14DF8044D11F0040F51F8043B0BD06D
:10038000A3F101329A4312F0803F04BF4CF8043BC2
:1003900051F8043B16D100BF51F8044BA3F10132D0
:1003A0009A4312F0803FA4F101320BD14CF8043B88
:1003B000A24312F0803F04BF51F8043B4CF8044BB9
:1003C000EAD023460CF8013B13F0FF0F4FEA33232A
:1003D000F8D15DF8044B704711F0010F06D011F809
:1003E000012B0CF8012B002A08BF704711F0020FF7
:1003F000BFD031F8022B12F0FF0F16BF2CF8022BE2
:100400008CF8002012F47F4FB3D1704711F8012B04
:100410000CF8012B002AF9D1704700BF0000000042
:1004200020F0030110F00300C0F1000051F8043B7C
:1004300000F1040C4FEACC0C6FF000021CBF22FA52
:100440000CF213434FF0010C4CEA0C2C4CEA0C4C10
:10045000A3EB0C0222EA030212EACC1204BF51F809
:10046000043B0430F4D013F0FF0F1FBF013013F42E
:100470007F4F013013F47F0F18BF0130704700BF6A
:10048000F0B40478CCB10F78064697B10546BC426B
:100490000AD00A4601E09C4206D012F8013F002B28
:1004A000F9D1281AF0BC70476C7801361CB135467A
:1004B000EDE73846F6E7301AF4E72046F2E700BFEA
:1004C000704700BFAFF30080AFF30080AFF3008050
:1004D000FEE700BFAFF30080AFF30080AFF3008012
:1004E00072B6374880F30988022383F31488BFF378
:1004F0006F8F344A344B9A420BD2D143C91821F042
:100500000301131F89184FF0553243F8042F8B4213
:10051000FBD12E4A82420CD22D49131DC91A21F05B
:100520000301131F89184FF0553243F8042F8B42F3
:10053000FBD102F09DF92749274B99420BD2C843C2
:10054000C01820F00300254C043000231A595A50DB
:1005500004338342FAD1224A224B9A420AD2D1432F
:10056000C91821F00301131F8918002243F8042F32
:100570008B42FBD1FFF7A4FF1B4D1C4B9D420BD2BE
:10058000EE43F618B608043D0136002455F8043F42
:1005900001349847B442F9D1FFF7CAFD144D154B09
:1005A0009D420BD2EE43F618B608043D01360024F6
:1005B00055F8043F01349847B442F9D1FFF788FF5A
:1005C000000800200000002000040020000400209B
:1005D000030800200008002034080020B84A000862
:1005E00038080020641200203001000830010008A3
:1005F0003001000830010008AFF30080AFF3008045
:10060000FEE700BFAFF30080AFF30080AFF30080E0
:1006100072B6FEE7AFF30080AFF30080AFF3008067
:1006200000F05EFA00DF00BFAFF30080AFF30080A0
:10063000EFF30983203383F30988002383F31188C0
:10064000704700BFAFF30080AFF30080AFF30080CE
:1006500008B500224FF46D43CEF20003C0F2FA5207
:100660000021996007201021DA6000F0B9F80A2013
:100670004FF4007100F0B4F80B208021BDE8084071
:1006800000F0AEB8AFF30080AFF30080AFF30080AE
:10069000202383F311884FF46D43CEF200035B688F
:1006A00013F4006319D0EFF30983A3F1200282F35E
:1006B0000988124A4FF08070916943F8040C79B1AF
:1006C0001168D26989689268914294BF0022012220
:1006D00082B10B4A43F8082C704783F311887047A6
:1006E0001168D26989689268914234BF0022012260
:1006F000002AEED1034A43F8082C70475009002025
:100700002106000824060008AFF30080AFF3008044
:1007100008B5202383F3118800F0C2F8002383F387
:100720001188BDE80840FFF7B3BF00BFAFF30080FA
:100730002DE9F04FC1F80CD0D0F80CD0BDE8F08F07
:10074000002383F311882846A04700F091FA7047F0
:1007500000F0030370B4DB00FF2505FA03F501FA8E
:1007600003F1012200F01F0302FA03F284084FF4A0
:100770006143CEF20003C03453F82460400926EAF6
:1007800005050D4300F1600643F8245043F8262088
:1007900043F8202070BC7047AFF30080AFF30080B7
:1007A00010B400F01F03012404FA03F400F0030264
:1007B000FF23D20003FA02F241094FF46143CEF263
:1007C00000032031800843F82140C03053F8201046
:1007D00021EA020243F8202010BC7047AFF30080EA
:1007E00000F00303DB00FF2202FA03F201FA03F137
:1007F00080084FF46D43CEF20003063010B453F876
:10080000204024EA02020A4343F8202010BC70472B
:10081000024B034ADB699A61FEE700BF50090020E2
:1008200000430008AFF30080AFF30080AFF3008017
:1008300000B583B0FFF70CFF00F0CAF800F058F8DD
:1008400000F00EFD00F054FD40F638004021C2F2E9
:10085000000000F065F940F65011C2F200010122DB
:10086000C8610277002383F3118862B644F2103026
:10087000C969C0F600008861009340F6800040F628
:100880001103C021C0F60003C2F2000000F0A8F975
:1008900003B000BDAFF30080AFF30080AFF3008082
:1008A00038B5104B9A69002A01DD013A9A61DA697C
:1008B0000D4C116A236801311162E2680132A342D2
:1008C000E2600ED09D68013D9D6055B91A68D968F7
:1008D0001869DD6054602260884723689A68002A9E
:1008E000F4D038BD5009002040090020AFF300804B
:1008F00040F64013C2F200034FF0FF329A6000222C
:100900005B601B60DA607047AFF30080AFF300807C
:1009100070B40D4E03613468C260A568A94204D961
:100920002468491BA5688D42FAD363688160B4428C
:1009300043600460186018BFA36860601CBFC1EB0F
:100940000301A16070BC704740090020AFF3008034
:100950000368074A93421FBF996882688A189A60A1
:100960004268002113600368C1605A60704700BF8D
:1009700040090020AFF30080AFF30080AFF30080A8
:10098000037F0D2B11D8DFE803F020101007100BA8
:10099000101010101010100B436A9A6801329A6000
:1009A00090E80C001A60026853604FF0FF32426218
:1009B00081680022054B02771B689A688A42FBD245
:1009C0005A68036042601060586070475009002008
:1009D00040F65013C2F2000300229A6014225B60BA
:1009E0001B609A615B611B61704700BFAFF30080C1
:1009F00000228168054B02771B689A688A42FBD205
:100A00005A680360426010605860704750090020C7
:100A100040F6501330B4C2F200031A68D969146862
:100A20000877142098610125104663601C60DA6124
:100A3000157730BCFFF77CBEAFF30080AFF30080CA
:100A400030B54B1C87B0054611D00B4C0B4AE369FF
:100A500001A8FFF75DFF2846FFF7DAFF049B13B1FB
:100A600001A8FFF775FFE369586A07B030BDFFF7CB
:100A7000CFFF014CF7E700BF5009002081090008B3
:100A8000F0B4154F0446FE698568B06800238542BE
:100A900061620CD823773B461B689A689542FBD964
:100AA0005A682360626014605C60F0BC7047337702
:100AB0003B461B689A689042FBD95A683360726063
:100AC0005E60012316602046FC61314623771423C3
:100AD000BB61F0BCFFF72CBE50090020AFF30080D3
:100AE0000E4A30B41068D169036814258C6813600D
:100AF00095615A60D06101220277002203460A778D
:100B000000E01B689A68A242FBD25A680B604A60F8
:100B10001160596030BCFFF70BBE00BF50090020C8
:100B2000F0B440F65014C2F200046569002200F1EE
:100B30002C06816000F128074FF0020C01640121AE
:100B40000461456180F81CC060614277C2638263C2
:100B5000026281778261286187620663C662F0BCA7
:100B6000704700BFAFF30080AFF30080AFF30080A9
:100B70002DE9F003243940F65015C2F2000547185C
:100B8000D5F814C0C7604350069B00267B6040F236
:100B90004173C0F600033B620223904600F128092E
:100BA00000F12C02037701230561C0F80880C0F82A
:100BB00014C0044668614677C0F84080C663866307
:100BC000066283778661CCF81000C0F82890026333
:100BD000C262BDE8F0037047AFF30080AFF300805E
:100BE00010B51C4682B0202383F311882346049C51
:100BF0000094FFF7BDFF00210446FFF741FF0023EB
:100C000083F31188204602B010BD00BFAFF300800F
:100C100008B50146202383F311880620FFF710FF53
:100C2000002383F3118808BDAFF30080AFF3008089
:100C300038B50E4BDC69254655F8283F6062AB425B
:100C400007D01A681846A262FFF7D2FEA36AAB4229
:100C5000F7D1637F9B0704D1636922691A61226916
:100C600053610E20BDE83840FFF7D2BE5009002086
:100C7000202383F31188FFF7DBBF00BFAFF30080B1
:100C80000146202383F31188827F0023013AD2B2E8
:100C9000827783F3118812B9037F0E2B00D070473F
:100CA000437F03F00303012B09D0022BF7D14369E3
:100CB0000269406C1A610A69536100F0D9BB43694B
:100CC00002691A610269536100F06ABBAFF30080E8
:100CD000F0B583B00D4617461E4600F019FB0446DA
:100CE00090B1202383F31188089C334629463A4665
:100CF0000094FFF73DFF0123437700210446FFF7EF
:100D0000BFFE002383F31188204603B0F0BD00BF6F
:100D1000202383F3118840F65013C2F200031869B0
:100D20000023827F0132827783F31188704700BFEE
:100D300010B5202383F31188074B04699C4209D026
:100D4000A37F0133A377002383F31188FFF798FF74
:100D5000204610BD0024F6E750090020AFF30080C4
:100D60000023406000608360704700BFAFF30080E5
:100D7000F8B52F4A83680546D469002B51D0A16885
:100D80009A68914206D91A7F9960042A31D0052ABF
:100D90001CD092B12B461B689D4203D09968A26873
:100DA0009142F8D25A6804202360626014605C604B
:100DB0006562BDE8F840FFF72BBE93E806001160BE
:100DC00018461B685A60FFF713FEE3E758681A6875
:100DD0005E6A02601F68324678601268964202D0EE
:100DE00090688842F9D251681A6059600B6053606C
:100DF000D0E758681A685E6A02601F6832467860F9
:100E00001268964212D090688842F9D251681A60EE
:100E100059600B605360B368A1689A688A42B2D384
:100E2000B8E7E36B8460C360E063F8BD3246EDE78A
:100E300050090020AFF30080AFF30080AFF30080D3
:100E400008B5202383F31188FFF792FF002383F373
:100E5000118808BDAFF30080AFF30080AFF30080CE
:100E6000154A38B5D069202383F31188C46B2568EF
:100E7000E368A542C3631CD0016C4BB11A689A4267
:100E800003D09268914238BF1146DB68002BF5D140
:100E90002B68EA6B8160236028465C600021A560B6
:100EA000E260EC63FFF7ECFD002383F3118820463A
:100EB00038BD0023A360F7E750090020AFF300809E
:100EC00030B4202383F3118840F65013C2F200039C
:100ED000DC69056800230D6001604C608A6083F363
:100EE000118830BC704700BFAFF30080AFF30080C3
:100EF00008B5826B037F1143082B81630BD0092B4C
:100F000000D008BD436A19408B42FAD1FFF770FD4B
:100F10000023436208BD436A1942F7D108BD00BFF0
:100F200070B504680546A0420E4607D0A168606807
:100F30003143FFF7DDFF2468A542F7D170BD00BF44
:100F4000F8B50D46074689B10024012601E00134B9
:100F500065B106FA04F32B42F9D057F82420204655
:100F600025EA030501349047002DF2D1F8BD00BFFA
:100F700038B50D4B0546DC69202383F31188A36B3C
:100F800010EA030206D160620820FFF741FDA36B5F
:100F900005EA03025042104023EA0003A363002342
:100FA00083F3118838BD00BF50090020AFF30080E3
:100FB00010B4024659B1084B0D20DB695A625468DF
:100FC00083E814005360236010BCFFF739BD4FF075
:100FD000FF3010BC704700BF50090020AFF3008005
:100FE00010B48A180024406000608460416181610F
:100FF000C1600261C36110BC704700BFAFF30080E5
:10100000426908B5034680698242986818D0013069
:10101000986002F8011B19695A618A4228BFDA6890
:10102000186828BF5A61984208D002681A60536055
:10103000FFF7DEFC00234362184608BD002008BD10
:101040000028E4D06FF0030008BD00BFAFF30080BC
:1010500070B5202304460E4683F31188C36903B19B
:101060009847A568204631463DB9FFF7A1FF002803
:10107000F7DA2B4683F3118870BDA369013DA560A3
:1010800013F8010B2269A361934224BFE368A361B3
:10109000002383F3118870BDAFF30080AFF30080AD
:1010A0002DE9F0471E460446C769202383F31188C3
:1010B0004FF0000801F1010901EB020A0FB12046CF
:1010C000B847A568204631464DB9FFF771FF0028A3
:1010D000F7D02B4683F311884046BDE8F087A3691B
:1010E000013DA56013F8012B09F8012C2269A361C9
:1010F000934224BFE368A361002383F31188D145A1
:1011000008F10108E8D0202383F3118809F10109CF
:10111000D4E700BFAFF30080AFF30080AFF30080EF
:1011200010B48C1840600060826041618161C160D0
:101130000461C36110BC7047AFF30080AFF300805F
:10114000F8B504460F461646202383F31188A56898
:10115000204631463DB9FFF72BFF0028F7DA2B4632
:1011600083F31188F8BD6369013DA56003F8017B35
:1011700022696361934224BFE3686361E3690BB151
:1011800020469847002383F311881846F8BD00BF16
:101190004169826910B591420346816816D00131D8
:1011A000996012F8014B19699A618A4228BFDA687E
:1011B000186828BF9A61984206D002681A60536086
:1011C000FFF716FC00234362204610BD0029E6D03D
:1011D0006FF0020010BD00BFAFF30080AFF30080DE
:1011E0002DE9F0479A46044688461646D0F81C90EA
:1011F000202383F311880027A56820466B1EEDB1DC
:10120000A36018F8013B656905F8013B2369656136
:101210009D4224BFE3686361B9F1000F00D0C84765
:10122000002383F311880137013E10D0202383F37C
:101230001188A56820466B1E002DE1D1204651463D
:10124000FFF7B6FE0028D7D02B4683F31188384627
:10125000BDE8F087AFF30080AFF30080AFF300800C
:1012600040F20001084840F6741240F67013C2F2D2
:101270000101C2F2000220F00700C2F2000321F0D7
:1012800007011060196070476B120020AFF30080F7
:10129000202383F31188094B09491A68096807302C
:1012A00020F00700891A88429ABF1018186000229F
:1012B000002383F311881046704700BF7409002093
:1012C00070090020AFF30080AFF30080AFF300801F
:1012D00040F6701240F67413C2F20002C2F200032C
:1012E00010681B68C01A7047AFF30080AFF300802E
:1012F00040F67813C2F2000341F291210022C0F6B9
:10130000000103F1100019609A60DA60FFF728BD50
:10131000F8B51F4E0731002818BF064606F1100029
:1013200021F0070506F10804FFF78AFD00E01C46DE
:101330002368E3B15A689542F9D805F10801914252
:1013400012D84FF6F870CFF6FF70401B821818685D
:101350005F1858507A6027605D601C4644F8086B3F
:10136000FFF77EFD2046F8BD1A682260F5E7FFF71B
:1013700077FD33684BB105F10800984728B100F1BB
:101380000804066045602046F8BD0024EAE700BF77
:1013900078090020AFF30080AFF30080AFF3008046
:1013A00070B5064650F8080CA6F1080400F10805CF
:1013B0001030FFF745FD2B46AB421A6801D0A3421F
:1013C00002D21AB1944201D31346F5E756F8041C31
:1013D00046F8082C1C6001F1080256F8085CA018B9
:1013E000A84209D05A6802F1080159188C4211D05C
:1013F000BDE87040FFF734BD4068A25809180831B5
:1014000046F8041C46F8082C5A6802F108015918DD
:101410008C42EDD156F8040C56F8081C121808320C
:1014200083E80600E4E700BFAFF30080AFF300807D
:1014300038B50E4C0D46002818BF044604F11000C4
:10144000FFF7FEFCA3686BB10022144658681B68C6
:1014500012180134002BF9D105B12A60FFF700FD05
:10146000204638BD1A461C46F6E700BF7809002022
:10147000202383F31188026800230A60016083F34C
:1014800011887047AFF30080AFF30080AFF30080A6
:1014900008B500F065FE00F083F944F25050C0F644
:1014A000000001F05DF900F05BF800F0C1F800F019
:1014B0006FFABDE8084001F0E3B900BFAFF3008068
:1014C000806BD0F1010038BF00207047AFF300807F
:1014D0008069D0F1010038BF00207047AFF3008071
:1014E0000246202383F31188002180680B46916017
:1014F00083F31188704700BFAFF30080AFF3008023
:101500001030FFF7CDBD00BFAFF30080AFF3008018
:1015100010304FF0FF33FFF7C3BD00BFAFF30080C3
:101520003030FFF75DBE00BFAFF30080AFF3008047
:1015300030304FF0FF33FFF753BE00BFAFF30080F2
:101540001030FFF785BD00BFAFF30080AFF3008020
:101550003030FFF7F5BD00BFAFF30080AFF3008080
:1015600000F056BFAFF30080AFF30080AFF3008010
:101570000B4644F2303170B5C0F600010546044612
:1015800045F8041B65600025A5600125164604F199
:101590005001102200F110002573FFF721FD04F126
:1015A000300004F1600110223346BDE87040FFF7BF
:1015B000B7BD00BFAFF30080AFF30080AFF3008092
:1015C00010B52023044683F3118800F039FF02236D
:1015D0002373002383F3118810BD00BFAFF3008095
:1015E00038B5836904460D463BB104F11000294625
:1015F000FFF706FD00280FDB38BD8268194642F070
:1016000004020430A260FFF78BFC04F110002946AD
:10161000FFF7F6FC0028EFDAA368201D43F08003F3
:101620000021A360BDE83840FFF77ABCAFF300802B
:1016300000F086BFAFF30080AFF30080AFF300800F
:10164000002301220270436083600C30FFF788BBE7
:1016500010B52023044683F31188416000F098FF01
:1016600002232370002383F3118810BDAFF30080A1
:1016700010B52023044683F3118801F009F82046B1
:1016800000F0DEFF01232370002383F3118810BDD7
:1016900008B5202383F3118800F0F2FF002383F3C1
:1016A000118808BDAFF30080AFF30080AFF3008076
:1016B00008B5202383F3118800F0EAFF002383F3A9
:1016C000118808BDAFF30080AFF30080AFF3008056
:1016D00010B52023044683F311880323037000F020
:1016E000DFFF40F65013C2F20003DB690220A36063
:1016F000FFF78EF9002383F3118810BDAFF300804C
:1017000010B52023044683F311880323037000F0EF
:10171000E7FF40F65013C2F20003DB690220A3602A
:10172000FFF776F9002383F3118810BDAFF3008033
:1017300010B52023044683F311880323037000F0BF
:10174000EFFF40F65013C2F20003DB690220A360F2
:10175000FFF75EF9002383F3118810BDAFF300801B
:101760004FF48053CEF200035B688360704700BF84
:101770004FF48053CEF20003084982685B68096821
:101780009B1AC2685B1A9342836004D80269934231
:1017900038BF03617047C360704700BF98090020DD
:1017A00010B540F6981486B00022C2F20004226000
:1017B00004924FF0FF3205924FF4805341F2617270
:1017C000C0F60002CEF200035B68019241F2717232
:1017D000C0F6000201A803930292FFF7C9FF039B22
:1017E000236006B010BD00BFAFF30080AFF30080F0
:1017F00030B5054683B00924A868012101AAFFF786
:1018000097FF9DF80400FF2801D1013CF4D103B0FB
:1018100030BD00BFAFF30080AFF30080AFF30080B6
:1018200030B5054683B010240121A86801AAFFF74E
:101830007FFF9DF80430FF2B0ED0013CF4D101E076
:10184000FFF7E6F9A868012101AAFFF771FF9DF8EB
:1018500004300120FF2BF3D103B030BDAFF3008083
:1018600070B5144682B00D460646FFF7D9FF220C2C
:10187000230A45F04001200E8DF802208DF8033038
:101880008DF804400D4D8DF800108DF801006B4669
:1018900001AC002201E013F8011F81EA4202A342D9
:1018A000AA5CF8D1520042F00103B06806216A46F2
:1018B0008DF80530FFF724FF02B070BD60430008CB
:1018C000F8B504460F46154680681E46FFF7E0FE51
:1018D00039462A462046FFF7C3FF2046FFF788FF18
:1018E000042105463246A068FFF722FFA068FFF7F3
:1018F000DFFE2846F8BD00BFAFF30080AFF30080E5
:1019000070B504460E4615468068FFF7C1FE2A46AC
:1019100031462046FFF7A4FF2046FFF769FF054642
:10192000A068FFF7C5FE284670BD00BFAFF300807A
:10193000836B10B504467BB183699847D0B1A16B26
:101940000139A163C9B1104A04F124000A212346D8
:10195000BDE81040FEF7DCBF8369984701460028C8
:10196000F1D1022323700A23A36304F12000FFF7BF
:10197000D7FAE8E70A23A363E5E72046032300F844
:101980001C3BFFF7CDFADEE731190008AFF300800A
:10199000704700BFAFF30080AFF30080AFF300806B
:1019A000F0B40361049B00244361059B00F11C0615
:1019B00000F120050127077044608160C2608361E7
:1019C000C463C6610562F0BC704700BFAFF300801E
:1019D00008B5202383F311880A2241600221017097
:1019E0008263114641F631120346C0F600022430EC
:1019F000FEF78EFF002383F3118808BDAFF300804C
:101A000070B50446007882B0032804D0043818BFAB
:101A1000012002B070BDA068E168FFF719FEA06860
:101A20001021FFF755FE0A2502E00A20FFF7F0F823
:101A300000210A462046FFF763FF012803D0013D3D
:101A4000F3D10120E5E7082120464FF4D57201AB20
:101A5000FFF736FF052826D0642504E0013DF0D0CD
:101A60000A20FFF7D5F8372100222046FFF748FF6C
:101A700001280646F2D14FF4D572C4F200022921A2
:101A800001AB2046FFF71CFF02460028E6D101AB60
:101A900020463A21FFF714FF9DF8043003F040037D
:101AA000DBB203B1E663642505E0012BC9D1013D3A
:101AB000C7D0FFF7ADF8012100222046FFF720FF35
:101AC00003460A20002BF0D12169A068FFF7C0FD72
:101AD000204610214FF40072FFF712FF0028B0D10A
:101AE000202383F311882378032B04D001200023C3
:101AF00083F311888DE704232370F8E7AFF30080A8
:101B000010B5037882B0042B044605D0A068FFF717
:101B1000AFFD012002B010BD8068FFF7B9FD01E004
:101B2000FFF776F8A068012101AAFFF701FE9DF8F2
:101B300004300120FF2BF3D1A068FFF7B9FD20236B
:101B400083F311882378042B03D0002383F31188B7
:101B5000DCE703232370F8E7AFF30080AFF30080E6
:101B600038B504460D46202383F311880378042BEF
:101B700004D0002383F31188012038BD05230370AE
:101B8000002383F3118821698068FFF761FDA06855
:101B9000FFF77EFDE36B204612219BB12A46FFF73B
:101BA0005FFE2046FFF724FE0028E6D0A068FFF77E
:101BB0007FFD202383F311882378052BD9D10423BB
:101BC0002370D6E76A02FFF74BFEEAE7AFF3008027
:101BD00070B5202306460D4683F311880378052B44
:101BE0004FF0000383F3118801D0012070BD42F251
:101BF000107401E0013C13D00121B0682A46FFF7C0
:101C000097FD2B78FE2BF5D1B0682A464FF4007172
:101C1000FFF78EFDB0680221FFF75AFD002070BD6E
:101C2000B068FFF745FD202383F311883378052B37
:101C300003D0002383F31188D7E704233370F8E738
:101C400010B52023044683F311880378052B4FF049
:101C5000000383F3118801D0012010BD07210C4A35
:101C60008068FFF74DFD2046FFF7C2FDA068FFF733
:101C70001FFD202383F311882378052B04D0002334
:101C800083F31188184610BD04232370F7E700BFC3
:101C900080440008AFF30080AFF30080AFF3008012
:101CA00038B504460D46202383F311880378042BAE
:101CB00004D0002383F31188012038BD062303706C
:101CC000002383F3118821698068FFF7C1FCA068B5
:101CD000FFF7DEFCE36B204619219BB12A46FFF794
:101CE000BFFD2046FFF784FD0028E6D0A068FFF77F
:101CF000DFFC202383F311882378062BD9D104231A
:101D00002370D6E76A02FFF7ABFDEAE7AFF3008086
:101D100030B5202383B004460D4683F31188037841
:101D2000062B4FF0000383F3118802D0012003B08B
:101D300030BD02218068164AFFF7E2FC2A46A068FF
:101D40004FF40071FFF7DCFC0221A068FFF7C0FC34
:101D50000121A06801AAFFF7EBFC9DF8043003F015
:101D60001F03052B0FD0A068FFF7A2FC202383F3ED
:101D700011882378062B03D0002383F31188D5E73D
:101D800004232370F8E72046FFF74AFD0020CEE742
:101D900070440008AFF30080AFF30080AFF3008021
:101DA00010B52023044683F311880378062B4FF0E7
:101DB000000383F3118801D0012010BD02210C4AD9
:101DC0008068FFF79DFCA068FFF772FC202383F377
:101DD00011882378062B04D0002383F31188012077
:101DE00010BD04232370002383F31188184610BD0F
:101DF00060440008AFF30080AFF30080AFF30080D1
:101E000000230848C4F202031968026810B50F24C1
:101E100001F00F015C600AB140689047BDE81040D6
:101E2000FEF736BC9C090020AFF30080AFF30080C2
:101E300000230848C4F202031968826810B5F02430
:101E4000C1F303115C600AB1C0689047BDE810405F
:101E5000FEF71EBC9C090020AFF30080AFF30080AA
:101E600000230948C4F202031968026910B54FF44F
:101E70007064C1F303215C600AB140699047BDE81A
:101E80001040FEF705BC00BF9C090020AFF30080A6
:101E900000230948C4F202031968826910B54FF49F
:101EA0007044C1F303315C600AB1C0699047BDE87A
:101EB0001040FEF7EDBB00BF9C090020AFF300808F
:101EC00000230948C4F202031968026A10B54FF4EE
:101ED0007024C1F303415C600AB1406A9047BDE8D9
:101EE0001040FEF7D5BB00BF9C090020AFF3008077
:101EF00000230948C4F202031968826A10B54FF43E
:101F00007004C1F303515C600AB1C06A9047BDE838
:101F10001040FEF7BDBB00BF9C090020AFF300805E
:101F200000230948C4F202031968026B10B54FF090
:101F30007064C1F303615C600AB1406B9047BDE817
:101F40001040FEF7A5BB00BF9C090020AFF3008046
:101F50004FF480630848C4F202031968826B10B51D
:101F60000F2401F00F015C600AB1C06B9047BDE81F
:101F70001040FEF78DBB00BF9C090020AFF300802E
:101F80004FF480630848C4F202031968026C10B56C
:101F9000F024C1F303115C600AB1406C9047BDE8C6
:101FA0001040FEF775BB00BF9C090020AFF3008016
:101FB0004FF480630848C4F202031968826C10B5BC
:101FC0004FF47064C1F303215C600AB1C06C9047A8
:101FD000BDE81040FEF75CBB9C090020AFF3008019
:101FE0004FF48063C4F20203196810B5C1F30331E2
:101FF00039B10E484FF47044026D5C600AB1406D17
:1020000090474FF48063C4F202031968C1F303419F
:1020100039B106484FF47024826D5C600AB1C06D1E
:102020009047BDE81040FEF733BB00BF9C0900207D
:102030000D4930B400230D4D0D4C0B601A46194666
:10204000E8580C330160A1500832902BF8D10021E0
:102050004FF480634FF0FF32C4F20201C4F2020376
:102060004A605A6030BC7047FC0900209044000868
:102070009C090020AFF30080AFF30080AFF3008035
:10208000F8B5447A4FF0010C0CFA04F61E4D2F6897
:102090003E4234D1DFF874C03E430CEBC4077B6092
:1020A00073061CBF4FF48053C4F202032E604CF839
:1020B000342018BF5C6945681CBF44F001045C61B2
:1020C00016F4786F1FBF4FF48053C4F202035C69AB
:1020D00044F0020418BF5C6103680F271C6824F0F9
:1020E00001041C60067A002407FA06F62E601C60C4
:1020F0003AB1807A0901FEF72BFB2046F8BD604615
:10210000F8BD1046F8BD00BFFC0900209C09002066
:1021100010B50446807AFEF743FB637A012202FA87
:1021200003F30E4A116821EA030313605A0601BF44
:102130004FF48052C4F20202516921F0010108BF3C
:10214000516113F4786F01BF4FF48053C4F202035E
:102150005A6922F0020208BF5A6110BDFC09002032
:102160004FF4805370B4C4F2020300214FF0FF35E6
:102170004EF2100241F63F141869CEF200021D61C2
:10218000C0F201041961DE684EF6F050DD60D960DE
:102190005460916007211160CEF20000C2684FF4D4
:1021A000805142F08072C260CEF2000108684FF4A4
:1021B000E04240F001000860D969C4F2000241F039
:1021C0008051D961D96941F00061D961136843F444
:1021D0008073136070BCFFF72BBF00BFAFF30080AC
:1021E0004FF48053C4F202031A68194642F0010208
:1021F0001A600A684FF480539207C4F20203F8D5BC
:102200001A68194602F0F9021A6000225A604A68F8
:102210004FF4805312F00C0FC4F20203F7D11A6886
:10222000194642F480321A600A684FF480539003D2
:10223000C4F20203F8D55A68194642F4E8125A600B
:102240001A6842F080721A600A684FF48053920153
:10225000C4F20203F8D54FF4C841C0F21D014FF497
:1022600000525960C4F202021221116059681A46E4
:1022700041F002015960536803F00C03082BFAD1B6
:10228000704700BFAFF30080AFF30080AFF3008072
:102290004FF48843C4F200039A8992B242F080025C
:1022A0009A817047AFF30080AFF30080AFF30080F6
:1022B0002DE9F041534E356FAF892C88A988A4B21F
:1022C0002207BFB21FFA81F853D104F480739BB286
:1022D000002B39D104F020039BB2002B28D107F04A
:1022E00080039BB223B104F080039BB2002B65D125
:1022F00004F04004A4B2BCB1202383F31188B36876
:10230000414843F010030021B360FEF709FE0023AB
:1023100083F311884FF6BF733B40AB812B8823F0CA
:1023200040031B041B0C2B80BDE8F041FEF7B0B945
:10233000202383F3118833485FFA88F1FFF750F9BF
:10234000002383F31188CAE7202383F31188B3683D
:102350002D4843F400730021B360FEF7E1FD002334
:1023600083F311882B8823F480731B041B0C2B80B0
:10237000B0E704F0080292B2002A14BF80220022C3
:10238000E30704F002039BB248BF42F020020BB106
:1023900042F0400204F004039BB20BB142F480729D
:1023A000202383F31188B36817481A430021B260D1
:1023B000FEF7B6FD002383F3118886E7202383F31D
:1023C0001188DFF8408008F13000FEF7E1FE0028B8
:1023D000A4BF80B2A88003DB002383F3118887E7C2
:1023E000D8F8083008F1040043F008030021C8F8C9
:1023F0000830FEF795FD27F0C00343F04003AB81A2
:10240000EAE700BF000A0020040A0020AFF30080C2
:1024100010B540F60024C2F2000442F29122204698
:102420000021C0F60002FFF7A3F84FF48843C4F27E
:102430000003236710BD00BFAFF30080AFF300803F
:1024400038B5037B1B4C0546002918BF0C46012BF1
:102450001FD021684FF4A242C0F225222B6FB2FB9D
:10246000F1F292B21A81A288E088218942F40452E2
:1024700040F0400041F0010142F02C0292B280B2E3
:1024800089B2188299829A8100221A801A889B88C0
:1024900038BD094B9842DCD14FF48053C4F202039B
:1024A000DA69262042F40032DA61C021FEF750F9E1
:1024B000CFE700BF20450008000A0020AFF30080EE
:1024C0000B0700D47047FEF7A3B800BFAFF300803E
:1024D0000A0770B5044630D4626A236A10685568EA
:1024E00006680F2126F001060660107A1A6801FAC4
:1024F00000F028601568606825F0010515601D7AF8
:102500005A6801FA05F1036811609BB10422227038
:10251000204698472378042B0CD0A06848B10025AA
:10252000A560202383F31188FEF762FA2B4683F31C
:10253000118870BD02232370EFE7FEF769F8CBE73F
:1025400010B540F67824C2F2000440F67423C2F2BB
:1025500000034FF6FF7220461A80FFF771F8084B10
:102560004FF4605203F10C01236241F20A03C4F2FA
:102570000002A3620E33E2616162E36210BD00BF3C
:10258000B4440008AFF30080AFF30080AFF30080E5
:10259000037810B5012B044627D0C3696268A06A8E
:1025A000528902F4006189B2B9B1E16A20F4706025
:1025B00021F4706140F4A06041F4A061A062E16286
:1025C00042F44172002119801A8007229A801A88E9
:1025D00092B242F040021A8010BDE16A20F47060AD
:1025E00021F47061A062E162EAE7114B984209D0E0
:1025F000216A626AE3690868116803F10C0282606B
:102600008A60CBE703460A210A4A006AFFF738FDD1
:10261000094A2346606A0A21FFF732FD4FF48053CE
:10262000C4F20203DA6942F48042DA61E0E700BFF3
:10263000780A0020D1240008C1240008AFF30080EC
:10264000037810B5022B044600D010BDC3690022E8
:10265000006A1A80FFF75CFD606AFFF759FD064BC0
:102660009C4201BF4FF48053C4F20203DA6922F4A2
:10267000804208BFDA6110BD780A0020AFF3008005
:10268000436801211A895B6801FA02F25A617047B6
:10269000436801211A895B6801FA02F21A617047E6
:1026A000026A436A70B41268866A1B68C56A40F69B
:1026B000A82440F67420C2F20004C2F20000D460E4
:1026C00051601660D86059601D60116841F00101C9
:1026D00011601A6842F001021A6070BC704700BFB6
:1026E000F0B4036A476AC66A856A1C6840F6A82087
:1026F0003B68C2F2000046F08006E0606160256041
:10270000DA6059601E60226842F0010222601A6895
:1027100042F001021A60F0BC704700BFAFF30080C6
:1027200070B4436A046A866A24681B68C56A40F606
:10273000742046F08006C2F20000E260616026600C
:10274000D86059601D60226842F0010222601A6858
:1027500042F001021A6070BC704700BFAFF3008006
:102760004FF48053C4F202039A6930B442F4FE720B
:1027700042F001029A6102684FF40063C4F201035F
:10278000DA6081684FF4406259604168C4F2010226
:102790001960C1684FF48053D1604169C4F20103EC
:1027A000516001694FF4A05411608269C4F20104C0
:1027B000DA60026A4FF4C0515A60C269C4F2010182
:1027C0001A60436A4FF4E052E360C36AC4F2010244
:1027D0006360856A4FF400532560046BC4F2010303
:1027E000CC60846B4C60446B0C60C16BD160416CFD
:1027F0005160016C1160826CDA60026D5A60C26CCB
:102800001A6030BC704700BFAFF30080AFF30080A8
:10281000032AF0B408BF016102D0042A08BF416155
:10282000114C0023A75C08261C461A461D462401AD
:1028300012012D011B0111F0800F0CBF42F00F029D
:102840003B4311F4004F0CBF45F00F053C434900DA
:10285000013EECD141680D402C43446001680A40C0
:1028600013430360F0BC704730450008AFF30080AD
:10287000FFF7B6BCAFF30080AFF30080AFF300808A
:10288000704700BFAFF30080AFF30080AFF300806C
:1028900010B5022450B9064B1C785B69043C18BF84
:1028A0000124984710B144F00404E4B2204610BD5E
:1028B0001C0E0020AFF30080AFF30080AFF3008068
:1028C00010B5022450B9064B1C785B69043C18BF54
:1028D0000124984710B144F00404E4B2204610BD2E
:1028E0001C0E0020AFF30080AFF30080AFF3008038
:1028F00010B50C4682B028B913480178042904D0D9
:10290000032000E0042002B010BD11460193FFF740
:1029100027F9019B78B91BB90FE013F0FF030CD026
:10292000214609480193FFF753F9019B04F5007410
:10293000013B0028F1D00120E5E70348FFF780F9CB
:10294000003018BF0120DEE71C0E0020AFF300802E
:1029500030B50C4683B030B9174D032029780429CF
:1029600003D003B030BD0420FBE7019269690093F6
:102970008847019A08B10220F3E728461146FFF77D
:102980008FF9009B78B91BB90FE013F0FF030CD04F
:10299000214609480093FFF7BBF9009B04F500743A
:1029A000013B0028F1D00120DBE70348FFF7F8F9ED
:1029B000003018BF0120D4E71C0E0020AFF30080C8
:1029C000036970B401F10904002B39D0456922462E
:1029D00000202B5C0130202B144607D0052B08BFAC
:1029E000E52302F8013B08281446F2D12B7A202B6C
:1029F0000FD013462E2003F8010BEE1D043216F8FB
:102A0000010F1C46202804D003F8010B93421C46FA
:102A1000F5D1EB7A0B72AB7FEE7F287F1B046A7FC8
:102A200043EA0663034343EA02230B606A7E2B7E7C
:102A300043EA02238B80EA7DAB7D43EA0223CB800D
:102A40000023237070BC7047AFF30080AFF30080A9
:102A50002DE9F041C56A04468D420E4602D0037945
:102A600073B916B90020BDE8F081607804F1300137
:102A700032460123FFF73CFF20BBE662BDE8F08150
:102A800000F13008414640782A460123FFF760FFF5
:102A9000C0B9E369226A20719A189542E1D2E778B9
:102AA000012F01D8DDE7E369ED18013F01236078CC
:102AB00041462A46FFB2FFF74BFF012FF3D1002E0C
:102AC000D0D0D2E70120BDE8F08100BFAFF3008095
:102AD00008B508B103780BB9092008BDC3888B423B
:102AE000FAD14078FFF7ECFE10F0010F0CBF002088
:102AF000032008BDAFF30080AFF30080AFF3008088
:102B000010B504460A46407804F130010123FFF76E
:102B1000EFFE08B1032010BD94F82F1294F82E2276
:102B20004AF6552342EA012212B2CFF6FF739A42C7
:102B300001D0022010BD94F8683094F869201B047D
:102B400094F8661043EA026394F867200B4343EA63
:102B5000022244F2461322F07F42C0F254039A420A
:102B6000E8D094F8842094F88500120494F8821038
:102B700042EA006294F883000A4342EA002020F00F
:102B80007F40C01A18BF012010BD00BFAFF3008006
:102B9000F8B5036815461C78303C092C02D85A78E1
:102BA0003A2A16D0B94B1C680C6084B12378B3B1B3
:102BB0006078FFF785FEC20711D4002D1FD000F00A
:102BC0000400C0B2002814BF0A200020F8BD0C2069
:102BD000F8BD02330360002CE4D00B20F8BD0020C8
:102BE00020706070FFF754FEC30701D50320F8BDC5
:102BF0003DB100F00400C0B218B10A20F8BD28466B
:102C0000F8BD00212046FFF77BFF012806D00025F4
:102C1000032800F0B480C0B10D20F8BD94F8F23163
:102C2000002BF9D094F8F82194F8F911120494F8D3
:102C3000F63142EA016294F8F751134343EA05255D
:102C400020462946FFF75CFFE2E794F83C2094F821
:102C50003B3043EA0223B3F5007FDDD194F84720EF
:102C600094F8463053EA02220DD194F8562094F895
:102C70005710120494F8543042EA016194F8552038
:102C80000B4343EA022294F84000E261431E012B09
:102C9000E070C1D894F83D30A370002BBCD0591E11
:102CA0001942B9D194F8411094F8426041EA0626DD
:102CB000B1B216F00F0F2181AED194F8447094F8A0
:102CC000436056EA07260ED194F8527094F853C028
:102CD0003F0494F8506047EA0C6C94F851704CEA49
:102CE000060646EA072694F83FC094F83E7057EA75
:102CF0000C2791D000FB02FC07EB111060448642C8
:102D00008AD3361AB6FBF3F3002B85D040F6F5765E
:102D1000B34240F2B88006F57046B34200F29880A4
:102D2000022602334019EF19A361A062276200292D
:102D30003FF472AF6744022E676200F08780032180
:102D400001FB03F103F0010303EB5103012603F23E
:102D5000FF13B2EB532FFFF45FAF00234FF0FF32AE
:102D6000032E2261E3600CD0494A002013882670AC
:102D700001339BB21380E380E0622071F8BD012033
:102D8000F8BD94F8611094F86020637142EA012262
:102D9000AA186261607804F130010123FFF7A8FDF1
:102DA0000028E1D194F82F1294F82E224AF65523E8
:102DB00042EA012212B2CFF6FF739A42D4D194F8BC
:102DC000322094F83310120494F8303042EA016251
:102DD00094F831101A4345F2522342EA0122C4F218
:102DE00061139A42C0D194F8162294F81712120473
:102DF00094F8143242EA016294F815121A4347F229
:102E0000722342EA0122C6F241139A42ACD194F8ED
:102E10001E0294F81A1294F81F7294F81B520004C0
:102E2000090494F81C2294F8183240EA076741EA32
:102E3000056594F81D0294F819123A432B4342EAAF
:102E4000002243EA0123E26023618DE75B007EE715
:102E500002334019EF19A361A062276200297FF4B1
:102E6000DBAE94F85E0094F85F60000494F85C10A8
:102E700040EA066694F85D00314341EA0021616250
:102E80009B00032663E701264BE700BFAC0A002046
:102E9000AA0A0020AFF30080AFF30080AFF30080F8
:102EA0000129F8B50C4605460CD98369994209D227
:102EB0000378022B45D0032B28D0012B04D04FF0F0
:102EC000FF30F8BD0120F8BD016A04EB540601EBA8
:102ED0005621FFF7BDFD0028F1D1F305296ADB0D6E
:102EE0000136EB18284601EB562193F83070FFF7B6
:102EF000AFFD0028E3D1F605F60DAD1995F83000C9
:102F0000E10747EA00202ED50009F8BD016A01EB70
:102F1000D411FFF79DFD0028D1D16406E40D04F122
:102F20003003EB18DA789978587812062C1942EAAF
:102F3000014294F8303042EA0020184320F07040FB
:102F4000F8BD016A01EB1421FFF782FD0028B6D11C
:102F50002406E40D2B191C4694F8310093F8303008
:102F600043EA0020F8BD0005000DF8BDAFF3008076
:102F7000836870B5012B05460C46E98003D00068D4
:102F80008269934201D3022070BDB3B90378032B49
:102F900010D003890022A342EA60F4D9436A03EB0C
:102FA00014132B6104F00F0400EB441030306861FF
:102FB000002070BD436A002BEBD086783601B44206
:102FC00008D211E0012BDED9286882699342DAD257
:102FD000A64209D81946FFF763FFA41B0346013038
:102FE000A4B2EFD1012070BD81699A1E02398A42D4
:102FF000EB603DBF8178836A01FB0232002202EB65
:1030000014122A61CEE700BFAFF30080AFF3008057
:10301000F0B5012983B00C46054602D9836999426F
:1030200002D3022003B0F0BD0378022B25D0032B7E
:1030300005D0012B35D0022001232B71F2E7016A64
:10304000019201EBD411FFF703FD019A0028F3D19F
:103050006406E40D04F13003EB18D9782C19090645
:1030600001F070410A43C2F30727160C110E84F8D1
:1030700030205F709E70D970DEE7016A019201EB2B
:103080001421FFF7E5FC019A0028D5D12406E40DB0
:103090002919C2F307230C4681F8302081F831301A
:1030A000CAE7016A04EB540601EB56210192FFF7CF
:1030B000CFFC019A0028BFD1F305DB0D14F0010409
:1030C0001FBFEB1893F83010D0B201F00F0115BFFD
:1030D00041EA0010D0B2C0B2EB18296A83F8300080
:1030E000013601232B71284601EB56210192FFF78F
:1030F000AFFC019A00289FD1F605F60D2CB1C2F362
:103100000712AE1986F8302096E7AE1996F83030DF
:10311000C2F3032223F00F031A43F3E7AFF3008057
:10312000F8B506460F4601BBC5688369BDB90125E0
:103130002C4600E0B36901349C4202D3012D0CD926
:10314000022430462146FFF7ABFEB8B1B0F1FF3F95
:1031500018BF012808D0AC42ECD10020F8BD9D4238
:1031600028BF0125E4E72046F8BDFFF799FE0128B6
:103170001DD9B3699842F7D33D46D9E73046214679
:103180006FF07042FFF744FFD0F1010338BF002316
:10319000002F08BF002393B958B93369F4605A1C53
:1031A000E1D0013B3361012373712046F8BD01205A
:1031B000F8BD012814BF01204FF0FF30F8BD3046A4
:1031C00039462246FFF724FF0028F2D1E5E700BF89
:1031D0002DE9F047C58804460135ADB20E4615B954
:1031E0000420BDE8F0870369002BF9D015F00F0724
:1031F00008D0006800EB47133033E580636100209E
:10320000BDE8F087C168013303610068E9B18278E5
:10321000013A12EA1512EDD1FFF742FE012880466D
:1032200017D9B0F1FF3F63D020688269904538BF5D
:10323000A8F102064FD3002ED2D0E168FFF770FF4D
:10324000804648B90720BDE8F0870289AA42C7D95D
:10325000D0E70220BDE8F0870128FAD0B0F1FF3FA7
:1032600046D020680021FFF7F3FB002840D12268F8
:10327000014602F1300302F50C7203F8011B934280
:10328000FBD12268A8F1020693694FF00009023BC6
:103290009E423CBF936A91784FF0010A34BF01FB14
:1032A00006330023D3620DE082F804A02068FFF704
:1032B000CFFB09F10109D8B922685FFA89F9D36A0D
:1032C0000133D362937800214B451046ECD8D26A83
:1032D000C9EB0202C2628269C4F80C80023A9642CB
:1032E0003DBF8178826A01FB06260026266181E7C0
:1032F0000120BDE8F08700BFAFF30080AFF300808E
:103300002DE9F0470B780D462F2B18BF5C2B08BF1B
:103310004D1C002484602B7806461F2B40F205814B
:10332000D0F818C020270CF10B045C2B18BF2F2BF2
:1033300007D16B1C1D4613F8012B2F2A18BF5C2ADE
:10334000F8D0634603F8017BA342FBD1002002467C
:1033500008248146AB5C02F101082F2B18BF202BFB
:103360003DD95C2B00F0B7802E2B18BFA04207D3AD
:10337000082C08BF2E2B00F0A6800620BDE8F087A1
:10338000190603F1200A03F17F015FFA8AFAC9B234
:1033900048BF49F003091E2988BFBAF11C0F72D833
:1033A00015F80810023281F0800AA1F14008BAF144
:1033B0007C0F88BFB8F13E0FDFD804F1FF384045DD
:1033C000DBD20CEB00080CF8003088F80110AB5C85
:1033D00002302F2B18BF202B02F10108C1D8202B5F
:1033E000454479D804230028C7D09CF80020E52A5A
:1033F00000F0A480082C04BF4FEA89095FFA89F91C
:1034000009F00302012A09F00C0908BF43F0100378
:10341000B9F1040F08BF43F008038CF80B303046B5
:103420000021FFF7A5FD40BB30683169FFF710FBB5
:1034300018BBD6F8149099F80020002A4ED099F8BD
:103440000BA00AF00803DBB28BB9D6F818C0C84647
:10345000634613F8011B0CF10B04914207D1A34200
:1034600047D018F8012F13F8011B9142F7D03046CE
:103470000021FFF7ADFE0028D6D0B3690428DB7A1F
:103480002ED0BDE8F087222B3FF477AF2E4902E023
:1034900093423FF472AF11F8012F002AF8D1A3F143
:1034A0004102192A98BF49F0020907D9A3F1610224
:1034B000192A03D8203B49F00109DBB20CF800308F
:1034C0004246013046E74FEA89095FFA89F94246E8
:1034D00008200B243EE74544002384E7B369DB7AE8
:1034E00003F00403D8B200280CBF05200420BDE877
:1034F000F0879CF80B3003F00403DBB213BB0AF037
:10350000100A5FFA8AF3B3B199F8150099F81420FC
:1035100099F81B3099F81A1042EA002241EA032375
:1035200043EA0243B3602B78FFE62146FFF720FD14
:103530007461BDE8F0870520BDE8F08705228CF8AE
:10354000002057E7BDE8F087B0450008AFF30080E2
:1035500038B50446042516E02068FFF779FA0546D9
:1035600000212046BDB9626913789BB12E2B18BF8C
:10357000E52B04D0D37A03F00803DBB243B1FFF7A5
:1035800027FE054658B923691946002BE4D115B921
:10359000284638BD042500232361284638BD002372
:1035A00005462361F9E700BFAFF30080AFF3008069
:1035B00008B10B207047054B1A6802B1107009B1B1
:1035C00000220A7019600020704700BFAC0A00207A
:1035D00030B587B006AB43F8141D044601460022FF
:1035E0001846FFF7D5FA08B107B030BD03ABA361A9
:1035F00020460199FFF784FED0B963698BB1DA7A6E
:10360000052002F01002D2B2002AEDD05D7D1A7DB5
:10361000D87E997E42EA052241EA002343EA02432A
:10362000A36023682046DB880021A380FFF7A0FC6D
:10363000042808BF0520D7E7AFF30080AFF3008070
:1036400070B5044684B00E460068A188FFF740FAC2
:10365000054658B9D6B101ABA3612046FFF778FF04
:10366000042808BF256104D018B10546284604B0D7
:1036700070BD31462046FFF7A3F900212046FFF731
:10368000A7FD0428F1D100232361EFE72946204656
:10369000FFF76EFC0546E9E7AFF30080AFF300806B
:1036A0002DE9F04F83B002AB43F8040D90468946F4
:1036B000184611460022FFF76BFA074688BBD8F878
:1036C0000050AC692B69A21E934298BFC9F8003024
:1036D00027D995F800B0BBF1010F46D0D5F820C02E
:1036E00003460646824606B3BBF1020F2ED09A78F7
:1036F000D9781204187842EA01625978024342EA02
:10370000012222F070420AB90AF1010A0433043E90
:10371000013CE8D1BBF1030FC5F810A020D0C9F8D7
:1037200000A0384603B0BDE8F08F284661460CF192
:103730000106FFF78DF9D8F8005070BBBBF1020FFE
:10374000B44605F130034FF40076D0D159781A7899
:1037500052EA012208BF0AF1010A0233023ED7E70A
:1037600001236B71C9F800A0DBE7022482462846DA
:103770002146FFF795FB0134451C10D0012812D0DB
:1037800008B90AF1010AD8F80050AB699C42EED39F
:10379000C5F810A0C9F800A0C3E70746BAE7D8F8F3
:1037A00000500127F4E7D8F800500227F0E700BFE7
:1037B000002903DD0449054A00F00ABA044B054913
:1037C000DA6800F005BA00BFC0450008CC45000823
:1037D00040090020D4450008AFF30080AFF300801B
:1037E00010B5002982B0044606DD1949194A02B015
:1037F000BDE8104000F0ECB91749184A00F0E8F9AC
:1038000020461749174A00F0E3F920461649174A9F
:1038100000F0DEF920461649164A00F0D9F9204694
:103820001549164A00F0D4F920461549154A00F00A
:10383000CFF920461449154A00F0CAF9144B204626
:1038400000931449144A154B00F0C2F902B010BDA0
:10385000C0450008DC450008E4450008F8450008BC
:1038600000460008144600082046000834460008B8
:103870003C460008504600085C46000870460008B8
:10388000884600089C460008C4460008D846000840
:1038900018470008F04600080847000814470008C9
:1038A00038B504460D4698B128600C492046FCF70F
:1038B000E7FD241820462021FCF7D2FC286018B12F
:1038C000002300F8013B2860237823B1204638BD4F
:1038D0000C68002CE9D10024204638BDE0410008E6
:1038E00040F6B023C2F200031B607047AFF30080C4
:1038F00000B543F6C11383B00090C0F6000300206A
:10390000FDF7E6F903B000BDAFF30080AFF3008030
:10391000013A2DE9F0410E4604460D468F18236802
:1039200020465B694FF0FF31984703B2002B30DB34
:10393000042B31D0082B11D00D2B34D01F2BEEDDF2
:10394000BD42ECD223685FFA80F81B6920464146ED
:103950004FF0FF32984705F8018BE0E7B542DED023
:1039600023685FFA80F841464FF0FF321B6920461A
:103970009847236820214FF0FF321B692046984763
:10398000236820461B6941464FF0FF329847013DAE
:10399000C5E70120BDE8F0812046074900F018F98D
:1039A0000120BDE8F0812046044900F011F9002013
:1039B0002870BDE8F08100BF24470008D446000805
:1039C0002DE9F0435D4B0668DB695D4AD0F8048061
:1039D00097B030469A615B4900F0FAF8DFF88491BD
:1039E0003046594900F0F4F8304606A94022FFF766
:1039F0008FFF044600282FD1694606A8FFF750FF25
:103A00006946074600206D46FFF74AFF50B1042C77
:103A10001BD045F8040F694600200134FFF740FF32
:103A20000028F4D116AA02EB840343F8540C002FAB
:103A3000D6D038464549FCF7EBFBF8B984B130469F
:103A40004349424A00F0C4F8CAE73046414900F011
:103A5000BFF800230593C3E730463F4900F0B8F8AC
:103A6000202383F3118800213C48FDF759FA0020F8
:103A7000FDF7DEF8002017B0BDE8F083384638497E
:103A8000FCF7C6FB30B93046CCB13149344A00F0BE
:103A90009FF8A5E7D9F80000002833D0314D03E0A6
:103AA00055F8080F00282DD03946FCF7B1FB002847
:103AB000F6D16B683046214601AA984790E72A491B
:103AC00000F086F8D9F80020264C3AB13046274954
:103AD00000F07EF854F8082F002AF7D1B8F1000F53
:103AE0000BD0D8F8002042B1444630461F4900F0C0
:103AF0006FF854F8082F002AF7D130461C4900F01F
:103B000067F86DE7B8F1000F0DD0D8F8000050B19C
:103B1000454602E055F8080F28B13946FCF778FB16
:103B20000028F7D1C5E7304612493A4600F050F870
:103B30003046114900F04CF852E700BF5009002010
:103B40002847000830470008484700087447000825
:103B5000C04500085C47000850470008B00A002034
:103B60007C47000804080020844700089C470008A0
:103B7000D4460008A0470008A4470008AFF300801F
:103B800070B400F10B0600F10A04B1FBF2F502FB80
:103B9000151101F13003392BC8BF01F13703DBB236
:103BA0002946254604F801390029EED1711B2A4621
:103BB000411801E012F8013F00F8013B8842F9D1B9
:103BC00070BC7047AFF30080AFF30080AFF30080AC
:103BD0000EB42DE9F04F86B00FAB53F8044B0DF146
:103BE0000D0C0DF10C090293C9EB0C03CDF800C0CC
:103BF00005460193264616F8011B69B1252910D008
:103C00002B68344628461B694FF0FF3226469847FA
:103C100016F8011B0029F1D106B0BDE8F04F03B042
:103C2000704763782D2B18BF4FF0000800F0188103
:103C300020272E2B00F0108134460299002606E042
:103C40000A78043106EB8606237802EB4606A3F1D8
:103C50003002D2B20134092AF4D92A2BF0D0002044
:103C60002E2B029149D003F0DF024C2A55D1227845
:103C7000012112B1013413460121A3F14402342A77
:103C800000F2E280DFE812F0D000E000E000E000A7
:103C9000E000E000E000E000E000E000E000E6001E
:103CA000E000E000E000E000E000C800E000E0002C
:103CB000BB00E000E000E000E000E000E000E00029
:103CC000E000E000E0009900D000E000E000E0004B
:103CD000E000E000E000E000E000E000E000E600DE
:103CE000E000E000E0005000E000C800E000E0007C
:103CF000BB000A78043102EB4C0014F8013B00EBE6
:103D0000800CA3F13002D2B2092AF4D92A2BF0D0C8
:103D100003F0DF024C2A0291A9D0A3F14101192935
:103D20008CBF00210121A8E7029B44F2B072D3F8B6
:103D300000A0C0F60002BAF1000F08BF924604339B
:103D40009AF80020029347F6FF73002808BF184630
:103D5000002A00F0A8805346504402E0904200F050
:103D60009E8059785A1C13460029F7D1CAEB020BE2
:103D7000CBEB0606202726EAE676B8F1000F2DD019
:103D8000BBF1000FC8BF0AEB0B0809DD2B681AF85E
:103D9000011B1B6928464FF0FF329847C245F5D1F9
:103DA000002E3FF427AF2B6828461B6939464FF099
:103DB000FF329847013EF6D11CE7029BDDF804B0C4
:103DC0001A68043302938DF80C202027CA46CBEBE7
:103DD000060626EAE676B8F1000FD1D17642002E2B
:103DE000CED09AF800102D294CD02B6828461B699C
:103DF00039464FF0FF3298470136F6D1C0E710221E
:103E0000029B69B1191D029119684846FFF7B8FE77
:103E1000CA46C9EB000BDAE70A22029B0029F1D15E
:103E2000181D19680290F0E7029B1A1DE9B919687C
:103E300002920029A8BF48461DDB0A22FFF7A0FE18
:103E4000CA46C9EB000BC2E78DF80C30DDF804B0B0
:103E5000CA46BCE70822D3E7737830270136EBE681
:103E6000A61CA3784FF00108E2E619680292002927
:103E7000A8BF4846E1DA2D238DF80C3049420DF1F8
:103E80000D00DAE7302FB0D12B6828461B694FF0C0
:103E9000FF3298470AF1010A0BF1FF3BA5E7CAEB95
:103EA000000B202793E79346202790E7AFF300808D
:103EB0004FF48053C4F201039868C0F3C01080F03F
:103EC00001007047AFF30080AFF30080AFF30080D4
:103ED0004FF48053C4F201039868C0F38010704718
:103EE00040F65C63C2F2000300221A60704700BF14
:103EF00038B54FF48054C4F20104A268A36844F6B4
:103F00004001C0F60001C2F3C012C3F3801305469E
:103F1000FFF75EFE40F6186241F26023C2F2000233
:103F2000C2F2000344F658012846C0F600011268A8
:103F30001B68FFF74DFEA268A368C2F3C01244F6E7
:103F400074012846C0F6000182F00102C3F3801319
:103F5000FFF73EFE40F6E443C2F2000344F6900150
:103F60001A782846C0F60001BDE83840FFF730BE99
:103F700038B50C4B0C4ADB694FF440640B4D9A6129
:103F8000C4F20104E3684FF4FA7083F08003E36045
:103F90002B6813B9FCF73CFEF4E7C820FCF738FEA9
:103FA000F0E700BF50090020A04800085C0E002088
:103FB0002DE9F041002984B0074605DD134904B01E
:103FC000BDE8F041FFF704BE1149FFF701FEFCF721
:103FD0009FFEDFF844800446A268E368266A0092E8
:103FE000A27F0C49013A0192257F224658F82550BC
:103FF000384602950396FFF7EBFD2046FCF798FE46
:1040000004460028E8D104B0BDE8F081A8480008C3
:10401000BC480008EC48000800480008AFF30080E6
:1040200030B5002983B0044604DD0E49FFF7D0FD0A
:1040300003B030BD01A90020FDF7FAF90546FDF7F0
:1040400047F9094902462046FFF7C2FD20462A46A5
:104050000649FFF7BDFD20460549019AFFF7B8FD67
:10406000E6E700BF0C4900081C4900083C4900086D
:1040700054490008AFF30080AFF30080AFF3008035
:1040800038B5104B104C01251D60104805232360E6
:10409000FDF7B6FC10B10223236038BD06230C499E
:1040A0002360FFF785FA0B4B187018B90A4B25608F
:1040B0001D6038BD054803232360BDE83840FDF787
:1040C0001FBD00BF180E0020601200201C0E002033
:1040D000B40A0020E40C00205C0E0020AFF3008046
:1040E000F0B51D4C8FB00546214607A8FFF770FAC2
:1040F00050BB2046FCF794F9461C2718A61901A9C5
:1041000007A8FFF79DFAF8B99DF80D30E3B12E2B03
:10411000F5D09DF80C400DF10D0104F01004E4B24F
:1041200030460D4A0B468CB12F233B70FCF718F933
:104130002846FFF7D5FF034633B93B7001A907A80E
:10414000FFF77EFA0028DFD00FB0F0BD2846034904
:10415000FFF73EFDD3E700BF600E00207449000862
:1041600030B5002985B0044604DD1449FFF730FD61
:1041700005B030BD124B1B681BB91249FFF728FD73
:10418000F6E7114802A903AAFFF78AFA054620B10B
:1041900020460E49FFF71CFDEAE70D4B029A9B787B
:1041A000510203FB01F1204600910A49FFF710FD7F
:1041B000094B20461D70FFF793FFD9E77C490008A3
:1041C0005C0E00208C490008A8490008AC49000892
:1041D000B40A0020C8490008600E0020AFF3008038
:1041E0002000390000000000000000000000000076
:1041F00000202020202020202020282828282820B7
:1042000020202020202020202020202020202020AE
:104210002088101010101010101010101010101016
:104220001004040404040404040404101010101006
:1042300010104141414141410101010101010101D0
:104240000101010101010101010101011010101022
:1042500010104242424242420202020202020202A2
:1042600002020202020202020202020210101010F6
:10427000200000000000000000000000000000001E
:10428000000000000000000000000000000000002E
:10429000000000000000000000000000000000001E
:1042A000000000000000000000000000000000000E
:1042B00000000000000000000000000000000000FE
:1042C00000000000000000000000000000000000EE
:1042D00000000000000000000000000000000000DE
:1042E00000000000000000000000000000000000CE
:1042F00000000000000000000000000000000000BE
:1043000069646C650000000000000000000000000F
:104310006D61696E00160311040448080C1014182E
:10432000001C1D1E00200000000000000000000016
:104330003115000811150008C1140008D114000837
:104340005115000841150008211500080115000845
:10435000E114000800000000000000000000000060
:104360000009121B242D363F48415A536C657E7755
:1043700019100B023D342F265158434A757C676E45
:10438000323B2029161F040D7A7368615E574C4535
:104390002B2239300F061D14636A7178474E555C25
:1043A000646D767F4049525B2C253E3708011A1315
:1043B0007D746F6659504B42353C272E1118030A05
:1043C000565F444D727B60691E170C053A332821F5
:1043D0004F465D546B627970070E151C232A3138E5
:1043E0004148535A656C777E09001B122D243F36D5
:1043F00058514A437C756E671019020B343D262FC5
:10440000737A6168575E454C3B3229201F160D04B4
:104410006A6378714E475C55222B3039060F141DA4
:10442000252C373E0108131A6D647F7649405B5294
:104430003C352E2718110A03747D666F5059424B84
:10444000171E050C333A21285F564D447B72696074
:104450000E071C152A233831464F545D626B707964
:10446000FDFF000000000000000000000000000050
:10447000FFFC000000000000000000000000000041
:104480004C0000000001FF000000000000000000E0
:10449000080002400400024000000B001C00024023
:1044A0000400024004010C003000024004000240FD
:1044B00008020D0044000240040002400C030E00FC
:1044C000580002400400024010040F006C0002403B
:1044D0000400024014051000800002400400024065
:1044E00018061100080402400404024000073800C6
:1044F0001C04024004040240040839003004024055
:104500000404024008093A00440402400404024042
:104510000C0A3B005804024004040240100B3B000C
:1045200000960000000000400000000000000000B5
:104530000402040808000307080808080808080817
:104540000B0F000000000000000000000000000051
:10455000FFFFFFFF844B888888488488FFFFFFFFA8
:104560008888443883AAB8B4FFFFFFFF888888444E
:10457000BBBB8B88FFFFFFFF448B888888888888B7
:10458000FFFFFFFF888888888888888800000000EF
:10459000000000000000000000000000000000001B
:1045A000000000000000000000000000000000000B
:1045B000222A2B2C3A3B3C3D3E3F5B5D7C7F00003A
:1045C00055736167653A2025730D0A00737973741A
:1045D000696D6500256C750D0A000000696E666FD7
:1045E000000000004B65726E656C3A202020202090
:1045F000202025730D0A0000322E342E33000000D7
:10460000436F6D70696C65723A20202020202573FD
:104610000D0A000047434320342E372E320000009D
:104620004172636869746563747572653A202573B5
:104630000D0A000041524D76372D4D00436F7265D3
:104640002056617269616E743A2025730D0A00006C
:10465000436F727465782D4D33000000506F727493
:1046600020496E666F3A2020202025730D0A000035
:10467000416476616E636564206B65726E656C2063
:104680006D6F646500000000506C6174666F726D40
:104690003A202020202025730D0A000053544D336A
:1046A00032463120506572666F726D616E636520AF
:1046B0004C696E6520486967682044656E7369744B
:1046C00079000000426F6172643A2020202020208F
:1046D000202025730D0A00004D4C41422053544DBB
:1046E0003332463130785278543031410000000086
:1046F0004275696C642074696D653A2020202573C9
:10470000257325730D0A00004D6179202038203271
:1047100030313300202D200032313A34353A3337EE
:10472000000000005E4400007368656C6C000000CF
:104730000D0A43686962694F532F525420536865CC
:104740006C6C0D0A0000000063683E200000000051
:104750000D0A6C6F676F757400000000746F6F2036
:104760006D616E7920617267756D656E74730D0A87
:1047700000000000657869740000000068656C70D6
:1047800000000000436F6D6D616E64733A206865D0
:104790006C7020657869742000000000257320008B
:1047A00025730000203F0D0A0000000000000000FB
:1047B000286E756C6C2900000000000000000000ED
:1047C000904A000821400008944A0008B13F0008C0
:1047D0009C4A000861410008A44A0008F13E000814
:1047E00000000000000000000000000000000000C9
:1047F000000A0020C0470008000000000000000080
:104800000C4A0008144A00081C4A0008284A0008FC
:10481000304A0008384A0008404A00084C4A00085C
:10482000544A00085C4A0008684A0008704A0008B8
:10483000784A0008804A0008884A00080000000002
:104840004445544543542025642C2050524F544530
:1048500043542025640D0A00747269656420256440
:104860002C20636F6E6E65637465642025640D0A89
:1048700000000000696E7365727465642025642C05
:104880002070726F7465637465642025640D0A007E
:104890006572726F72206A652025640D0A0000003F
:1048A000626C696E6B65720055736167653A20745E
:1048B0006872656164730D0A0000000020202020EA
:1048C0006164647220202020737461636B207072B5
:1048D000696F2072656673202020202073746174D4
:1048E000652074696D650D0A00000000252E386C86
:1048F0007820252E386C782025346C752025346C72
:10490000752025397320256C750D0A005573616774
:10491000653A206D656D0D0A00000000636F7265D9
:104920002066726565206D656D6F7279203A20256D
:10493000752062797465730D0A0000006865617006
:1049400020667261676D656E74732020203A2025A1
:10495000750D0A0068656170206672656520746F68
:1049600074616C20203A2025752062797465730D7E
:104970000A00000025732F25730D0A005573616727
:10498000653A20747265650D0A00000046696C6521
:104990002053797374656D206E6F74206D6F756E22
:1049A0007465640D0A0000002F00000046533A2091
:1049B000665F676574667265652829206661696C43
:1049C00065640D0A0000000046533A20256C7520EE
:1049D0006672656520636C7573746572732C20252F
:1049E0006C7520736563746F7273207065722063D9
:1049F0006C75737465722C20256C752062797465F2
:104A00007320667265650D0A00000000524541443E
:104A10005900000043555252454E540053555350CF
:104A2000454E444544000000575453454D00000096
:104A300057544D54580000005754434F4E44000003
:104A4000534C454550494E470000000057544558C7
:104A50004954000057544F52455654005754414E44
:104A60004445565400000000534E444D53475100F6
:104A7000534E444D5347000057544D5347000000D8
:104A8000575451554555450046494E414C0000008C
:104A90006D656D007468726561647300747265653C
:104AA000000000006361726400000000000000006C
:084AB00081400008E13E00080E
:104AB800F0410008DC450008E1370008CC45000853
:104AC800B1370008000000000000000000000000EE
:104AD800000C01400C00300000000000000C0140F8
:044AE8000C000000BE
:0400000508000130BE
:00000001FF
