:020000040800F2
:1000000000040020E1010008B1030008B10300086A
:10001000B1030008B1030008B1030008B1030008F0
:10002000B1030008B1030008B1030008E1030008B0
:10003000B1030008B1030008B1030008C1040008BF
:10004000B1030008B1030008B1030008B1030008C0
:10005000B1030008B1030008B1030008B1030008B0
:10006000B1030008B1030008B1030008B1030008A0
:10007000B1030008B1030008B1030008B103000890
:10008000B1030008B1030008B1030008E17A0008D9
:10009000417E0008B1030008B1030008B103000865
:1000A000B1030008B1030008B1030008B103000860
:1000B000B1030008B1030008B1030008B103000850
:1000C000B1030008B1030008B1030008B103000840
:1000D000B1030008B1030008B1030008B103000830
:1000E000B1030008B1030008B1030008B103000820
:1000F000B1030008B1030008B1030008B103000810
:10010000B1030008B1030008B1030008B1030008FF
:10011000B1030008B1030008B1030008B1030008EF
:10012000B1030008B1030008B1030008B1030008DF
:1001300030B583B006F09CFE00F042FA184807F094
:10014000CFFA00241648174907F0F2FA08F0E8F849
:10015000009415484FF498714022144B00F0F8FDBC
:100160000F4D4CB194F820200E2A13D04FF47A7022
:1001700000F09EFE002CF5D1D5F8D030186801783B
:100180000429EFD10A484FF40B61402208F0D0F85F
:100190000446EBE7204600F06BFF0024E6E700BFD3
:1001A000F8160020C0A90008C8150020718A0008B0
:1001B00000A90008AFF30080AFF30080AFF3008028
:1001C000704700BFAFF30080AFF30080AFF3008053
:1001D000FEE700BFAFF30080AFF30080AFF3008015
:1001E00072B6644C84F30988022383F31488BFF346
:1001F0006F8F61486149884218D2CA1C051D531B84
:1002000023F00302034610184FF055318342196062
:10021000C2F380020AD01AB185422B46296005D06C
:100220001D1D5960083383426960F9D15448A042CA
:1002300018D25449041D0A1B22F00305034628184E
:100240004FF0553183421960C5F380020AD01AB1CC
:1002500084422346216005D01D1D59600833834226
:100260006960F9D107F0B4FF4749484881421BD281
:10027000C61C0C1D321B464822F00302161D0568E1
:100280000423B3420D60C2F380020DD022B1456851
:100290000823B342256007D01D581A1D5D508458AD
:1002A0000833B3428C50F7D13A483B49884217D2C1
:1002B000CB1C041D1A1B22F003050346281800213D
:1002C00083421960C5F380020AD01AB184422346E2
:1002D000216005D01D1D5960083383426960F9D142
:1002E000FFF76EFF2D4D2E498D421DD2CC1C2E1DC9
:1002F000A71BB808471C01242A6800EA0408904795
:10030000BC4211D0B8F1000F05D0336802249847E1
:10031000BC42354608D0696888470234A8682E1D5B
:1003200080470835BC42F6D1FFF702FF1D4D1E4A3B
:1003300095421DD2D41C2E1DA71BBB085F1C012497
:10034000296803EA04088847BC4211D0B8F1000FBD
:1003500005D0306802248047BC42354608D06A6820
:1003600090470234AB682E1D98470835BC42F6D141
:10037000FFF72EFF000800200000002000040020EE
:10038000000400200308002000080020D4080020FA
:10039000F8AA0008D8080020CC1700203001000877
:1003A000300100083001000830010008AFF3008080
:1003B000FEE700BFAFF30080AFF30080AFF3008033
:1003C00072B6FEE7AFF30080AFF30080AFF30080BA
:1003D00000F076F900F0DCFB00F08AF900DF00BFE6
:1003E000EFF30983203383F30988002383F3118813
:1003F000704700BFAFF30080AFF30080AFF3008021
:1004000008B500224FF46D43CEF20003C0F2FA5259
:100410000021996007201021DA6000F0A9F80A2075
:100420004FF4007100F0A4F80B208021BDE80840D3
:1004300000F09EB8AFF30080AFF30080AFF3008010
:10044000202383F311884FF46D43CEF200035868E4
:1004500010F4006319D0EFF30983A3F1200282F3B3
:100460000988124A4FF08070916943F8040C79B101
:100470001168D06989688268914294BF0022012284
:1004800082B10B4843F8080C704783F3118870471A
:100490001168D26988689268904234BF00220122B4
:1004A000002AEED1034A43F8082C70470C0E0020B6
:1004B000D1030008DC030008AFF30080AFF3008035
:1004C00008B500F06DF9202383F3118800F030F9AE
:1004D00000F0B6F800F044F9002383F3118800F02F
:1004E0007FF9BDE80840FFF7ABBF00BFAFF3008066
:1004F0002DE9F04FC1F80CD0D0F80CD0BDE8F08F4A
:1005000008B500F0F5F8002383F311882846A047CA
:1005100000F03EFD08BD00BFAFF30080AFF30080E8
:1005200000F0030370B4DA00FF2505FA02F500F0CD
:100530001F0401FA02F1012202FA04F24FF46143AE
:100540008408CEF20003C03453F82460400926EA40
:1005500005050D4300F1600643F8245043F82620BA
:1005600043F8202070BC7047AFF30080AFF30080E9
:1005700000F0030310B4FF22DC0002FA04F201FAD7
:1005800004F180084FF46D43CEF20003063053F8B7
:10059000204024EA02020A4343F8202010BC70479E
:1005A000024B034AD8698261FEE700BF0C0E0020AF
:1005B000008F0008AFF30080AFF30080AFF300803E
:1005C00030B583B0FFF71CFF00F012FA00F090F98D
:1005D00002F00EF902F064F900F052F940F6D8008A
:1005E0004021C2F2000000F013FB40F60C6440F220
:1005F0000043C2F20003C2F200040125E06180F86A
:100600002050C36100F044F8002383F3118862B6E0
:1006100049F2D001E269C0F60001916140F628106C
:10062000009340F2A153C0212A46C0F60003C2F253
:10063000000000F08DFB03B030BD00BFAFF30080C1
:1006400038B500F0EDF8104B9A69002A01DD501E14
:100650009861DA690D4C516A2368481C5062E2685F
:10066000511CA342E1600ED09D68013D9D6055B9CB
:100670001A68D9681869DD60546022608847236869
:1006800098680028F4D038BD0C0E0020FC0D002026
:10069000054B186810B905490A6822B10448054B92
:1006A0001860FFF78DBE7047E8090020F40D0020A8
:1006B000208F0008F80D0020AFF30080AFF300801A
:1006C000074B10B51868074C08B9216821B1064AD4
:1006D000064B1A60FFF774FE0120206010BD00BFBA
:1006E000E8090020F40D0020288F0008F80D0020F4
:1006F000084B10B51868084C28B92168002902DD9C
:100700000020206010BD054A054B1A60FFF758FE17
:10071000F6E700BFE8090020F40D0020308F000844
:10072000F80D0020AFF30080AFF30080AFF300803E
:10073000074B10B51868074C002801DD216821B16E
:10074000054A064B1A60FFF73BFE0120206010BDF2
:10075000E8090020F40D0020388F0008F80D002073
:10076000084B10B51868084C002805DD21680029E1
:1007700002DD0020206010BD044A054B1A60FFF71F
:100780001FFEF6E7E8090020F40D0020408F000866
:10079000F80D0020AFF30080AFF30080AFF30080CE
:1007A00010B5202383F31188094C2168002902DB4E
:1007B000084A106828B10849084B1960FFF700FE85
:1007C00021684A1C2260002383F3118810BD00BFFA
:1007D000E8090020F40D0020488F0008F80D0020E3
:1007E00010B5202383F31188094C2168002902DD0C
:1007F000084A106828B10849084B1960FFF7E0FD66
:1008000021684A1E2260002383F3118810BD00BFB7
:10081000E8090020F40D0020508F0008F80D00209A
:10082000064B1868002804DB05490A68002A00DD29
:1008300070470448044B1860FFF7C2BDE809002068
:10084000F40D0020588F0008F80D0020AFF3008051
:10085000064B186820B906490A68002A00DD70476F
:100860000448054B1860FFF7ABBD00BFE809002046
:10087000F40D0020608F0008F80D0020AFF3008019
:1008800040F6EC13C2F200031A46402142F8081B5E
:100890005A607047AFF30080AFF30080AFF3008081
:1008A0000C4910B40C4ACC680C495368C9691C60E7
:1008B0005960846A03F110019C6090F8204002F5B1
:1008C000816081421C732ABF02F1080351605360AA
:1008D00010BC7047FC0D0020EC0900200C0E00201D
:1008E00040F6F853C2F200031860FFF769BD00BF7D
:1008F00040F6FC53C2F200034FF0FF3200205B6071
:100900001B609A60D8607047AFF30080AFF300803F
:10091000F8B505460C4616461F46FFF781FFCDB1D8
:10092000C6B1BCB10D492F610B68EE609A68944264
:1009300004D91B68A41A9A68A242FAD358688B4259
:100940002B60686005605D60AC6002D099680C1B2C
:100950009C60F8BD0248FFF7C3FFE3E7FC0D0020F1
:10096000708F0008AFF30080AFF30080AFF300801A
:1009700010B50446FFF754FF84B1E36893B12068D3
:100980000A4A904203D08168A368CA1882606268EC
:10099000002110602068E160426010BD0448FFF74C
:1009A0009FFFEAE70348FFF79BFFE8E7FC0D002005
:1009B000808F0008908F0008AFF30080AFF30080B5
:1009C000094B8142DA6805D9824201D38A4203D3B6
:1009D00000207047824201D3012070478A422CBF19
:1009E00000200120704700BFFC0D0020AFF3008005
:1009F00040F60C63C2F20003002214205B601B600F
:100A00009A6098615B611B61704700BFAFF3008023
:100A100010B590F8203004468BB10E2B0FD0002279
:100A2000A168094884F82020006883688B42FBD2C3
:100A30004168206061600C604460204610BD03483E
:100A4000FFF74EFFEBE700BF0C0E0020B08F000851
:100A500090F820300D2B11D8DFE803F015101007A7
:100A6000100B101010101010100B816A8A68531CA4
:100A70008B6090E80C001A6001684B604FF0FF3209
:100A80008262FFF7C5BF7047AFF30080AFF300800D
:100A900070B5114C0646FFF7DBFE2368E5691A685E
:100AA0001421012085F82060A16183F820005460A2
:100AB00028462260E361FFF7F3FEEB69ADF1240203
:100AC000934202D90548FFF70BFFE0692946BDE8CC
:100AD0007040FFF70DBD00BF0C0E0020C48F000852
:100AE00070B50C4686B00646FFF7B2FE631C12D006
:100AF0000B4D2146EB690B4A01A8FFF709FF304671
:100B0000FFF7C6FF049B13B101A8FFF731FFE869A7
:100B1000806A06B070BD3046FFF7BAFF004DF6E7B9
:100B20000C0E0020510A0008AFF30080AFF30080E4
:100B300070B5154D04460E46FFF78AFEE869A268B7
:100B40008368A6629A4215D9FFF762FF0121142239
:100B5000064684F82010AA61EC61FFF7A1FEF06957
:100B6000ADF1240398420AD820463146BDE87040D2
:100B7000FFF7BEBC2046BDE87040FFF749BF034801
:100B8000FFF7AEFEF0E700BF0C0E0020C48F000898
:100B900038B5104C14212368E5691A68012083F8E0
:100BA0002000A161284654602260E361FFF730FF16
:100BB0002846FFF775FEEB69ADF12402934202D996
:100BC0000548FFF78DFEE0692946BDE83840FFF78C
:100BD0008FBC00BF0C0E0020C48F0008AFF3008054
:100BE00008B5FFF735FE064B1A68D8699168836827
:100BF000994200D808BDBDE80840FFF7C9BF00BF53
:100C00000C0E0020AFF30080AFF30080AFF3008044
:100C10002DE9F00140F60C64C2F20004656900227F
:100C200000F13006816000F12C0C00F14C074FF010
:100C30000208416401210461456180F820806061FF
:100C400080F821200264C263426280F8221082612F
:100C50002861C0F82CC046630663C761BDE8F00197
:100C6000704700BFAFF30080AFF30080AFF30080A8
:100C7000884213D2C34300F8012BCB18884203F0FB
:100C800001030CD01BB100F8012B884208D00346A9
:100C900003F8012B4270581C8842F8D17047704706
:100CA000704700BFAFF30080AFF30080AFF3008068
:100CB0002DE9F04704460D4690469946FFF7B0FDF2
:100CC0000CB1AF2D32D81D48FFF70AFE1C4EA5F11E
:100CD0002403E7187169E76044F80390089B002536
:100CE0007B60184B04F130023B62022304F12C0AB2
:100CF00004F14C0C84F8203001232661C4F80880EC
:100D000061612046746184F82150C4F844802564F0
:100D1000E563656284F82230A5610C61C4F82CA0FB
:100D200062632263C4F81CC0BDE8F087B8F17F0F8E
:100D3000C9D8B9F1000FC9D1C5E700BFE08F0008DD
:100D40000C0E002001050008AFF30080AFF3008017
:100D50002DE9F04F9B4683B080468946924600F1CC
:100D60004C0300F1010400F14D07FF26254604F86D
:100D7000016C05F8016B6C1CBC42F7D108EB09074C
:100D8000BB4215D218465526DA4300F8016BB91854
:100D9000B84201F001030BD01BB100F8016BB8425F
:100DA00006D0054605F8016B4670681CB842F8D1BC
:100DB000202383F31188FFF783FC0C9C5B4652468B
:100DC000494600944046FFF773FF00210446FFF7B1
:100DD000AFFEFFF78DFC002383F31188204603B09C
:100DE000BDE8F08FAFF30080AFF30080AFF3008079
:100DF0007F2838B5044617D8202383F31188FFF7DE
:100E00005FFC0B4BD869456C8268954201D09442D7
:100E100000D984604464FFF7E3FEFFF769FC002318
:100E200083F31188284638BD0248FFF759FDE3E7F0
:100E30000C0E0020F48F0008AFF30080AFF30080A9
:100E400010B52023044683F31188FFF739FC94F88A
:100E50002030022B02D00748FFF742FD2046002138
:100E6000FFF766FEFFF744FC002383F3118820465A
:100E700010BD00BF0C900008AFF30080AFF30080FE
:100E800010B52023044683F31188FFF719FC94F86A
:100E9000213043F0040084F82100FFF729FC0023EF
:100EA00083F3118810BD00BFAFF30080AFF3008063
:100EB00010B5044610B90948FFF712FD202383F34B
:100EC0001188FFF7FDFB21460620FFF709FEFFF71B
:100ED0000FFC002383F3118810BD00BF2090000891
:100EE00010B52023044683F31188FFF7E9FB064B76
:100EF000D968611A02D00620FFF7F2FDFFF7F8FB70
:100F0000002383F3118810BDFC0D0020AFF3008097
:100F100008B5202383F31188FFF7D2FB074B1A682B
:100F2000D86991688368994201D3FFF731FEFFF7D2
:100F3000DFFB002383F3118808BD00BF0C0E0020E7
:100F400038B5104BDC69254655F82C1FA062A94224
:100F500007D00A680846E262FFF75AFDE16AA94233
:100F6000F7D194F82100830704D1636922691A61DB
:100F700021694B610E20FFF78BFD0348BDE8384027
:100F8000FFF7AEBC0C0E002030900008AFF30080DD
:100F900010B52023044683F31188FFF791FB204608
:100FA000BDE81040FFF7CCBFAFF30080AFF3008087
:100FB00038B5044648B3202383F31188154DFFF755
:100FC0007FFBEB69A3421CD094F82200A8B194F8EF
:100FD00020100E2906D0ED69E26A07202A60E5623A
:100FE000FFF756FDA56AFFF783FB002383F3118803
:100FF000204600F03DF8284638BD0748FFF770FC52
:10100000E5E70648FFF76CFCDEE70548FFF768FCFC
:10101000D1E700BF0C0E0020649000085490000837
:1010200044900008AFF30080AFF30080AFF300807E
:1010300010B52023044683F31188FFF741FB94F891
:101040002230FF2B09D0581C84F82200FFF750FBF8
:10105000002383F31188204610BD0348FFF740FCAE
:1010600094F82230EFE700BF80900008AFF30080D3
:1010700038B50446202383F31188FFF721FB94F849
:101080002230002B21D0581EC5B284F82250FFF721
:101090002FFB002383F311881DB994F820100E292B
:1010A00000D038BD94F8212002F00303012B12D0A8
:1010B000022BF6D163692169A06C1961226921466E
:1010C0005361BDE8384001F03BBD0848FFF708FC1C
:1010D00094F82230D7E763692169204619612269B3
:1010E0005361BDE8384001F053BC00BF9490000844
:1010F0002DE9F04182B00D461746984601F000FCFC
:10110000044618B300F14C063146FF22FFF7B0FD4C
:10111000304661195522FFF7ABFD202383F3118878
:10112000FFF7CEFA08983A464346294600902046F3
:10113000FFF7BEFD012380F8213000210446FFF7B0
:10114000F7FCFFF7D5FA002383F31188204602B09D
:10115000BDE8F081AFF30080AFF30080AFF3008013
:101160002DE9F043044683B0884691461F46002887
:101170002DD0204601F0B4FC054620B300F14C060A
:101180003146FF22FFF774FD616830466918552229
:10119000FFF76EFD202383F31188FFF791FA616852
:1011A00042464B4600972846FFF782FD022380F80F
:1011B0002130002184640546FFF7BAFCFFF798FA56
:1011C000002383F31188284603B0BDE8F08302486A
:1011D000FFF786FBCDE700BFA8900008AFF30080C3
:1011E00010B5202383F31188FFF76AFA40F60C63E9
:1011F000C2F200031C6994F82200411C84F82210FA
:10120000FFF776FA002383F31188204610BD00BF54
:1012100038B50546202383F31188FFF751FA2C696E
:101220000D4B9C4216D094F82200FF280CD0411C94
:1012300084F82210FFF75CFA002383F31188284614
:10124000FFF716FF204638BD0448FFF749FB94F826
:101250002200ECE70024EDE70C0E0020F0900008DF
:1012600038B504460D4628B1002903DB64602460CC
:10127000A56038BD0148FFF733FBF7E71091000880
:10128000F8B504460E46FFF7CBFA002C3DD0002EF1
:101290003BDBA5682368002D34DBA34203D01E4846
:1012A000FFF71EFBA5680135002DA66029DC6068EC
:1012B0006FF0010741686E1C61600C60FFF7A8FBCE
:1012C00005F00102876225B34AB1606801364368C0
:1012D00063601C60FFF79CFB012E87621AD0606878
:1012E000751C4168023661600C60FFF791FB8762F4
:1012F0006068426862601460FFF78AFB8762002DB5
:10130000EDD1F8BDA342CED1C9E70448FFF7E8FA12
:10131000BFE7F8BDF8BD00BF30910008209100087C
:1013200038B505460C46202383F31188FFF7C8F92A
:1013300028462146FFF7A4FFFFF752FCFFF7D8F934
:10134000002383F3118838BDAFF30080AFF3008032
:1013500038B50446FFF77CFA1CB3A3682268002B5B
:101360000BDBA24203D01148FFF7BAFAA368581E5C
:101370000028A06007DB002038BDA242F3D0581E31
:101380000028A060F7DA0A4D0320E9698C626268E0
:101390000C604A6061601160FFF77AFBEB69986A44
:1013A00038BD0448FFF79CFAD7E700BF5491000806
:1013B0000C0E002044910008AFF30080AFF30080D2
:1013C00010B52023044683F31188FFF779F92046EE
:1013D000FFF7BEFF0446FFF78BF9002383F3118864
:1013E000204610BDAFF30080AFF30080AFF3008064
:1013F00038B504460D46FFF72BFA002C24D0A3681D
:101400002268002B0BDBA24203D01348FFF768FAD7
:10141000A368581E0028A06007DB002038BDA24248
:10142000F3D0581E0028A060F7DA8DB10B490320D5
:10143000CB6929469C6262681C605A6063601360D5
:10144000BDE83840FFF74CBB0548FFF749FAD6E73F
:10145000A3604FF0FF3038BD809100080C0E0020D3
:1014600068910008AFF30080AFF30080AFF3008015
:1014700038B505460C46202383F31188FFF720F981
:1014800021462846FFF7B4FF0446FFF731F9002351
:1014900083F31188204638BDAFF30080AFF300809E
:1014A00010B5044618B3A3682068002B14DBA042D3
:1014B00002D01148FFF714FA202383F31188FFF7B5
:1014C000FFF8A1684A1C002AA26008DDFFF710F9A6
:1014D000002383F3118810BDA042EDD1E9E7206815
:1014E0000021036823605C60FFF722FBEEE70348FE
:1014F000FFF7F6F9D7E700BFA89100089891000818
:1015000010B50446FFF78CF9002C1FD0A3682268A1
:10151000002B0ADBA24203D00E48FFF7E1F9A368D3
:10152000581C0028A06006DD10BDA242F4D0581C53
:101530000028A060F8DC216800230A6808462260C1
:1015400054608B62BDE81040FFF762BA0248FFF7B3
:10155000C7F9DBE7D0910008BC910008AFF3008029
:10156000F8B504460D46FFF75BF9002C47D0002D77
:1015700045DDA3682068002B3EDBA04202D02A484C
:10158000FFF7AEF9002D36DDA16800264B1C6A1E60
:10159000B342A36002F0010735DD013D2BD077B1E6
:1015A000A068421C002AA26035DD013D07D13AE067
:1015B000A368591C0029A16013DD013D1AD0A16860
:1015C000013D481C0028A060F2DC2068026822600F
:1015D0005460FFF71DFA8662A368591C0029A160B8
:1015E000EBDC2068026822605460FFF711FA013DCD
:1015F0008662E4D1F8BDF8BDA042C3D1BFE70B4875
:10160000FFF76EF9B5E72068016821604C60FFF7CD
:10161000FFF98662C1E72068036823605C60FFF71A
:10162000F7F98662C1E7F8BDFC910008E491000873
:1016300038B505460C46002835D0002933D0AB68B4
:101640002868002B26DBA84202D02448FFF748F97F
:10165000A1682268002923DBA24202D02048FFF7BC
:101660003FF9202383F31188FFF72AF8AB68581C51
:101670000028A86028DDA368581E0028A06016DB9B
:10168000FFF7AEFA0024FFF733F8002383F3118845
:10169000204638BDA842D8D0A16822680029DBDAEC
:1016A000A242DED1DAE70F48FFF71AF9C7E70E4D7D
:1016B0006168ED6903202C6069606560AC620D6053
:1016C000FFF7E6F9AC6ADEE72868016829604D603B
:1016D000FFF79EF900228262CDE700BF2892000842
:1016E00040920008149200080C0E0020AFF3008016
:1016F00010B5044620B1002364602460A36010BDCF
:101700000148FFF7EDF8F6E760920008AFF30080BC
:10171000F8B53B4B0546DC69FFF79AF8002D6BD016
:10172000A868002836D0A2688168914208D290F853
:1017300020308260042B45D0052B30D0002B1ED0EA
:1017400028460068854203D08168A2689142F8D299
:101750004368206063601C604460A5620420FFF75A
:1017600097F9A868A04202D02648FFF7B9F8216C83
:10177000A94213D02448BDE8F840FFF7B1B890E87B
:101780000C001A600268012180F820105360FFF7F6
:101790003FF9D5E7206CAC60E8602564F8BD41688E
:1017A0000768866A0F600768334679601B689E4247
:1017B00002D099689142F9D25A6803604260106081
:1017C0005860BDE741680768866A0F60076833465E
:1017D00079601B689E420DD099689142F9D25A688F
:1017E0000360426010605860B068A26883689342EA
:1017F0009DD3A5E73346F2E70448FFF771F88FE77A
:101800000C0E00208092000894920008709200084C
:1018100010B52023044683F31188FEF751FF2046BC
:10182000FFF776FFFEF764FF002383F3118810BDF6
:1018300010B50446FFF70CF85CB1A3680BB10020AB
:1018400010BD06490120CB691A6CA360E2601C64DC
:1018500010BD0348FFF744F8EFE700BF0C0E00206F
:10186000A8920008AFF30080AFF30080AFF30080D0
:1018700010B52023044683F31188FEF721FF20468C
:10188000FFF7D6FF0446FEF733FF002383F31188EA
:10189000204610BDAFF30080AFF30080AFF30080AF
:1018A0001E4A70B52023D56983F31188FEF708FF1F
:1018B0002C6C002C2DD0A368AB4203D01848FFF746
:1018C0000FF82C6C2668E368A6422B641ED0696C66
:1018D0004BB11A689A4203D09068814238BF0146E2
:1018E000DB68002BF5D13368326CA9603046236089
:1018F00000215C60A660E2603464FFF719F9FEF72E
:10190000F7FE002383F31188204670BD0020A060FD
:10191000F5E70448FEF7E4FF2C6CCCE70C0E002042
:10192000D0920008BC920008AFF30080AFF30080B3
:101930001A4B70B5DD69FEF78BFF2C6C002C28D09C
:10194000A068A84203D01648FEF7CAFF2C6C266890
:10195000E368A6422B6418D0686C4BB11A689A42AF
:1019600003D09168884238BF0846DB68002BF5D168
:101970003168326CA860216030464C60A660E2603D
:101980003464FFF745F8204670BD0021A160204671
:1019900070BD0448FEF7A4FF2C6CD1E70C0E0020AC
:1019A000F8920008E4920008AFF30080AFF30080E3
:1019B000154A70B52023D46983F31188FEF780FEA1
:1019C000236CD3B100260AE01168156C19604B60D6
:1019D0009A60DD601364FFF71BF8236C4BB11A6843
:1019E000D9689A4210462164EED19E60236C002B88
:1019F000F5D1606CA060FFF7F3F8FEF779FE0023E5
:101A000083F3118870BD00BF0C0E0020AFF300807F
:101A100010B5044610B16460246010BD0148FEF7A3
:101A20005FFFF8E710930008AFF30080AFF300808A
:101A300010B5044698B1202383F31188FEF740FEC9
:101A40002068A04205D00368002123605C60FFF796
:101A50006FF8FEF74DFE002383F3118810BD024896
:101A6000FEF73EFFE7E700BF20930008AFF30080DA
:101A700010B50446FEF7D4FE54B12068A04206D04B
:101A8000036823605C60FEF7C3FF0021816210BD24
:101A90000148FEF725FFF0E734930008AFF300801C
:101AA00038B50446FEF7BCFE74B12068A0420AD0E7
:101AB0006FF00105036823605C60FEF7A9FF856293
:101AC0002068A042F6D138BD0148FEF709FFECE7D7
:101AD00048930008AFF30080AFF30080AFF30080BD
:101AE00010B52023044683F31188FEF7E9FD204654
:101AF000FFF7D6FFFFF774F8FEF7FAFD002383F334
:101B0000118810BDAFF30080AFF30080AFF3008009
:101B1000F8B5174B0546DC69FEF79AFE1DB3206C3D
:101B2000E8B1FFF705FF2E460746A5622B4603E006
:101B30009968A268914210D31B689D42F8D17068E1
:101B400026606060046074600520FEF7A1FFA46A4F
:101B50003846FFF7DDFD2046F8BD1E46EFE7054895
:101B6000FEF7BEFEDDE70448FEF7BAFED7E700BF8A
:101B70000C0E00207093000860930008AFF3008003
:101B800010B52023044683F31188FEF799FD204603
:101B9000FFF7BEFF0446FEF7ABFD002383F3118879
:101BA000204610BDAFF30080AFF30080AFF300809C
:101BB000F8B506460D46FEF74BFE16B30DB3154CB1
:101BC000E369186C08B3FFF7B3FEE26907463346D2
:101BD00096621B689E4203D099689468A142F8D22D
:101BE00058681360506002605A6005202946FEF76D
:101BF00077FF431C044602D03846FFF789FD204694
:101C0000F8BD0548FEF76CFED9E70448FEF768FE0C
:101C1000D9E700BF0C0E0020849300089C930008B5
:101C200038B505460C46202383F31188FEF748FD9E
:101C300021462846FFF7BCFF0446FEF759FD002366
:101C400083F31188204638BDAFF30080AFF30080E6
:101C500070B505460C46164690B189B1202383F332
:101C60001188FEF72DFD084B2A68D86922602C6088
:101C70006060A660FEF73CFD002383F3118870BD11
:101C80000248FEF72DFEE9E70C0E0020C093000885
:101C900038B504460D46A8B1A1B1202383F31188BD
:101CA000FEF70EFD224600E01A461368A34203D059
:101CB0009D42F9D128681060FEF71AFD002383F3D6
:101CC000118838BD0148FEF70BFEE6E7D8930008FF
:101CD00010B52023044683F31188FEF7F1FC40F68B
:101CE0000C63C2F20003D969C86B20EA0402CA631C
:101CF0000440FEF7FDFC002383F31188204610BD4D
:101D000010B52023044683F31188FEF7D9FC40F672
:101D10000C63C2F20003D869C26B1443C463FEF7BC
:101D2000E7FC002383F31188204610BDAFF3008049
:101D300038B504460D46FEF773FDC4B1E26B94F866
:101D4000203045EA0201082BE1630CD0092B00D0BA
:101D500038BDA06A01408842FAD12046FEF758FEFD
:101D60000023836238BDA26A1142F6D138BD024811
:101D7000FEF7B6FDE2E700BFEC930008AFF300808A
:101D800038B504460D4680B1202383F31188FEF751
:101D900097FC20462946FFF7CBFFFEF721FFFEF711
:101DA000A7FC002383F3118838BD0248FEF798FD95
:101DB000EAE700BF00940008AFF30080AFF30080B3
:101DC00070B505460E46FEF72BFD5DB12C68A542A9
:101DD00007D0A16860683143FFF7AAFF2468A542D5
:101DE000F7D170BD0148FEF77BFDEFE710940008C6
:101DF00038B505460C46202383F31188FEF760FCB6
:101E000028462146FFF7DCFFFEF7EAFEFEF770FCEE
:101E1000002383F3118838BDAFF30080AFF3008057
:101E20002DE9F04180460D46D0B18DB100263446F3
:101E3000012707FA04F32B4206D058F8061025EACA
:101E4000030539B12046884701340436002DF0D10E
:101E5000BDE8F0810448FEF743FD58F80610F1E7AD
:101E60000248FEF73DFDE0E73C9400082894000896
:101E700038B50F4B0446DD69202383F31188FEF744
:101E80001FFCE86B14EA000206D10820AC62FEF7E2
:101E9000FFFDE86B04EA00025442144020EA04000B
:101EA000E863FEF725FC002383F31188204638BD44
:101EB0000C0E0020AFF30080AFF30080AFF3008082
:101EC0000E4B70B5DD690446202383F31188FEF7BD
:101ED000F7FBE86B14EA000606D10820AC62FEF7B7
:101EE000D7FDE86B04EA000620EA0600E863FEF787
:101EF000FFFB002383F31188304670BD0C0E0020D9
:101F000038B50E4B0446DD69202383F31188FEF7B4
:101F1000D7FBE86B04EA0002A24204D00920AC62BD
:101F2000FEF7B6FDE86B20EA0400E863FEF7E0FB8D
:101F3000002383F31188204638BD00BF0C0E00201B
:101F4000F8B5154B0546DE690F46202383F311884B
:101F5000FEF7B6FBF06B15EA00040AD1AFB108201A
:101F6000B5623946FEF7BCFD00280EDBF06B05EAD2
:101F700000046242144020EA0400F063FEF7B8FB5C
:101F8000002383F311882046F8BDFEF7B1FB2346FA
:101F900083F311882046F8BD0C0E0020AFF30080BB
:101FA000F8B5144B0446DD690F46202383F31188EE
:101FB000FEF786FBEA6B14EA02060AD19FB10820FD
:101FC000AC623946FEF78CFD00280CDBEA6B04EAB4
:101FD000020622EA0602EA63FEF78AFB002383F385
:101FE00011883046F8BDFEF783FB334683F3118832
:101FF0003046F8BD0C0E0020AFF30080AFF3008038
:10200000184B70B5DD6904460E46202383F3118812
:10201000FEF756FBEA6B04EA0200A04208D08EB13C
:102020000920AC623146FEF75BFD002812DBEA6B4B
:1020300022EA0402EA63FEF75BFB002383F31188C4
:10204000204670BDFEF754FB334683F311883446B7
:10205000204670BDFEF74CFB002383F311881C461D
:10206000EEE700BF0C0E0020AFF30080AFF300805E
:10207000154B70B505460E46DC6900B3202383F38B
:102080001188FEF71DFB05F13002A26295F82010C1
:10209000686B0C292260A66360606C6304600AD0E0
:1020A0000A20FEF7F5FCA46AFEF722FB002383F367
:1020B0001188204670BD2846FEF7AAFCF0E70348C9
:1020C000FEF70EFCDAE700BF0C0E0020509400086B
:1020D00038B5202383F311880E4DFEF7F1FAEA6933
:1020E000134653F8304F9C420CD021680B201163EB
:1020F0004B6084F82000FEF7FBFA002383F311887D
:10210000204638BD0C20FEF7C3FCEA69134653F89D
:10211000304FEAE70C0E0020AFF30080AFF30080F1
:1021200038B504460D46202383F31188FEF7C8FA1C
:1021300094F820300B2B02D00648FEF7D1FB204646
:102140002946FEF7F5FCFEF7D3FA002383F3118846
:1021500038BD00BF60940008AFF30080AFF300808B
:1021600070B504460D461646A0B199B1002A11DD9E
:1021700005EB860304F11C003146E560A56025608F
:102180006360FFF76DF804F110000021BDE87040B6
:10219000FFF766B80148FEF7A3FBE9E78094000863
:1021A00010B50446D8B1202383F31188FEF788FACE
:1021B00023686168E360CA1A9110A36004F11C00EF
:1021C000FFF75EF804F110000021FFF759F8FEF761
:1021D00007FDFEF78DFA002383F3118810BD024836
:1021E000FEF77EFBDFE700BF90940008AFF30080AE
:1021F00070B504460E461546FEF72AFBC4B12946C3
:1022000004F11C00FFF7F4F8054678B9A36862688A
:1022100043F8046B9342A36028BF236804F11000C5
:1022200028BFA360FFF76CF9FEF7DAFC284670BD03
:102230000148FEF755FBE2E7A0940008AFF30080E9
:1022400070B5202306460D46144683F31188FEF729
:1022500037FA224629463046FFF7CAFF0446FEF702
:1022600047FA002383F31188204670BDAFF3008046
:1022700038B504460D46FEF7D3FAA4B1626A002AC7
:1022800015DDA368501E6168606243F8045B8B42F1
:10229000A36028BF236804F1100028BFA360FFF7E4
:1022A0002FF9002038BD0348FEF71AFBE6E74FF090
:1022B000FF3038BDB0940008AFF30080AFF300806A
:1022C00070B504460E461546FEF7C2FACCB1294653
:1022D00004F11C00FFF78CF8054660B9E36822683A
:1022E000191F9142E16008D304F110000E60FFF75E
:1022F00007F9FEF775FC284670BD6068011FE160B4
:10230000F2E70248FEF7ECFAE1E700BFC0940008EC
:1023100070B5202306460D46144683F31188FEF758
:10232000CFF9224629463046FFF7CAFF0446FEF79A
:10233000DFF9002383F31188204670BDAFF30080DE
:1023400038B504460D46FEF76BFAA4B1626A002A5E
:1023500015DDE3682168043B501E8B426062E36038
:1023600002D26268131FE36004F110001D60FFF7E2
:10237000C7F8002038BD0348FEF7B2FAE6E74FF091
:10238000FF3038BDD4940008AFF30080AFF3008075
:1023900070B504460E461546FEF75AFACCB1C6B1E2
:1023A000294604F11000FFF723F8054678B9E368E1
:1023B000626853F8041B04F11C0093423160E3602F
:1023C00024BF2368E360FFF79BF8FEF709FC28466B
:1023D00070BD0248FEF784FAE2E700BFE894000807
:1023E00070B5202306460D46144683F31188FEF788
:1023F00067F9224629463046FFF7CAFF0446FEF732
:1024000077F9002383F31188204670BDAFF3008075
:1024100038B504460D46FEF703FAB4B1ADB1A26972
:10242000002A16DDE368501EA06153F8041B6268A1
:1024300029609342E36028BF236804F11C0028BF91
:10244000E360FFF75DF8002038BD0348FEF748FA67
:10245000E5E74FF0FF3038BDF8940008AFF3008097
:1024600010B4024659B1084B0D20DB699A625468DA
:1024700083E814005360236010BCFEF731BB4FF0BB
:10248000FF3010BC704700BF0C0E0020AFF300807F
:1024900010B48A180024406000608460416181614A
:1024A000C1600261C36110BC704700BFAFF3008020
:1024B00038B50446FEF7B4F92068E3680021A0426D
:1024C0006361A361A1600AD06FF001050268226018
:1024D0005460FEF79DFA85622068A042F6D138BDAF
:1024E00038B504460D46FEF79BF96369A269A068FA
:1024F000934218D0411CA16003F8015B226963611B
:10250000934228BFE368206828BF6361A04208D0D7
:10251000036823605C60FEF77BFA00218162084655
:1025200038BD002038BD0028E4D06FF0030038BD6E
:10253000F8B504460E46202383F31188FEF7C0F851
:10254000E3690BB120469847A5682046314655B946
:10255000FFF786FF071EF7DAFEF7CAF82B4683F36C
:1025600011883846F8BDA069013DA56010F8017BCF
:102570002269A061904224BFE068A061FEF7B8F82C
:10258000002383F311883846F8BD00BFAFF3008005
:102590002DE9F0470446154688461E46C769002ABD
:1025A0003AD0202383F31188FEF78AF808F1010A54
:1025B0004FF00009A8440FB12046B847A56820464F
:1025C00031465DB9FFF74CFF0028F7D0FEF790F8D1
:1025D0002B4683F311884846BDE8F087A369013D87
:1025E000A56013F8012B0AF8012C2069A36183422E
:1025F00024BFE368A361FEF77BF8002383F311880F
:10260000C24509F10109E6D0202383F31188FEF7C2
:1026100057F80AF1010ACEE70148FEF761F9C0E771
:1026200010950008AFF30080AFF30080AFF3008097
:1026300010B48C1840600060826041618161C160AB
:102640000461C36110BC7047AFF30080AFF300803A
:1026500038B50446FEF7E4F8E36822692068D11A29
:10266000A0426361A361A1600AD06FF00105036815
:1026700023605C60FEF7CCF985622068A042F6D149
:1026800038BD00BFAFF30080AFF30080AFF3008030
:102690002DE9F041202304468846164683F311882D
:1026A000FEF70EF8A568204631465DB9FFF7D8FE63
:1026B000071EF7DAFEF71CF82B4683F3118838461D
:1026C000BDE8F0816369013DA56003F8018B2269D3
:1026D0006361934228BFE368E16928BF636109B180
:1026E00020468847FEF704F8002383F311881F462D
:1026F0003846BDE8F08100BFAFF30080AFF3008043
:1027000038B50446FEF78CF8A3696269A0689A425E
:1027100016D0411CA16013F8015B2269A3619342AA
:1027200028BFE368206828BFA361A04206D00368E1
:1027300023605C60FEF76CF900218162284638BD99
:102740000028E6D06FF0020038BD00BFAFF3008074
:102750002DE9F0470446164688469A46D0F81C9064
:10276000002A39D0202383F31188FDF7A9FF002721
:10277000A56820466B1E0DB3A360656918F8011BA0
:1027800005F8011B22696561954224BFE268626118
:10279000B9F1000F00D0C847FDF7AAFF002383F36B
:1027A00011880137013E14D0202383F31188FDF7EF
:1027B00087FFA56820466B1E002DDDD120465146BF
:1027C000FFF74EFE0028D3D0FDF792FF2B4683F390
:1027D00011883846BDE8F0870148FEF781F8C1E767
:1027E00024950008AFF30080AFF30080AFF30080C2
:1027F00045F20001084840F6306240F62C63C2F210
:102800000001C2F2000220F00700C2F2000321F032
:102810000701106019607047D3170020AFF30080E4
:1028200010B50446FDF7FCFF074A0849136809681C
:10283000E01D20F00700C91A88429ABF18181060DE
:102840000023184610BD00BF300E00202C0E0020C3
:1028500010B52023044683F31188FDF731FF20468D
:10286000FFF7DEFF0446FDF743FF002383F31188E3
:10287000204610BDAFF30080AFF30080AFF30080BF
:1028800040F62C6240F63063C2F20002C2F200034E
:1028900010681968401A7047AFF30080AFF30080EA
:1028A00040F63863C2F2000342F651010022C0F63E
:1028B000000103F1100019609A60DA60FEF718BF9A
:1028C00070B516464A070D46044601D1730702D07B
:1028D0000748FEF705F80023083E04F110002360C6
:1028E000A560E36085E84800BDE87040FEF700BFE2
:1028F00040950008AFF30080AFF30080AFF3008095
:10290000F8B51F4E0731002818BF064606F1100023
:1029100021F0070506F10804FEF77AFF00E01C46E7
:102920002368E3B15A689542F9D805F1080191424C
:1029300012D84FF6F870CFF6FF70401B8218186857
:102940005F1858507A6027605D601C4644F8086B39
:10295000FEF7A6FF2046F8BD19682160F5E7FEF7EF
:102960009FFF32684AB105F10800904728B100F195
:102970000804066045602046F8BD0024EAE700BF71
:10298000380E0020AFF30080AFF30080AFF300807B
:10299000F8B5074600284BD057F8086CA7F1080592
:1029A00006F11000FEF734FF08363446AC4204D876
:1029B00063680833E01885421FD3B442216801D010
:1029C000AC4202D219B18D4201D30C46EEE757F862
:1029D000042C47F8081C256002F1080357F8080C7E
:1029E000E91881420DD0606800F1080163189D422A
:1029F00015D0BDE8F840FEF753BF0F48FDF770FF54
:102A0000DBE74868EB581218083247F8042C606876
:102A100047F8083C00F1080163189D42E9D157F8D6
:102A2000041C57F8082C4318083384E80C00E0E72E
:102A30000248FDF755FFAFE7609500085095000884
:102A400038B50E4C0D46002818BF044604F110009E
:102A5000FEF7DEFEA3686BB10022144658681B68BF
:102A600012180134002BF9D105B12A60FEF718FFC6
:102A7000204638BD1A461C46F6E700BF380E002037
:102A800070B504460D46164608B1032902D805481C
:102A9000FDF726FFE81D20F00705002384E8680005
:102AA00070BD00BF80950008AFF30080AFF30080D9
:102AB00010B50446FDF7B4FE4CB1206810B10168B2
:102AC000216010BDA3680BB16068984710BD024833
:102AD000FDF706FFF1E700BF90950008AFF3008017
:102AE00010B52023044683F31188FDF7E9FD204645
:102AF000FFF7DEFF0446FDF7FBFD002383F311889B
:102B0000204610BDAFF30080AFF30080AFF300802C
:102B100038B505460C46FDF783FE15B10CB16307C9
:102B200002D00348FDF7DCFE2B6823602C6038BD23
:102B3000A4950008AFF30080AFF30080AFF30080EE
:102B400038B505460C46202383F31188FDF7B8FD00
:102B500028462146FFF7DCFFFDF7CAFD002383F37B
:102B6000118838BDAFF30080AFF30080AFF3008071
:102B700041F25043C2F2000301221A60704700BFC5
:102B800070B5114D4C2428682D2103684FF0FF3299
:102B90001E69B0472868013C01684FF0FF320B699D
:102BA0002D219847013C084EEDD130680D21036876
:102BB0004FF0FF321B69984730680A210268136999
:102BC0004FF0FF32984770BD84140020AFF30080AF
:102BD000F0B585B000283DD00DF101054CF6CD468D
:102BE0002B46CCF6CC46A6FB0012D40804EB84019D
:102BF000A0EB41003030C1B2204603F8011C1C4656
:102C000001330028EFD16A46944221D9601BC307E3
:102C1000154F15D538684FF0FF3203681B69984788
:102C200014F8021C013C0BE0386814F8021C02681E
:102C3000661E13694FF0FF32984716F8021C023CDB
:102C40003868026813694FF0FF329847AC42EBD105
:102C500005B0F0BD0448302100684FF0FF32036832
:102C60001B699847F4E700BF84140020AFF300808D
:102C700038B5017859B1064D044628684FF0FF3247
:102C800003681B69984714F8011F0029F5D138BD66
:102C900084140020AFF30080AFF30080AFF3008016
:102CA00038B501780D4D51B1044628684FF0FF3218
:102CB00003681B69984714F8011F0029F5D128689B
:102CC0000D21026813694FF0FF32984728680A21E6
:102CD000026813694FF0FF32984738BD8414002012
:102CE00010B52023044683F31188FDF7E9FC41F277
:102CF0005443C2F200031A6802F8014B1A60FDF750
:102D0000F7FC002383F3118810BD00BFAFF30080F0
:102D100041B9054A012313600449054A0B6010605C
:102D200018467047002070474C14002058140020AB
:102D300048140020AFF30080AFF30080AFF30080B1
:102D40002DE9F001DFF87880DFF878C0D8F800705E
:102D50006346CCEB0702D20715D5674518D911F8A1
:102D6000012B9CF800400CF1010394420BD015E0BC
:102D70001E7812F8015B631CAE420FD14D782478A7
:102D8000511CAC420AD19F420A4603F10104EFD81C
:102D90000B781BB9C8F800C0184607E0054A0121A6
:102DA0001160054B054A196010600846BDE8F00146
:102DB000704700BF4C140020581400204814002015
:102DC0005414002088140020AFF30080AFF300807B
:102DD00010B5044608461146FDF7F2FD40B9054A14
:102DE000054806490123036013600C60184610BDB6
:102DF000002010BD4C14002058140020481400205E
:102E000010B50C4C206808B1FEF73AF8606808B1BC
:102E1000FEF736F8A06808B1FEF732F8E06808B1AE
:102E2000FEF72EF8206918B1BDE81040FEF728B86B
:102E300010BD00BF70140020AFF30080AFF300801E
:102E400010B5124C206818B1FEF7B2F800232360C9
:102E5000606820B1FEF7ACF80C4800224260A06820
:102E600020B1FEF7A5F8094B00219960E06820B178
:102E7000FEF79EF805480022C260206920B1FEF7E7
:102E800097F8024B0021196110BD00BF701400209B
:102E90004FF47A7303FB00F00F4A44F6D353A0F5C6
:102EA0007A7110B4C1F26203D469A3FB0123626A90
:102EB000501C00EB93118A42636A03D29A4203D9F1
:102EC00010BC70479A42F6D9994294BF002301235F
:102ED000002BF0D1F4E700BF0C0E0020AFF3008010
:102EE00008B50120FDF7E4FF40F6FC53C2F20003F1
:102EF000D86808BDAFF30080AFF30080AFF3008067
:102F000038B541F25043C2F2000300241C6005466C
:102F1000202383F31188FDF7D3FB4FF47A7000FB75
:102F200005F544F6D351A5F57A75C1F26201A1FB0E
:102F300005239A09511C41F25C4042F67132234646
:102F4000C2F20000C0F60002FDF7E2FCFDF7D0FB84
:102F5000234683F3118838BDAFF30080AFF30080C0
:102F60002DE9F04F9F4C83B020609F48FFF798FEFB
:102F70009E48FFF795FE9E4D9E48FFF791FE2A2141
:102F800020684FF0FF3203681E69B04715F8011F33
:102F90000029F5D19848994FFFF782FE2A21206831
:102FA000026815694FF0FF32A84717F8011F002982
:102FB000F5D19348934EFFF773FE2A2120684FF016
:102FC000FF3203681F69B84716F8011F0029F5D1C1
:102FD0008D488E4DFFF764FE2A212068026816692D
:102FE0004FF0FF32B04715F8011F0029F5D188488E
:102FF000884FFFF755FE2A2120684FF0FF32036803
:103000001D69A84717F8011F0029F5D18248834E92
:10301000FFF746FE2A212068026817694FF0FF3249
:10302000B84716F8011F0029F5D17D487D4DFFF7FF
:1030300037FE2A2120684FF0FF3203681E69B0472F
:1030400015F8011F0029F5D17748784FFFF728FEC2
:103050002A212068026815694FF0FF32A84717F847
:10306000011F0029F5D172480091FFF719FE5E4853
:10307000FFF716FE00996F4841F25843C2F2000371
:103080006D4F6E4EDFF8E491019019608A460AF1A7
:10309000010A4FF0000857F8042B002A00F0928034
:1030A000674DFFF76DFD2D2120684FF0FF3203685B
:1030B0001B69984715F8011F0029F5D15046FFF705
:1030C00087FD48482E2100684FF0FF32056808F15F
:1030D00001082B6998475B4D4046FFF779FD202199
:1030E0002068026813694FF0FF32984715F8011FF6
:1030F0000029F5D157F8041C0D68297849B12068DA
:10310000026813694FF0FF32984715F8011F002934
:10311000F5D14D48FFF7C4FDC820FDF7C9FE4B4867
:1031200057F804BC0021016041608160C160016109
:10313000474DDBF80420C6F80090296002B19047A3
:10314000DBF80C309847DBF8080000B18047FFF748
:1031500077FE2968002900F0A6803E4D2D212068C9
:10316000026813694FF0FF32984715F8011F0029D4
:10317000F5D13948394D0068FFF72AFD2021206834
:10318000026813694FF0FF32984715F8011F0029B4
:10319000F5D1316849450DD9314D206815F8011C2C
:1031A000026813694FF0FF329847306829460135AD
:1031B0008142F2D32B48FFF773FD57F8042B002A06
:1031C0007FF46EAF019D55F8047F0195002F7FF4C9
:1031D0005EAFFFF7D5FC244D0348FFF761FD4621A4
:1031E00046E000BF8414002018A60008E0950008FF
:1031F00000960008FC9500085C960008649600089C
:103200007896000890960008A4960008EC960008AE
:1032100000970008089700081C97000828970008E6
:103220003C9700085497000868970008909700089A
:10323000A4970008E0970008509800085414002054
:1032400014960008BC9700084493000870140020EE
:103250004C1400202496000848140020C097000851
:10326000891400203C960008C497000888140020A8
:1032700020684FF0FF3203681B69984715F8011F5B
:103280000029F5D141F25840C2F20000016871B93D
:103290000948FFF705FD41F25842C2F200021068EA
:1032A00003B0BDE8F08F0548FFF7FAFCF3E60448E9
:1032B000FFF7F6FCEFE700BF4C96000840960008C9
:1032C00054960008AFF30080AFF30080AFF30080A6
:1032D000F8B5534EF3699C68651C2846FDF788FDD8
:1032E0000746001B414241410120FFF711FD00B19B
:1032F000F8BDF26902209368B5EB030CDCF1000124
:1033000051EB0C01FFF704FD0028F1D13846FDF721
:103310006FFDB5EB000EDEF1000050EB0E01032057
:10332000FFF7F6FC0028E3D1F7690420BA68131B05
:1033300059425941FFF7ECFC07460028D8D1202319
:1033400083F31188FDF7BCF9F0698268931C8360F0
:10335000FDF7CEF93B4683F31188F169A71C8A6813
:103360000520D31B59425941FFF7D2FC0028BFD199
:103370002846FDF73DFD001B424252EB00010620AE
:10338000FFF7C6FC0028B3D1F36907209968B7EBB3
:10339000010CDCF1000252EB0C01FFF7B9FC002834
:1033A000A6D1F3690820596CB5EB010EDEF10002DD
:1033B00052EB0E01FFF7ACFC002899D1E71C384610
:1033C000FDF716FD281A434253EB00010920FFF7D1
:1033D0009FFC00288CD1F1690A208A68BB1A5942E7
:1033E0005941FFF795FC002882D1F5690B206A6CE2
:1033F000BB1A59425941FFF78BFC054600287FF460
:1034000077AF202383F31188FDF75AF9F2699460AE
:103410005464FDF76DF92B4683F3118868E700BF0C
:103420000C0E0020AFF30080AFF30080AFF30080FC
:10343000F0B540F60C67C2F20007FB6949F2C056CE
:103440009A6843F221654AF63C0183B0C0F6000653
:10345000C0F60005C0F60001043A2B4600917068E2
:103460004FF49871FDF774FCFC693168A36841F270
:103470007044C2F20004606049F68000C0F60000AB
:103480005A1F00902B4608464FF49871FDF760FCD8
:10349000FA6931699368206049F67000C0F600004F
:1034A0005A1E00902B4608464FF49871FDF750FCC9
:1034B000FA69F1689268206149F67400C0F600006C
:1034C0002B460090023A08464FF49871FDF740FCF5
:1034D0002023E06083F31188FDF7F2F8FB694FF4D5
:1034E00098719A682B4649F67805C0F60005033AAC
:1034F000B0680095FDF7DCFBA060FDF7F9F800234C
:1035000083F31188A068FDF79BFCFFF799FC49F64F
:103510007C010120C0F6000103B0BDE8F040FFF7D8
:103520000FBC00BFAFF30080AFF30080AFF30080AB
:103530002DE9F04140F60C68C2F20008D8F81C30C2
:1035400049F2C0569A6843F2216549F6800482B078
:10355000C0F60005C0F60006C0F60004053A2B468A
:10356000009430684FF49871FDF7F2FB41F270441B
:10357000D8F81C10C2F200048B68776820604AF605
:103580003C00C0F600001A1F00902B464FF49871C3
:103590003846FDF7DDFBD8F81C20B76893686060FB
:1035A00049F67800C0F60000DA1E00902B464FF472
:1035B00098713846FDF7CCFBD8F81C10F7688A687C
:1035C000A06049F67400C0F60000023A2B46009055
:1035D0004FF498713846FDF7BBFBD8F81C303669BC
:1035E0009A68E06049F67000C0F600004FF49871E8
:1035F000013A2B4600903046FDF7AAFB2061FFF709
:103600001FFC49F67C010120C0F6000102B0BDE8B4
:10361000F041FFF795BB00BFAFF30080AFF3008030
:1036200008B50078FFF75CFB002008BDAFF3008011
:1036300038B51C4DFFF754FCEC686420FDF738FCEE
:10364000012004F1640104F16502FFF7C1FB00B140
:1036500038BDEC686420FDF72BFC022004F1640106
:1036600004F16502FFF7B4FB0028F1D1EC684FF4D8
:103670007A70FDF71DFC032004F57A7104F2E9323B
:10368000FFF7A6FB0028E3D1EC6804F164052846A7
:10369000FDF726FC0420294604F16502BDE8384008
:1036A000FFF796BBFC0D0020AFF30080AFF3008066
:1036B00040F60000C2F200000021FDF7D1BD00BFBE
:1036C00040F60000C2F200000021FDF7C9BD00BFB6
:1036D00040F60000C2F200000021FDF7C1BD00BFAE
:1036E00000B587B0002103A8FDF7BAFD002103A8AB
:1036F000FDF716FE059901200029CCBF002101210C
:10370000FFF706FB08B107B000BD334B4FF49871CB
:10371000D869324B826803A800903148013A0068AA
:10372000FDF716FB2F49086003A8FDF749FE059930
:1037300002200029CCBF00210121FFF7E9FA00286F
:10374000E1D1202383F31188FCF7BAFF059B002BFE
:103750003ADDFDF745FAFCF7CBFF002383F3118830
:10376000059903209942D4BF00210121FFF7D0FA27
:103770000028C8D1059A0420531E59425941FFF729
:10378000C7FA0028BFD1202383F31188FCF798FFE4
:10379000059800281CDDFDF723FAFCF7A9FF00239C
:1037A00083F31188059903209942D4BF0021012198
:1037B000FFF7AEFA0028A6D1059A0520531E5942FC
:1037C0005941FFF7A5FA9EE703A8FDF799FEC0E768
:1037D00003A8FDF795FEDEE70C0E0020F137000888
:1037E000C095000870140020AFF30080AFF3008094
:1037F00010B52023044683F31188FCF761FFA3680A
:10380000002B08DDFDF7ECF9FCF772FF002383F3D2
:103810001188184610BD2046FDF772FEF2E700BF82
:1038200010B540F60004C2F200042046FDF7C8FDC2
:103830002046FDF735FE002010BD00BFAFF300802D
:1038400010B5044640F60000C2F20000FDF7B8FDD6
:103850002078FFF745FA002010BD00BFAFF30080CD
:1038600008B53220FDF724FB202383F31188FCF7F1
:1038700027FF40F60000C2F20000FDF741FEFDF711
:10388000AFF9FCF735FF002383F31188184608BD14
:103890002DE9F043DFF84881474CD8F81C30276801
:1038A0009A68464E85B04FF498710532444B0096A5
:1038B0003846FDF74DFA434DD8F81C1063688A6806
:1038C0002860414803934FF4987101323C4B0090BB
:1038D0000398FDF73DFAD8F81C10A2688B68686061
:1038E0003A4803924FF49871DA1C0090344B0398D5
:1038F000FDF72EFAD8F81C10E2688B68A8603448EF
:1039000003924FF498711A1D00902D4B0398FDF708
:103910001FFAD8F81C1024698A68E8602D484FF413
:1039200098710232264B00902046FDF711FA2A4C7E
:1039300028612046FDF7B4FD2046FDF7B1FD204685
:10394000FDF7AEFD2046FDF7ABFD2046FDF7A8FDD7
:10395000FFF776FA01202149FFF7F2F9814610B10D
:1039600005B0BDE8F083D8F81C3038469A684FF4AB
:10397000987100960532124BFDF7EAF92023286072
:1039800083F31188FCF79CFE20460221FDF7E8FD39
:10399000FCF7AEFE4B4683F31188FFF751FAA1689E
:1039A0000220B1F1010EDEF1000353EB0E0105B070
:1039B000BDE8F043FFF7ACB9C09500087098000867
:1039C00041380008701400207498000878980008A6
:1039D0003CA8000880980008000800207C98000897
:1039E0000C0E0020AFF30080AFF30080AFF3008037
:1039F00010B5224B82B0D869002482682048013279
:103A00004FF498711F4B00940068FDF7A1F91E4C0C
:103A10001E4B214618602046FDF70AFE2168012052
:103A20000A1B534253EB0201FFF772F908B102B0CF
:103A300010BDA1680220D1F1010138BF0021FFF7BC
:103A400067F90028F3D121462046FDF7F1FD2268F1
:103A50000320B2EB040CDCF1000353EB0C01FFF785
:103A600057F90028E3D1A1680420D1F1010138BF42
:103A7000002102B0BDE81040FFF74AB90C0E00204B
:103A8000C0950008213800080008002070140020AC
:103A900070B59F4C002182B02046FDF7E9FCB0F1E3
:103AA000FF3CDCF1000151EB0C010120FFF730F984
:103AB00008B102B070BD22680220B2EB040EDEF144
:103AC000000353EB0E01FFF723F90028F1D1A168A1
:103AD0000320D1F1010138BF0021FFF719F90028B7
:103AE000E7D18C4D8C4BEA69916800908B484A1E57
:103AF00000684FF49871FDF72BF9894B4FF4FA7178
:103B000018602046FDF7B4FC0546FFF799F904203C
:103B1000D5F1010138BF0021FFF7FAF80028C8D11C
:103B200022680520131B59425941FFF7F1F800287C
:103B3000BFD1A2680620D2F1010138BF0021FFF7F2
:103B4000E7F80028B5D1774EFFF7CAF94120F668AB
:103B5000FFF7C6F84FF4FA712046FDF789FCB0F183
:103B6000FF30434253EB00010720FFF7D1F8002854
:103B70009FD121680820B1EB040CDCF1000252EB6C
:103B80000C01FFF7C5F8002893D1A3680920D3F1F1
:103B9000010138BF0021FFF7BBF8002889D142207E
:103BA000FFF79EF84FF4FA712046FDF761FCB0F183
:103BB000FF3EDEF1000050EB0E010720FFF7A8F8F2
:103BC00000287FF476AF256808202A1B5142514116
:103BD0002546FFF79DF800287FF46BAFA368092006
:103BE000D3F1010138BF0021FFF792F800287FF4DC
:103BF00060AF4320FFF774F84FF4FA712046FDF7E9
:103C000037FCB0F1FF30424252EB00010720FFF7D2
:103C10007FF800287FF44DAF216808200B1B5A4223
:103C200052EB0301FFF774F800287FF442AFA1685C
:103C30000920D1F1010138BF0021FFF769F8002800
:103C40007FF437AF4420FFF74BF84FF4FA7120466A
:103C5000FDF70EFCB0F1FF3CDCF1000050EB0C0175
:103C60000720FFF755F800287FF423AF23680820CA
:103C7000B3EB040EDEF1000252EB0E01FFF748F841
:103C800000287FF416AFA1680920D1F1010138BFE7
:103C90000021FFF73DF800287FF40BAF4520FFF728
:103CA0001FF84FF4FA712046FDF7E2FBB0F1FF3048
:103CB000434253EB00010720FFF72AF800287FF466
:103CC000F8AE22680820131B59425941FFF720F82B
:103CD00000287FF4EEAEA2680920D2F1010138BFBE
:103CE0000021FFF715F800287FF4E3AE0A200E4903
:103CF000FFF726F800287FF4DCAE0B2006F6C4118F
:103D000006F6C91202B0BDE87040FFF761B800BF07
:103D1000000800200C0E002061380008C095000843
:103D200070140020FC0D00207C980008AFF3008088
:103D3000F0B540F60C63C2F20003D86949F2C055F1
:103D4000866849F6700483B0C0F60005C0F600042A
:103D500043F65163721C009428684FF49871C0F6C2
:103D60000003FCF7F5FF41F27044C2F200046F68F3
:103D7000206049F67800C0F6000043F62163B21CCB
:103D800000904FF49871C0F600033846FCF7E0FF4E
:103D9000AD68606049F67400C0F6000043F6E15378
:103DA0004FF49871F21CC0F6000300902846FCF70F
:103DB000CFFF40F62C05C2F20005A0602846FDF7B3
:103DC00037FE2846FDF734FEFFF73AF849F60021A2
:103DD0000120C0F6000103B0BDE8F040FEF7B0BF1F
:103DE00010B5044640F61C00C2F20000FDF710FDBD
:103DF0002078FEF775FFFDF753FD002010BD00BFD2
:103E000010B5044640F60C00C2F20000FDF700FDBC
:103E10002078FEF765FFFDF743FD002010BD00BFD1
:103E200010B5044640F60C00C2F20000FDF7F0FCAD
:103E300040F62C00C2F20000FDF7A2FE2078FEF74B
:103E40004FFFFDF72DFD002010BD00BFAFF3008038
:103E500010B5044640F61C00C2F20000FDF7D8FC85
:103E600040F60C00C2F20000FDF7D2FC40F62C0038
:103E70004FF0FF31C2F20000FDF7D2FE2078FEF7CE
:103E80002FFFFDF70DFDFDF70BFD002010BD00BF5E
:103E900040F62C0008B5C2F20000FDF7B9FD40F66F
:103EA0000C00C2F20000FDF723FC40F61C00C2F239
:103EB0000000BDE80840FDF71BBC00BFAFF3008069
:103EC00040F62C0008B5C2F20000FDF7A1FD40F657
:103ED0000C00C2F20000BDE80840FDF709BC00BFBD
:103EE00040F62C0008B5C2F20000FDF791FD40F647
:103EF0000C00C2F20000BDE80840FDF7F9BB00BFAE
:103F000040F60C00C2F20000FDF7F2BBAFF30080F8
:103F100040F60C0008B5C2F20000FDF7E9FB40F6E0
:103F20001C00C2F20000BDE80840FDF7E1BB00BF85
:103F300040F60C0008B5C2F20000FDF7D9FB40F6D0
:103F40001C00C2F20000BDE80840FDF7D1BB00BF75
:103F500040F60C00C2F20000FDF7CABBAFF30080D0
:103F600040F60C00C2F20000FDF7C2BBAFF30080C8
:103F7000F0B540F60C63C2F20003D86949F2C056AE
:103F8000876843F6216549F6800483B0C0F60005D2
:103F9000C0F60006C0F600047A1C2B460094306878
:103FA0004FF49871FCF7D4FE41F27044C2F2000461
:103FB00020604AF63C00C0F60000BA1C2B46009078
:103FC0004FF498717068FCF7C3FE606049F67800A2
:103FD000C0F60000FA1C2B4600904FF49871B068B0
:103FE000FCF7B6FEA06049F67400C0F600003A1D6A
:103FF0002B4600904FF49871F068FCF7A9FE3669E3
:10400000E06049F67000C0F600004FF498717A1D28
:104010002B4600903046FCF79BFE206140F62C00BA
:10402000C2F20000FDF75CFDFEF70AFF49F67C01D5
:104030000120C0F6000103B0BDE8F040FEF780BEED
:10404000F0B540F60C63C2F20003D86949F2C056DD
:10405000876843F6216549F6800183B0C0F6000603
:10406000C0F60005C0F600017A1C2B4600913068AE
:104070004FF49871FCF76CFE41F27044C2F20004F8
:10408000716820604AF63C00C0F60000BA1C2B465E
:10409000009008464FF49871FCF75AFEB1686060D2
:1040A00049F67800C0F60000FA1C2B46009008463E
:1040B0004FF49871FCF74CFEF168A06049F674006B
:1040C000C0F600003A1D2B46009008464FF4987148
:1040D000FCF73EFE326949F67001C0F60001E0606F
:1040E0002B46009110464FF498717A1DFCF730FE74
:1040F0002023206183F3118840F62C04C2F20004CF
:10410000FCF7DEFA2046FDF7B3FC2046FDF7B0FCD5
:104110002046FDF7ADFC2046FDF7AAFC2046FDF742
:10412000A7FCFCF75DFDFCF7E3FA002383F311889D
:10413000FEF786FE49F67C010120C0F6000103B0BF
:10414000BDE8F040FEF7FCBDAFF30080AFF30080A8
:10415000F0B52C4F2C4EFB692C4D9C6885B02C483B
:10416000FDF756FB621C30684FF49871294B00959F
:10417000FCF7EEFD284D7168286028480391A21CC9
:104180004FF49871234B00900398FCF7E1FDB2685F
:104190006860234803924FF49871E21C1D4B009015
:1041A0000398FCF7D5FDF368A8601E480393221D11
:1041B0004FF49871174B00900398FCF7C9FD3669CE
:1041C000E8601948621D4FF49871124B0090304618
:1041D000FCF7BEFD2861FDF763FBFEF731FEF969D0
:1041E00001208A68131B59425941FEF791FD08B11D
:1041F00005B0F0BD0D49022005B0BDE8F040FEF766
:104200009FBD00BF0C0E0020C095000880980008DC
:104210000C080020013E0008701400203CA8000893
:104220007898000874980008709800087C98000836
:10423000F8B5314D314CEB6920469E68FDF718FB0F
:1042400001460120FEF764FD00B1F8BD2046FDF7F0
:104250000FFBD0F1010138BF00210220FEF758FD0D
:1042600007460028F1D1202383F31188FCF728FAB0
:10427000FDF75EFBFCF73CFA3B4683F311882168AF
:104280000320B1EB040CDCF1000252EB0C01FEF751
:104290003FFD0028D9D1A3680420D3F1010138BF24
:1042A0000021FEF735FD0028CFD1E96905208A6895
:1042B000B2EB060EDEF1000353EB0E01FEF728FD14
:1042C0000028C2D12046FDF7A3FAFDF771FB216853
:1042D00006200A1B534253EB0201FEF719FD00288A
:1042E000B3D1A1680720D1F1010138BF0021BDE899
:1042F000F840FEF70DBD00BF0C0E00200C0800209A
:104300002DE9F0468C4D8D4EEB6932689C6885B086
:104310008B48039204F101094FF498714A46894B86
:1043200000900398FCF714FD874F76683860874843
:1043300004F1020A4FF498715246854B00903046C2
:10434000FCF706FD78608348FDF762FAE969012011
:104350008B681A1B51425141FEF7DAFC10B105B0CF
:10436000BDE8F0866420FCF7A3FDEB6902209A68A3
:10437000B2EB090359425941FEF7CAFC0028EED1BD
:104380007548FDF745FAEA6903209368B3EB090C19
:10439000DCF1000151EB0C01FEF7BAFC0028DED184
:1043A0006420FCF785FDEA6904209368B3EB0A0EEC
:1043B000DEF1000151EB0E01FEF7AAFC0028CED180
:1043C000FDF76EFAEA6905209368B3EB09025142E2
:1043D0005141FEF79DFC0028C1D16420FCF768FD27
:1043E000EB6906209A68B2EB090359425941FEF77E
:1043F0008FFC0028B3D1FDF7DBFAEA690720936848
:10440000B3EB040CDCF1000151EB0C01FEF780FC76
:104410000028A4D1FEF714FD50484FF498714A4685
:10442000484B00900398FCF793FC38604C484FF4DD
:1044300098715246464B00903046FCF789FC7860F4
:104440004448FDF7E5F9EA6908209368B3EB040EE8
:10445000DEF1000151EB0E01FEF75AFC00287FF45B
:104460007EAF6420FCF724FDEA6909209368B3EB72
:10447000090251425141FEF74BFC00287FF46FAF17
:104480003548FDF7C5F9EB690A209A68B2EB0903D4
:1044900059425941FEF73CFC00287FF460AF64208C
:1044A000FCF706FDEE690B20B268B2EB0A0CDCF1FA
:1044B000000353EB0C01FEF72BFC064600287FF4AB
:1044C0004EAF202383F31188FCF7FAF8FDF730FA9A
:1044D000FCF70EF9334683F31188E9690C208A68EA
:1044E000B2EB090EDEF1000353EB0E01FEF710FCF8
:1044F00000287FF434AF6420FCF7DAFCE9690D2072
:104500008A68B2EB090359425941FEF701FC0028C1
:104510007FF425AFFDF74CFAEA690E2093681A1B69
:1045200051425141FEF7F4FB00287FF418AF05B06B
:10453000BDE8F046FEF784BC0C0E0020C0950008D4
:1045400074980008914500087014002070980008C5
:10455000714500081C0800200C0800203CA8000839
:1045600078980008AFF30080AFF30080AFF30080CD
:1045700008B59620FCF79CFC40F60C00C2F2000047
:10458000FDF746F9FDF78CF9002008BDAFF3008078
:1045900008B53220FCF78CFC40F61C00C2F200008B
:1045A000FDF736F9FDF77CF9002008BDAFF3008078
:1045B0002DE9F041304E84B0FEF792FCF369DFF84C
:1045C000DC809A6800252D4C4FF49871053A2C4BED
:1045D0000095D8F80000E768FCF7BAFBF169D8F855
:1045E0000430284C8A68039320604FF49871043A91
:1045F000254B00950398FCF7ABFBF169D8F8082030
:104600008B6803926060DA1E4FF498711F4B00951F
:104610000398FCF79DFBF169D8F80C208B68039296
:10462000A0609A1E4FF49871194B00950398FCF7FF
:104630008FFBF169D8F810608A68164B4FF49871B7
:10464000E060013A00953046FCF782FB2061FEF7FE
:10465000F7FB01201049FEF773FB10B104B0BDE871
:10466000F081022007F16E0107F1730204B0BDE88A
:10467000F041FEF7ADBB00BF0C0E0020FC0D00208A
:104680002148000870140020D1470008A147000805
:1046900081470008514700087C980008C095000831
:1046A0002DE9F041224E84B0FEF71AFCF369DFF8E1
:1046B0009C809A6800251F4C4FF49871013A1E4B5C
:1046C0000095D8F80000E768FCF742FBF169D8F8DC
:1046D00004308A68194C039320604FF49871023AB1
:1046E000174B00950398FCF733FBF169D8F8086085
:1046F0008A68144B4FF498716060033A0095304615
:10470000FCF726FBA060FEF79BFB01200E49FEF79D
:1047100017FB10B104B0BDE8F081022007F164017D
:1047200007F1690204B0BDE8F041FEF751BB00BFDC
:104730000C0E0020FC0D0020A14800087014002081
:104740008148000851480008009A0008C0950008F8
:1047500008B53220FCF7ACFB40F61C00C2F20000AA
:10476000FDF756F80A20FEF793FBFDF799F8412074
:10477000FEF7B6FA002008BDAFF30080AFF300806B
:1047800008B52820FCF794FB1420FEF781FB42209B
:10479000FEF7A6FA002008BDAFF30080AFF300805B
:1047A00008B51420FCF784FB40F61C00C2F20000A0
:1047B000FDF72EF80A20FEF76BFBFDF771F843209A
:1047C000FEF78EFA002008BDAFF30080AFF3008043
:1047D00008B50A20FCF76CFB40F61C00C2F2000092
:1047E000FDF716F81420FEF753FB40F60C00C2F25A
:1047F0000000FDF70DF80A20FEF74AFBFDF750F820
:104800000A20FEF745FBFDF74BF84420FEF768FA57
:10481000002008BDAFF30080AFF30080AFF300804D
:1048200040F60C0008B5C2F20000FCF7F1FF1E20B4
:10483000FEF72EFBFDF734F84520FEF751FA002075
:1048400008BD00BFAFF30080AFF30080AFF300807E
:1048500040F60C0008B5C2F20000FCF7D9FF282092
:10486000FEF716FBFDF71CF80A20FEF711FB4320AC
:10487000FEF736FA002008BDAFF30080AFF30080EA
:1048800008B51420FCF714FB2820FEF701FB42209A
:10489000FEF726FA002008BDAFF30080AFF30080DA
:1048A00008B52820FCF704FB40F60C00C2F200001B
:1048B000FCF7AEFF0A20FEF7EBFAFCF7F1FF412010
:1048C000FEF70EFA002008BDAFF30080AFF30080C2
:1048D00010B540F60C63C2F20003DC6949F2C05027
:1048E000A26882B0C0F6000044F661130132C0F63F
:1048F000000300944FF498710068FCF729FA41F224
:104900007041C2F200010860FDF7E2FB846B2146B2
:10491000FDF706FCE0B2FEF7E3F9FDF7D9FB846B87
:104920002146FDF7FDFBE0B2FEF7DAF9FDF7D0FB1B
:10493000846B2146FDF7F4FBE0B2FEF7D1F949F6AE
:1049400000210120C0F6000102B0BDE81040FEF7D2
:10495000F7B900BFAFF30080AFF30080AFF3008082
:1049600010B541210446FDF783FB42212046FDF7A7
:104970007FFB20464321FDF77BFB002010BD00BFDD
:10498000F0B5764C0120616A83B0B1F1050EDEF11D
:10499000000252EB0E01FEF7BBF9002845D142217F
:1049A00020464FF0FF32FDF74BFCD0F1010138BF3C
:1049B00000210220FEF7ACF9B8BB432120464FF09E
:1049C000FF32FDF73DFCD0F1010138BF002102208C
:1049D000FEF79EF948BB442120464FF0FF32FDF719
:1049E0002FFCD0F1010138BF00210220FEF790F921
:1049F000D8B9452120464FF0FF32FDF721FCD0F118
:104A0000010138BF00210220FEF782F968B9412177
:104A100020464FF0FF32FDF77BFCD0F1010138BF9B
:104A200000210320FEF774F908B103B0F0BD58214E
:104A300001222046FDF704FCB0F1FF30434253EB66
:104A400000010420FEF764F905460028EDD120237B
:104A500083F31188FBF734FE58212046FDF708FC4C
:104A60000646FBF745FE2B4683F311880520B6F179
:104A7000FF3251425141FEF74BF90028D5D1582160
:104A800001222046FDF744FCB0F1FF35684250EBAF
:104A900005010620FEF73CF905460028C5D1202374
:104AA00083F31188FBF70CFE58212046FDF748FCE4
:104AB0000646FBF71DFE2B4683F311880720B6F14F
:104AC000FF3CDCF1000353EB0C01FEF721F9002859
:104AD000ABD1202383F31188FBF7F2FD666A08202F
:104AE000D6F1010138BF0021FEF712F9264607462C
:104AF00068BBFBF7FDFD3B4683F31188202383F35E
:104B00001188FBF7DDFDA2690920B2F1050EDEF187
:104B1000000151EB0E01FEF7FBF8054600B3FBF771
:104B2000E7FD3B4683F311887FE7FBF7E1FD234672
:104B300083F31188202383F31188FBF7C1FD2968D3
:104B4000EB682F20CA1A51425141FEF7E1F8FBF7FA
:104B5000CFFD002383F3118867E700BF34080020EE
:104B6000FBF7C6FD2B4683F31188202383F31188BE
:104B7000FBF7A6FDE268A3680A20D61A71427141CC
:104B8000FEF7C6F80646002840F08982FBF7B0FD24
:104B9000334683F311880526C84D01A94FF0FF3233
:104BA0002846FDF71DFCD0F1010138BF00210B2084
:104BB000FEF7AEF800287FF438AF9DF80400FEF74A
:104BC0008FF8013EE8D10C20BD49FEF7B9F8002866
:104BD0007FF42BAF472128464FF0FF32FDF730FB23
:104BE000D0F1010138BF00210D20FEF791F8002817
:104BF0007FF41BAF01A928464FF0FF32FDF7F0FB11
:104C0000D0F1010138BF00210E20FEF781F8002805
:104C10007FF40BAF2A68AB680F20D21A5142514182
:104C2000FEF776F800287FF400AF2A68EB681020C2
:104C3000D21A51425141FEF76BF800287FF4F5AECD
:104C400001A901222846FDF7CBFBB0F1FF3043421A
:104C500053EB00011120FEF75BF800287FF4E5AE6E
:104C6000202383F31188FBF72BFD01A92846FDF7CC
:104C7000CFFB0746FBF73CFD334683F31188122038
:104C8000B7F1FF3CDCF1000252EB0C01FEF740F8FB
:104C900000287FF4CAAE202383F31188FBF710FDB0
:104CA000696A13204B1F5A4252EB0301FEF730F89A
:104CB00000287FF44CAFFBF71BFD002383F3118822
:104CC000202383F31188FBF7FBFCA4691420D4F1A3
:104CD000010138BF0021FEF71BF8784C054600287B
:104CE0007FF435AFFBF704FD2B4683F311882023B7
:104CF00083F31188FBF7E4FCE668A1681520731ABA
:104D00005A4252EB0301FEF703F80646002840F032
:104D1000C681FBF7EDFC334683F31188202383F330
:104D20001188FBF7CDFC41212046FDF7A1FAD0F117
:104D3000010138BF00211620FDF7EAFF00287FF4AB
:104D400074AE42212046FDF793FAD0F1010138BF3D
:104D500000211720FDF7DCFF00287FF466AE432119
:104D60002046FDF785FAD0F1010138BF0021182057
:104D7000FDF7CEFF00287FF458AE44212046FDF712
:104D800077FAD0F1010138BF00211920FDF7C0FFEB
:104D9000054600287FF449AE45212046FDF768FA14
:104DA0000646FBF7A5FC2B4683F311881A20D6F1A3
:104DB000010138BF0021FDF7ABFF00287FF435AEBD
:104DC000E168A3681B20B1EB030EDEF1000252EB99
:104DD0000E01FDF79DFF00287FF427AE0525202357
:104DE00083F31188354CFBF76BFC01A92046FDF7D6
:104DF0000FFB0646FBF77CFC002383F311881C2085
:104E0000F31A59425941FDF783FF00287FF40DAE94
:104E10009DF80400FDF764FF013DE0D11D20284905
:104E2000FDF78EFF00287FF400AE202383F3118866
:104E3000FBF746FC626A1E20531F59425941FDF799
:104E400067FF002840F02B81FBF752FC2B4683F3D1
:104E50001188202383F31188FBF732FCA2691F20FD
:104E6000D2F1010138BF0021FDF752FF002840F0C8
:104E70001681FBF73DFC2B4683F31188E168A3689C
:104E80002020CA1A51425141FDF742FF00287FF409
:104E9000CCAD202383F31188FBF712FC452120467B
:104EA000FDF74EFAD0F1010138BF00212120FDF7B6
:104EB0002FFF00287FF4B9AD04E000BF34080020C4
:104EC0007C98000844212046FDF73AFAD0F1010110
:104ED00038BF00212220FDF71BFF00287FF4A5AD7D
:104EE00043212046FDF72CFAD0F1010138BF002103
:104EF0002320FDF70DFF00287FF497AD42212046C7
:104F0000FDF71EFAD0F1010138BF00212420FDF782
:104F1000FFFE00287FF489AD644C41212046FDF757
:104F20000FFA0546FBF7E4FB002383F311882520E5
:104F3000B5EB030CDCF1000353EB0C01FDF7E8FECD
:104F400000287FF472ADA168E2682620B2EB010E62
:104F5000DEF1000353EB0E01FDF7DAFE00287FF4CB
:104F600064AD0524202383F31188504DFBF7A8FB83
:104F700001A92846FDF74CFA0646FBF7B9FB0023CA
:104F800083F311882720F21A51425141FDF7C0FEE8
:104F900000287FF44AAD9DF80400FDF7A1FE013C16
:104FA000E0D128204249FDF7CBFE00287FF43DAD3B
:104FB000202383F31188FBF783FB6B6A29205A1F98
:104FC00051425141FDF7A4FE002862D1FBF790FB4E
:104FD000234683F31188202383F31188FBF770FBAA
:104FE000AB692A20D3F1010138BF0021FDF790FE03
:104FF00000284ED1FBF77CFB234683F31188A96878
:10500000EA682B20B2EB010CDCF1000353EB0C013E
:10501000FDF77EFE00287FF408AD2846FDF7C0F8B6
:10502000202383F31188FBF74BFB6A6A2C20B2F133
:10503000050EDEF1000151EB0E01FDF769FE40BBEC
:10504000FBF756FB234683F31188202383F3118853
:10505000FBF736FBAB692D20D3F1010138BF0021EE
:10506000FDF756FEA8B9FBF743FB234683F31188EF
:10507000202383F31188FBF723FB2A68A9682E20DD
:10508000531A5A4252EB0301FDF742FE00283FF447
:105090004CADFBF72DFB234683F31188C5E4FBF7EA
:1050A00027FB2B4683F31188BFE400BF34080020A0
:1050B0007C980008AFF30080AFF30080AFF300806E
:1050C00040F6340040F65861C2F20000C2F200011E
:1050D0000522FDF745B800BFAFF30080AFF30080B5
:1050E0004FF0FF30FCF7F4BDAFF30080AFF300806A
:1050F0004FF0FF30FCF7ECBDAFF30080AFF3008062
:105100004FF0FF30FCF7E4BDAFF30080AFF3008059
:105110002DE9F04205208AB0FCF7F2FD4FF0FF3098
:10512000FCF7A6FE0138414241410120FDF7F0FDA8
:1051300010B10AB0BDE8F0824FF0FF30FCF798FEE6
:10514000021F534253EB02010220FDF7E1FD00284C
:10515000EFD14FF0FF30FCF7BBFDD0F1010138BFBC
:1051600000210320FDF7D4FD0028E2D1754D764FD4
:10517000FDF7B6FEEC693868A6680390734F721E9F
:105180004FF49871724B00940398FC68FBF7E0FDB4
:10519000704E30604FF0FF30FCF76AFE04F13201D0
:1051A000814604F137020420FDF712FE0028C0D129
:1051B0000520B9F1010251425141FDF7A9FD002836
:1051C000B7D14FF0FF30FCF783FDD0F1010138BFBC
:1051D00000210620FDF79CFD0028AAD1FDF730FE36
:1051E0000520FCF78DFD4FF0FF30FCF769FEB0F1B4
:1051F000050CDCF1000353EB0C010720FDF788FDE3
:10520000002896D14FF0FF30FCF762FDD0F101018C
:1052100038BF00210820FDF77BFD002889D1FDF76C
:105220005FFEEC694FF49871A068494B421E0094F0
:105230000398FC68FBF78CFD30604FF0FF30FCF703
:105240003FFE04F13201814604F137020920FDF7E7
:10525000BFFD00287FF46DAF0A20B9F1010EDEF129
:10526000000252EB0E01FDF753FD00287FF461AF01
:105270004FF0FF30FCF72CFDD0F1010138BF0021C9
:105280000B20FDF745FD00287FF453AFDFF8D490E5
:10529000314CFDF7D5FD484604A90122C9F800901C
:1052A0002460FCF7D5FC07A904222046FCF7D0FCBB
:1052B000FDF716FEED692948AB684FF498715A1E48
:1052C0000090274B0398FD68FBF742FD30600520F6
:1052D000FCF716FE0C2005F1320105F13702FDF74F
:1052E00077FD00287FF425AF4FF0FF30FCF7F0FC8E
:1052F000D0F1010138BF00210D20FDF709FD002884
:105300007FF417AFFDF79CFD484604A9FCF7C0FCED
:10531000204607A9FCF7BCFCD9F800100E20B1EB21
:105320000902534253EB0201FDF7F2FC00287FF41F
:1053300000AF21680F200A1B534253EB0201FDF717
:10534000E7FCF6E60C0E0020C0950008FC0D0020DE
:10535000A153000870140020600800207098000815
:10536000715300085C080020AFF30080AFF30080A9
:1053700040F65C0008B50021C2F20000FCF738FDE1
:105380003220FBF795FD40F66000C2F200000021DC
:10539000FCF72EFD002008BDAFF30080AFF30080C6
:1053A00010B504463220FBF783FD20460121FCF7AF
:1053B000E7FC002010BD00BFAFF30080AFF300801A
:1053C00010B51E4C86B00122204669462460FCF7C9
:1053D0003FFC204603A90222FCF73AFC2168012089
:1053E000091B18BF0121FDF793FC08B106B010BDE1
:1053F00020466946FCF74CFC22680220111B18BFAE
:105400000121FDF785FC0028F0D1204603A9FCF717
:105410003FFC23680320B3EB040EDEF1000151EBE7
:105420000E01FDF775FC0028E0D107210448FCF7C8
:10543000F7FC04200349FDF783FCD7E75C08002054
:10544000609C0008009A0008AFF30080AFF3008072
:105450004320FDF745BC00BFAFF30080AFF30080F1
:105460004220FDF73DBC00BFAFF30080AFF30080EA
:105470004120FDF735BC00BFAFF30080AFF30080E3
:1054800008B500214FF0FF30FCF75AFDD0F10101C3
:1054900038BF00210120FDF73BFC00B108BD0146EB
:1054A0004FF0FF30FCF77CFDD0F1010138BF002147
:1054B0000220FDF72DFC0028F0D101464FF0FF300F
:1054C000FCF79EFDD0F1010138BF00210320FDF75C
:1054D0001FFC0028E2D10A214FF0FF30FCF730FD1D
:1054E000D0F1010138BF00210420FDF711FC002894
:1054F000D4D10A214FF0FF30FCF752FDD0F1010169
:1055000038BF00210520FDF703FC0028C6D10A2181
:105510004FF0FF30FCF774FDD0F1010138BF0021DE
:105520000620BDE80840FDF7F3BB00BFAFF30080E5
:1055300070B582B0FDF7A4F901A90020FDF780FA4B
:1055400010210020FDF7DCF9011C18BF01210446E1
:105550000120FDF7DDFB054608B102B070BD204615
:10556000FDF716FA6FF0FF012846FDF7C9F9D0F1F3
:10557000010138BF00210220FDF7CAFB0028ECD151
:1055800001A97E48FDF75CFA10217C48FDF7B8F9C7
:10559000102105467948FDF7B3F9102104467748F4
:1055A000FDF7AEF906462846FDF7F2F92046FDF76D
:1055B000EFF93046FDF7ECF969467048FDF740FA1F
:1055C000B0F1010EDEF1000151EB0E010320FDF7F9
:1055D0009FFB0028C1D110216848FDF791F91021E7
:1055E00004466648FDF78CF9102105466348FDF72F
:1055F00087F9FDF7CDF92846FDF7CAF92046FDF7F2
:10560000C7F969465D48FDF71BFA0138424252EB83
:1056100000010420FDF77CFB00289ED11121574892
:10562000FDF76EF9102104465448FDF769F9054667
:105630002046FDF7ADF969465048FDF701FA831E93
:10564000594259410520FDF763FB002885D11021FF
:105650004A48FDF755F9694604464848FDF7F0F910
:10566000012800F0898069464448FDF7E9F90238CD
:10567000424252EB00010620FDF74AFB00287FF46E
:105680006CAF2846FDF784F92046FDF781F969469D
:105690003A48FDF7D5F9B0F1010CDCF1000353EB0A
:1056A0000C010720FDF734FB00287FF456AF1021D2
:1056B0003248FDF725F9102105463048FDF720F95D
:1056C00004462846FDF764F969462C48FDF7B8F909
:1056D000B0F1020EDEF1000151EB0E010820FDF7E2
:1056E00017FB00287FF439AF20212448FDF708F983
:1056F000FDF74EF92046FDF74BF969461F48FDF7C7
:105700009FF90138424252EB00010920FDF700FBEE
:1057100000287FF422AF69461848FDF791F90099F7
:105720001648FDF7EDF8694604461448FDF788F978
:10573000D0F1010138BF00210A20FDF7E9FA002865
:105740007FF40BAF2046FDF723F969460B48FDF7C0
:1057500077F9431E594259410B20FDF7D9FA002829
:105760007FF4FBAE9DE80A000C20CA1A534253EBAB
:105770000201FDF7CDFAF0E601467CE7981400201F
:1057800041F2984040F65861C2F20000C2F20001B6
:105790004FF4BE62FDF794B8AFF30080AFF3008022
:1057A00000207047AFF30080AFF30080AFF30080BC
:1057B00040F66400C2F200004FF498710022FDF739
:1057C0005FB900BFAFF30080AFF30080AFF300809C
:1057D00010B5324C32482168FDF7B2F930486168A3
:1057E000FDF7AEF92E48A168FDF7AAF92C48E1684B
:1057F000FDF7A6F921692A48FDF7A2F92848FDF727
:105800006FF9011C18BF01210120FDF781FA002862
:1058100032D12348FDF764F9011C18BF0121012092
:10582000FDF776FA40BB1E48FDF75AF9011C18BF78
:1058300001210120FDF76CFAF0B91948FDF750F984
:10584000011C18BF01210120FDF762FAA0B914481C
:10585000FDF746F9011C18BF01210120FDF758FA98
:1058600050B90F48FDF73CF9D0F1010138BF0021D4
:105870000220FDF74DFA00B110BD1021094A084879
:10588000FDF7FEF80648FDF72BF9D0F1010138BF0E
:1058900000210320BDE81040FDF73ABAC09500088A
:1058A00064080020A1570008AFF30080AFF3008028
:1058B00038B50546FBF794FC002403461846AB4276
:1058C00008BF44F00104FBF7A3FC03460028F5D110
:1058D000204638BDAFF30080AFF30080AFF3008007
:1058E00010B54D4B4D4CD86982B082684FF4987119
:1058F0000094013A4A4B4B48FBF7FAFB90F8221010
:1059000004460120B1EB000CDCF1000353EB0C0169
:10591000FDF7FEF908B102B010BD2046FBF788FB89
:1059200094F822200220B2EB000EDEF1000151EBD0
:105930000E01FDF7EDF90028EDD12046FBF798FBAD
:1059400094F8223003205A1E51425141FDF7E0F9EC
:105950000028E0D12046FFF7ABFF01460420FDF709
:10596000D7F90028D7D12046FFF7A2FF014605202E
:10597000FDF7CEF90028CED12046FBF779FB94F84D
:1059800022300620D3F1010138BF0021FDF7C0F914
:105990000028C0D194F820200720D2F1010138BF9F
:1059A0000021FDF7B5F90028B5D12046FFF780FFAB
:1059B00001460820FDF7ACF90028ACD12046FFF7DE
:1059C00077FF01460920FDF7A3F90028A3D1322073
:1059D000FBF76EFA94F820100A20B1F10E035A4238
:1059E00052EB0301FDF794F9002894D12046FFF70C
:1059F0005FFF01460B20FDF78BF900288BD1204675
:105A0000FFF756FFD0F1010138BF00210C2002B092
:105A1000BDE81040FDF77CB90C0E0020709800081E
:105A2000315A0008C8140020AFF30080AFF30080A3
:105A300008B50078FDF754F9002008BDAFF30080E9
:105A400041F2C84040F65861C2F20000C2F20001C3
:105A50004FF4BE62FCF734BFAFF30080AFF30080B9
:105A600041F2C84040F65861C2F20000C2F20001A3
:105A70004FF4BE62FCF724BFAFF30080AFF30080A9
:105A800038B5444B444CDA69216844489568FDF7C1
:105A900057F861684148FDF753F8A1683F48FDF7A2
:105AA0004FF8E1683D48FDF74BF8691E3C4A3D4B15
:105AB0003A48FBF755FB3C4CA91E2060384A3B4B4B
:105AC0003648FBF74DFBE91E6060354A384B3348DA
:105AD000FBF746FB291FA060314A364B2F48FBF7E6
