:020000040800F2
:1000000000040020610200083104000831040008E7
:1000100031040008310400083104000831040008EC
:1000200031040008310400083104000851040008BC
:1000300031040008310400083104000831050008CB
:1000400031040008310400083104000831040008BC
:1000500031040008310400083104000831040008AC
:10006000310400083104000831040008416500082B
:1000700071650008A1650008D165000801660008E7
:100080003166000861660008310400083104000888
:10009000310400083104000831040008310400086C
:1000A000310400083104000831040008310400085C
:1000B000310400083104000831040008310400084C
:1000C000310400083104000831040008310400083C
:1000D0003104000831040008416A000831040008B6
:1000E000310400083104000831040008310400081C
:1000F000310400083104000831040008310400080C
:1001000031040008A16E0008310400083104000821
:1001100031040008310400083104000831040008EB
:1001200091660008C1660008F166000821670008B2
:10013000F0B5354889B009F03BFB05F031FF00F020
:1001400067FA4FF4406080210622C4F2010007F0F4
:1001500027FA4FF4406020210422C4F2010007F086
:100160001FFA4FF4406004221021C4F2010007F08E
:1001700017FA264E00212648264D06F061F926483A
:10018000002105F05DFF08F01BFC36602D60202388
:1001900083F311880A24214F21482146214A1E4B0E
:1001A0003C6000F0A5FA002383F311881C464FF44D
:1001B000B6611D4B7F2200941C4800F029FC30469C
:1001C00002A9012201F0ECF8284605A9022201F05B
:1001D000E7F864B1237F0E2B11D04FF0FF3001F010
:1001E00097F90146124801F07BF9002CF2D1114831
:1001F0004FF40B61402208F0EBFB0446EDE720468C
:1002000000F0EEFC0024E8E700C40008901C002089
:10021000DC19002094200020501A0020942800208F
:10022000CC220020B191000871910008E02200204A
:10023000B0C1000810C50008AFF30080AFF3008024
:10024000704700BFAFF30080AFF30080AFF30080D2
:10025000FEE700BFAFF30080AFF30080AFF3008094
:1002600072B6644C84F30988022383F31488BFF3C5
:100270006F8F61486149884218D2CA1C051D531B03
:1002800023F00302034610184FF0553183421960E2
:10029000C2F380020AD01AB185422B46296005D0EC
:1002A0001D1D5960083383426960F9D15448A0424A
:1002B00018D25449041D0A1B22F0030503462818CE
:1002C0004FF0553183421960C5F380020AD01AB14C
:1002D00084422346216005D01D1D596008338342A6
:1002E0006960F9D107F004FA4749484881421BD2B6
:1002F000C61C0C1D321B464822F00302161D056861
:100300000423B3420D60C2F380020DD022B14568D0
:100310000823B342256007D01D581A1D5D5084582C
:100320000833B3428C50F7D13A483B49884217D240
:10033000CB1C041D1A1B22F00305034628180021BC
:1003400083421960C5F380020AD01AB18442234661
:10035000216005D01D1D5960083383426960F9D1C1
:10036000FFF76EFF2D4D2E498D421DD2CC1C2E1D48
:10037000A71BB808471C01242A6800EA0408904714
:10038000BC4211D0B8F1000F05D033680224984761
:10039000BC42354608D0696888470234A8682E1DDB
:1003A00080470835BC42F6D1FFF7C2FE1D4D1E4AFC
:1003B00095421DD2D41C2E1DA71BBB085F1C012417
:1003C000296803EA04088847BC4211D0B8F1000F3D
:1003D00005D0306802248047BC42354608D06A68A0
:1003E00090470234AB682E1D98470835BC42F6D1C1
:1003F000FFF72EFF0008002000000020000400206E
:100400000004002003080020000800200C11002038
:1004100028C6000810110020D02800203001000854
:10042000300100083001000830010008AFF30080FF
:10043000FEE700BFAFF30080AFF30080AFF30080B2
:1004400000F056FA00DF00BFAFF30080AFF300808A
:10045000EFF30983203383F30988002383F31188A2
:10046000704700BFAFF30080AFF30080AFF30080B0
:1004700008B500224FF46D43CEF20003C0F2FA52E9
:100480000021996007201021DA6000F099F80A2015
:100490004FF4007100F094F80B208021BDE8084073
:1004A00000F08EB8AFF30080AFF30080AFF30080B0
:1004B000202383F311884FF46D43CEF20003586874
:1004C00010F4006319D0EFF30983A3F1200282F343
:1004D0000988124A4FF08070916943F8040C79B191
:1004E0001168D06989688268914294BF0022012214
:1004F00082B10B4843F8080C704783F311887047AA
:100500001168D26988689268904234BF0022012243
:10051000002AEED1034A43F8082C70472812002025
:100520004104000844040008AFF30080AFF30080EA
:1005300008B5202383F3118800F0A2F8002383F389
:100540001188BDE80840FFF7B3BF00BFAFF30080DC
:100550002DE9F04FC1F80CD0D0F80CD0BDE8F08FE9
:10056000002383F311882846A04700F001FB704761
:1005700000F0030370B4DA00FF2505FA02F500F07D
:100580001F0401FA02F1012202FA04F24FF461435E
:100590008408CEF20003C03453F82460400926EAF0
:1005A00005050D4300F1600643F8245043F826206A
:1005B00043F8202070BC7047AFF30080AFF3008099
:1005C00000F0030310B4FF22DC0002FA04F201FA87
:1005D00004F180084FF46D43CEF20003063053F867
:1005E000204024EA02020A4343F8202010BC70474E
:1005F000024B034AD8698261FEE700BF281200203F
:1006000040B20008AFF30080AFF30080AFF300808A
:1006100000B583B0FFF72CFF00F0E2F800F058F8C7
:1006200001F03EFB01F084FB41F210104021C2F2C8
:10063000000000F08DF941F22821C2F200010122F0
:10064000C8610277002383F3118862B64BF2502011
:10065000C969C0F600008861009341F2581040F269
:10066000F153C021C0F60003C2F2000000F0D0F93F
:1006700003B000BDAFF30080AFF30080AFF30080A4
:1006800038B5104B9A69002A01DD501E9861DA696D
:100690000D4C116A2368481C1062E268511CA34289
:1006A000E1600ED09D68013D9D6055B91A68D9681A
:1006B0001869DD60546022608847236898680028C4
:1006C000F4D038BD2812002018120020AFF30080AB
:1006D00041F21823C2F200034FF0FF3200205B60AA
:1006E0001B609A60D8607047AFF30080AFF3008062
:1006F00070B40C4E03613468C260A568A94204D985
:100700002468491BA5688D42FAD36368B44204602B
:10071000436018606060816002D0A068411AA160E7
:1007200070BC704718120020AFF30080AFF3008058
:100730000368074A934203D09968826889189960D0
:100740004268002113600368C1605A60704700BFAF
:1007500018120020AFF30080AFF30080AFF30080E9
:10076000094B8142DA6805D9824201D38A4203D318
:1007700000207047824201D3012070478A422CBF7B
:1007800000200120704700BF18120020AFF3008046
:10079000037F0D2B11D8DFE803F020101007100B9A
:1007A000101010101010100B416A8A68531C8B60D7
:1007B00090E80C001A6001684B604FF0FF32426213
:1007C00081680022054B02771B689A688A42FBD237
:1007D0005968036041600860586070472812002023
:1007E00041F22823C2F20003002214205B601B6048
:1007F0009A6098615B611B61704700BFAFF3008036
:1008000000228168054B02771B689A688A42FBD2F6
:1008100059680360416008605860704728120020E2
:1008200041F2282330B4C2F200031A68D96914686F
:100830000877142098610125104663601C60DA6116
:10084000157730BCFFF784BEAFF30080AFF30080B4
:1008500030B54B1C87B0054611D00B4C0B4AE369F1
:1008600001A8FFF745FF2846FFF7DAFF049B13B105
:1008700001A8FFF75DFFE069406A07B030BDFFF7F0
:10088000CFFF014CF7E700BF2812002091070008B6
:10089000F0B4154F0446FE698568B06800238542B0
:1008A00061620CD823773946096888688542FBD98C
:1008B0004B68216063601C604C60F0BC704733770C
:1008C000394609688A689042FBD94868316070608F
:1008D00006604E600123142220463146FC61BA6155
:1008E0002377F0BCFFF734BE28120020AFF300805E
:1008F0000E4A30B41068D169036814258C681360FF
:1009000095615A60D06101220277002203460A777E
:1009100000E01B689A68A242FBD25A680B604A60EA
:100920001160596030BCFFF713BE00BF28120020D1
:10093000044B1A68D86991688368994200D8704757
:10094000FFF7D6BF28120020AFF30080AFF300807E
:10095000F0B441F22824C2F200046569002200F1DB
:100960002C06816000F128074FF0020C0164012180
:100970000461456180F81CC060614277C263826394
:10098000026281778261286187620663C662F0BC79
:10099000704700BFAFF30080AFF30080AFF300807B
:1009A0002DE9F003243941F228254718C2F2000549
:1009B000D5F814C0C7604350069B40F26151C0F6A1
:1009C00000017B6039620026904600F1280900F1A1
:1009D0002C02022301210561C0F80880C0F814C070
:1009E0000446686103774677C0F84080C663866333
:1009F000066281778661CCF81000C0F82890026307
:100A0000C262BDE8F0037047AFF30080AFF300802F
:100A100010B51C4682B0202383F311882346049C22
:100A20000094FFF7BDFF00210446FFF731FF0023CC
:100A300083F31188204602B010BD00BFAFF30080E1
:100A400010B5202383F31188084BDA69146C916880
:100A50008C4201D0814200D290601064FFF768FFA1
:100A6000002383F31188204610BD00BF2812002008
:100A700010B52023044683F311880021FFF708FFF7
:100A8000002383F31188204610BD00BFAFF3008020
:100A9000202383F31188427F002342F00401417731
:100AA00083F31188704700BFAFF30080AFF300807D
:100AB00008B50146202383F311880620FFF7C8FEFE
:100AC000002383F3118808BDAFF30080AFF30080EB
:100AD00008B5202383F31188054BD968411A02D049
:100AE0000620FFF7B5FE002383F3118808BD00BF81
:100AF00018120020AFF30080AFF30080AFF3008046
:100B000008B5202383F31188064B1A68D8699168C9
:100B10008368994201D3FFF7EBFE002383F311882A
:100B200008BD00BF28120020AFF30080AFF30080A3
:100B300038B50E4BDC69254655F8281F6062A9427E
:100B400007D00A680846A262FFF75AFEA16AA942C6
:100B5000F7D1607F830704D1636922691A61216933
:100B60004B610E20BDE83840FFF75ABE2812002026
:100B7000202383F31188FFF7DBBF00BFAFF30080B2
:100B800038B50446202383F31188037F0E2B07D04A
:100B9000826A0848C16907200A60A162FFF740FE27
:100BA000656A002383F31188204600F019F828466F
:100BB00038BD00BF28120020AFF30080AFF30080E3
:100BC000202383F31188817F00230131817783F310
:100BD00011887047AFF30080AFF30080AFF300805F
:100BE0000146202383F31188827F0023013AD2B289
:100BF000827783F3118812B9037F0E2B00D07047E0
:100C0000427F02F00303012B09D0022BF7D1436985
:100C10000269406C1A610A69536101F079B943694C
:100C200002691A6101694B6101F0EAB8AFF3008013
:100C3000F0B583B00D4617461E4601F099F80446FC
:100C400090B1202383F31188089C334629463A4605
:100C50000094FFF7A5FE0123437700210446FFF728
:100C600017FE002383F31188204603B0F0BD00BFB8
:100C70002DE9F04182B005460F4690461E4601F030
:100C80002FF9044690B1202383F311886968434605
:100C90003A460096FFF784FE02234377456400211D
:100CA0000446FFF7F5FD002383F31188204602B0C8
:100CB000BDE8F081AFF30080AFF30080AFF30080B8
:100CC000202383F3118841F22823C2F2000318691C
:100CD0000023827F511C817783F31188704700BF06
:100CE00010B5202383F31188074B04699C4209D077
:100CF000A17F4A1CA277002383F31188FFF770FFBE
:100D0000204610BD0024F6E728120020AFF3008033
:100D10004060006081607047AFF30080AFF30080F7
:100D2000F8B5856804460135002D816029DC4068EE
:100D30006FF0010743686E1C63601C60FFF760FD85
:100D400005F001014762EDB149B1606801364268C2
:100D500062601460FFF754FD012E476213D0606893
:100D6000751C4368023663601C60FFF749FD4762EB
:100D70006068416861600C60FFF742FD4762002DCA
:100D8000EDD1F8BDF8BDF8BDAFF30080AFF3008042
:100D900008B5202383F31188FFF7C2FFFFF7C8FDD2
:100DA000002383F3118808BDAFF30080AFF3008008
:100DB00082680346501E002810B5986001DB0020B1
:100DC00010BD074C0320E2695362596813605160FB
:100DD0005A600A60FFF724FDE369586A10BD00BF3E
:100DE00028120020AFF30080AFF30080AFF3008043
:100DF00008B5202383F31188FFF7DAFF002383F37C
:100E0000118808BDAFF30080AFF30080AFF300801E
:100E10000346806810B4421E002A0C469A6002DB2A
:100E2000002010BC704759B1074C0320E26953629F
:100E30005C6882E818005A60226010BCFFF708BDA9
:100E400098604FF0FF30ECE728120020AFF30080ED
:100E500008B5202383F31188FFF7DAFF002383F31B
:100E6000118808BDAFF30080AFF30080AFF30080BE
:100E700008B50246202383F311888368581C002894
:100E8000906003DD002383F3118808BD1068002102
:100E9000036813605A60FFF7FBFCF3E7AFF30080D1
:100EA00082680346501C0028986000DD70471A686D
:100EB0001168104619604B6000235362FFF7A0BC15
:100EC000F8B50D1E044636DD83680026581C6A1EE0
:100ED000B042A06002F001072EDD013D2BD077B1BA
:100EE000A3685A1C002AA2602EDD013D07D133E021
:100EF000A168481C0028A06013DD013D1AD0A0683D
:100F0000013D431C002BA360F2DC206802682260D4
:100F10005460FFF775FC4662A168481C0028A06079
:100F2000EBDC2068036823605C60FFF769FC013D2F
:100F30004662E4D1F8BDF8BD2068016821604C60CC
:100F4000FFF75EFC4662C8E72068016821604C60DC
:100F5000FFF756FC4662C8E7F8BD00BFAFF300805C
:100F600010B5024682B0202383F311888368581C91
:100F70000028906019DD8A68501E0028886007DB11
:100F8000FFF7D6FC0020002383F3118802B010BDC8
:100F90000B4C4B68E469032084E80A004C601C6039
:100FA0006162FFF73DFC606AEDE71068036813605B
:100FB0005A600191FFF724FC002141620199DAE7B0
:100FC00028120020AFF30080AFF30080AFF3008061
:100FD0000023406000608360704700BFAFF3008073
:100FE000F8B52F4A83680546D469002B51D0A16813
:100FF0009868814206D91A7F9960042A31D0052A5F
:101000001CD092B128460068854203D08368A1684D
:101010008B42F8D242682060626044600420146011
:101020006562BDE8F840FFF7FBBB93E8060011607E
:10103000196818464A60FFF7E3FBE3E758681F6842
:101040005E6A07601F68324678601268964202D076
:1010500090688842F9D251681A6059600B605360F9
:10106000D0E758681F685E6A07601F68324678607C
:101070001268964212D090688842F9D251681A607C
:1010800059600B605360B368A1689A688A42B2D312
:10109000B8E7E36B8460C360E063F8BD3246EDE718
:1010A00028120020AFF30080AFF30080AFF3008080
:1010B00008B5202383F31188FFF792FF002383F301
:1010C000118808BDAFF30080AFF30080AFF300805C
:1010D0000246202383F31188836823B10020002374
:1010E00083F31188704704490120CB69D96B936061
:1010F000D160DA63F3E700BF28120020AFF300806D
:10110000154A38B5D069202383F31188C46B25684C
:10111000E368A542C3631CD0016C4BB11A689A42C4
:1011200003D09268914238BF1146DB68002BF5D19D
:101130002B68EA6B8160236028465C600021A56013
:10114000E260EC63FFF7A4FB002383F311882046E1
:1011500038BD0023A360F7E728120020AFF300801A
:1011600038B5124BD869C46B2568E368A542C363E0
:1011700018D0016C4BB11A689A4203D09268914220
:1011800038BF1146DB68002BF5D12B68EA6B816014
:10119000236028465C60A560E260EC63FFF730FBEB
:1011A000204638BD0021A160204638BD281200200D
:1011B000134A70B52023D46983F31188E36BD3B14C
:1011C00000260AE01168D56B19604B609A60DD60FB
:1011D000D363FFF715FBE36B4BB11A68D9689A42EA
:1011E0001046E163EED19E60E36B002BF5D1206CDD
:1011F000A060FFF79DFB002383F3118870BD00BF43
:1012000028120020AFF30080AFF30080AFF300801E
:1012100040600060704700BFAFF30080AFF3008014
:1012200008B50246202383F311880068904205D058
:101230000368002113605A60FFF72AFB002383F341
:10124000118808BDAFF30080AFF30080AFF30080DA
:1012500008B503460068984206D002681A605360D9
:10126000FFF7CEFA0021416208BD00BFAFF3008056
:1012700038B504460068A0420AD06FF00105036843
:1012800023605C60FFF7BCFA45622068A042F6D19B
:1012900038BD00BFAFF30080AFF30080AFF3008034
:1012A00008B5202383F31188FFF7E2FFFFF740FB27
:1012B000002383F3118808BDAFF30080AFF30080F3
:1012C000F8B5104B0546DC69FFF74AFF2E46074686
:1012D0006562284603E08168A268914210D30068E5
:1012E0008542F8D17368266063601C6074600520D5
:1012F000FFF796FA646A3846FFF772FE2046F8BD9B
:101300000646EFE728120020AFF30080AFF300801D
:1013100008B5202383F31188FFF7D2FF002383F35E
:10132000118808BDAFF30080AFF30080AFF30080F9
:101330002DE9F04106468846FFF712FF0E4A0746A0
:10134000D069334646621B689E4203D09D6884681C
:10135000A542F8D25C68414680E8180020605860D9
:101360000520FFF775FA431C044602D03846FFF704
:1013700037FE2046BDE8F08128120020AFF3008040
:1013800008B5202383F31188FFF7D2FF002383F3EE
:10139000118808BDAFF30080AFF30080AFF3008089
:1013A00030B4202383F3118841F22823C2F20003D2
:1013B000DC69056800230D6001604C608A6083F37E
:1013C000118830BC704700BFAFF30080AFF30080DE
:1013D000202383F31188024600E01A4613688342F3
:1013E00003D09942F9D108681060002383F3118873
:1013F000704700BFAFF30080AFF30080AFF3008011
:1014000010B4202383F3118841F22823C2F2000391
:10141000D96900238A6B22EA00048C6383F3118864
:10142000104010BC704700BFAFF30080AFF30080E6
:10143000202383F3118841F22823C2F20003DA69E2
:101440000023916B0843906383F31188704700BFBA
:1014500008B5826B037F1143082B81630BD0092BE6
:1014600000D008BD426A11408A42FAD1FFF7C8F99C
:101470000021416208BD436A1942F7D108BD00BF8F
:1014800008B5202383F31188FFF7E2FFFFF750FA36
:10149000002383F3118808BDAFF30080AFF3008011
:1014A00070B504680546A0420E4607D0A168606882
:1014B0003143FFF7CDFF2468A542F7D170BD00BFCF
:1014C00008B5202383F31188FFF7EAFFFFF730FA0E
:1014D000002383F3118808BDAFF30080AFF30080D1
:1014E000F8B50D46074689B10024012601E0013414
:1014F00065B106FA04F32B42F9D057F824202046B0
:1015000025EA030501349047002DF2D1F8BD00BF54
:1015100038B50D4B0546DC69202383F31188A16B98
:1015200010EA010206D160620820FFF779F9A16B89
:1015300005EA01025042104021EA0001A1630023A4
:1015400083F3118838BD00BF28120020AFF300805C
:1015500038B50B4B0546DC69202383F31188A16B5A
:10156000084006D108206562FFF75AF9A16B05EA29
:10157000010021EA0001A163002383F3118838BD33
:1015800028120020AFF30080AFF30080AFF300809B
:1015900038B50C4B0446DD69202383F31188A86B12
:1015A00004EA0002A24204D009206C62FFF738F975
:1015B000A86B20EA0400A863002383F31188204667
:1015C00038BD00BF28120020AFF30080AFF30080C9
:1015D000114B70B5DE690546202383F31188B06B8B
:1015E00015EA00040ED121B9234683F31188204661
:1015F00070BD08207562FFF72BF90028F4DBB06B93
:1016000005EA000461420C4020EA0400B0630023B4
:1016100083F31188204670BD28120020AFF30080AC
:10162000104B70B5DE690446202383F31188B26B3A
:1016300014EA02050ED121B92B4683F311882846FE
:1016400070BD08207462FFF703F90028F4DBB26B69
:1016500004EA020522EA0502B263002383F311883B
:10166000284670BD28120020AFF30080AFF3008041
:1016700038B5134B0446DD69202383F31188AA6B28
:1016800004EA0203A3420DD029B90B4683F3118863
:101690000C46204638BD09206C62FFF7D9F80028B7
:1016A00008DBAA6B22EA0402AA63002383F31188F1
:1016B000204638BD002383F311881C46F8E700BF9D
:1016C00028120020AFF30080AFF30080AFF300805A
:1016D00070B50E4BDC69202383F3118800F12C05D3
:1016E0006562067F036B0C2E256061636360046393
:1016F0001C6007D00A20FFF793F8606A002383F389
:10170000118870BDFFF77CF8F4E700BF28120020B5
:1017100010B5202383F311880B4CE3691A4652F865
:101720002C0F904208D00168D9624A600B220277E0
:10173000002383F3118810BD0C20FFF771F8E369D3
:101740001A4652F82C0FEEE728120020AFF3008063
:1017500008B5202383F31188FFF79AF8002383F359
:10176000118808BDAFF30080AFF30080AFF30080B5
:1017700038B50B46044601EB820500F11C0011460A
:10178000E360A36084E82800FFF7C2FA04F11000C8
:101790000021BDE83840FFF7BBBA00BFAFF30080BF
:1017A00010B52023044683F3118803684168E36081
:1017B000CA1A9110A36000F11C00FFF7B1FA04F1FE
:1017C00010000021FFF7ACFAFFF7B2F8002383F313
:1017D000118810BDAFF30080AFF30080AFF300803D
:1017E00070B504460E4600F11C001146FFF710FBD1
:1017F000054678B9A368626843F8046B9342A36016
:1018000028BF236804F1100028BFA360FFF748FB3E
:10181000FFF78EF8284670BDAFF30080AFF300806D
:1018200008B5202383F31188FFF7DAFF002383F341
:10183000118808BDAFF30080AFF30080AFF30080E4
:10184000426A10B5002A0FDD83684468013A42629B
:1018500043F8041BA342836024BF036883601030F5
:10186000FFF71EFB002010BD4FF0FF3010BD00BF82
:1018700070B504460E4600F11C001146FFF7C8FA89
:10188000054660B9E3682268191F9142E16008D3F8
:1018900004F110000E60FFF703FBFFF749F828463C
:1018A00070BD6068011FE160F2E700BFAFF3008028
:1018B00008B5202383F31188FFF7DAFF002383F3B1
:1018C000118808BDAFF30080AFF30080AFF3008054
:1018D000426A10B5002A10DDC3680468043B013A6F
:1018E000A3424262C36002D24368043BC36010302B
:1018F0001960FFF7D5FA002010BD4FF0FF3010BD82
:1019000070B504460E4600F110001146FFF780FA4C
:10191000054678B9E368626853F8041B04F11C00BB
:1019200093423160E36024BF2368E360FFF7B8FAB5
:10193000FEF7FEFF284670BDAFF30080AFF30080D6
:1019400008B5202383F31188FFF7DAFF002383F320
:10195000118808BDAFF30080AFF30080AFF30080C3
:10196000826910B5002A10DDC368541E846153F8E3
:10197000044B42680C609342C36024BF0368C36099
:101980001C30FFF78DFA002010BD4FF0FF3010BD66
:1019900010B4024659B1084B0D20DB695A625468F5
:1019A00083E814005360236010BCFEF751BF4FF072
:1019B000FF3010BC704700BF28120020AFF300803A
:1019C00010B48A1800244060006084604161816125
:1019D000C1600261C36110BC704700BFAFF30080FB
:1019E00038B50446C36800680021A0426361A36162
:1019F000A1600AD06FF00105026822605460FEF712
:101A0000FFFE45622068A042F6D138BDAFF30080EA
:101A1000426908B5034680698242986818D001304F
:101A2000986002F8011B19695A618A4228BFDA6876
:101A3000186828BF5A61984208D002681A6053603B
:101A4000FEF7DEFE00234362184608BD002008BDF5
:101A50000028E4D06FF0030008BD00BFAFF30080A2
:101A600070B5202304460E4683F31188C36903B181
:101A70009847A568204631463DB9FFF789FF002801
:101A8000F7DA2B4683F3118870BDA169013DA5608B
:101A900011F8010B2269A161914224BFE168A161A3
:101AA000002383F3118870BDAFF30080AFF3008093
:101AB0002DE9F0471E460446C769202383F31188A9
:101AC0004FF0000801F1010901EB020A0FB12046B5
:101AD000B847A568204631464DB9FFF759FF0028A1
:101AE000F7D02B4683F311884046BDE8F087A36901
:101AF000013DA56013F8012B09F8012C2069A361B1
:101B0000834224BFE368A361002383F31188D14596
:101B100008F10108E8D0202383F3118809F10109B5
:101B2000D4E700BFAFF30080AFF30080AFF30080D5
:101B300010B48C1840600060826041618161C160B6
:101B40000461C36110BC7047AFF30080AFF3008045
:101B500038B502690446C3680068D11AA0426361BF
:101B6000A361A1600AD06FF00105036823605C6087
:101B7000FEF746FE45622068A042F6D138BD00BFA0
:101B8000F8B504460F461646202383F31188A5684E
:101B9000204631463DB9FFF7FBFE0028F7DA2B4619
:101BA00083F31188F8BD6369013DA56003F8017BEB
:101BB00022696361934228BFE368E16928BF6361DA
:101BC00009B120468847002383F311881846F8BDE1
:101BD000826941690346914210B5806816D0441C61
:101BE0009C6012F8014B19699A618A4228BFDA6831
:101BF000186828BF9A61984206D002681A6053603C
:101C0000FEF7FEFD00234362204610BD0028E6D00B
:101C10006FF0020010BD00BFAFF30080AFF3008093
:101C20002DE9F0479A46044688461646D0F81C909F
:101C3000202383F311880027A56820466B1EEDB191
:101C4000A360656918F8011B05F8011B226965612D
:101C5000954224BFE2686261B9F1000F00D0C84725
:101C6000002383F311880137013E10D0202383F332
:101C70001188A56820466B1E002DE1D120465146F3
:101C8000FFF786FE0028D7D02B4683F3118838460D
:101C9000BDE8F087AFF30080AFF30080AFF30080C2
:101CA00040F20001084841F24C2241F24823C2F2BE
:101CB0000101C2F2000220F00700C2F2000321F08D
:101CC0000701106019607047D7280020AFF300802B
:101CD000202383F31188094B09491A6809680730E2
:101CE00020F00700891A88429ABF10181860002255
:101CF000002383F311881046704700BF4C12002068
:101D000048120020AFF30080AFF30080AFF30080F3
:101D100041F2482241F24C23C2F20002C2F2000317
:101D200010681968401A7047AFF30080AFF3008065
:101D300041F25023C2F2000341F6D1410022C0F625
:101D4000000103F1100019609A60DA60FFF740B9F2
:101D5000002303608160C360083A10300B604A6062
:101D6000FFF736B9AFF30080AFF30080AFF3008028
:101D7000F8B51F4E0731002818BF064606F11000BF
:101D800021F0070506F10804FFF792F900E01C4670
:101D90002368E3B15A689542F9D805F108019142E8
:101DA00012D84FF6F870CFF6FF70401B82181868F3
:101DB0005F1858507A6027605D601C4644F8086BD5
:101DC000FFF79EF92046F8BD19682160F5E7FFF797
:101DD00097F932684AB105F10800904728B100F13F
:101DE0000804066045602046F8BD0024EAE700BF0D
:101DF00050120020AFF30080AFF30080AFF30080FB
:101E000070B5064650F8080CA6F1080400F1080564
:101E10001030FFF74DF92B46AB421A6801D0A342B0
:101E200002D21AB1944201D31346F5E756F8041CC6
:101E300046F8082C1C6001F1080256F8085CA0184E
:101E4000A84209D05A6802F1080019188C4211D032
:101E5000BDE87040FFF754B94068A258091808312E
:101E600046F8041C46F8082C5A6802F108001918B4
:101E70008C42EDD156F8040C56F8081C12180832A2
:101E800083E80600E4E700BFAFF30080AFF3008013
:101E900038B50E4C0D46002818BF044604F110005A
:101EA000FFF706F9A3686BB10022144658681B6857
:101EB00012180134002BF9D105B12A60FFF720F97F
:101EC000204638BD1A461C46F6E700BF50120020D7
:101ED000073121F0070100230360416082607047F1
:101EE00008B50246202383F31188006828B10168F1
:101EF0001160002383F3118808BD9368002BF8D08C
:101F000050689847F5E700BFAFF30080AFF300805B
:101F1000202383F31188026800230A60016083F3A1
:101F200011887047AFF30080AFF30080AFF30080FB
:101F300041F66803C2F2000301221A60704700BF35
:101F400070B5114D4C2428682D2103684FF0FF32E5
:101F50001E69B0472868013C01684FF0FF320B69E9
:101F60002D219847013C084EEDD130680D210368C2
:101F70004FF0FF321B69984730680A2102681369E5
:101F80004FF0FF32984770BD9C180020AFF30080DF
:101F9000F0B585B000283DD00DF101054CF6CD46D9
:101FA0002B46CCF6CC46A6FB0012D40804EB8401E9
:101FB000A0EB41003030C1B2204603F8011C1C46A2
:101FC00001330028EFD16A46944221D9601BC30730
:101FD000154F15D538684FF0FF3203681B699847D5
:101FE00014F8021C013C0BE0386814F8021C02686B
:101FF000661E13694FF0FF32984716F8021C023C28
:102000003868026813694FF0FF329847AC42EBD151
:1020100005B0F0BD0448302100684FF0FF3203687E
:102020001B699847F4E700BF9C180020AFF30080BD
:1020300038B5017859B1064D044628684FF0FF3293
:1020400003681B69984714F8011F0029F5D138BDB2
:102050009C180020AFF30080AFF30080AFF3008046
:1020600038B501780D4D51B1044628684FF0FF3264
:1020700003681B69984714F8011F0029F5D12868E7
:102080000D21026813694FF0FF32984728680A2132
:10209000026813694FF0FF32984738BD9C18002042
:1020A000202383F3118841F66C02C2F2000211680A
:1020B000002301F8010B116083F31188704700BF02
:1020C00041B9054A012313600449054A0B601060B9
:1020D00018467047002070476418002070180020D0
:1020E00060180020AFF30080AFF30080AFF30080F2
:1020F0002DE9F001DFF87880DFF878C0D8F80070BB
:102100006346CCEB0702D20715D5674518D911F8FD
:10211000012B9CF800400CF1010394420BD015E018
:102120001E7812F8015B631CAE420FD14D78247803
:10213000511CAC420AD19F420A4603F10104EFD878
:102140000B781BB9C8F800C0184607E0054A012102
:102150001160054B054A196010600846BDE8F001A2
:10216000704700BF6418002070180020601800201D
:102170006C180020A0180020AFF30080AFF300809F
:1021800010B5044608461146FEF7EAFA40B9054A7A
:10219000054806490123036013600C60184610BD12
:1021A000002010BD64180020701800206018002066
:1021B00010B50C4C206808B1FEF76AFC606808B1E5
:1021C000FEF766FCA06808B1FEF762FCE06808B1A3
:1021D000FEF75EFC206918B1BDE81040FEF758BC60
:1021E00010BD00BF88180020AFF30080AFF300805F
:1021F00010B5124C206818B1FEF7C2FC0023236012
:10220000606820B1FEF7BCFC0C4800224260A06868
:1022100020B1FEF7B5FC094B00219960E06820B1C0
:10222000FEF7AEFC05480022C260206920B1FEF72F
:10223000A7FC024B0021196110BD00BF88180020C7
:102240004FF47A7303FB00F00F4A44F6D353A0F522
:102250007A7110B4C1F26203D469A3FB0123226A2C
:10226000501C00EB93118A42236A03D29A4203D98D
:1022700010BC70479A42F6D9994294BF00230123BB
:10228000002BF0D1F4E700BF28120020AFF300804C
:1022900008B50120FEF70CFC41F21823C2F200033E
:1022A000D86808BDAFF30080AFF30080AFF30080C3
:1022B00041F6680310B5C2F2000300241C6020231D
:1022C00083F311884FF47A7101FB00F044F6D35286
:1022D000A0F57A70C1F26202A2FB002341F67400FD
:1022E000990941F631722346C2F200000131C0F66D
:1022F0000002FEF7FDF9234683F3118810BD00BFED
:102300002DE9F04F9F4C83B020609F48FFF7A8FE57
:102310009E48FFF7A5FE9E4D9E48FFF7A1FE2A218D
:1023200020684FF0FF3203681E69B04715F8011F9F
:102330000029F5D19848994FFFF792FE2A2120688D
:10234000026815694FF0FF32A84717F8011F0029EE
:10235000F5D19348934EFFF783FE2A2120684FF072
:10236000FF3203681F69B84716F8011F0029F5D12D
:102370008D488E4DFFF774FE2A2120680268166989
:102380004FF0FF32B04715F8011F0029F5D18848FA
:10239000884FFFF765FE2A2120684FF0FF3203685F
:1023A0001D69A84717F8011F0029F5D18248834EFF
:1023B000FFF756FE2A212068026817694FF0FF32A6
:1023C000B84716F8011F0029F5D17D487D4DFFF76C
:1023D00047FE2A2120684FF0FF3203681E69B0478C
:1023E00015F8011F0029F5D17748784FFFF738FE1F
:1023F0002A212068026815694FF0FF32A84717F8B4
:10240000011F0029F5D172480091FFF729FE5E48AF
:10241000FFF726FE00996F4841F67003C2F20003F1
:102420006D4F6E4EDFF8E491019019608A460AF113
:10243000010A4FF0000857F8042B002A00F09280A0
:10244000674DFFF77DFD2D2120684FF0FF320368B7
:102450001B69984715F8011F0029F5D15046FFF771
:1024600097FD48482E2100684FF0FF32056808F1BB
:1024700001082B6998475B4D4046FFF789FD2021F5
:102480002068026813694FF0FF32984715F8011F62
:102490000029F5D157F8041C0D68297849B1206846
:1024A000026813694FF0FF32984715F8011F0029A1
:1024B000F5D14D48FFF7D4FDC820FEF7F9FA4B4897
:1024C00057F804BC0021016041608160C160016176
:1024D000474DDBF80420C6F80090296002B1904710
:1024E000DBF80C309847DBF8080000B18047FFF7B5
:1024F0007FFE2968002900F0A6803E4D2D2120682E
:10250000026813694FF0FF32984715F8011F002940
:10251000F5D13948394D0068FFF73AFD2021206890
:10252000026813694FF0FF32984715F8011F002920
:10253000F5D1316849450DD9314D206815F8011C98
:10254000026813694FF0FF32984730682946013519
:102550008142F2D32B48FFF783FD57F8042B002A62
:102560007FF46EAF019D55F8047F0195002F7FF435
:102570005EAFFFF7E5FC244D0348FFF771FD4621F0
:1025800046E000BF9C18002098C1000890B20008E7
:10259000B0B20008ACB2000810B3000818B30008CD
:1025A0002CB3000844B3000858B30008A0B30008D7
:1025B000B4B30008BCB30008D0B30008DCB3000813
:1025C000F0B3000808B400081CB4000844B40008C4
:1025D00058B4000890B4000800B500086C1800203A
:1025E000C4B2000870B40008D4B2000888180020F3
:1025F00064180020D8B200086018002074B40008E5
:10260000A1180020F0B2000878B40008A01800203B
:1026100020684FF0FF3203681B69984715F8011FC7
:102620000029F5D141F67000C2F20000016871B9CD
:102630000948FFF715FD41F67002C2F2000210686A
:1026400003B0BDE8F08F0548FFF70AFDF3E6044844
:10265000FFF706FDEFE700BF00B30008F4B2000883
:1026600008B30008AFF30080AFF30080AFF3008041
:10267000F8B54E4EF3699C68651C2846FEF7E0F9F4
:10268000021B5142514107460120FFF719FD00B1DD
:10269000F8BDF36902209A68AB1A59425941FFF715
:1026A0000FFD0028F4D13846FEF7CAF9B5EB000C4F
:1026B000DCF1000050EB0C010320FFF701FD0028C6
:1026C000E6D1F26904209368B3EB040EDEF1000159
:1026D00051EB0E01FFF7F4FC0028D9D1202383F33E
:1026E0001188F7690346B868821CBA6083F31188C1
:1026F000F369A71C99680520CA1B534253EB0201DA
:10270000FFF7DEFC0028C3D12846FEF799F9001B2D
:10271000414241410620FFF7D3FC0028B8D1F269BD
:1027200007209368B7EB030CDCF1000151EB0C01BF
:10273000FFF7C6FC0028ABD1F2690820136CB5EB9B
:10274000030EDEF1000151EB0E01FFF7B9FC00288A
:102750009ED1E71C3846FEF773F9281A424252EB25
:1027600000010920FFF7ACFC002891D1F3690A2091
:1027700099687A1A534253EB0201FFF7A1FC002833
:1027800086D1F1690B200A6CBB1A59425941FFF7F7
:1027900097FC00287FF47CAF202383F31188F16934
:1027A00003468C600C6483F3118871E728120020C3
:1027B000F0B541F22827C2F20007FB694BF2702600
:1027C0009A6842F691154CF2344183B0C0F6000687
:1027D000C0F60005C0F60001043A2B46009170686F
:1027E0004FF49871FEF714F9FC693168A36841F65B
:1027F0008804C2F2000460604BF23050C0F6000062
:102800005A1F00902B4608464FF49871FEF700F9C6
:10281000FA693169936820604BF22050C0F60000DD
:102820005A1E00902B4608464FF49871FEF7F0F8B8
:10283000FA69F168926820614BF22450C0F60000FA
:102840002B460090023A08464FF49871FEF7E0F8E4
:102850002023E06083F31188FB694BF228519A68CA
:10286000C0F600012B460091B0684FF49871033A0E
:10287000FEF796F8A060002383F31188A068FEF7A6
:10288000F7F8FFF7B5FC4BF22C510120C0F6000120
:1028900003B0BDE8F040FFF72BBC00BFAFF30080F2
:1028A0002DE9F04141F22828C2F20008D8F81C3086
:1028B0004BF270269A6842F691154BF2305482B072
:1028C000C0F60005C0F60006C0F60004053A2B4627
:1028D000009430684FF49871FEF79AF841F6880436
:1028E000D8F81C10C2F200048B68776820604CF2A4
:1028F0003440C0F600001A1F00902B464FF4987128
:102900003846FEF785F8D8F81C20B76893686060F1
:102910004BF22850C0F60000DA1E00902B464FF410
:1029200098713846FEF774F8D8F81C10F7688A6872
:10293000A0604BF22450C0F60000023A2B460090F3
:102940004FF498713846FEF763F8D8F81C303669B2
:102950009A68E0604BF22050C0F600004FF4987186
:10296000013A2B4600903046FEF752F82061FFF7FF
:102970003FFC4BF22C510120C0F6000102B0BDE833
:10298000F041FFF7B5BB00BFAFF30080AFF30080AD
:1029900008B50078FFF784FB002008BDAFF3008086
:1029A00038B51C4DFFF774FCEC686420FEF780F826
:1029B000012004F1640104F16502FFF7E1FB00B1BD
:1029C00038BDEC686420FEF773F8022004F164015E
:1029D00004F16502FFF7D4FB0028F1D1EC684FF455
:1029E0007A70FEF765F8032004F57A7104F2E93293
:1029F000FFF7C6FB0028E3D1EC6804F16405284624
:102A0000FEF766F80420294604F16502BDE8384067
:102A1000FFF7B6BB18120020AFF30080AFF30080C1
:102A200040F60000C2F200000021FEF771B900BFBD
:102A300040F60000C2F200000021FEF769B900BFB5
:102A400040F60000C2F200000021FEF761B900BFAD
:102A500000B587B0002103A8FEF75AF9002103A8AA
:102A6000FEF796F9059901200029CCBF002101212C
:102A7000FFF726FB08B107B000BD2F4B4FF498714C
:102A8000D8692E4B826803A800902D48013A00684F
:102A9000FDF7BEFF2B49086003A8FEF7A9F90599C9
:102AA00002200029CCBF00210121FFF709FB0028EB
:102AB000E1D1202383F31188059B002B34DDFDF742
:102AC00037FF002383F31188059903209942D4BF6F
:102AD00000210121FFF7F4FA0028CCD1059A042047
:102AE000531E59425941FFF7EBFA0028C3D1202366
:102AF00083F31188059800281ADDFDF719FF0023DC
:102B000083F31188059903209942D4BF0021012144
:102B1000FFF7D6FA0028AED1059A0520531E594278
:102B20005941FFF7CDFAA6E703A8FEF7B9F9C6E7C2
:102B300003A8FEF7B5F9E0E728120020512B0008A2
:102B400070B2000888180020AFF30080AFF3008057
:102B500008B5202383F311888368002B06DDFDF779
:102B6000E7FE002383F31188184608BDFEF798F9A5
:102B7000F5E700BFAFF30080AFF30080AFF3008054
:102B800010B540F60004C2F200042046FEF730F90A
:102B90002046FEF76DF9002010BD00BFAFF30080A6
:102BA00010B5044640F60000C2F20000FEF720F91E
:102BB0002078FFF775FA002010BD00BFAFF300804A
:102BC00008B53220FDF774FF202383F3118840F607
:102BD0000000C2F20000FEF763F9FDF7A9FE002332
:102BE00083F31188184608BDAFF30080AFF300806F
:102BF0002DE9F043DFF84081454CD8F81C302768B8
:102C00009A68444E85B04FF498710532424B009655
:102C10003846FDF7FDFE414DD8F81C1063688A6800
:102C200028603F4803934FF4987101323A4B00906B
:102C30000398FDF7EDFED8F81C10A2688B68686059
:102C4000384803924FF49871DA1C0090324B039885
:102C5000FDF7DEFED8F81C10E2688B68A8603248E9
:102C600003924FF498711A1D00902B4B0398FDF7B7
:102C7000CFFED8F81C1024698A68E8602B484FF40E
:102C800098710232244B00902046FDF7C1FE284C7B
:102C900028612046FEF7ECF82046FEF7E9F82046CA
:102CA000FEF7E6F82046FEF7E3F82046FEF7E0F8E8
:102CB000FFF79EFA01201F49FFF71AFA814610B16B
:102CC00005B0BDE8F083D8F81C3038469A684FF458
:102CD000987100960532104BFDF79AFE202328606C
:102CE00083F3118802212046FEF7EAF84B4683F36E
:102CF0001188FFF77DFAA1680220B1F1010EDEF123
:102D0000000353EB0E0105B0BDE8F043FFF7D8B95F
:102D100070B2000820B50008A12B00088818002018
:102D200024B5000828B5000834C4000830B50008F0
:102D3000000800202CB5000828120020AFF3008006
:102D400010B5224B82B0D869002482682048013235
:102D50004FF498711F4B00940068FDF759FE1E4C0C
:102D60001E4B214618602046FEF7FAF82168012024
:102D70000A1B534253EB0201FFF7A2F908B102B05C
:102D800010BDA1680220D1F1010138BF0021FFF779
:102D900097F90028F3D121462046FEF7E1F8226892
:102DA0000320B2EB040CDCF1000353EB0C01FFF742
:102DB00087F90028E3D1A1680420D1F1010138BFCF
:102DC000002102B0BDE81040FFF77AB928120020B8
:102DD00070B20008812B000800080020881800202D
:102DE00070B59F4C002182B02046FEF731F8B0F15B
:102DF000FF3CDCF1000151EB0C010120FFF760F911
:102E000008B102B070BD22680220B2EB040EDEF100
:102E1000000353EB0E01FFF753F90028F1D1A1682D
:102E20000320D1F1010138BF0021FFF749F9002843
:102E3000E7D18C4D8C4BEA69916800908B484A1E13
:102E400000684FF49871FDF7E3FD894B4FF4FA7178
:102E500018602046FDF7FCFF0546FFF7C9F904207E
:102E6000D5F1010138BF0021FFF72AF90028C8D1A8
:102E700022680520131B59425941FFF721F9002808
:102E8000BFD1A2680620D2F1010138BF0021FFF7AF
:102E900017F90028B5D1774EFFF7FAF94120F66807
:102EA000FFF7FEF84FF4FA712046FDF7D1FFB0F1BD
:102EB000FF30434253EB00010720FFF701F90028E0
:102EC0009FD121680820B1EB040CDCF1000252EB29
:102ED0000C01FFF7F5F8002893D1A3680920D3F17E
:102EE000010138BF0021FFF7EBF8002889D142200B
:102EF000FFF7D6F84FF4FA712046FDF7A9FFB0F1BD
:102F0000FF3EDEF1000050EB0E010720FFF7D8F87E
:102F100000287FF476AF256808202A1B51425141D2
:102F20002546FFF7CDF800287FF46BAFA368092092
:102F3000D3F1010138BF0021FFF7C2F800287FF468
:102F400060AF4320FFF7ACF84FF4FA712046FDF76D
:102F50007FFFB0F1FF30424252EB00010720FFF744
:102F6000AFF800287FF44DAF216808200B1B5A42B0
:102F700052EB0301FFF7A4F800287FF442AFA168E9
:102F80000920D1F1010138BF0021FFF799F800288D
:102F90007FF437AF4420FFF783F84FF4FA712046EF
:102FA000FDF756FFB0F1FF3CDCF1000050EB0C01E7
:102FB0000720FFF785F800287FF423AF2368082057
:102FC000B3EB040EDEF1000252EB0E01FFF778F8CE
:102FD00000287FF416AFA1680920D1F1010138BFA4
:102FE0000021FFF76DF800287FF40BAF4520FFF7B5
:102FF00057F84FF4FA712046FDF72AFFB0F1FF3081
:10300000434253EB00010720FFF75AF800287FF4F2
:10301000F8AE22680820131B59425941FFF750F8B7
:1030200000287FF4EEAEA2680920D2F1010138BF7A
:103030000021FFF745F800287FF4E3AE0A200E498F
:10304000FFF756F800287FF4DCAE0B2006F6C4111B
:1030500006F6C91202B0BDE87040FFF791B800BF94
:103060000008002028120020C12B000870B20008C0
:1030700088180020181200202CB50008AFF300803B
:10308000F0B541F22823C2F20003D8694BF2702553
:1030900086684BF2205483B0C0F60005C0F60004E9
:1030A00043F2A113721C009428684FF49871C0F683
:1030B0000003FDF7ADFC41F68804C2F200046F681E
:1030C00020604BF22850C0F6000043F27113B21C8E
:1030D00000904FF49871C0F600033846FDF798FC55
:1030E000AD6860604BF22450C0F6000043F231132B
:1030F0004FF49871F21CC0F6000300902846FDF7CB
:1031000087FC40F62C05C2F20005A0602846FEF7B9
:1031100087F82846FEF784F8FFF76AF84BF2B061AB
:103120000120C0F6000103B0BDE8F040FEF7E0BFAB
:1031300010B5044640F61C00C2F20000FDF7B8FFCF
:103140002078FEF7ADFFFDF7DBFF002010BD00BFCC
:1031500010B5044640F60C00C2F20000FDF7A8FFCF
:103160002078FEF79DFFFDF7CBFF002010BD00BFCC
:1031700010B5044640F60C00C2F20000FDF798FFBF
:1031800040F62C00C2F20000FEF7C2F82078FEF7ED
:1031900087FFFDF7B5FF002010BD00BFAFF3008033
:1031A00010B5044640F61C00C2F20000FDF780FF97
:1031B00040F60C00C2F20000FDF77AFF40F62C004A
:1031C0004FF0FF31C2F20000FEF7DAF82078FEF788
:1031D00067FFFDF795FFFDF793FF002010BD00BFCF
:1031E00040F62C0008B5C2F20000FEF711F840F6D8
:1031F0000C00C2F20000FDF7EBFE40F61C00C2F22C
:103200000000BDE80840FDF7E3BE00BFAFF300805B
:1032100040F62C0008B5C2F20000FDF7F9FF40F6B9
:103220000C00C2F20000BDE80840FDF7D1BE00BFAF
:1032300040F62C0008B5C2F20000FDF7E9FF40F6A9
:103240000C00C2F20000BDE80840FDF7C1BE00BF9F
:1032500040F60C00C2F20000FDF7BABEAFF30080EA
:1032600040F60C0008B5C2F20000FDF7B1FE40F6D2
:103270001C00C2F20000BDE80840FDF7A9BE00BF77
:1032800040F60C0008B5C2F20000FDF7A1FE40F6C2
:103290001C00C2F20000BDE80840FDF799BE00BF67
:1032A00040F60C00C2F20000FDF792BEAFF30080C2
:1032B00040F60C00C2F20000FDF78ABEAFF30080BA
:1032C000F0B541F22823C2F20003D8694BF2702610
:1032D000876843F271154BF2305483B0C0F6000595
:1032E000C0F60006C0F600047A1C2B460094306835
:1032F0004FF49871FDF78CFB41F68804C2F200048C
:1033000020604CF23440C0F60000BA1C2B460090FE
:103310004FF498717068FDF77BFB60604BF22850AA
:10332000C0F60000FA1C2B4600904FF49871B0686C
:10333000FDF76EFBA0604BF22450C0F600003A1D72
:103340002B4600904FF49871F068FDF761FB3669E9
:10335000E0604BF22050C0F600004FF498717A1DE7
:103360002B4600903046FDF753FB206140F62C00C1
:10337000C2F20000FDF794FFFEF73AFF4BF22C512A
:103380000120C0F6000103B0BDE8F040FEF7B0BE7A
:10339000F0B541F22823C2F20003D8694BF270263F
:1033A000876843F271154BF2305183B0C0F60006C6
:1033B000C0F60005C0F600017A1C2B46009130686B
:1033C0004FF49871FDF724FB41F68804C2F2000423
:1033D000716820604CF23440C0F60000BA1C2B46E5
:1033E000009008464FF49871FDF712FBB1686060D9
:1033F0004BF22850C0F60000FA1C2B4600900846FD
:103400004FF49871FDF704FBF168A0604BF2245073
:10341000C0F600003A1D2B46009008464FF4987104
:10342000FDF7F6FA32694BF22051C0F60001E06078
:103430002B46009110464FF498717A1DFDF7E8FA7B
:103440002023206183F3118840F62C04C2F200048B
:103450002046FDF7FDFE2046FDF7FAFE2046FDF76B
:10346000F7FE2046FDF7F4FE2046FDF7F1FEFDF7DE
:103470005FFA002383F31188FEF7BAFE4BF22C515A
:103480000120C0F6000103B0BDE8F040FEF730BEF9
:10349000F0B52C4F2C4EFB692C4D9C6885B02C4808
:1034A000FDF706FE621C30684FF49871294B0095B9
:1034B000FDF7AEFA284D7168286028480391A21CD8
:1034C0004FF49871234B00900398FDF7A1FAB2686E
:1034D0006860234803924FF49871E21C1D4B0090E2
:1034E0000398FDF795FAF368A8601E480393221D20
:1034F0004FF49871174B00900398FDF789FA3669DD
:10350000E8601948621D4FF49871124B00903046E4
:10351000FDF77EFA2861FDF7F3FDFEF769FEF96914
:1035200001208A68131B59425941FEF7C9FD08B1B1
:1035300005B0F0BD0D49022005B0BDE8F040FEF732
:10354000D7BD00BF2812002070B2000830B50008B7
:103550000C080020513100088818002034C40008ED
:1035600028B5000824B5000820B500082CB50008CF
:10357000F8B52F4D2F4CEB6920469E68FDF7A8FD4E
:1035800001460120FEF79CFD00B1F8BD2046FDF785
:103590009FFDD0F1010138BF00210220FEF790FD10
:1035A00007460028F1D1202383F31188FDF7D8FDC9
:1035B0003B4683F3118821680320B1EB040CDCF156
:1035C000000252EB0C01FEF77BFD0028DDD1A36861
:1035D0000420D3F1010138BF0021FEF771FD00285E
:1035E000D3D1E96905208A68B2EB060EDEF100034B
:1035F00053EB0E01FEF764FD0028C6D12046FDF70F
:1036000057FDFDF7D5FD216806200A1B534253EBF9
:103610000201FEF755FD0028B7D1A1680720D1F1BE
:10362000010138BF0021BDE8F840FEF749BD00BFE9
:10363000281200200C080020AFF30080AFF30080B8
:103640002DE9F0468A4D8B4EEB6932689C6885B057
:103650008948039204F101094FF498714A46874B57
:1036600000900398FDF7D4F9854F76683860854857
:1036700004F1020A4FF498715246834B0090304691
:10368000FDF7C6F978608148FDF712FDE969012070
:103690008B681A1B51425141FEF712FD10B105B063
:1036A000BDE8F0866420FDF703FAEB6902209A6812
:1036B000B2EB090359425941FEF702FD0028EED151
:1036C0007348FDF7F5FCEA6903209368B3EB090C36
:1036D000DCF1000151EB0C01FEF7F2FC0028DED119
:1036E0006420FDF7E5F9EA6904209368B3EB0A0E5C
:1036F000DEF1000151EB0E01FEF7E2FC0028CED115
:10370000FDF7FEFCEA6905209368B3EB090251421C
:103710005141FEF7D5FC0028C1D16420FDF7C8F95E
:10372000EB6906209A68B2EB090359425941FEF74A
:10373000C7FC0028B3D1FDF73BFDEA690720936879
:10374000B3EB040CDCF1000151EB0C01FEF7B8FC0B
:103750000028A4D1FEF74CFD4E484FF498714A461C
:10376000464B00900398FDF753F938604A484FF4F0
:1037700098715246444B00903046FDF749F9786005
:103780004248FDF795FCEA6908209368B3EB040E04
:10379000DEF1000151EB0E01FEF792FC00287FF4F0
:1037A0007EAF6420FDF784F9EA6909209368B3EBE2
:1037B000090251425141FEF783FC00287FF46FAFAC
:1037C0003348FDF775FCEB690A209A68B2EB0903F0
:1037D00059425941FEF774FC00287FF460AF642021
:1037E000FDF766F9EE690B20B268B2EB0A0CDCF16A
:1037F000000353EB0C01FEF763FC064600287FF440
:103800004EAF202383F31188FDF7AAFC334683F3E0
:103810001188E9690C208A68B2EB090EDEF1000319
:1038200053EB0E01FEF74CFC00287FF438AF642008
:10383000FDF73EF9E9690D208A68B2EB09035942A8
:103840005941FEF73DFC00287FF429AFFDF7B0FC9D
:10385000EA690E2093681A1B51425141FEF730FC71
:1038600000287FF41CAF05B0BDE8F046FEF7C0BCF1
:103870002812002070B2000824B50008C1380008E2
:103880008818002020B50008A13800081C08002076
:103890000C08002034C4000828B50008AFF30080ED
:1038A00008B59620FDF704F940F60C00C2F20000BE
:1038B000FDF7FEFBFDF724FC002008BDAFF3008000
:1038C00008B53220FDF7F4F840F61C00C2F2000003
:1038D000FDF7EEFBFDF714FC002008BDAFF3008000
:1038E0002DE9F041304E84B0FEF7D2FCF369DFF8E9
:1038F000DC809A6800252D4C4FF49871053A2C4BCA
:103900000095D8F80000E768FDF782F8F169D8F86B
:103910000430284C8A68039320604FF49871043A6D
:10392000254B00950398FDF773F8F169D8F8082046
:103930008B6803926060DA1E4FF498711F4B0095FC
:103940000398FDF765F8F169D8F80C208B680392AD
:10395000A0609A1E4FF49871194B00950398FDF7DB
:1039600057F8F169D8F810608A68164B4FF49871CF
:10397000E060013A00953046FDF74AF82061FEF715
:1039800037FC01201049FEF7B3FB10B104B0BDE8CD
:10399000F081022007F16E0107F1730204B0BDE867
:1039A000F041FEF7EDBB00BF2812002018120020E6
:1039B000513B000888180020013B0008D13A00085C
:1039C000B13A0008813A00082CB5000870B200082E
:1039D0002DE9F041224E84B0FEF75AFCF369DFF87E
:1039E0009C809A6800251F4C4FF49871013A1E4B39
:1039F0000095D8F80000E768FDF70AF8F169D8F8F3
:103A000004308A68194C039320604FF49871023A8D
:103A1000174B00950398FCF7FBFFF169D8F8086095
:103A20008A68144B4FF498716060033A00953046F1
:103A3000FCF7EEFFA060FEF7DBFB01200E49FEF76E
:103A400057FB10B104B0BDE8F081022007F164011A
:103A500007F1690204B0BDE8F041FEF791BB00BF79
:103A60002812002018120020D13B000888180020DE
:103A7000B13B0008813B0008B0B6000870B20008F6
:103A800008B53220FDF714F840F61C00C2F2000021
:103A9000FDF70EFB0A20FEF7D3FBFDF731FB4120BB
:103AA000FEF7FEFA002008BDAFF30080AFF3008000
:103AB00008B52820FCF7FCFF1420FEF7C1FB4220CC
:103AC000FEF7EEFA002008BDAFF30080AFF30080F0
:103AD00008B51420FCF7ECFF40F61C00C2F2000011
:103AE000FDF7E6FA0A20FEF7ABFBFDF709FB4320E2
:103AF000FEF7D6FA002008BDAFF30080AFF30080D8
:103B000008B50A20FCF7D4FF40F61C00C2F2000002
:103B1000FDF7CEFA1420FEF793FB40F60C00C2F23C
:103B20000000FDF7C5FA0A20FEF78AFBFDF7E8FA68
:103B30000A20FEF785FBFDF7E3FA4420FEF7B0FA12
:103B4000002008BDAFF30080AFF30080AFF300802A
:103B500040F60C0008B5C2F20000FDF7A9FA1E20DD
:103B6000FEF76EFBFDF7CCFA4520FEF799FA002030
:103B700008BD00BFAFF30080AFF30080AFF300805B
:103B800040F60C0008B5C2F20000FDF791FA2820BB
:103B9000FEF756FBFDF7B4FA0A20FEF751FB43206F
:103BA000FEF77EFA002008BDAFF30080AFF300807F
:103BB00008B51420FCF77CFF2820FEF741FB4220CB
:103BC000FEF76EFA002008BDAFF30080AFF300806F
:103BD00008B52820FCF76CFF40F60C00C2F200008C
:103BE000FDF766FA0A20FEF72BFBFDF789FA412064
:103BF000FEF756FA002008BDAFF30080AFF3008057
:103C000010B541F22823C2F20003DC694BF27020A8
:103C1000A26882B0C0F6000043F691430132C0F6BC
:103C2000000300944FF498710068FCF7F1FE41F630
:103C30008801C2F200010860FDF76AFD446B21466D
:103C4000FDF786FDE0B2FEF72BFAFDF761FD446B50
:103C50002146FDF77DFDE0B2FEF722FAFDF758FDA3
:103C6000446B2146FDF774FDE0B2FEF719FA4BF202
:103C7000B0610120C0F6000102B0BDE81040FEF7BF
:103C800037BA00BFAFF30080AFF30080AFF300801E
:103C900010B541210446FDF71BFD42212046FDF7EA
:103CA00017FD20464321FDF713FD002010BD00BF86
:103CB000F0B57D4C0120616A83B04B1F5A4252EB34
:103CC0000301FEF7FDF9002845D1422120464FF0BF
:103CD000FF32FDF7A5FDD0F1010138BF0021022020
:103CE000FEF7EEF9B8BB432120464FF0FF32FDF757
:103CF00097FDD0F1010138BF00210220FEF7E0F965
:103D000048BB442120464FF0FF32FDF789FDD0F13A
:103D1000010138BF00210220FEF7D2F9D8B94521B0
:103D200020464FF0FF32FDF77BFDD0F1010138BF97
:103D300000210220FEF7C4F968B9412120464FF066
:103D4000FF32FDF7B5FDD0F1010138BF002103209E
:103D5000FEF7B6F908B103B0F0BD582101222046A4
:103D6000FDF75EFDB0F1FF3CDCF1000050EB0C0113
:103D70000420FEF7A5F905460028ECD1202383F3A3
:103D8000118858212046FDF75BFD2B46014683F341
:103D900011880520B1F1FF3EDEF1000353EB0E0167
:103DA000FEF78EF90028D6D1582101222046FDF7D2
:103DB0007FFDB0F1FF356A4252EB05010620FEF7A8
:103DC0007FF905460028C6D1202383F311885821A6
:103DD0002046FDF77DFD2B46014683F31188072021
:103DE000B1F1FF335A4252EB0301FEF769F90028A3
:103DF000B1D1202383F31188666A0820D6F101012E
:103E000038BF0021FEF75CF92646074618B10023AB
:103E100083F311889FE7034683F31188202383F3FC
:103E20001188A5690920B5F1050CDCF1000151EB01
:103E30000C01FEF745F9054618B13B4683F311889E
:103E400089E7034683F31188202383F31188A3684D
:103E5000E2680A20B2EB030EDEF1000151EB0E0125
:103E6000FEF72EF90346D0B983F31188052605E045
:103E70009DF80400FEF714F9013E17D00A4D01A980
:103E80004FF0FF322846FDF75BFDD0F1010138BF4E
:103E900000210B20FEF714F90028E9D05BE72B4640
:103EA00083F3118857E700BF340800200C20C8496D
:103EB000FEF71EF900287FF44EAF472128464FF049
:103EC000FF32FDF7ADFCD0F1010138BF00210D201C
:103ED000FEF7F6F800287FF43EAF01A928464FF020
:103EE000FF32FDF72DFDD0F1010138BF00210E207A
:103EF000FEF7E6F800287FF42EAF2A68AB680F20A3
:103F0000D21A51425141FEF7DBF800287FF423AF6B
:103F10002A68EB681020D21A51425141FEF7D0F8BE
:103F200000287FF418AF01A901222846FDF708FDFB
:103F3000B0F1FF30434253EB00011120FEF7C0F80F
:103F400000287FF408AF202383F31188284601A9B5
:103F5000FDF706FD3346024683F311881220B2F1C5
:103F6000FF3CDCF1000151EB0C01FEF7A9F8002841
:103F70007FF4F1AE202383F311886B6A13205A1F5C
:103F800051425141FEF79CF8002383F31188002829
:103F90007FF4E1AE202383F31188A4691420D4F1C7
:103FA000010138BF0021FEF78BF88A4C0546002836
:103FB0007FF42DAF034683F31188202383F3118808
:103FC000A368E2681520D21A51425141FEF778F8F1
:103FD000034600287FF463AF83F31188202383F323
:103FE000118841212046FDF72BFCD0F1010138BF9B
:103FF00000211620FEF764F800287FF4ACAE4221C1
:104000002046FDF71DFCD0F1010138BF002117202B
:10401000FEF756F800287FF49EAE43212046FDF7B8
:104020000FFCD0F1010138BF00211820FEF748F83D
:1040300000287FF490AE44212046FDF701FCD0F12A
:10404000010138BF00211920FEF73AF80546002883
:104050007FF481AE20464521FDF7F2FB2B46024658
:1040600083F311881A20D2F1010138BF0021FEF735
:1040700027F800287FF46FAEE168A3681B20B1EB3E
:10408000030EDEF1000252EB0E01FEF719F80028D4
:104090007FF461AE0525202383F311884D4C01A9DF
:1040A0002046FDF75DFC0023014683F311881C20A8
:1040B000CB1A5A4252EB0301FEF702F800287FF4B4
:1040C0004AAE9DF80400FDF7EBFF013DE3D11D2052
:1040D0003F49FEF70DF800287FF43DAE202383F31F
:1040E0001188616A1E204B1F5A4252EB0301FDF7F3
:1040F000E7FF2B4683F3118800287FF42CAE2023A2
:1041000083F31188A1691F20D1F1010138BF00217B
:10411000FDF7D6FF2B4683F3118800287FF41BAEF2
:10412000E268A3682020D21A51425141FDF7C8FF2E
:1041300000287FF410AE202383F311884521204608
:10414000FDF7C6FBD0F1010138BF00212120FDF7AA
:10415000B7FF00287FF4FFAD44212046FDF7B8FBF0
:10416000D0F1010138BF00212220FDF7A9FF00286E
:104170007FF4F1AD43212046FDF7AAFBD0F1010108
:1041800038BF00212320FDF79BFF00287FF4E3AD1B
:1041900042212046FDF79CFBD0F1010138BF0021F0
:1041A0002420FDF78DFF00287FF4D5AD094C412177
:1041B0002046FDF78DFB0023024683F3118825205E
:1041C000B2EB030CDCF1000353EB0C0104E000BF85
:1041D0002CB5000834080020FDF772FF00287FF49A
:1041E000BAADE168A2682620B1EB020EDEF1000351
:1041F00053EB0E01FDF764FF00287FF4ACAD0524FE
:10420000202383F311884A4D01A92846FDF7A8FB16
:104210000023014683F311882720CA1A534253EB27
:104220000201FDF74DFF00287FF495AD9DF80400D5
:10423000FDF736FF013CE3D128203E49FDF758FF4A
:1042400000287FF488AD202383F31188696A292030
:104250004A1F534253EB0201FDF732FF234683F31B
:10426000118800287FF477AD202383F31188A96992
:104270002A20D1F1010138BF0021FDF721FF23469B
:1042800083F3118800287FF466ADEA68AB682B20C1
:10429000B2EB030CDCF1000151EB0C01FDF710FF58
:1042A00000287FF458AD2846FDF77AFA202383F3DF
:1042B00011886A6A2C20B2F1050EDEF1000353EB7F
:1042C0000E01FDF7FDFE234683F3118800287FF4DD
:1042D00042AD202383F31188A9692D20D1F101017A
:1042E00038BF0021FDF7ECFE234683F31188002838
:1042F0007FF431AD202383F31188AB682A682E2028
:10430000D21A51425141FDF7DBFE234683F3118857
:1043100000287FF420AD202383F311882A68EB68FE
:104320002F20D21A51425141FDF7CAFE6FE500BF5E
:10433000340800202CB50008AFF30080AFF30080F4
:1043400040F6340041F27021C2F20000C2F20001D6
:104350000522FDF70DBA00BFAFF30080AFF3008078
:104360004FF0FF30FDF74CB8AFF30080AFF30080A3
:104370004FF0FF30FDF744B8AFF30080AFF300809B
:104380004FF0FF30FDF73CB8AFF30080AFF3008093
:104390002DE9F04205208AB0FDF74AF84FF0FF30D2
:1043A000FDF7B6F80138414241410120FDF788FE92
:1043B00010B10AB0BDE8F0824FF0FF30FDF7A8F869
:1043C000021F534253EB02010220FDF779FE002841
:1043D000EFD14FF0FF30FDF713F8D0F1010138BFF6
:1043E00000210320FDF76CFE0028E2D1754D764FC9
:1043F000FDF74EFFEC693868A6680390734F721E94
:104400004FF49871724B00940398FC68FCF700FB22
:10441000704E30604FF0FF30FDF77AF804F1320152
:10442000814604F137020420FDF7AAFE0028C0D11E
:104430000520B9F1010251425141FDF741FE00282A
:10444000B7D14FF0FF30FCF7DBFFD0F1010138BFEF
:1044500000210620FDF734FE0028AAD1FDF7C8FE92
:104460000520FCF7E5FF4FF0FF30FDF771F8B0F1E4
:10447000050CDCF1000353EB0C010720FDF720FED7
:10448000002896D14FF0FF30FCF7BAFFD0F10101C0
:1044900038BF00210820FDF713FE002889D1FDF761
:1044A000F7FEEC694FF49871A068494B421E0094E6
:1044B0000398FC68FCF7ACFA30604FF0FF30FDF772
:1044C00047F804F13201814604F137020920FDF773
:1044D00057FE00287FF46DAF0A20B9F1010EDEF11E
:1044E000000252EB0E01FDF7EBFD00287FF461AFF7
:1044F0004FF0FF30FCF784FFD0F1010138BF0021FD
:104500000B20FDF7DDFD00287FF453AFDFF8D490DA
:10451000314CFDF76DFE484604A90122C9F8009010
:104520002460FCF73DFF07A904222046FCF738FF72
:10453000FDF7AEFEED692948AB684FF498715A1E3D
:104540000090274B0398FD68FCF762FA3060052065
:10455000FDF71EF80C2005F1320105F13702FDF7D9
:104560000FFE00287FF425AF4FF0FF30FCF748FF27
:10457000D0F1010138BF00210D20FDF7A1FD002879
:104580007FF417AFFDF734FE484604A9FCF720FF7F
:10459000204607A9FCF71CFFD9F800100E20B1EB4C
:1045A0000902534253EB0201FDF78AFD00287FF414
:1045B00000AF21680F200A1B534253EB0201FDF7A5
:1045C0007FFDF6E62812002070B2000818120020C5
:1045D00021460008881800206008002020B5000847
:1045E000F14500085C080020AFF30080AFF30080C5
:1045F00040F65C0008B50021C2F20000FCF760FF45
:104600003220FCF755FA40F66000C2F200000021AB
:10461000FCF756FF002008BDAFF30080AFF3008029
:1046200010B504463220FCF743FA20460121FCF77E
:1046300027FF002010BD00BFAFF30080AFF3008064
:1046400010B51E4C86B00122204669462460FCF756
:10465000A7FE204603A90222FCF7A2FE2168012042
:10466000091B18BF0121FDF72BFD08B106B010BDD5
:1046700020466946FCF7ACFE22680220111B18BFD9
:104680000121FDF71DFD0028F0D1204603A9FCF70C
:104690009FFE23680320B3EB040EDEF1000151EB13
:1046A0000E01FDF70DFD0028E0D107210448FCF7BD
:1046B00017FF04200349FDF71BFDD7E75C08002026
:1046C00010B90008B0B60008AFF30080AFF3008067
:1046D0004320FDF7E5BC00BFAFF30080AFF30080DF
:1046E0004220FDF7DDBC00BFAFF30080AFF30080D8
:1046F0004120FDF7D5BC00BFAFF30080AFF30080D1
:1047000008B500214FF0FF30FCF762FFD0F1010146
:1047100038BF00210120FDF7D3FC00B108BD0146E0
:104720004FF0FF30FCF77CFFD0F1010138BF0021D2
:104730000220FDF7C5FC0028F0D101464FF0FF3004
:10474000FCF796FFD0F1010138BF00210320FDF7EF
:10475000B7FC0028E2D10A214FF0FF30FCF738FF08
:10476000D0F1010138BF00210420FDF7A9FC002889
:10477000D4D10A214FF0FF30FCF752FFD0F10101F4
:1047800038BF00210520FDF79BFC0028C6D10A2177
:104790004FF0FF30FCF76CFFD0F1010138BF002172
:1047A0000620BDE80840FDF78BBC00BFAFF30080DA
:1047B00070B582B0FDF7ACFA01A90020FDF768FBE7
:1047C00010210020FDF7D4FA011C18BF0121044676
:1047D0000120FDF775FC054608B102B070BD20460A
:1047E000FDF70EFB6FF0FF012846FDF7C1FAD0F18F
:1047F000010138BF00210220FDF762FC0028ECD146
:1048000001A97E48FDF744FB10217C48FDF7B0FA72
:10481000102105467948FDF7ABFA10210446774888
:10482000FDF7A6FA06462846FDF7EAFA2046FDF708
:10483000E7FA3046FDF7E4FA69467048FDF728FBD1
:10484000B0F1010EDEF1000151EB0E010320FDF786
:1048500037FC0028C1D110216848FDF789FA1021E2
:1048600004466648FDF784FA102105466348FDF7C3
:104870007FFAFDF7C5FA2846FDF7C2FA2046FDF794
:10488000BFFA69465D48FDF703FB0138424252EB2F
:1048900000010420FDF714FC00289ED11121574887
:1048A000FDF766FA102104465448FDF761FA054603
:1048B0002046FDF7A5FA69465048FDF7E9FA831E40
:1048C000594259410520FDF7FBFB002885D11021F5
:1048D0004A48FDF74DFA694604464848FDF7D8FABC
:1048E000012800F0898069464448FDF7D1FA023872
:1048F000424252EB00010620FDF7E2FB00287FF464
:104900006CAF2846FDF77CFA2046FDF779FA694638
:104910003A48FDF7BDFAB0F1010CDCF1000353EBAE
:104920000C010720FDF7CCFB00287FF456AF1021C7
:104930003248FDF71DFA102105463048FDF718FAF8
:1049400004462846FDF75CFA69462C48FDF7A0FAB4
:10495000B0F1020EDEF1000151EB0E010820FDF76F
:10496000AFFB00287FF439AF20212448FDF700FA7F
:10497000FDF746FA2046FDF743FA69461F48FDF762
:1049800087FA0138424252EB00010920FDF798FBFB
:1049900000287FF422AF69461848FDF779FA00999C
:1049A0001648FDF7E5F9694604461448FDF770FA24
:1049B000D0F1010138BF00210A20FDF781FB00285A
:1049C0007FF40BAF2046FDF71BFA69460B48FDF755
:1049D0005FFA431E594259410B20FDF771FB002835
:1049E0007FF4FBAE9DE80A000C20CA1A534253EB39
:1049F0000201FDF765FBF0E601467CE7B0180020F8
:104A000041F6B00041F27021C2F20000C2F2000192
:104A10004FF4BE62FDF79CB9AFF30080AFF30080A6
:104A200000207047AFF30080AFF30080AFF3008049
:104A300040F66400C2F200004FF498710022FDF7C6
:104A400047BA00BFAFF30080AFF30080AFF3008040
:104A500010B5324C32482168FDF75AFA3048616887
:104A6000FDF756FA2E48A168FDF752FA2C48E16886
:104A7000FDF74EFA21692A48FDF74AFA2848FDF762
:104A80002FFA011C18BF01210120FDF719FB002896
:104A900032D12348FDF724FA011C18BF012101205F
:104AA000FDF70EFB40BB1E48FDF71AFA011C18BFAC
:104AB00001210120FDF704FBF0B91948FDF710FAB8
:104AC000011C18BF01210120FDF7FAFAA0B9144812
:104AD000FDF706FA011C18BF01210120FDF7F0FACD
:104AE00050B90F48FDF7FCF9D0F1010138BF0021A2
:104AF0000220FDF7E5FA00B110BD1021094A08486F
:104B0000FDF7E6F90648FDF7EBF9D0F1010138BFF2
:104B100000210320BDE81040FDF7D2BA70B20008B2
:104B200064080020214A0008AFF30080AFF3008042
:104B300038B50546FCF7C4F8002403461846AB42D6
:104B400008BF44F00104FCF7CBF803460028F5D178
:104B5000204638BDAFF30080AFF30080AFF3008094
:104B600010B54A4B4A4CD86982B082684FF49871AC
:104B70000094013A474B4848FCF75AF8817F0446B5
:104B80000120B1EB000CDCF1000353EB0C01FDF74D
:104B900097FA08B102B010BD2046FCF711F8A27FC9
:104BA0000220B2EB000EDEF1000151EB0E01FDF729
:104BB00087FA0028EED12046FCF712F8A37F0320E5
:104BC0005A1E51425141FDF77BFA0028E2D120469E
:104BD000FFF7AEFF01460420FDF772FA0028D9D195
:104BE0002046FFF7A5FF01460520FDF769FA0028DA
:104BF000D0D12046FBF7F4FFA37F0620D3F10101BB
:104C000038BF0021FDF75CFA0028C3D1227F0720BE
:104C1000D2F1010138BF0021FDF752FA0028B9D1C5
:104C20002046FFF785FF01460820FDF749FA0028D6
:104C3000B0D12046FFF77CFF01460920FDF740FA7E
:104C40000028A7D13220FBF733FF217F0A20B1F1E2
:104C50000E035A4252EB0301FDF732FA002899D1B4
:104C60002046FFF765FF01460B20FDF729FA0028D3
:104C700090D12046FFF75CFFD0F1010138BF002141
:104C80000C2002B0BDE81040FDF71ABA281200202F
:104C900020B50008A14C0008E0180020AFF3008008
:104CA00008B50078FDF7FCF9002008BDAFF30080DF
:104CB00041F6E00041F27021C2F20000C2F20001B0
:104CC0004FF4BE62FDF744B8AFF30080AFF300804D
:104CD00041F6E00041F27021C2F20000C2F2000190
:104CE0004FF4BE62FDF734B8AFF30080AFF300803D
:104CF00038B5444B444CDA69216844489568FDF75F
:104D000007F961684148FDF703F9A1683F48FDF7DD
:104D1000FFF8E1683D48FDF7FBF8691E3C4A3D4B52
:104D20003A48FBF7A5FF3C4CA91E2060384A3B4B94
:104D30003648FBF79DFFE91E6060354A384B334823
:104D4000FBF796FF291FA060314A364B2F48FBF72F
:104D50008FFF691FE0602E4A2C48334BFBF788FF1A
:104D60002168206149B1616839B1A16829B1E16860
:104D700019B1D0F1010138BF00210120FDF7A0F9E0
:104D800000B138BDFDF734FA02202849FDF7B0F92B
:104D90000028F6D11D48FDF7A3F8011C18BF01211A
:104DA0000320FDF78DF90028EBD11848FDF798F89E
:104DB000011C18BF01210320FDF782F90028E0D172
:104DC0001248FDF78DF8011C18BF01210320FDF7E3
:104DD00077F90028D5D10D48FDF782F8011C18BFDE
:104DE00001210320FDF76CF90028CAD10748FDF71F
:104DF00077F8D0F1010138BF00210420BDE8384028
:104E0000FDF75EB92812002070B20008D01800200B
:104E1000A14C000820B500088818002024B500081F
:104E200028B5000834C4000830B50008F0B90008FF
:104E300041F6D000C2F200004FF498710022FDF755
:104E400047B800BFAFF30080AFF30080AFF300803E
:104E500070B5344B84B0DA6903A933489568FDF71F
:104E600017F832484FF498716A1E314B00902E4863
:104E7000FBF7DEFE2F4C304EAA1E2D4B20604FF468
:104E8000987100962848FBF7D3FE02A96060264877
:104E9000FCF7FEFF02992448FCF76AFF0646274804
:104EA0004FF49871EA1E224B00901F48FBF7C0FE9A
:104EB000A0603046FCF7A4FF216829B1616819B1F0
:104EC000A168002925D000210120FDF7F9F808B1DB
:104ED00004B070BDFDF78CF902201949FDF708F9FF
:104EE0000028F5D102A91048FCF7D2FF421E50421B
:104EF00050EB02010320FDF7E3F80028E8D1039B03
:104F000002990420CA1A534253EB0201FDF7D8F864
:104F1000DEE7E368002BD7D12169D1F1010138BF69
:104F20000021D1E728120020E018002020B5000859
:104F3000A14C00088818002024B5000828B50008F6
:104F4000F8B90008AFF30080AFF30080AFF3008042
:104F5000704700BFAFF30080AFF30080AFF3008075
:104F600040F6700008B50021C822C2F20000FCF72C
:104F700007FE002008BD00BFAFF30080AFF3008044
:104F80004BF27023C0F60003196840F6700044F637
:104F90005173C2F200000422C0F60003FCF7C8BD42
:104FA00040F6900008B5C821C2F20000FCF758FD99
:104FB000002008BDAFF30080AFF30080AFF30080A6
:104FC0004BF27023C0F60003196840F6900044F6D7
:104FD0005173C2F200000422C0F60003FCF7F0BCDB
:104FE0002DE9F041202382B083F31188AA4D6A692C
:104FF000AB699A4200F0978000210120FDF760F82C
:105000000646002868D1034683F31188A24C41214B
:1050100020464FF0FF32FCF7B3FD422120464FF00F
:10502000FF32FCF7ADFD432120464FF0FF32FCF785
:10503000A7FD204644214FF0FF32FCF7A1FD2023BD
:1050400083F31188AD680220D5F1010138BF00213A
:10505000FDF736F80546002844D1034683F311884E
:10506000202383F311882046FCF7B2FD2B4683F3FF
:105070001188C0B2FDF714F8202383F3118820466D
:10508000FCF7A6FD2B4683F31188C0B2FDF708F8A4
:10509000202383F311882046FCF79AFD2B4683F3E7
:1050A0001188C0B2FCF7FCFF202383F3118820464F
:1050B000FCF78EFD2B4683F31188C0B2FCF7F0FF9E
:1050C000202383F311886069A269904230D0294679
:1050D0000320FCF7F5FF48B1002383F3118802B0E9
:1050E000BDE8F081334683F31188F8E7034683F384
:1050F000118804206949FCF7FBFF04460028EED123
:10510000202383F31188644D2846FCF761FD0330AA
:1051100014BF002101210520FCF7D2FF68B123460E
:1051200083F31188DBE7A968003118BF012164E728
:10513000A368191C18BF0121CAE7034683F311882D
:10514000574E0822746828462146FCF769FD071F60
:10515000794279410620FCF7B3FF07460028BED10B
:10516000202383F31188AA680720D2F1010138BFF8
:105170000021FCF7A5FF804618B13B4683F3118858
:10518000ADE7034683F311883068464E4FF49871BB
:10519000F3699A68CDF800800132434BFBF738FC85
:1051A00042492023086083F311882869EE68AB68C0
:1051B000821BD11A0820B1F1040CDCF1000656EB79
:1051C0000C01FCF77DFF064618B1434683F31188B6
:1051D00085E7034683F31188FDF70AF8202383F35C
:1051E00011882846FCF7B4FC334683F3118820234A
:1051F00083F311882869EA68AB68811A0920B1EB4A
:10520000030EDEF1000252EB0E01FCF759FF0346DC
:1052100000287FF467AF83F31188022221462846D5
:10522000FCF7FEFC0238434253EB00010A20FCF776
:1052300047FF034600287FF452AF2146022228464A
:10524000FCF7EEFC821E514251410B20FCF738FF67
:1052500000287FF444AF202383F31188AB680C202F
:10526000D3F1010138BF0021FCF72AFF002383F3AB
:10527000118800287FF433AF19460A220648FCF74C
:105280007FFCB0F1FF30424252EB00010D2002B032
:10529000BDE8F041FCF714BF70080020F0B9000829
:1052A00070B2000828120020614F00088818002002
:1052B0002DE9F043202383B083F31188894C01202A
:1052C000A168D1F1010138BF0021FCF7F9FE0546C4
:1052D00028BB034683F31188202383F311884121DF
:1052E0002046FCF795FB42212046FCF791FB432129
:1052F0002046FCF78DFB20464421FCF789FB2B461A
:1053000083F31188202383F311886269A3699A4289
:1053100056D029460220FCF7D3FE054628B10023CB
:1053200083F3118803B0BDE8F083034683F311884B
:10533000202383F311886B4E01463046FCF768FB4F
:10534000043014BF002101210320FCF7B9FE0746F9
:1053500090BB034683F311884FF0FF313046FCF7D2
:105360007FFBC0B2FCF79CFE4FF0FF313046FCF7EC
:1053700077FBC0B2FCF794FE4FF0FF313046FCF7EC
:105380006FFBC0B2FCF78CFE4FF0FF313046FCF7EC
:1053900067FBC0B2FCF784FE202383F31188B16859
:1053A0000420D1F1010138BF0021FCF789FE60B172
:1053B0003B4683F31188B5E72B4683F31188B1E7A9
:1053C000A068011C18BF0121A4E7034683F31188DC
:1053D00005204549FCF78CFE05460028A2D1202374
:1053E00083F3118841213046FCF712FB42213046FD
:1053F000FCF70EFB43213046FCF70AFB3046442104
:10540000FCF706FB2B4683F31188384F08227D6892
:1054100030462946FCF74CFB021F534253EB020176
:105420000620FCF74DFE804600287FF47BAF20234A
:1054300083F31188B1680720D1F1010138BF002141
:10544000FCF73EFE8146002847D1034683F31188CE
:10545000202383F3118841213046FCF7D9FA4221F9
:105460003046FCF7D5FA43213046FCF7D1FA3046F6
:105470004421FCF7CDFA4B4683F3118802222946DA
:105480003046FCF715FB0238424252EB000108207F
:10549000FCF716FE00287FF445AF0222034629469A
:1054A0003046FCF705FBB0F1020CDCF1000353EBD6
:1054B0000C010920FCF704FE804600287FF432AF7F
:1054C000202383F31188B5680A20D5F1010138BF84
:1054D0000021FCF7F5FD054650B1434683F31188E2
:1054E00020E700BF90080020F0B9000870B2000863
:1054F000034683F31188202383F311880146304645
:10550000FCF786FA3046FCF76BFA2B4683F31188DA
:10551000202383F31188B1680B20D1F1010138BF3A
:105520000021FCF7CDFD002383F3118800287FF4D0
:10553000F9AE18481D46C2694FF4987193683868EF
:105540005A1C0095144BFBF763FA1449202308609A
:1055500083F31188A2680C20B2EB050EDEF1000384
:1055600053EB0E01FCF7ACFD034600287FF424AF9B
:1055700083F31188FCF73CFE0A210948FCF770FA16
:10558000B0F1FF30414241410D2003B0BDE8F0438E
:10559000FCF796BD28120020A14F000888180020B3
:1055A00090080020AFF30080AFF30080AFF30080DD
:1055B000704700BFAFF30080AFF30080AFF300800F
:1055C000704700BFAFF30080AFF30080AFF30080FF
:1055D0004BF6803010B5C0F600004BF69034C0F6A4
:1055E0000004FCF725FD4FF4CC70FCF7D1FC2046FD
:1055F000FCF736FD4BF69830C0F60000FCF718FDBE
:105600004820FCF7C5FC2046FCF72AFD4BF6A830E5
:10561000C0F60000FCF70CFD1420FCF7B9FC204696
:10562000FCF71EFD4BF6B830C0F60000FCF700FD9D
:105630000C20FCF7ADFC2046FCF712FD4BF6C83001
:10564000C0F60000FCF7F4FC0420FCF7A1FC2046A7
:10565000FCF706FD4BF6D830C0F60000FCF7E8FC7E
:105660000C20FCF795FC2046FCF7FAFC4BF6E830E2
:10567000C0F60000FCF7DCFC1020FCF789FC20469B
:10568000FCF7EEFC4BF6F830C0F60000FCF7D0FC5F
:105690000820FCF77DFC2046FCF7E2FC4BF60840B6
:1056A000C0F60000FCF7C4FC2020FCF771FC20468B
:1056B000FCF7D6FC4BF61840C0F60000FCF7B8FC2F
:1056C0002820FCF765FC2046BDE81040FCF7C8BC6C
:1056D00038B5FCF7DDFD4FF47A70FCF7E9FD124DAB
:1056E00000241248FBF7E4FCFBF70AFD0F48FBF728
:1056F000DFFCFBF705FD0D48FBF7DAFCFBF700FDCF
:105700000A48FBF7D5FCFBF7FBFC2B680134002BA8
:10571000E7D00748FCF78CFCA000FCF739FC0548F3
:10572000BDE83840FCF79CBC681800202019002018
:1057300028BC000838BC0008AFF30080AFF300803D
:1057400041F62010C2F20000FBF742BCAFF300802C
:1057500010B5074C02E00748FBF74AFBE369587FA6
:1057600000F00401CAB2002AF5D0002010BD00BF2D
:105770002812002054190020AFF30080AFF30080FE
:1057800038B5FCF785FD4FF47A70FCF791FD144DA8
:1057900000241448FBF72CFB1248FBF769FB114867
:1057A000FBF726FB0F48FBF763FB0E48FBF720FBDC
:1057B0000C48FBF75DFB0B48FBF71AFB0948FBF7AE
:1057C00057FB2B680134002BE3D00748FCF730FC73
:1057D000A000FCF7DDFB0548BDE83840FCF740BC05
:1057E000681800205419002028BC000848BC000894
:1057F00041F65410C2F200000121FBF789BA00BF44
:1058000041F65410C2F200000021FBF781BA00BF3C
:1058100038B5FCF73DFD4FF47A70FCF749FD154DA6
:105820000024202383F31188012100231248134A06
:10583000FAF75EFF002342F21071104A1048FAF79F
:1058400057FF0D48FAF774FF0D48FAF771FF002370
:1058500083F311882B680134002BE2D00948FCF750
:10586000E7FB6000FCF794FB0748BDE83840FCF715
:10587000F7BB00BF6818002060190020C155000860
:105880003019002028BC000858BC0008AFF3008085
:1058900038B52349102200232248FCF791F8FCF781
:1058A000F7FC4FF47A70FCF703FD1F4D0024202312
:1058B00083F3118800211B48FCF7AAF8012119483D
:1058C000FCF7A6F802211748FCF7A2F803211548B7
:1058D000FCF79EF8002383F311884FF0FF31114845
:1058E000FCF7BEF84FF0FF310E48FCF7B9F84FF067
:1058F000FF310C48FCF7B4F80A484FF0FF31FCF7D1
:10590000AFF82B680134002BD1D00848FCF790FB8E
:10591000A000FCF73DFB0648BDE83840FCF7A0BB03
:1059200044190020001900206818002028BC000835
:1059300064BC0008AFF30080AFF30080AFF30080D9
:105940002DE9F041144B154AD86982B01768866872
:10595000FCF79EFC4FF47A70FCF7AAFC0024DFF8F9
:105960004C80013625464FF49871009538463246F2
:105970000B4BFBF74DF8D8F8001001340029F2D09A
:105980000848FCF755FB2046FCF702FB064802B02E
:10599000BDE8F041FCF764BB2812002070B200089B
:1059A000B155000828BC000870BC00086818002029
:1059B0002DE9F04341F2282985B004ACC2F2000978
:1059C000002344F8043DFCF763FCD9F81C004BF2BB
:1059D0007028826845F6A126C0F60008C0F60006C9
:1059E000013A3346D8F800004FF498710094FBF761
:1059F0000FF8D9F81C10D8F804708B6841F68805A8
:105A0000C2F200055A1E286033464FF49871009484
:105A10003846FAF7FDFFD9F81C20D8F808709368CB
:105A20004FF498715A1E6860334600943846FAF76E
:105A3000EFFFD9F81C10D8F80C708A683346A860BC
:105A4000013A4FF4987100943846FAF7E1FFD9F81B
:105A50001C30D8F810709A684FF49871013A3346A8
:105A6000E86000943846FAF7D3FF28614FF47A7063
:105A7000FBF71EF8FCF79CFBFCF7BAFB4BF6284043
:105A8000C0F60000FCF7D4FA0398FCF781FA4BF655
:105A90007C40C0F60000FCF7E3FA05B0BDE8F083F7
:105AA00038B50B4D0446FBF72BF8FBF729F8FBF74D
:105AB00027F8FBF725F82268EB69101D2060597F55
:105AC00001F00402D3B2002BEDD0002038BD00BF9E
:105AD00028120020AFF30080AFF30080AFF3008006
