:020000040800F2
:10000000000400208101000851030008510300088A
:100010005103000851030008510300085103000870
:100020005103000851030008510300087103000840
:10003000510300085103000851030008510400084F
:100040005103000851030008510300085103000840
:100050005103000851030008510300085103000830
:100060005103000851030008510300085103000820
:100070005103000851030008510300085103000810
:100080005103000851030008510300085103000800
:1000900051030008510300085103000851030008F0
:1000A00051030008510300085103000851030008E0
:1000B00051030008510300085103000851030008D0
:1000C00051030008510300085103000851030008C0
:1000D00051030008510300083110000851030008C3
:1000E00051030008510300085103000851030008A0
:1000F0005103000851030008510300085103000890
:10010000510300085103000851030008510300087F
:10011000510300085103000851030008510300086F
:10012000510300085103000851030008510300085F
:1001300000B583B000F0CCFD00F0D2F900230093AD
:1001400005484FF498714022044B00F0A1FB4FF496
:10015000FA7000F0B5FBFEE7D80900209112000804
:10016000704700BFAFF30080AFF30080AFF30080B3
:10017000FEE700BFAFF30080AFF30080AFF3008075
:1001800072B6644C84F30988022383F31488BFF3A6
:100190006F8F61486149884218D2CA1C051D531BE4
:1001A00023F00302034610184FF0553183421960C3
:1001B000C2F380020AD01AB185422B46296005D0CD
:1001C0001D1D5960083383426960F9D15448A0422B
:1001D00018D25449041D0A1B22F0030503462818AF
:1001E0004FF0553183421960C5F380020AD01AB12D
:1001F00084422346216005D01D1D59600833834287
:100200006960F9D101F034F84749484881421BD26E
:10021000C61C0C1D321B464822F00302161D056841
:100220000423B3420D60C2F380020DD022B14568B1
:100230000823B342256007D01D581A1D5D5084580D
:100240000833B3428C50F7D13A483B49884217D221
:10025000CB1C041D1A1B22F003050346281800219D
:1002600083421960C5F380020AD01AB18442234642
:10027000216005D01D1D5960083383426960F9D1A2
:10028000FFF76EFF2D4D2E498D421DD2CC1C2E1D29
:10029000A71BB808471C01242A6800EA04089047F5
:1002A000BC4211D0B8F1000F05D033680224984742
:1002B000BC42354608D0696888470234A8682E1DBC
:1002C00080470835BC42F6D1FFF732FF1D4D1E4A6C
:1002D00095421DD2D41C2E1DA71BBB085F1C0124F8
:1002E000296803EA04088847BC4211D0B8F1000F1E
:1002F00005D0306802248047BC42354608D06A6881
:1003000090470234AB682E1D98470835BC42F6D1A1
:10031000FFF72EFF0008002000000020000400204E
:10032000000400200308002000080020000800202E
:100330009813000800080020080B00203001000876
:10034000300100083001000830010008AFF30080E0
:10035000FEE700BFAFF30080AFF30080AFF3008093
:1003600000F016FA00DF00BFAFF30080AFF30080AB
:10037000EFF30983203383F30988002383F3118883
:10038000704700BFAFF30080AFF30080AFF3008091
:1003900008B500224FF46D43CEF20003C0F2FA52CA
:1003A0000021996007201021DA6000F071F80A201E
:1003B0004FF4007100F06CF80B208021BDE808407C
:1003C00000F066B8AFF30080AFF30080AFF30080B9
:1003D000202383F311884FF46D43CEF20003586855
:1003E00010F4006319D0EFF30983A3F1200282F324
:1003F0000988124A4FF08070916943F8040C79B172
:100400001168D06989688268914294BF00220122F4
:1004100082B10B4843F8080C704783F3118870478A
:100420001168D26988689268904234BF0022012224
:10043000002AEED1034A43F8082C7047180900201F
:100440006103000864030008AFF30080AFF300808D
:1004500008B5202383F3118800F07AF8002383F392
:100460001188BDE80840FFF7B3BF00BFAFF30080BD
:100470002DE9F04FC1F80CD0D0F80CD0BDE8F08FCA
:10048000002383F311882846A04700F049FA7047FB
:1004900000F0030310B4FF22DC0002FA04F201FAB8
:1004A00004F180084FF46D43CEF20003063053F898
:1004B000204024EA02020A4343F8202010BC70477F
:1004C000024B034AD8698261FEE700BF1809002089
:1004D000D0120008AFF30080AFF30080AFF30080CC
:1004E00000B583B0FFF754FF00F0CAF800F058F8E9
:1004F00000F0A6FB00F0DCFB40F600004021C2F259
:10050000000000F065F940F61811C2F20001012266
:10051000C8610277002383F3118862B641F2E020BC
:10052000C969C0F600008861009340F6480040F2B7
:10053000C143C021C0F60003C2F2000000F0A8F9D8
:1005400003B000BDAFF30080AFF30080AFF30080D5
:1005500038B5104B9A69002A01DD501E9861DA699E
:100560000D4C116A2368481C1062E268511CA342BA
:10057000E1600ED09D68013D9D6055B91A68D9684B
:100580001869DD60546022608847236898680028F5
:10059000F4D038BD1809002008090020AFF300800E
:1005A00040F60813C2F200034FF0FF3200205B60F8
:1005B0001B609A60D8607047AFF30080AFF3008093
:1005C00070B40C4E03613468C260A568A94204D9B6
:1005D0002468491BA5688D42FAD36368B44204605D
:1005E000436018606060816002D0A068411AA16019
:1005F00070BC704708090020AFF30080AFF30080A3
:100600000368074A934203D0996882688918996001
:100610004268002113600368C1605A60704700BFE0
:1006200008090020AFF30080AFF30080AFF3008033
:10063000037F0D2B11D8DFE803F020101007100BFB
:10064000101010101010100B416A8A68531C8B6038
:1006500090E80C001A6001684B604FF0FF32426274
:1006600081680022054B02771B689A688A42FBD298
:10067000596803604160086058607047180900209D
:1006800040F61813C2F20003002214205B601B60C6
:100690009A6098615B611B61704700BFAFF3008097
:1006A00000228168054B02771B689A688A42FBD258
:1006B000596803604160086058607047180900205D
:1006C00040F6181330B4C2F200031A68D9691468EE
:1006D0000877142098610125104663601C60DA6178
:1006E000157730BCFFF7C4BEAFF30080AFF30080D6
:1006F00030B54B1C87B0054611D00B4C0B4AE36953
:1007000001A8FFF75DFF2846FFF7DAFF049B13B14E
:1007100001A8FFF775FFE069406A07B030BDFFF739
:10072000CFFF014CF7E700BF180900203106000891
:10073000F0B4154F0446FE698568B0680023854211
:1007400061620CD823773946096888688542FBD9ED
:100750004B68216063601C604C60F0BC704733776D
:10076000394609688A689042FBD9486831607060F0
:1007700006604E600123142220463146FC61BA61B6
:100780002377F0BCFFF774BE18090020AFF3008098
:100790000E4A30B41068D169036814258C68136060
:1007A00095615A60D06101220277002203460A77E0
:1007B00000E01B689A68A242FBD25A680B604A604C
:1007C0001160596030BCFFF753BE00BF180900200C
:1007D000F0B440F61814C2F200046569002200F17A
:1007E0002C06816000F128074FF0020C0164012102
:1007F0000461456180F81CC060614277C263826316
:10080000026281778261286187620663C662F0BCFA
:10081000704700BFAFF30080AFF30080AFF30080FC
:100820002DE9F003243940F618154718C2F20005E7
:10083000D5F814C0C7604350069B40F28141C0F612
:1008400000017B6039620026904600F1280900F122
:100850002C02022301210561C0F80880C0F814C0F1
:100860000446686103774677C0F84080C6638663B4
:10087000066281778661CCF81000C0F82890026388
:10088000C262BDE8F0037047AFF30080AFF30080B1
:1008900010B51C4682B0202383F311882346049CA4
:1008A0000094FFF7BDFF00210446FFF741FF00233E
:1008B00083F31188204602B010BD00BFAFF3008063
:1008C00008B50146202383F311880620FFF710FFA7
:1008D000002383F3118808BDAFF30080AFF30080DD
:1008E00038B50E4BDC69254655F8281F6062A942D1
:1008F00007D00A680846A262FFF7D2FEA16AA942A1
:10090000F7D1607F830704D1636922691A61216985
:100910004B610E20BDE83840FFF7D2BE1809002019
:10092000202383F31188FFF7DBBF00BFAFF3008004
:100930000023406000608360704700BFAFF3008019
:1009400008B5826B037F1143082B81630BD0092B01
:1009500000D008BD426A11408A42FAD1FFF7A0FEDA
:100960000021416208BD436A1942F7D108BD00BFAA
:1009700070B504680546A0420E4607D0A1686068BD
:100980003143FFF7DDFF2468A542F7D170BD00BFFA
:1009900010B4024659B1084B0D20DB695A62546805
:1009A00083E814005360236010BCFFF7A1BE4FF032
:1009B000FF3010BC704700BF18090020AFF3008063
:1009C00010B48A1800244060006084604161816135
:1009D000C1600261C36110BC704700BFAFF300800B
:1009E000426908B5034680698242986818D0013090
:1009F000986002F8011B19695A618A4228BFDA68B7
:100A0000186828BF5A61984208D002681A6053607B
:100A1000FFF746FE00234362184608BD002008BDCC
:100A20000028E4D06FF0030008BD00BFAFF30080E2
:100A300070B5202304460E4683F31188C36903B1C1
:100A40009847A568204631463DB9FFF7A1FF002829
:100A5000F7DA2B4683F3118870BDA169013DA560CB
:100A600011F8010B2269A161914224BFE168A161E3
:100A7000002383F3118870BDAFF30080AFF30080D3
:100A80002DE9F0471E460446C769202383F31188E9
:100A90004FF0000801F1010901EB020A0FB12046F5
:100AA000B847A568204631464DB9FFF771FF0028C9
:100AB000F7D02B4683F311884046BDE8F087A36941
:100AC000013DA56013F8012B09F8012C2069A361F1
:100AD000834224BFE368A361002383F31188D145D7
:100AE00008F10108E8D0202383F3118809F10109F6
:100AF000D4E700BFAFF30080AFF30080AFF3008016
:100B000010B48C1840600060826041618161C160F6
:100B10000461C36110BC7047AFF30080AFF3008085
:100B2000F8B504460F461646202383F31188A568BE
:100B3000204631463DB9FFF72BFF0028F7DA2B4658
:100B400083F31188F8BD6369013DA56003F8017B5B
:100B500022696361934228BFE368E16928BF63614A
:100B600009B120468847002383F311881846F8BD51
:100B7000826941690346914210B5806816D0441CD1
:100B80009C6012F8014B19699A618A4228BFDA68A1
:100B9000186828BF9A61984206D002681A605360AC
:100BA000FFF77EFD00234362204610BD0028E6D0FB
:100BB0006FF0020010BD00BFAFF30080AFF3008004
:100BC0002DE9F0479A46044688461646D0F81C9010
:100BD000202383F311880027A56820466B1EEDB102
:100BE000A360656918F8011B05F8011B226965619E
:100BF000954224BFE2686261B9F1000F00D0C84796
:100C0000002383F311880137013E10D0202383F3A2
:100C10001188A56820466B1E002DE1D12046514663
:100C2000FFF7B6FE0028D7D02B4683F3118838464D
:100C3000BDE8F087AFF30080AFF30080AFF3008032
:100C400045F20001084840F63C1240F63813C2F263
:100C50000001C2F2000220F00700C2F2000321F0FE
:100C600007011060196070470F0B0020AFF3008080
:100C7000202383F31188094B09491A680968073052
:100C800020F00700891A88429ABF101818600022C5
:100C9000002383F311881046704700BF3C090020F1
:100CA00038090020AFF30080AFF30080AFF300807D
:100CB00040F64013C2F2000340F671410022C0F634
:100CC000000103F1100019609A60DA60FFF730BE8E
:100CD00008B500F005F900F0DBF841F23030C0F65D
:100CE000000000F06DFA00F05BF8BDE8084000F08D
:100CF000C7BA00BFAFF30080AFF30080AFF300804E
:100D0000806BD0F1010038BF00207047AFF3008046
:100D10008069D0F1010038BF00207047AFF3008038
:100D20000246202383F31188002180680B469160DE
:100D300083F31188704700BFAFF30080AFF30080EA
:100D40001030FFF79DBE00BFAFF30080AFF300800F
:100D500010304FF0FF33FFF793BE00BFAFF30080BA
:100D60003030FFF72DBF00BFAFF30080AFF300803E
:100D700030304FF0FF33FFF723BF00BFAFF30080E9
:100D80001030FFF755BE00BFAFF30080AFF3008017
:100D90003030FFF7C5BE00BFAFF30080AFF3008077
:100DA00000F0F6B9AFF30080AFF30080AFF300803E
:100DB0000B4641F2003170B5C0F60001054604460D
:100DC00045F8041B65600025A5600125164604F161
:100DD0005001102200F110002573FFF7F1FD04F11E
:100DE000300004F1600110223346BDE87040FFF787
:100DF00087BE00BFAFF30080AFF30080AFF3008089
:100E000038B5836904460D463BB104F1100029460C
:100E1000FFF7E6FD00280FDB38BD8268043042F0A2
:100E20000401A1601946FFF7A3FD04F11000294653
:100E3000FFF7D6FD0028EFDAA368201D43F08002FB
:100E40000021A260BDE83840FFF792BDAFF30080FB
:100E50004FF48053CEF2000359688160704700BFA1
:100E60004FF48053CEF20003084982685B6809683A
:100E70009B1AC268591A9142816004D80369994249
:100E800038BF01617047C160704700BF6009002032
:100E900010B540F6601486B00022C2F200044FF094
:100EA000FF304FF48053226004920590CEF200038D
:100EB000596840F6516240F6616301A8C0F600022D
:100EC000C0F60003019202930391FFF7C9FF039854
:100ED000206006B010BD00BFAFF30080AFF300800C
:100EE0004FF4805370B4C4F2020300214FF0FF3579
:100EF0004EF2100241F63F141869CEF200021D6155
:100F0000C0F201041961DE684EF6F050DD60D96070
:100F10005460916007211160CEF20000C2684FF466
:100F2000805142F08072C260CEF2000108684FF436
:100F3000E04240F001000860D969C4F2000241F0CB
:100F40008050D861D96941F00060D861136843F4DA
:100F50008071116070BC7047AFF30080AFF3008008
:100F60004FF48053C4F202031A68194642F001009C
:100F700018600A684FF480539207C4F20203F8D550
:100F80001968002201F0F900186019465A60486893
:100F90004FF4805310F00C0FC4F20203F7D11A681B
:100FA000194642F4803018600A684FF48053900369
:100FB000C4F20203F8D55868194640F4E8125A60A2
:100FC000186840F080721A6008684FF480538201FC
:100FD000C4F20203F8D54FF4C8414FF40052C0F2F6
:100FE0001D01C4F2020212205960106059681A46AD
:100FF00041F002005860536803F00C010829FAD14F
:10100000704700BFAFF30080AFF30080AFF3008004
:101010004FF48843C4F200039A8990B240F08001F3
:1010200099817047AFF30080AFF30080AFF3008089
:101030002DE9F041524E356FAF892C88A988A4B2B2
:101040002207BFB21FFA81F853D104F4807083B233
:10105000002B39D104F0200188B2002828D107F0F4
:10106000800293B223B104F0800188B2002865D1D8
:1010700004F04004A4B2BCB1202383F31188B36808
:10108000404843F010020021B260FFF771FC0023DA
:1010900083F311884FF6BF713940A981288820F069
:1010A00040031A04110C2980BDE8F041FFF790B904
:1010B000202383F3118832485FFA88F1FFF7A0FEFE
:1010C000002383F31188CAE7202383F31188B268D1
:1010D0002C4842F400730021B360FFF749FC002361
:1010E00083F31188298821F480700204130C2B806B
:1010F000B0E704F0080290B2002814BF802200225A
:10110000E30704F0020399B248BF42F0200209B19C
:1011100042F0400204F0040083B20BB142F480724A
:10112000202383F31188B16816480A430021B26076
:10113000FFF71EFC002383F3118886E7202383F347
:101140001188DFF83C8008F13000FFF711FD00281E
:1011500005DB82B2AA80002383F3118888E7D8F8E0
:10116000083008F1040043F008020021C8F8082004
:10117000FFF7FEFB27F0C00141F04000A881EAE73D
:101180006409002068090020AFF30080AFF30080FD
:1011900010B540F66414C2F2000441F21102204678
:1011A0000021C0F60002FFF703FE4FF48843C4F2AB
:1011B0000003236710BD00BFAFF30080AFF30080D2
:1011C0004FF48053C4F202039A6930B442F4FE71C2
:1011D00041F001049C6105684FF40063C4F201030F
:1011E000DD6081684FF4406259604468C4F20102D6
:1011F0001C60C5684FF48053D5604169C4F2010397
:10120000516005694FF4A05415608269C4F201046D
:10121000DA60056A4FF4C0515D60C269C4F2010131
:101220001A60436A4FF4E052E360C56AC4F20102F7
:101230006560856A4FF400532560046BC4F20103B6
:10124000CC60846B4C60446B0C60C16BD160416CB2
:101250005160016C1160826CDA60016D5960C06C84
:10126000186030BC704700BFAFF30080AFF3008060
:10127000FFF776BEAFF30080AFF30080AFF30080DE
:10128000704700BFAFF30080AFF30080AFF3008082
:101290000A4B0B4AD86970B54FF4406480258261CF
:1012A000C4F201042E4666614FF4FA70FFF708FBA2
:1012B00025614FF4FA70FFF703FBF4E718090020EB
:1012C00090130008AFF30080AFF30080AFF300800D
:1012D00069646C6500000000000000000000000070
:1012E0006D61696E00160311040448080C1014188F
:1012F000001C1D1E00200000000000000000000077
:10130000710D0008510D0008010D0008110D0008B5
:10131000910D0008810D0008610D0008410D0008C5
:10132000210D000800000000000000000000000087
:10133000FFFFFFFF844B888888488488FFFFFFFFFA
:101340008888443883AA8888FFFFFFFF88888888B8
:10135000BBBB8B88FFFFFFFF448B88888888888809
:10136000FFFFFFFF88888888888888880000000041
:10137000000000000000000000000000000000006D
:10138000000000000000000000000000000000005D
:08139000626C696E6B6572006E
:0400000508000130BE
:00000001FF
