:020000040800F2
:100000000004002081010008A1020008A1020008EC
:10001000A1020008A1020008A1020008A102000834
:10002000A1020008A1020008A1020008C102000804
:10003000A1020008A1020008A1020008A103000813
:10004000A1020008A1020008A1020008A102000804
:10005000A1020008A1020008A1020008A1020008F4
:10006000A1020008A1020008A1020008A1020008E4
:10007000A1020008A1020008A1020008A1020008D4
:10008000A1020008A1020008A1020008A1020008C4
:10009000A1020008A1020008A1020008A1020008B4
:1000A000A1020008A1020008A1020008A1020008A4
:1000B000A1020008A1020008A1020008A102000894
:1000C000A1020008A1020008A1020008A102000884
:1000D000A1020008A1020008810F0008A102000887
:1000E000A1020008A1020008A1020008A102000864
:1000F000A1020008A1020008A1020008A102000854
:10010000A1020008A1020008A1020008A102000843
:10011000A1020008A1020008A1020008A102000833
:10012000A1020008A1020008A1020008A102000823
:1001300000B583B000F074FD00F07AF9002300935D
:1001400005484FF498714022044B00F049FB4FF4EE
:10015000FA7000F05DFBFEE7D8090020E11100080D
:10016000704700BFAFF30080AFF30080AFF30080B3
:10017000FEE700BFAFF30080AFF30080AFF3008075
:1001800072B6374880F30988022383F31488BFF3DB
:100190006F8F344A344B9A420BD2D143C91821F0A5
:1001A0000301131F89184FF0553243F8042F8B4277
:1001B000FBD12E4A82420CD22D49131DC91A21F0BF
:1001C0000301131F89184FF0553243F8042F8B4257
:1001D000FBD100F0F5FF2749274B99420BD2C843CA
:1001E000C01820F00300254C043000231A595A503F
:1001F00004338342FAD1224A224B9A420AD2D14393
:10020000C91821F00301131F8918002243F8042F95
:100210008B42FBD1FFF7A4FF1B4D1C4B9D420BD221
:10022000EE43F618B608043D0136002455F8043FA5
:1002300001349847B442F9D1FFF77AFF144D154BBA
:100240009D420BD2EE43F618B608043D0136002459
:1002500055F8043F01349847B442F9D1FFF788FFBD
:1002600000080020000000200004002000040020FE
:10027000030800200008002000080020E812000801
:1002800000080020080B00203001000830010008A1
:100290003001000830010008AFF30080AFF30080A8
:1002A000FEE700BFAFF30080AFF30080AFF3008044
:1002B00000F016FA00DF00BFAFF30080AFF300805C
:1002C000EFF30983203383F30988002383F3118834
:1002D000704700BFAFF30080AFF30080AFF3008042
:1002E00008B500224FF46D43CEF20003C0F2FA527B
:1002F0000021996007201021DA6000F071F80A20CF
:100300004FF4007100F06CF80B208021BDE808402C
:1003100000F066B8AFF30080AFF30080AFF3008069
:10032000202383F311884FF46D43CEF200035B6802
:1003300013F4006319D0EFF30983A3F1200282F3D1
:100340000988124A4FF08070916943F8040C79B122
:100350001168D26989689268914294BF0022012293
:1003600082B10B4A43F8082C704783F31188704719
:100370001168D26989689268914234BF00220122D3
:10038000002AEED1034A43F8082C704718090020D0
:10039000B1020008B4020008AFF30080AFF30080A0
:1003A00008B5202383F3118800F07AF8002383F343
:1003B0001188BDE80840FFF7B3BF00BFAFF300806E
:1003C0002DE9F04FC1F80CD0D0F80CD0BDE8F08F7B
:1003D000002383F311882846A04700F049FA7047AC
:1003E00000F00303DB00FF2202FA03F201FA03F13B
:1003F00080084FF46D43CEF20003063010B453F87A
:10040000204024EA02020A4343F8202010BC70472F
:10041000024B034ADB699A61FEE700BF180900201E
:1004200020120008AFF30080AFF30080AFF300802C
:1004300000B583B0FFF754FF00F0CAF800F058F899
:1004400000F0A6FB00F0DCFB40F600004021C2F209
:10045000000000F065F940F61811C2F20001012217
:10046000C8610277002383F3118862B641F230201D
:10047000C969C0F600008861009340F6480040F268
:100480001143C021C0F60003C2F2000000F0A8F939
:1004900003B000BDAFF30080AFF30080AFF3008086
:1004A00038B5104B9A69002A01DD013A9A61DA6980
:1004B0000D4C116A236801311162E2680132A342D6
:1004C000E2600ED09D68013D9D6055B91A68D968FB
:1004D0001869DD6054602260884723689A68002AA2
:1004E000F4D038BD1809002008090020AFF30080BF
:1004F00040F60813C2F200034FF0FF329A60002268
:100500005B601B60DA607047AFF30080AFF3008080
:1005100070B40D4E03613468C260A568A94204D965
:100520002468491BA5688D42FAD363688160B44290
:1005300043600460186018BFA36860601CBFC1EB13
:100540000301A16070BC704708090020AFF3008070
:100550000368074A93421FBF996882688A189A60A5
:100560004268002113600368C1605A60704700BF91
:1005700008090020AFF30080AFF30080AFF30080E4
:10058000037F0D2B11D8DFE803F020101007100BAC
:10059000101010101010100B436A9A6801329A6004
:1005A00090E80C001A60026853604FF0FF3242621C
:1005B00081680022054B02771B689A688A42FBD249
:1005C0005A68036042601060586070471809002044
:1005D00040F61813C2F2000300229A6014225B60F6
:1005E0001B609A615B611B61704700BFAFF30080C5
:1005F00000228168054B02771B689A688A42FBD209
:100600005A68036042601060586070471809002003
:1006100040F6181330B4C2F200031A68D96914689E
:100620000877142098610125104663601C60DA6128
:10063000157730BCFFF7C4BEAFF30080AFF3008086
:1006400030B54B1C87B0054611D00B4C0B4AE36903
:1006500001A8FFF75DFF2846FFF7DAFF049B13B1FF
:1006600001A8FFF775FFE369586A07B030BDFFF7CF
:10067000CFFF014CF7E700BF1809002081050008F3
:10068000F0B4154F0446FE698568B06800238542C2
:1006900061620CD823773B461B689A689542FBD968
:1006A0005A682360626014605C60F0BC7047337706
:1006B0003B461B689A689042FBD95A683360726067
:1006C0005E60012316602046FC61314623771423C7
:1006D000BB61F0BCFFF774BE18090020AFF30080C7
:1006E0000E4A30B41068D169036814258C68136011
:1006F00095615A60D06101220277002203460A7791
:1007000000E01B689A68A242FBD25A680B604A60FC
:100710001160596030BCFFF753BE00BF18090020BC
:10072000F0B440F61814C2F200046569002200F12A
:100730002C06816000F128074FF0020C01640121B2
:100740000461456180F81CC060614277C2638263C6
:10075000026281778261286187620663C662F0BCAB
:10076000704700BFAFF30080AFF30080AFF30080AD
:100770002DE9F003243940F61815C2F20005471898
:10078000D5F814C0C7604350069B00267B6040F23A
:10079000D133C0F600033B620223904600F12809E2
:1007A00000F12C02037701230561C0F80880C0F82E
:1007B00014C0044668614677C0F84080C66386630B
:1007C000066283778661CCF81000C0F82890026337
:1007D000C262BDE8F0037047AFF30080AFF3008062
:1007E00010B51C4682B0202383F311882346049C55
:1007F0000094FFF7BDFF00210446FFF741FF0023EF
:1008000083F31188204602B010BD00BFAFF3008013
:1008100008B50146202383F311880620FFF710FF57
:10082000002383F3118808BDAFF30080AFF300808D
:1008300038B50E4BDC69254655F8283F6062AB425F
:1008400007D01A681846A262FFF7D2FEA36AAB422D
:10085000F7D1637F9B0704D1636922691A6122691A
:1008600053610E20BDE83840FFF7D2BE18090020C2
:10087000202383F31188FFF7DBBF00BFAFF30080B5
:100880000023406000608360704700BFAFF30080CA
:1008900008B5826B037F1143082B81630BD0092BB2
:1008A00000D008BD436A19408B42FAD1FFF7A0FE81
:1008B0000023436208BD436A1942F7D108BD00BF57
:1008C00070B504680546A0420E4607D0A16860686E
:1008D0003143FFF7DDFF2468A542F7D170BD00BFAB
:1008E00010B4024659B1084B0D20DB695A625468B6
:1008F00083E814005360236010BCFFF7A1BE4FF0E3
:10090000FF3010BC704700BF18090020AFF3008013
:1009100010B48A18002440600060846041618161E5
:10092000C1600261C36110BC704700BFAFF30080BB
:10093000426908B5034680698242986818D0013040
:10094000986002F8011B19695A618A4228BFDA6867
:10095000186828BF5A61984208D002681A6053602C
:10096000FFF746FE00234362184608BD002008BD7D
:100970000028E4D06FF0030008BD00BFAFF3008093
:1009800070B5202304460E4683F31188C36903B172
:100990009847A568204631463DB9FFF7A1FF0028DA
:1009A000F7DA2B4683F3118870BDA369013DA5607A
:1009B00013F8010B2269A361934224BFE368A3618A
:1009C000002383F3118870BDAFF30080AFF3008084
:1009D0002DE9F0471E460446C769202383F311889A
:1009E0004FF0000801F1010901EB020A0FB12046A6
:1009F000B847A568204631464DB9FFF771FF00287A
:100A0000F7D02B4683F311884046BDE8F087A369F1
:100A1000013DA56013F8012B09F8012C2269A3619F
:100A2000934224BFE368A361002383F31188D14577
:100A300008F10108E8D0202383F3118809F10109A6
:100A4000D4E700BFAFF30080AFF30080AFF30080C6
:100A500010B48C1840600060826041618161C160A7
:100A60000461C36110BC7047AFF30080AFF3008036
:100A7000F8B504460F461646202383F31188A5686F
:100A8000204631463DB9FFF72BFF0028F7DA2B4609
:100A900083F31188F8BD6369013DA56003F8017B0C
:100AA00022696361934224BFE3686361E3690BB128
:100AB00020469847002383F311881846F8BD00BFED
:100AC0004169826910B591420346816816D00131AF
:100AD000996012F8014B19699A618A4228BFDA6855
:100AE000186828BF9A61984206D002681A6053605D
:100AF000FFF77EFD00234362204610BD0029E6D0AB
:100B00006FF0020010BD00BFAFF30080AFF30080B4
:100B10002DE9F0479A46044688461646D0F81C90C0
:100B2000202383F311880027A56820466B1EEDB1B2
:100B3000A36018F8013B656905F8013B236965610D
:100B40009D4224BFE3686361B9F1000F00D0C8473C
:100B5000002383F311880137013E10D0202383F353
:100B60001188A56820466B1E002DE1D12046514614
:100B7000FFF7B6FE0028D7D02B4683F311883846FE
:100B8000BDE8F087AFF30080AFF30080AFF30080E3
:100B900045F20001084840F63C1240F63813C2F214
:100BA0000001C2F2000220F00700C2F2000321F0AF
:100BB00007011060196070470F0B0020AFF3008031
:100BC000202383F31188094B09491A680968073003
:100BD00020F00700891A88429ABF10181860002276
:100BE000002383F311881046704700BF3C090020A2
:100BF00038090020AFF30080AFF30080AFF300802E
:100C000040F64013C2F2000340F6C1310022C0F6A4
:100C1000000103F1100019609A60DA60FFF730BE3E
:100C200008B500F005F900F0DBF841F28020C0F6CD
:100C3000000000F06DFA00F05BF8BDE8084000F03D
:100C4000C7BA00BFAFF30080AFF30080AFF30080FE
:100C5000806BD0F1010038BF00207047AFF30080F7
:100C60008069D0F1010038BF00207047AFF30080E9
:100C70000246202383F31188002180680B4691608F
:100C800083F31188704700BFAFF30080AFF300809B
:100C90001030FFF79DBE00BFAFF30080AFF30080C0
:100CA00010304FF0FF33FFF793BE00BFAFF300806B
:100CB0003030FFF72DBF00BFAFF30080AFF30080EF
:100CC00030304FF0FF33FFF723BF00BFAFF300809A
:100CD0001030FFF755BE00BFAFF30080AFF30080C8
:100CE0003030FFF7C5BE00BFAFF30080AFF3008028
:100CF00000F0F6B9AFF30080AFF30080AFF30080EF
:100D00000B4641F2502170B5C0F60001054604467D
:100D100045F8041B65600025A5600125164604F111
:100D20005001102200F110002573FFF7F1FD04F1CE
:100D3000300004F1600110223346BDE87040FFF737
:100D400087BE00BFAFF30080AFF30080AFF3008039
:100D500038B5836904460D463BB104F110002946BD
:100D6000FFF7E6FD00280FDB38BD8268194642F028
:100D700004020430A260FFF7A3FD04F1100029462D
:100D8000FFF7D6FD0028EFDAA368201D43F08003AB
:100D90000021A360BDE83840FFF792BDAFF30080AB
:100DA0004FF48053CEF200035B688360704700BF4E
:100DB0004FF48053CEF20003084982685B680968EB
:100DC0009B1AC2685B1A9342836004D802699342FB
:100DD00038BF03617047C360704700BF60090020DF
:100DE00010B540F6601486B00022C2F20004226002
:100DF00004924FF0FF3205924FF4805340F6A15217
:100E0000C0F60002CEF200035B68019240F6B152D8
:100E1000C0F6000201A803930292FFF7C9FF039BEB
:100E2000236006B010BD00BFAFF30080AFF30080B9
:100E30004FF4805370B4C4F2020300214FF0FF3529
:100E40004EF2100241F63F141869CEF200021D6105
:100E5000C0F201041961DE684EF6F050DD60D96021
:100E60005460916007211160CEF20000C2684FF417
:100E7000805142F08072C260CEF2000108684FF4E7
:100E8000E04240F001000860D969C4F2000241F07C
:100E90008051D961D96941F00061D961136843F487
:100EA0008073136070BC7047AFF30080AFF30080B5
:100EB0004FF48053C4F202031A68194642F001024B
:100EC0001A600A684FF480539207C4F20203F8D5FF
:100ED0001A68194602F0F9021A6000225A604A683C
:100EE0004FF4805312F00C0FC4F20203F7D11A68CA
:100EF000194642F480321A600A684FF48053900316
:100F0000C4F20203F8D55A68194642F4E8125A604E
:100F10001A6842F080721A600A684FF48053920196
:100F2000C4F20203F8D54FF4C841C0F21D014FF4DA
:100F300000525960C4F202021221116059681A4627
:100F400041F002015960536803F00C03082BFAD1F9
:100F5000704700BFAFF30080AFF30080AFF30080B5
:100F60004FF48843C4F200039A8992B242F080029F
:100F70009A817047AFF30080AFF30080AFF3008039
:100F80002DE9F041534E356FAF892C88A988A4B262
:100F90002207BFB21FFA81F853D104F480739BB2C9
:100FA000002B39D104F020039BB2002B28D107F08D
:100FB00080039BB223B104F080039BB2002B65D168
:100FC00004F04004A4B2BCB1202383F31188B368B9
:100FD000414843F010030021B360FFF771FC002388
:100FE00083F311884FF6BF733B40AB812B8823F00E
:100FF00040031B041B0C2B80BDE8F041FFF790B9A8
:10100000202383F3118833485FFA88F1FFF7A0FEAD
:10101000002383F31188CAE7202383F31188B36880
:101020002D4843F400730021B360FFF749FC00230F
:1010300083F311882B8823F480731B041B0C2B80F3
:10104000B0E704F0080292B2002A14BF8022002206
:10105000E30704F002039BB248BF42F020020BB149
:1010600042F0400204F004039BB20BB142F48072E0
:10107000202383F31188B36817481A430021B26014
:10108000FFF71EFC002383F3118886E7202383F3F8
:101090001188DFF8408008F13000FFF711FD0028CB
:1010A000A4BF80B2A88003DB002383F3118887E705
:1010B000D8F8083008F1040043F008030021C8F80C
:1010C0000830FFF7FDFB27F0C00343F04003AB817E
:1010D000EAE700BF6409002068090020AFF3008040
:1010E00010B540F66414C2F2000440F66172204666
:1010F0000021C0F60002FFF703FE4FF48843C4F25C
:101100000003236710BD00BFAFF30080AFF3008082
:101110004FF48053C4F202039A6930B442F4FE7271
:1011200042F001029A6102684FF40063C4F20103C5
:10113000DA6081684FF4406259604168C4F201028C
:101140001960C1684FF48053D1604169C4F2010352
:10115000516001694FF4A05411608269C4F2010426
:10116000DA60026A4FF4C0515A60C269C4F20101E8
:101170001A60436A4FF4E052E360C36AC4F20102AA
:101180006360856A4FF400532560046BC4F2010369
:10119000CC60846B4C60446B0C60C16BD160416C63
:1011A0005160016C1160826CDA60026D5A60C26C31
:1011B0001A6030BC704700BFAFF30080AFF300800F
:1011C000FFF776BEAFF30080AFF30080AFF300808F
:1011D000704700BFAFF30080AFF30080AFF3008033
:1011E0000A4B0B4ADB6970B54FF4406480259A6165
:1011F000C4F201042E4666614FF4FA70FFF708FB53
:1012000025614FF4FA70FFF703FBF4E7180900209B
:10121000E0120008AFF30080AFF30080AFF300806E
:1012200069646C6500000000000000000000000020
:101230006D61696E00160311040448080C1014183F
:10124000001C1D1E00200000000000000000000027
:10125000C10C0008A10C0008510C0008610C00082A
:10126000E10C0008D10C0008B10C0008910C00083A
:10127000710C0008000000000000000000000000E9
:10128000FFFFFFFF844B888888488488FFFFFFFFAB
:101290008888883883888888FFFFFFFF8888888847
:1012A00088888888FFFFFFFF448888888888888826
:1012B000FFFFFFFF888888888888888800000000F2
:1012C000000000000000000000000000000000001E
:1012D000000000000000000000000000000000000E
:0812E000626C696E6B6572001F
:0400000508000130BE
:00000001FF
