:020000040800F2
:1000000000040020510D0008710E0008710E000858
:10001000710E0008710E0008710E0008710E0008C4
:10002000710E0008710E0008710E0008A10E000884
:10003000710E0008710E0008710E0008810F000893
:10004000710E0008710E0008710E0008710E000894
:10005000710E0008710E0008710E0008710E000884
:10006000710E0008710E0008710E0008710E000874
:10007000710E0008710E0008710E0008710E000864
:10008000710E0008710E0008710E00083181000821
:1000900031840008710E0008710E0008710E00080E
:1000A000710E0008710E0008710E0008710E000834
:1000B000710E0008710E0008710E0008710E000824
:1000C000710E0008710E0008710E0008710E000814
:1000D000710E0008710E0008710E0008710E000804
:1000E000710E0008710E0008710E0008710E0008F4
:1000F000710E0008710E0008710E0008710E0008E4
:10010000710E0008710E0008710E0008710E0008D3
:10011000710E0008710E0008710E0008710E0008C3
:10012000710E0008710E0008710E0008710E0008B3
:1001300030B5002483B007F0C3F900F0A1FF08F048
:100140003FFF009411484FF498714022104B01F08A
:100150004FFB104D54B194F820300E2B08BF0024F3
:100160004FF47A7001F0DCFB002CF4D1D5F8D030DC
:100170001B681B78042BEED1009407484FF40B61E9
:100180004022064B01F034FB0446E9E750170020FB
:10019000219A00087016002080180020019A00089B
:1001A0000F2AF0B440D941EA00039B073ED10C4628
:1001B000034615462668103D1E6066685E60A668A8
:1001C0009E60E6681034DE6010330F2DF2D8A2F185
:1001D000100502F00F0425F00F051035032C00EB7D
:1001E0000503294424D9A4F1040C1D460C464FEA0A
:1001F0009C0C01EB8C07043754F8046BBC4245F8A7
:10020000046BF9D10CF1010402F00302A4000919F6
:100210001B193AB101399A1811F8014F03F8014B33
:100220009342F9D1F0BC70470346F2E70346F1E789
:100230002246EEE700000000000000000000000081
:100240008842F0B411D98C18A0420ED28518531EE2
:100250004AB121462A4611F8014D013BB3F1FF3F57
:1002600002F8014DF7D1F0BC70470F2A40D941EA9E
:1002700000039B073ED10C46034615462668103DF9
:100280001E6066685E60A6689E60E6681034DE6088
:1002900010330F2DF2D8A2F1100502F00F0425F053
:1002A0000F051035032C00EB0503294424D9A4F1D4
:1002B000040C1D460C464FEA9C0C01EB8C070437DE
:1002C00054F8046BBC4245F8046BF9D10CF10104FD
:1002D00002F00302A40009191B19002AC3D0013936
:1002E0009A1811F8014F03F8014B9342F9D1BAE77C
:1002F0000346F2E70346F2E72246EEE7000000007D
:1003000070B48407034644D0541E002A3FD0CEB2B6
:1003100002E0002C3BD0144603F8016B13F0030FEE
:100320001D4604F1FF32F4D1032C29D9CAB20F2C97
:1003300084BF2B46264642EA022242EA024211D9F3
:10034000103E1A605A609A60DA6010330F2EF7D8A8
:10035000A4F1100304F00F0423F00F031033032C57
:100360001D440DD92E462346043B46F8042B032B8F
:10037000FAD8231F04F0030423F003030433ED1819
:100380002CB1C9B22C1905F8011BA542FBD170BCD8
:10039000704705461446C7E7000000000000000053
:1003A0000F4B70B41D6810F8013BEC181A466478C6
:1003B00004F00304012C11F8014B08BF03F12002E3
:1003C0002E192346767806F00306012E08BF04F1A5
:1003D0002003D21A01D1002BE5D1104670BC704722
:1003E00000080020000000000000000000000000E5
:1003F000C9B2F0B400294BD083070FD00378002B8B
:1004000073D0994242D0431C05E013F8012B002A17
:100410003BD091423AD09A071846F6D1036841EA98
:100420000127A3F1013247EA074722EA030212F04B
:10043000803F1CD17B40A3F1013222EA030313F079
:10044000803F14D1021D02E014F0803F0FD110460E
:1004500052F8043BA3F1013687EA030426EA0303BA
:10046000A4F1013513F0803F25EA0404ECD00378B1
:10047000002B3AD0994209D0431C01E0914205D0AB
:10048000184613F8012B002AF8D11046F0BC70472B
:1004900081070DD00378002BF8D0431C02E00278CE
:1004A000002AF3D013F0030F184603F10103F6D12D
:1004B0000368A3F1013222EA030313F0803F0AD15B
:1004C000021D104652F8041BA1F1013424EA010177
:1004D00011F0803FF5D00378002BD7D0431C18468D
:1004E00001330278002AFAD1D0E71846CEE700BFE0
:1004F00080EA010212F0030F40F03A8010F003028C
:1005000020F0030021F0030150F804CB08BF51F89C
:10051000043B0DD082F003024FEAC2026FF07F432A
:1005200023FA02F251F8043B4CEA020C43EA0203BC
:10053000ACF101329C4501BF22EA0C0212F0803F6F
:1005400050F804CB51F8043BF2D04FEA0C604FEA6C
:100550001C2C012828BFB0EB036F08BF1B0AF4D086
:1005600003F0FF034FEA1060A0EB0300704700BFE9
:1005700010F0030F0AD010F8012B11F8013B012AEB
:1005800028BF9A42F4D0A2EB030070474DF8045DF7
:100590004DF8044D4FF0010242EA022242EA0242C3
:1005A00001F0030C21F0030150F8044B51F8045BF7
:1005B000BCF1020F26D04BD824F07F4CBCEB152F9A
:1005C000A4EB020323EA04030DD113EAC21308BF0C
:1005D00051F8045B0AD18CEA040CBCEB056F0CD11A
:1005E00050F8044BE8E74FEA15255CE033F07F4311
:1005F00052D10D784FEA146C55E04FEA146C05F0B7
:10060000FF0550E04FEA044CA4EB02034FEA1C4CF8
:1006100023EA0403BCEB154F17D113EAC21308BF3A
:1006200051F8045B07D18CEA040CBCEB054F08D1F0
:1006300050F8044BE6E71B042ED10D884FEA144C0A
:1006400031E04FEA05454FEA144C4FEA15452AE0E0
:1006500004F0FF0CBCEB156FA4EB020323EA0403C8
:100660000DD113EAC21308BF51F8045B0AD18CEA1A
:10067000040CBCEB052F0AD150F8044BE8E74FEA15
:10068000156510E014F0FF0F06D051F8045B4FEA37
:10069000142C25F07F4506E04FF000005DF8044B78
:1006A0005DF8045B70470CF0FF0205F0FF000128C5
:1006B00028BF904204BF4FEA1C2C2D0AF3D0A2EBB6
:1006C00000005DF8044B5DF8045B7047000000001B
:1006D00020F0030110F00300C0F1000051F8043BCA
:1006E00000F1040C4FEACC0C6FF000021CBF22FAA0
:1006F0000CF213434FF0010C4CEA0C2C4CEA0C4C5E
:10070000A3EB0C0222EA030212EACC1204BF51F856
:10071000043B0430F4D013F0FF0F1FBF013013F47B
:100720007F4F013013F47F0F18BF0130704700BFB7
:100730002DE9F00701273C4600254FF0FF366319ED
:1007400000EB060C8B420DD21CF804C010F803809D
:10075000E0452ED201241D469F1B63198B4200EBFE
:10076000060CF1D34FF0010A002554464FF0FF3C30
:100770001760631900EB0C0899420ED918F8048031
:1007800010F80390C1451AD901241D46CCEB030A89
:100790006319994200EB0C08F0D80CF10100013606
:1007A000B0423CBFBA463046C2F800A0BDE8F007F0
:1007B00070470BD001272E463C46ED19BFE709D004
:1007C0004FF0010AAC4654465544D2E7BC4205D02E
:1007D0000134B4E7544505D00134CAE727461D4625
:1007E0000124ACE7A2461D460124C2E72DE9F04FE3
:1007F000ADF2244D164680460D461046194607AA0E
:100800001C46FFF795FF07AB0DF21C42039043F81F
:10081000044F9342FBD1671E002308A834B1F25C59
:10082000F91A0133A34240F82210F8D10799304653
:10083000039A711800F044FA00287FD1DDF80CC04B
:100840002A468246671E0CF1FF3CCDF808C0B4442E
:10085000CDF814C0DDF80CC005460194CCF1010CB4
:10086000CDF810C009E02DB1079A93423CBF019921
:10087000C2EB01039A4400252246019B08EB0200CB
:1008800000210AEB0304A21A00F0CAF900284FD194
:10089000002C4DD008EB040308A913F8013C51F8D3
:1008A0002330002BDFD1039A954228BF2A46BA4253
:1008B00011D208EB0A0316F802C0B118985C8445FF
:1008C00006D02FE011F8010F13F802C0844529D19A
:1008D0000132BA42F6D3039B02989D4228BF1846C4
:1008E00018D2DDF808C008EB0A0316F80C1013F84C
:1008F0000C20914240F08680059A06EB050B06E03D
:1009000013F801C012F8019DE14503D10846411ECC
:100910005A45F5D10135854276D8079D019BAA44F9
:100920005D1BA9E7DDF810C00025E2449244A3E76F
:10093000002009B00DF5806DBDE8F08FDDF80CC02A
:100940002A46DDF80CA04FF0000BCCEB04030DF1B0
:100950002009634538BF6346671E01332546079368
:100960000CF1FF330193B444039BCDF808C0C3F1ED
:10097000010304930BEB050408EB02000021A21A0B
:1009800000F04EF90028D3D1002CD1D008EB04039D
:1009900013F8013C59F8233063BBBA4508EB0B0050
:1009A00015D2DDF808C010F80A309CF800209A42F1
:1009B00018BF534621D1029A534605E012F8011F91
:1009C00010F803C08C4518D10133BB42F6D3019B0C
:1009D0005A1CAED0DDF804C016F80C1010F80C202C
:1009E000914206D113F1FF33A3D3F15CC25C914273
:1009F000F8D0079B9B442246BCE7DDF810C0E344D7
:100A00009B44F8E7039885E708EB0A0091E700BFED
:100A10002DE9F04F8046037887B00E46002B00F09A
:100A2000F7800A789AB184460131012702E011F873
:100A3000012B5AB1934214BF002707F001071CF89D
:100A4000013F0D46002BF2D12B7803BB1FB140466E
:100A500007B0BDE8F08F08F101003178FFF7C8FC5E
:100A6000AD1B012D18BF0028074608BF8046EED0F9
:100A7000A844404594BFC0EB080401241F2D09D9A8
:100A8000214632462B46FFF7B1FE8046DFE74FF0A6
:100A90000008DCE7294605AA3046FFF749FE05991C
:100AA000711801903046019A00F00AF9002852D1DD
:100AB000019B83468046013B0093F3180393019BFF
:100AC000C3F101030293224608EB0504B818002184
:100AD000A21A00F0A5F80028D9D1002CD7D0019B8C
:100AE0009B4528BF5B469D4213D9F918F05CF2186C
:100AF00011F80810884240F0858007EB080C05E0EB
:100B000012F8011F1CF8030088427BD101339D427B
:100B1000F6D89DE80A005B457DD907EB0809725CB1
:100B200019F801309A4276D1039B06EB0B0A06E0D6
:100B300019F8020013F801CD844503D111464A1E6D
:100B40005345F5D10BF1010B8B4566D8059B9844B5
:100B5000C3EB050BB7E701984FF0000B22462B1AA9
:100B600006EB000900F1FF388246834238BF034696
:100B70003918013300910593C0F1010302930BEB87
:100B80000504B8180021A21A00F04AF800287FF4E2
:100B90007EAF002C3FF47BAF554598BF07EB0B00B1
:100BA00014D9009899F8002010F80B309A4224D1FB
:100BB0004A46534607EB0B0005E012F8011F10F8F8
:100BC00003C08C451AD101339D42F6D8B8F1FF3FDE
:100BD00043463FF45AAF16F8081010F80820914227
:100BE00007D113F1FF33FFF450AFF15CC25C9142C7
:100BF000F7D0059B9B442246C1E75346029A934493
:100C00009B44F8E702994FF0000B884498445AE758
:100C10000D46012718E7019994E7B84417E700BF8C
:100C20008307C9B270B440D0541E002A3FD0037865
:100C30008B4221D0431C04E004B30278013C8A4279
:100C40001AD013F0030F184603F10103F4D1032C5B
:100C500016D8651E94B103788B420DD0421C002338
:100C600002E004788C4207D09D42104603F1010354
:100C700002F10102F5D1002070BC70472046FBE76D
:100C800041EA012646EA06460246043013687340EC
:100C9000A3F1013525EA030313F0803F03D1043C9F
:100CA000032CF1D8D5E71046D3E71446CFE710461A
:100CB000E2E700BF000000000000000000000000AC
:100CC000032A70B422D941EA00039B0713D00578A8
:100CD000013A0C780023A54206D01BE010F8015F12
:100CE00011F8014FA54215D1934203F10103F5D14B
:100CF000002070BC70470C460346043104301E6867
:100D00002568AE4208D1043A032AF4D8002ADED17D
:100D10001046EEE7281BECE721461846002AD6D1FC
:100D2000F6E700BF00000000000000000000000027
:100D3000704700BFAFF30080AFF30080AFF30080D7
:100D4000FEE700BFAFF30080AFF30080AFF3008099
:100D500072B6374880F30988022383F31488BFF3FF
:100D60006F8F344A344B9A420BD2D143C91821F0C9
:100D70000301131F89184FF0553243F8042F8B429B
:100D8000FBD12E4A82420CD22D49131DC91A21F0E3
:100D90000301131F89184FF0553243F8042F8B427B
:100DA000FBD107F01DFD2749274B99420BD2C843C1
:100DB000C01820F00300254C043000231A595A5063
:100DC00004338342FAD1224A224B9A420AD2D143B7
:100DD000C91821F00301131F8918002243F8042FBA
:100DE0008B42FBD1FFF7A4FF1B4D1C4B9D420BD246
:100DF000EE43F618B608043D0136002455F8043FCA
:100E000001349847B442F9D1FFF792F9144D154BCC
:100E10009D420BD2EE43F618B608043D013600247D
:100E200055F8043F01349847B442F9D1FFF788FFE1
:100E30000008002000000020000400200004002022
:100E4000030800200008002008090020F8B6000868
:100E5000080900203021002030010008300100087E
:100E60003001000830010008AFF30080AFF30080CC
:100E7000FEE700BFAFF30080AFF30080AFF3008068
:100E800072B6FEE7AFF30080AFF30080AFF30080EF
:100E900000F076F900F0E4FB00F08AF900DF00BF13
:100EA000EFF30983203383F30988002383F3118848
:100EB000704700BFAFF30080AFF30080AFF3008056
:100EC00008B500224FF46D43CEF20003C0F2FA528F
:100ED0000021996007201021DA6000F0A9F80A20AB
:100EE0004FF4007100F0A4F80B208021BDE8084009
:100EF00000F09EB8AFF30080AFF30080AFF3008046
:100F0000202383F311884FF46D43CEF200035B6816
:100F100013F4006319D0EFF30983A3F1200282F3E5
:100F20000988124A4FF08070916943F8040C79B136
:100F30001168D26989689268914294BF00220122A7
:100F400082B10B4A43F8082C704783F3118870472D
:100F50001168D26989689268914234BF00220122E7
:100F6000002AEED1034A43F8082C70473C0E0020BB
:100F7000910E00089C0E0008AFF30080AFF30080D4
:100F800008B500F06DF9202383F3118800F030F9E3
:100F900000F0B6F800F044F9002383F3118800F064
:100FA0007FF9BDE80840FFF7ABBF00BFAFF300809B
:100FB0002DE9F04FC1F80CD0D0F80CD0BDE8F08F7F
:100FC00008B500F0F5F8002383F311882846A04700
:100FD00000F016FD08BD00BFAFF30080AFF3008046
:100FE00000F0030370B4DB00FF2505FA03F501FAF6
:100FF00003F1012200F01F0302FA03F284084FF408
:101000006143CEF20003C03453F82460400926EA5D
:1010100005050D4300F1600643F8245043F82620EF
:1010200043F8202070BC7047AFF30080AFF300801E
:1010300000F00303DB00FF2202FA03F201FA03F1DE
:1010400080084FF46D43CEF20003063010B453F81D
:10105000204024EA02020A4343F8202010BC7047D3
:10106000024B034ADB699A61FEE700BF3C0E002099
:10107000209C0008AFF30080AFF30080AFF3008046
:1010800030B583B0FFF71CFF00F01AFA00F090F9BA
:1010900002F0CEF802F024F900F052F940F6081000
:1010A0004021C2F2000000F01BFB40F63C6440F21D
:1010B0000043C2F20003C2F200040125E06180F89F
:1010C0002050C36100F044F8002383F3118862B616
:1010D00049F6F051E269C0F60001916140F65810FE
:1010E000009341F26103C0212A46C0F60003C2F218
:1010F000000000F07DFB03B030BD00BFAFF3008007
:1011000038B500F0EDF8104B9A69002A01DD013A7C
:101110009A61DA690D4C516A236801315162E268C3
:101120000132A342E2600ED09D68013D9D6055B939
:101130001A68D9681869DD6054602260884723689E
:101140009A68002AF4D038BD3C0E00202C0E0020F6
:10115000054B1B6813B9054B1B6823B1044A054BAB
:101160001A60FFF78DBE7047180A0020240E002079
:10117000409C0008280E0020AFF30080AFF30080F1
:10118000074B10B51B68074C0BB9236823B1064AFF
:10119000064B1A60FFF774FE0123236010BD00BFE9
:1011A000180A0020240E0020489C0008280E002069
:1011B000084B10B51B68084C2BB92368002B02DDC7
:1011C0000023236010BD054A054B1A60FFF758FE47
:1011D000F6E700BF180A0020240E0020509C0008EB
:1011E000280E0020AFF30080AFF30080AFF3008043
:1011F000074B10B51B68074C002B01DD236823B19A
:10120000054A064B1A60FFF73BFE0123236010BD21
:10121000180A0020240E0020589C0008280E0020E8
:10122000084B10B51B68084C002B05DD2368002B0C
:1012300002DD0023236010BD044A054B1A60FFF74E
:101240001FFEF6E7180A0020240E0020609C00080C
:10125000280E0020AFF30080AFF30080AFF30080D2
:1012600010B5202383F31188094C2368002B02DB7F
:10127000084A12682AB1084B084A1A60FFF700FEB4
:10128000236801332360002383F3118810BD00BF5E
:10129000180A0020240E0020280E0020689C000858
:1012A00010B5202383F31188094C2368002B02DD3D
:1012B000084A12682AB1084B084A1A60FFF7E0FD95
:1012C0002368013B2360002383F3118810BD00BF16
:1012D000180A0020240E0020280E0020709C000810
:1012E000064B1B68002B04DB054B1B68002B00DD45
:1012F0007047044A044B1A60FFF7C2BD180A002069
:10130000240E0020789C0008280E0020AFF30080F7
:10131000064B1B6823B9064B1B68002B00DD70478A
:10132000044A054B1A60FFF7ABBD00BF180A002046
:10133000240E0020809C0008280E0020AFF30080BF
:1013400040F61C23C2F200031A46402142F8081B53
:101350005A607047AFF30080AFF30080AFF30080B6
:101360000C4910B40C4ACC680C495368C9691C601C
:101370005960846A03F110019C6090F8204002F5E6
:10138000816081421C732ABF02F1080351605360DF
:1013900010BC70472C0E00201C0A00203C0E0020C0
:1013A00040F62863C2F200031860FFF769BD00BF72
:1013B00040F62C63C2F200034FF0FF329A60002225
:1013C0005B601B60DA607047AFF30080AFF30080B2
:1013D000F8B5054616460C461F46FFF781FF002D5F
:1013E00018BF002E1AD0CCB10E492F610B68EE60E9
:1013F0009A68944204D91B68A41A9A68A242FAD344
:101400005A68AC608B426A602B60156018BF9A689E
:101410005D601CBFC4EB02049C60F8BD0248FFF78E
:10142000BFFFE1E72C0E0020909C0008AFF3008086
:1014300010B50446FFF754FF84B1E36893B1236805
:101440000A4A93421FBF9968A2688A189A60626824
:10145000002113602368E1605A6010BD0448FFF763
:101460009FFFEAE70348FFF79BFFE8E72C0E002009
:10147000A09C0008B09C0008AFF30080AFF3008090
:101480000B4A81420346D26809D8824234BF002306
:1014900001238A422CBF184643F0010070478A425C
:1014A0002CBF002001209A4238BF0020704700BFA7
:1014B0002C0E0020AFF30080AFF30080AFF300806C
:1014C00040F63C63C2F2000300229A6014225B6083
:1014D0001B609A615B611B61704700BFAFF30080C6
:1014E00010B590F820300446002B18BF0E2B0FD0FB
:1014F0000022A168084B84F820201B689A688A4261
:10150000FBD25A682360626014605C60204610BDA4
:101510000248FFF745FFEBE73C0E0020D09C000897
:1015200090F820300D2B11D8DFE803F015101007CC
:10153000100B101010101010100B836A9A680132F3
:101540009A6090E80C001A60026853604FF0FF3315
:101550008362FFF7C5BF7047AFF30080AFF3008031
:1015600070B5114C0646FFF7D3FE2368E5691A688B
:101570001421A1610121546085F82060284683F878
:1015800020102260E361FFF7EBFEEB69ADF124026E
:10159000934202D90548FFF703FFE0692946BDE8F9
:1015A0007040FFF705BD00BF3C0E0020E49C000822
:1015B00070B50C4686B00646FFF7AAFE631C12D033
:1015C0000B4D2146EB690B4A01A8FFF701FF30469E
:1015D000FFF7C6FF049B13B101A8FFF729FFEB69D2
:1015E000986A06B070BD3046FFF7BAFF004DF6E7C7
:1015F0003C0E002021150008AFF30080AFF30080FF
:1016000070B5154D04460E46FFF782FEE869A268E4
:101610008368A6629A4215D9FFF762FF0123064646
:1016200084F820301423AB61EC61FFF799FEF36975
:10163000ADF1240293420AD820463146BDE87040FD
:10164000FFF7B6BC2046BDE87040FFF749BF03482E
:10165000FFF7A6FEF0E700BF3C0E0020E49C000868
:1016600038B5104C14212368E5691A68A16101217D
:10167000546083F8201028462260E361FFF730FFB2
:101680002846FFF76DFEEB69ADF12402934202D9C3
:101690000548FFF785FEE0692946BDE83840FFF7B9
:1016A00087BC00BF3C0E0020E49C0008AFF3008024
:1016B00008B5FFF72DFE064B1A68DB6992689B6838
:1016C0009A4200D808BDBDE80840FFF7C9BF00BF77
:1016D0003C0E0020AFF30080AFF30080AFF300803A
:1016E0002DE9F00140F63C64C2F200046569002275
:1016F00000F13006816000F12C0C00F14C074FF036
:101700000208416401210461456180F82080606124
:1017100080F821200264C263426280F82210826154
:101720002861C0F82CC046630663C761BDE8F001BC
:10173000704700BFAFF30080AFF30080AFF30080CD
:10174000884203D200F8012B8842FBD1704700BFCA
:101750002DE9F04704460D4690469946FFF7C0FD37
:10176000002C18BFAF2D0AD9B8F17F0F94BF00230A
:101770000123B9F1000F08BF43F0010313B1194869
:10178000FFF70EFE184EA5F12403E7187169E76014
:1017900044F80390089B00257B60144B04F1300251
:1017A0003B62022304F12C0A04F14C0C84F8203033
:1017B00001232661C4F8088061612046746184F8C1
:1017C0002150C4F844802564E563656284F82230C2
:1017D000A5610C61C4F82CA062632263C4F81CC02C
:1017E000BDE8F087009D00083C0E0020C10F0008F6
:1017F0002DE9F04F804683B0894692469B4600F122
:101800004C0700F1010400F14D06FF2504F8015CCE
:101810000134B442FAD108EB0904A74204D2552599
:1018200007F8015BA742FBD1202383F31188FFF760
:10183000A7FC0C985B465246494600904046FFF78D
:1018400087FF00210446FFF7DBFEFFF7B1FC002312
:1018500083F31188204603B0BDE8F08FAFF300801A
:101860007F2838B5044617D8202383F31188FFF763
:1018700087FC0B4BDB695D6C9A68954201D0944202
:1018800000D99C605C64FFF713FFFFF791FC002315
:1018900083F31188284638BD0248FFF781FDE3E74E
:1018A0003C0E0020149D0008AFF30080AFF30080D1
:1018B00010B52023044683F31188FFF761FC94F8E8
:1018C0002030022B02D00748FFF76AFD2046002196
:1018D000FFF796FEFFF76CFC002383F31188204688
:1018E00010BD00BF2C9D0008AFF30080AFF3008057
:1018F00010B52023044683F31188FFF741FC94F8C8
:10190000213043F0040384F82130FFF751FC002319
:1019100083F3118810BD00BFAFF30080AFF30080E8
:1019200010B5044610B90948FFF73AFD202383F3A8
:101930001188FFF725FC21460620FFF739FEFFF747
:1019400037FC002383F3118810BD00BF409D0008C1
:1019500010B52023044683F31188FFF711FC064BD2
:10196000D968611A02D00620FFF722FEFFF720FC9B
:10197000002383F3118810BD2C0E0020AFF30080EC
:1019800008B5202383F31188FFF7FAFB074B1A6889
:10199000DB6992689B689A4201D3FFF761FEFFF70B
:1019A00007FC002383F3118808BD00BF3C0E002014
:1019B00038B5104BDC69254655F82C3FA062AB4288
:1019C00007D01A681846E262FFF78AFDE36AAB4265
:1019D000F7D194F821309B0704D1636922691A6119
:1019E000226953610E20FFF7BBFD0348BDE8384074
:1019F000FFF7D6BC3C0E0020509D0008AFF30080DE
:101A000010B52023044683F31188FFF7B9FB204665
:101A1000BDE81040FFF7CCBFAFF30080AFF300800C
:101A200038B5044648B3202383F31188154DFFF7DA
:101A3000A7FBEB69A3421CD094F82230ABB194F819
:101A400020300E2B06D0EB69E26A07201A60E362B1
:101A5000FFF786FDA56AFFF7ABFB002383F3118830
:101A6000204600F03DF8284638BD0748FFF798FCAF
:101A7000E5E70648FFF794FCDEE70548FFF790FC32
:101A8000D1E700BF3C0E0020849D0008749D000833
:101A9000649D0008AFF30080AFF30080AFF30080D7
:101AA00010B52023044683F31188FFF769FB94F8EF
:101AB0002230FF2B09D0013384F82230FFF778FB66
:101AC000002383F31188204610BD0348FFF768FC0C
:101AD00094F82230EFE700BFA09D0008AFF300802C
:101AE00038B50446202383F31188FFF749FB94F8A7
:101AF0002230002B21D0013BDDB284F82250FFF7C9
:101B000057FB002383F311881DB994F820300E2B66
:101B100000D038BD94F8213003F00303012B12D01C
:101B2000022BF6D163692269A06C1A6122692146F1
:101B30005361BDE8384001F023BD0848FFF730FC91
:101B400094F82230D7E76369226920461A61226936
:101B50005361BDE8384001F03BBC00BFB49D0008B4
:101B60002DE9F04182B00D461746984601F0E8FB9A
:101B7000044618B300F14C063146FF22FFF7E0FDA2
:101B8000304661195522FFF7DBFD202383F31188CE
:101B9000FFF7F6FA08983A46434629460090204651
:101BA000FFF7D6FD012380F8213000210446FFF71E
:101BB00027FDFFF7FDFA002383F31188204602B0CA
:101BC000BDE8F081AFF30080AFF30080AFF3008099
:101BD0002DE9F043044683B0884691461F4600280D
:101BE0002DD0204601F09CFC054620B300F14C06A8
:101BF0003146FF22FFF7A4FD61683046691855227F
:101C0000FFF79EFD202383F31188FFF7B9FA61687F
:101C100042464B4600972846FFF79AFD022380F87C
:101C20002130002184640546FFF7EAFCFFF7C0FA83
:101C3000002383F31188284603B0BDE8F0830248EF
:101C4000FFF7AEFBCDE700BFC89D0008AFF30080F3
:101C500010B5202383F31188FFF792FA40F63C6316
:101C6000C2F200031C6994F82230013384F8223058
:101C7000FFF79EFA002383F31188204610BD00BFB2
:101C800038B50546202383F31188FFF779FA2C69CC
:101C90000D4B9C4216D094F82230FF2B0CD0013310
:101CA00084F82230FFF784FA002383F31188284652
:101CB000FFF716FF204638BD0448FFF771FB94F884
:101CC0002230ECE70024EDE73C0E0020109E0008D7
:101CD00038B5D0F1010338BF002353EAD17304466D
:101CE0000D4602D00348FFF75BFB64602460A560EB
:101CF00038BD00BF309E0008AFF30080AFF3008016
:101D000070B504460E46FFF7EBFAD4F1010338BF75
:101D1000002353EAD6731DD1A5682368002D16DB76
:101D2000A34203D00D48FFF73BFBA5680135002D0A
:101D3000A6600BDC6FF001066068013543686360E4
:101D40001C60FFF7CDFB012D8662F5D170BDA3426B
:101D5000ECD1E7E70248FFF723FBDDE7509E0008E0
:101D6000409E0008AFF30080AFF30080AFF3008027
:101D700038B505460C46202383F31188FFF700FA97
:101D800028462146FFF7BCFFFFF792FCFFF710FA49
:101D9000002383F3118838BDAFF30080AFF30080D8
:101DA00038B50446FFF7B4FA1CB3A3682268002BC9
:101DB0000BDBA24203D01148FFF7F2FAA368013B04
:101DC000002BA36007DB002038BDA242F3D0013B0B
:101DD000002BA360F7DA0A4D0320EB699C6262686E
:101DE0001C605A6063601360FFF7BAFBEB69986A86
:101DF00038BD0448FFF7D4FAD7E700BF749E000847
:101E00003C0E0020649E0008AFF30080AFF300801A
:101E100010B52023044683F31188FFF7B1F920465B
:101E2000FFF7BEFF0446FFF7C3F9002383F31188D1
:101E3000204610BDAFF30080AFF30080AFF3008009
:101E400038B504460D46FFF763FA002C24D0A3688A
:101E50002268002B0BDBA24203D01348FFF7A0FA45
:101E6000A3685A1E002AA26007DB002038BDA242E8
:101E7000F3D05A1E002AA260F7DA8DB10B4B032073
:101E8000DB6929469C6262681C605A60636013606B
:101E9000BDE83840FFF78CBB0548FFF781FAD6E76D
:101EA000A3604FF0FF3038BDA09E00083C0E00201C
:101EB000889E0008AFF30080AFF30080AFF300808E
:101EC00038B505460C46202383F31188FFF758F9EF
:101ED00021462846FFF7B4FF0446FFF769F90023BF
:101EE00083F31188204638BDAFF30080AFF3008044
:101EF00010B5044618B3A368002B236814DBA34273
:101F000002D01148FFF74CFA202383F31188FFF722
:101F100037F9A3680133002BA36008DDFFF748F908
:101F2000002383F3118810BDA342EDD1E9E72068B7
:101F30000021036823605C60FFF762FBEEE7034863
:101F4000FFF72EFAD7E700BFC89E0008B89E00082A
:101F500010B50446FFF7C4F9002C1FD0A36822680F
:101F6000002B0ADBA24203D00E48FFF719FAA36840
:101F70000133002BA36006DD10BDA242F4D0013373
:101F8000002BA360F8DC23681A68184622605460AE
:101F900000229A62BDE81040FFF7A2BA0248FFF79C
:101FA000FFF9DBE7F09E0008DC9E0008AFF300803D
:101FB00070B505460C46FFF793F9002D18BF002CAD
:101FC00020DDAB68002B2B6819DBAB4202D00F4839
:101FD000FFF7E6F9002C11DD002601E0013C0DD0F1
:101FE000AB680133002BAB60F8DC286803682B601A
:101FF0005D60FFF775FA013C8662F1D170BDAB42BE
:10200000E8D1E4E70248FFF7CBF9DAE71C9F0008C4
:10201000049F0008AFF30080AFF30080AFF30080AF
:10202000002818BF002938B50C46054633D0AB68E8
:10203000002B2B6826DBAB4202D02448FFF7B0F917
:10204000A368002B236823DBA34202D02048FFF7BC
:10205000A7F9202383F31188FFF792F8AB680133C7
:10206000002BAB6028DDA368013B002BA36016DBCF
:10207000FFF71EFB0024FFF79BF8002383F3118872
:10208000204638BDAB42D8D0A368002B2368DBDAEA
:10209000A342DED1DAE70F48FFF782F9C7E70E4A1D
:1020A0006368D56903202C606B606560AC621D605D
:1020B000FFF756FAAC6ADEE7286803682B605D60BC
:1020C000FFF70EFA00238362CDE700BF489F0008A8
:1020D000609F0008349F00083C0E0020AFF3008092
:1020E00010B5044620B1002364602460A36010BDD5
:1020F0000148FFF755F9F6E7809F0008AFF300802D
:10210000F8B53B4B0546DC69FFF702F9002D6BD0B3
:10211000A868002836D0A2688368934208D290F855
:1021200020308260042B45D0052B30D0002B1ED0F0
:102130002B461B689D4203D09968A2689142F8D251
:102140005A682360626004205C601460A562FFF737
:1021500007FAAB68A34202D02648FFF721F9236CA7
:10216000AB4213D02448BDE8F840FFF719B990E816
:102170000C001A600268012180F820105360FFF7FC
:10218000AFF9D5E7236CAC60EB602564F8BD41681E
:102190000368866A0B600768334679601B689E4255
:1021A00002D099689142F9D25A6803604260106087
:1021B0005860BDE741680368866A0B60076833466C
:1021C00079601B689E420DD099689142F9D25A6895
:1021D0000360426010605860B068A26883689342F0
:1021E0009DD3A5E73346F2E70448FFF7D9F88FE718
:1021F0003C0E0020A09F0008B49F0008909F00089C
:1022000010B52023044683F31188FEF7B9FF20465A
:10221000FFF776FFFEF7CCFF002383F3118810BD94
:1022200010B50446FFF774F85CB1A3680BB1002049
:1022300010BD064B0120DB691A6CA360E2601C64D0
:1022400010BD0348FFF7ACF8EFE700BF3C0E0020DD
:10225000C89F0008AFF30080AFF30080AFF30080A9
:1022600010B52023044683F31188FEF789FF20462A
:10227000FFF7D6FF0446FEF79BFF002383F3118888
:10228000204610BDAFF30080AFF30080AFF30080B5
:102290001E4A70B52023D56983F31188FEF770FFBD
:1022A0002C6C002C2DD0A368AB4203D01848FFF74C
:1022B00077F82C6C2668E368A6422B641ED0696C04
:1022C0004BB11A689A4203D09268914238BF1146C6
:1022D000DB68002BF5D13368326CA960304623608F
:1022E00000215C60A660E2603464FFF789F9FEF7C4
:1022F0005FFF002383F31188204670BD0023A36095
:10230000F5E70448FFF74CF82C6CCCE73C0E0020B6
:10231000F09F0008DC9F0008AFF30080AFF300805F
:102320001A4B70B5DD69FEF7F3FF2C6C002C28D03A
:10233000A368AB4203D01648FFF732F82C6C26682E
:10234000E368A6422B6418D0696C4BB11A689A42B4
:1023500003D09268914238BF1146DB68002BF5D15B
:102360003368326CA960304623605C60A660E2602E
:102370003464FFF7B5F8204670BD0023A360204603
:1023800070BD0448FFF70CF82C6CD1E73C0E002020
:1023900018A0000804A00008AFF30080AFF300808D
:1023A000144A70B52023D46983F31188FEF7E8FE40
:1023B000236CC3B100261A68D9689A42216410467A
:1023C00008BF9E6008D01168156C19604B609A6058
:1023D000DD601364FFF784F8236C002BEBD1636C92
:1023E000A360FFF765F9FEF7E3FE002383F311888E
:1023F00070BD00BF3C0E0020AFF30080AFF3008043
:1024000010B5044610B16460246010BD0148FEF7A9
:10241000C7FFF8E730A00008AFF30080AFF30080FB
:1024200010B5044698B1202383F31188FEF7A8FE67
:102430002068A04205D00368002123605C60FFF79C
:10244000DFF8FEF7B5FE002383F3118810BD0248C4
:10245000FEF7A6FFE7E700BF40A00008AFF300804B
:1024600010B50446FEF73CFF54B12068A04206D0E8
:10247000036823605C60FFF733F80023836210BDBC
:102480000148FEF78DFFF0E754A00008AFF300808D
:1024900038B50446FEF724FF74B12068A0420AD084
:1024A0006FF00105036823605C60FFF719F885622F
:1024B0002068A042F6D138BD0148FEF771FFECE775
:1024C00068A00008AFF30080AFF30080AFF3008096
:1024D00010B52023044683F31188FEF751FE2046F1
:1024E000FFF7D6FFFFF7E4F8FEF762FE002383F361
:1024F000118810BDAFF30080AFF30080AFF3008010
:10250000F8B5174B0546DC69FEF702FF1DB3236CD7
:10251000EBB1FFF705FF2E460746A5622B4603E009
:102520009968A268914210D31B689D42F8D17368E4
:10253000266063601C6074600520FFF711F8A46AD0
:102540003846FFF7DDFD2046F8BD1E46EFE705489B
:10255000FEF726FFDDE70448FEF722FFD7E700BFBE
:102560003C0E002090A0000880A00008AFF300807F
:1025700010B52023044683F31188FEF701FE2046A0
:10258000FFF7BEFF0446FEF713FE002383F3118816
:10259000204610BDAFF30080AFF30080AFF30080A2
:1025A0002DE9F04106460F46FEF7B2FE002E18BF99
:1025B000002F22D0154CE3691B6C13B3FFF7B0FE5C
:1025C000E2698046334696621B689E4203D09D684E
:1025D0009468A542F8D25968136051600A605A6045
:1025E00005203946FEF7E4FF431C044602D040466E
:1025F000FFF786FD2046BDE8F0810548FEF7D0FED6
:10260000D8E70448FEF7CCFED8E700BF3C0E002018
:10261000A4A00008BCA00008AFF30080AFF30080C6
:1026200038B505460C46202383F31188FEF7A8FD34
:1026300021462846FFF7B4FF0446FEF7B9FD002304
:1026400083F31188204638BDAFF30080AFF30080DC
:10265000002818BF002970B50C460546164602D161
:102660000A48FEF79DFE202383F31188FEF788FDBC
:10267000074B2A68DB6922602C606360A660FEF766
:1026800097FD002383F3118870BD00BFE0A0000810
:102690003C0E0020AFF30080AFF30080AFF300806A
:1026A000002818BF002938B50D46044614D0202351
:1026B00083F31188FEF764FD224600E01A46136892
:1026C000A34203D09D42F9D12B681360FEF770FD41
:1026D000002383F3118838BD0148FEF761FEE6E769
:1026E000F8A00008AFF30080AFF30080AFF30080E4
:1026F00010B52023044683F31188FEF741FD40F610
:102700003C63C2F20003DB69D86B20EA0402DA639F
:102710000440FEF74DFD002383F31188204610BDD1
:1027200010B52023044683F31188FEF729FD40F6F7
:102730003C63C2F20003DB69DA6B1443DC63FEF72F
:1027400037FD002383F31188204610BDAFF30080CE
:1027500038B504460D46FEF7C3FDC4B1E26B94F8EC
:10276000203045EA0201082BE1630CD0092B00D090
:1027700038BDA36A19408B42FAD12046FEF7B0FE5D
:102780000023836238BDA36A1942F6D138BD0248DE
:10279000FEF706FEE2E700BF0CA10008AFF30080E1
:1027A00038B504460D4680B1202383F31188FEF727
:1027B000E7FC20462946FFF7CBFFFEF779FFFEF73F
:1027C000F7FC002383F3118838BD0248FEF7E8FDCB
:1027D000EAE700BF20A10008AFF30080AFF300805C
:1027E00070B505460E46FEF77BFD5DB12C68A5422F
:1027F00007D0A16860683143FFF7AAFF2468A542AB
:10280000F7D170BD0148FEF7CBFDEFE730A100081E
:1028100038B505460C46202383F31188FEF7B0FC3B
:1028200028462146FFF7DCFFFEF742FFFEF7C0FC1B
:10283000002383F3118838BDAFF30080AFF300802D
:102840002DE9F04180460D46D0B18DB100263446C9
:10285000012707FA04F32B4206D025EA030558F8AE
:1028600006303BB12046984701340436002DF0D1A4
:10287000BDE8F0810448FEF793FD58F80630F1E713
:102880000248FEF78DFDE0E75CA1000848A10008C2
:1028900038B50F4B0446DD69202383F31188FEF71A
:1028A0006FFCEB6B14EA030206D1AC620820FEF762
:1028B00057FEEB6B04EA03025442144023EA04037C
:1028C000EB63FEF775FC002383F31188204638BDC7
:1028D0003C0E0020AFF30080AFF30080AFF3008028
:1028E0000E4B70B5DD690446202383F31188FEF793
:1028F00047FCEB6B14EA030606D1AC620820FEF736
:102900002FFEEB6B04EA030623EA0603EB63FEF7F4
:102910004FFC002383F31188304670BD3C0E00202D
:1029200038B50E4B0446DD69202383F31188FEF78A
:1029300027FCEB6B04EA0302A24204D0AC6209203C
:10294000FEF70EFEEB6B23EA0403EB63FEF730FCAD
:10295000002383F31188204638BD00BF3C0E0020C1
:10296000F8B5164B0546DE690F46202383F3118820
:10297000FEF706FCF36B15EA03040BD1B7B1082090
:10298000B5623946FEF714FE0028A4BFF36B05EAD2
:1029900003040BDB6242144023EA0403F363FEF7F3
:1029A00007FC002383F311882046F8BDFEF700FCE6
:1029B000234683F311882046F8BD00BF3C0E00205B
:1029C000F8B5154B0446DD690F46202383F31188C3
:1029D000FEF7D6FBEA6B14EA02060BD1A7B108207A
:1029E000AC623946FEF7E4FD0028A4BFEA6B04EAB6
:1029F000020609DB22EA0602EA63FEF7D9FB00239E
:102A000083F311883046F8BDFEF7D2FB334683F3DB
:102A100011883046F8BD00BF3C0E0020AFF30080A7
:102A2000184B70B5DD6904460E46202383F31188E8
:102A3000FEF7A6FBEA6B04EA0203A34208D08EB1BC
:102A40000920AC623146FEF7B3FD002812DBEA6BC9
:102A500022EA0402EA63FEF7ABFB002383F311884A
:102A6000204670BDFEF7A4FB334683F3118834463D
:102A7000204670BDFEF79CFB002383F311881C46A3
:102A8000EEE700BF3C0E0020AFF30080AFF3008004
:102A9000154B70B505460E46DC6900B3202383F361
:102AA0001188FEF76DFB05F13002A26295F8201047
:102AB0006B6B0C292260A66363606C631C600AD098
:102AC0000A20FEF74DFDA46AFEF772FB002383F394
:102AD0001188204670BD2846FEF702FDF0E7034846
:102AE000FEF75EFCDAE700BF3C0E002070A1000894
:102AF00038B5202383F311880E4DFEF741FBEA69B8
:102B0000134653F8304F9C420CD0216811634B6040
:102B10000B2384F82030FEF74BFB002383F311884E
:102B2000204638BD0C20FEF71BFDEA69134653F81A
:102B3000304FEAE73C0E0020AFF30080AFF3008097
:102B400038B504460D46202383F31188FEF718FBA1
:102B500094F820300B2B02D00648FEF721FC2046CB
:102B60002946FEF74DFDFEF723FB002383F3118872
:102B700038BD00BF80A10008AFF30080AFF3008034
:102B8000002818BF002970B50D460446164613D01C
:102B9000002A11DD05EB860304F11C003146E560D7
:102BA000A56025606360FFF793F804F11000002131
:102BB000BDE87040FFF78CB80148FEF7F1FBE9E78C
:102BC000A0A10008AFF30080AFF30080AFF3008056
:102BD00010B50446D8B1202383F31188FEF7D0FA4C
:102BE00023686168E360C91AA36004F11C008910BE
:102BF000FFF786F804F110000021FFF781F8FEF7D7
:102C000057FDFEF7D5FA002383F3118810BD024863
:102C1000FEF7C6FBDFE700BFB0A10008AFF30080FE
:102C200070B504460E461546FEF772FBC4B1294640
:102C300004F11C00FFF704F9054678B9A36862683F
:102C400043F8046B9342A36028BF236804F110008B
:102C500028BFA360FFF77CF9FEF72AFD284670BD68
:102C60000148FEF79DFBE2E7C0A10008AFF300803A
:102C700070B5202306460D46144683F31188FEF7EF
:102C80007FFA224629463046FFF7CAFF0446FEF780
:102C90008FFA002383F31188204670BDAFF30080C4
:102CA00038B504460D46FEF71BFBA4B1626A002A44
:102CB00015DDA368013A6168626243F8045B8B42E8
:102CC000A36028BF236804F1100028BFA360FFF7AA
:102CD0003FF9002038BD0348FEF762FBE6E74FF0FE
:102CE000FF3038BDD0A10008AFF30080AFF3008003
:102CF00070B504460E461546FEF70AFBCCB12946D0
:102D000004F11C00FFF79CF8054660B9E3682268EF
:102D1000043B9342E36008D304F110001E60FFF708
:102D200017F9FEF7C5FC284670BD6368043BE360F5
:102D3000F2E70248FEF734FBE1E700BFE0A100083C
:102D400070B5202306460D46144683F31188FEF71E
:102D500017FA224629463046FFF7CAFF0446FEF717
:102D600027FA002383F31188204670BDAFF300805B
:102D700038B504460D46FEF7B3FAA4B1626A002ADC
:102D800015DDE3682168043B013A8B426262E3602F
:102D900002D26368043BE36004F110001D60FFF79A
:102DA000D7F8002038BD0348FEF7FAFAE6E74FF0FF
:102DB000FF3038BDF4A10008AFF30080AFF300800E
:102DC00070B504460E461546FEF7A2FA002C18BF51
:102DD000002E18D0294604F11000FFF731F80546FF
:102DE00078B9E368626853F8041B04F11C0093424D
:102DF0003160E36024BF2368E360FFF7A9F8FEF7C2
:102E000057FC284670BD0248FEF7CAFAE2E700BF49
:102E100008A20008AFF30080AFF30080AFF300809A
:102E200070B5202306460D46144683F31188FEF73D
:102E3000A7F9224629463046FFF7C2FF0446FEF7AF
:102E4000B7F9002383F31188204670BDAFF30080EB
:102E500038B504460D46FEF743FA002C18BF002D86
:102E600015D0A269002A16DDE368013AA26153F881
:102E7000041B626829609342E36028BF236804F161
:102E80001C0028BFE360FFF763F8002038BD03484B
:102E9000FEF786FAE5E74FF0FF3038BD18A20008CC
:102EA00010B4024659B1084B0D20DB699A62546890
:102EB00083E814005360236010BCFEF779BB4FF029
:102EC000FF3010BC704700BF3C0E0020AFF3008005
:102ED00010B48A1800244060006084604161816100
:102EE000C1600261C36110BC704700BFAFF30080D6
:102EF00038B50446FEF7F4F9E36820686361A3611E
:102F00000023A042A3600AD06FF00105036823608C
:102F10005C60FEF7E5FA85622068A042F6D138BD14
:102F200038B504460D46FEF7DBF9A26963699342A2
:102F3000A26818D00132A26003F8015B22696361C4
:102F4000934228BFE368206828BF6361A04208D08D
:102F5000036823605C60FEF7C3FA002383621846AF
:102F600038BD002038BD002AE4D06FF0030038BD22
:102F7000F8B504460E46202383F31188FEF700F9C6
:102F8000E3690BB120469847A5682046314655B9FC
:102F9000FFF786FF071EF7DAFEF70AF92B4683F3E1
:102FA00011883846F8BDA369013DA56013F8017B7F
:102FB0002269A361934224BFE368A361FEF7F8F896
:102FC000002383F311883846F8BD00BFAFF30080BB
:102FD0002DE9F0470446154688461E46C769002A73
:102FE0003AD0202383F31188FEF7CAF808F1010ACA
:102FF0004FF00009A8440FB12046B847A568204605
:1030000031465DB9FFF74CFF0028F7D0FEF7D0F846
:103010002B4683F311884846BDE8F087A369013D3C
:10302000A56013F8012B0AF8012C2269A3619342D1
:1030300024BFE368A361FEF7BBF8002383F3118884
:10304000C24509F10109E6D0202383F31188FEF778
:1030500097F80AF1010ACEE70148FEF7A1F9C0E7A7
:1030600030A20008AFF30080AFF30080AFF3008020
:1030700010B48C1840600060826041618161C16061
:103080000461C36110BC7047AFF30080AFF30080F0
:1030900038B50446FEF724F9E36822692068D21A9D
:1030A000A0426361A361A2600AD06FF001050368CA
:1030B00023605C60FEF714FA85622068A042F6D1B6
:1030C00038BD00BFAFF30080AFF30080AFF30080E6
:1030D0002DE9F041202304468846164683F31188E3
:1030E000FEF74EF8A568204631465DB9FFF7D8FED9
:1030F000071EF7DAFEF75CF82B4683F31188384693
:10310000BDE8F0816369013DA56003F8018B226988
:103110006361934224BFE3686361E3690BB12046B6
:103120009847FEF745F8002383F311881F46384679
:10313000BDE8F081AFF30080AFF30080AFF3008013
:1031400038B50446FEF7CCF86269A3699A42A268D2
:1031500016D00132A26013F8015B2269A361934289
:1031600028BFE368206828BFA361A04206D0036897
:1031700023605C60FEF7B4F900238362284638BD03
:10318000002AE6D06FF0020038BD00BFAFF3008028
:103190002DE9F0470446164688469A46D0F81C901A
:1031A000002A39D0202383F31188FDF7E9FF002797
:1031B000A56820466B1E0DB3A36018F8013B656936
:1031C00005F8013B236965619D4224BFE3686361A3
:1031D000B9F1000F00D0C847FDF7EAFF002383F3E1
:1031E00011880137013E14D0202383F31188FDF7A5
:1031F000C7FFA56820466B1E002DDDD12046514635
:10320000FFF74EFE0028D3D0FDF7D2FF2B4683F305
:1032100011883846BDE8F0870148FEF7C1F8C1E7DC
:1032200044A20008AFF30080AFF30080AFF300804A
:1032300040F20001084840F6606240F65C63C2F26A
:103240000101C2F2000220F00700C2F2000321F0E7
:10325000070110601960704737210020AFF300802C
:1032600010B50446FEF73CF8074A08491368096898
:10327000E01D20F00700C91A88429ABF1818106094
:103280000023184610BD00BF600E00205C0E002019
:1032900010B52023044683F31188FDF771FF204603
:1032A000FFF7DEFF0446FDF783FF002383F3118859
:1032B000204610BDAFF30080AFF30080AFF3008075
:1032C00040F65C6240F66063C2F20002C2F20003A4
:1032D00010681B68C01A7047AFF30080AFF300801E
:1032E00040F66863C2F2000343F291210022C0F667
:1032F000000103F1100019609A60DA60FEF7F0BE79
:1033000070B516464A070D46044601D1730702D030
:103310000748FEF745F80023083E04F1100023603B
:10332000A560E36085E84800BDE87040FEF7D8BEC0
:1033300060A20008AFF30080AFF30080AFF300801D
:10334000F8B51F4E0731002818BF064606F11000D9
:1033500021F0070506F10804FEF752FF00E01C46C5
:103360002368E3B15A689542F9D805F10801914202
:1033700012D84FF6F870CFF6FF70401B821818680D
:103380005F1858507A6027605D601C4644F8086BEF
:10339000FEF77EFF2046F8BD1A682260F5E7FEF7CB
:1033A00077FF33684BB105F10800984728B100F169
:1033B0000804066045602046F8BD0024EAE700BF27
:1033C000680E0020AFF30080AFF30080AFF3008001
:1033D000F8B5074600284BD057F8086CA7F1080548
:1033E00006F11000FEF70CFF08363446AC4204D854
:1033F00063680833E3189D421FD3B442236801D0A9
:10340000AC4202D21BB19D4201D31C46EEE757F8F5
:10341000042C47F8083C256002F1080357F8080C13
:10342000E91881420DD0636803F10802A2189542A1
:1034300015D0BDE8F840FEF72BBF0F48FDF7B0FFF1
:10344000DBE74968EB585218083247F8042C47F874
:10345000083C636803F10802A2189542E9D157F8C5
:10346000041C57F8082C5B18083384E80C00E0E7CC
:103470000248FDF795FFAFE780A2000870A20008A0
:1034800038B50E4C0D46002818BF044604F1100054
:10349000FEF7B6FEA3686BB10022144658681B689D
:1034A00012180134002BF9D105B12A60FEF7F0FEA5
:1034B000204638BD1A461C46F6E700BF680E0020BD
:1034C000002818BF032970B50D460446164602D8D9
:1034D0000448FDF765FF073525F00705002384E85C
:1034E000680070BDA0A20008AFF30080AFF30080B9
:1034F00010B50446FDF7F4FE4CB1206810B1036826
:10350000236010BDA3680BB16068984710BD0248E6
:10351000FDF746FFF1E700BFB0A20008AFF300805F
:1035200010B52023044683F31188FDF729FE2046B9
:10353000FFF7DEFF0446FDF73BFE002383F311880F
:10354000204610BDAFF30080AFF30080AFF30080E2
:1035500038B505460C46FDF7C3FE002D18BF002CFC
:1035600001D0630702D00348FDF71AFF2B682360E0
:103570002C6038BDC4A20008AFF30080AFF3008018
:1035800038B505460C46202383F31188FDF7F8FD76
:1035900028462146FFF7DCFFFDF70AFE002383F3F0
:1035A000118838BDAFF30080AFF30080AFF3008027
:1035B00041F28043C2F2000301221A60704700BF4B
:1035C00070B50D4E4C2430682D2103684FF0FF324A
:1035D0001B699847013C084DF5D128680D21036807
:1035E0004FF0FF321B69984728680A2103684FF0A3
:1035F000FF321B69984770BDB4140020AFF3008000
:1036000070B584B0002828D00DF101054CF6CD46E8
:103610002B46CCF6CC46A6FB0012D20802EB820168
:10362000A0EB41013031C9B21C4603F8011C104621
:103630000133002AEFD16B469C420CD90B4E02E0BD
:1036400014F8021C013C30684FF0FF3203681B691C
:103650009847AC42F4D104B070BD044B30211868D7
:103660004FF0FF3203681B699847F4E7B414002059
:1036700038B5017859B1064D044628684FF0FF323D
:1036800003681B69984714F8011F0029F5D138BD5C
:10369000B4140020AFF30080AFF30080AFF30080DC
:1036A00038B501780D4D51B1044628684FF0FF320E
:1036B00003681B69984714F8011F0029F5D1286891
:1036C0000D2103684FF0FF321B69984728680A21D3
:1036D00003684FF0FF321B69984738BDB4140020CF
:1036E00010B52023044683F31188FDF749FD41F20C
:1036F0008443C2F200031A6802F8014B1A60FDF716
:1037000057FD002383F3118810BD00BFAFF3008085
:1037100041B9054A01231360044A1360044A10604A
:1037200018467047002070477C1400208814002041
:1037300078140020AFF30080AFF30080AFF3008077
:10374000F0B40F4E0F4F35683B4604E011F8014BC3
:103750001278A24209D19D421A4603F10103F5D81D
:103760000B7813B93760184607E0074A0123136046
:10377000064A1360064A10601846F0BC704700BF46
:1037800084140020B81400207C1400208814002029
:1037900078140020AFF30080AFF30080AFF3008017
:1037A00010B5044608461146FDF76AFE40B9054AC1
:1037B00001231360044A18461360044A146010BDC4
:1037C000002010BD7C1400208814002078140020F4
:1037D00038B5064C04F1140554F8043F18460BB1F3
:1037E000FEF786F8AC42F7D138BD00BF9C1400202C
:1037F00070B5074C002604F1140554F8043B184634
:103800001BB1FEF70DF944F8046CAC42F5D170BD64
:10381000A0140020AFF30080AFF30080AFF300806E
:103820004FF47A7303FB00F0134A44F6D353A0F528
:103830007A7110B4C1F26203D469A3FB0123626AF6
:10384000501C00EB93118A42636A0AD28B422CBF50
:1038500000200120934238BF00200028F3D110BC83
:103860007047934234BF002001208B4238BF40F0A4
:1038700001000028E7D1F2E73C0E0020AFF3008002
:1038800008B50120FEF74CF840F62C63C2F20003A5
:10389000D86808BDAFF30080AFF30080AFF30080BD
:1038A00038B541F28043C2F2000300241C60054693
:1038B000202383F31188FDF763FC4FF47A7303FB35
:1038C00005F544F6D353A5F57A75C1F26203A3FB5F
:1038D000052341F28C40990943F2B1522346C2F2CA
:1038E00000000131C0F60002FDF772FDFDF760FC3B
:1038F000234683F3118838BDAFF30080AFF3008017
:103900002DE9F04F9F4C83B020609F48FFF7C8FE21
:103910009E48FFF7C5FE9E4D9E48FFF7C1FE2A2137
:1039200020684FF0FF3203681B69984715F8011FA4
:103930000029F5D19848994DFFF7B2FE2A21206859
:103940004FF0FF3203681B69984715F8011F0029E3
:10395000F5D19348934DFFF7A3FE2A2120684FF03D
:10396000FF3203681B69984715F8011F0029F5D13C
:103970008D488E4DFFF794FE2A2120684FF0FF32CC
:1039800003681B69984715F8011F0029F5D188487D
:10399000884DFFF785FE2A2120684FF0FF3203682B
:1039A0001B69984715F8011F0029F5D18248834DFE
:1039B000FFF776FE2A2120684FF0FF3203681B696B
:1039C000984715F8011F0029F5D17D487D4DFFF777
:1039D00067FE2A2120684FF0FF3203681B69984771
:1039E00015F8011F0029F5D17748784DFFF758FEEB
:1039F0002A2120684FF0FF3203681B69984715F8A9
:103A0000011F0029F5D172480091FFF749FE5E4879
:103A1000FFF746FE00996F4B41F28842C2F2000266
:103A20006D4F6E4EDFF8E491019311608A460AF102
:103A3000010A4FF0000857F8043B002B00F0938078
:103A4000674DFFF7BDFD2D2120684FF0FF32036861
:103A50001B69984715F8011F0029F5D15046FFF75B
:103A6000CFFD484B2E2118684FF0FF32036808F154
:103A700001081B6998475B4D4046FFF7C1FD2021B7
:103A800020684FF0FF3203681B69984715F8011F43
:103A90000029F5D157F8043C1D68297849B1206800
:103AA0004FF0FF3203681B69984715F8011F002982
:103AB000F5D14D48FFF7F4FDC820FDF731FF4B4A23
:103AC00057F804BC0023136053609360D360136104
:103AD000474DDBF80420C6F800902B6002B19047F8
:103AE000DBF80C309847DBF8083003B19847FFF754
:103AF0007FFE2B68002B00F0A6803E4D2D21206814
:103B00004FF0FF3203681B69984715F8011F002921
:103B1000F5D1394B394D1868FFF772FD2021206827
:103B20004FF0FF3203681B69984715F8011F002901
:103B3000F5D133684B4588BF314D0CD9206815F855
:103B4000011C03684FF0FF321B69984733682A460F
:103B500001359A42F2D32B48FFF7A2FD57F8043BF8
:103B6000002B7FF46DAF019B53F8047F0193002F6E
:103B70007FF45DAFFFF724FD234D0348FFF790FD71
:103B8000462145E0B4140020BCB6000800A300089C
:103B900020A300081CA300087CA3000884A300083D
:103BA00098A30008B0A30008C4A30008D0A300088D
:103BB000E4A30008ECA3000800A400080CA400087B
:103BC00020A4000838A400084CA4000874A400082D
:103BD00088A40008C0A4000830A5000884140020B0
:103BE00034A30008A0A4000864A00008A0140020CA
:103BF0007C14002044A3000878140020A4A400082A
:103C0000B91400205CA30008A8A40008B814002080
:103C100020684FF0FF3203681B69984715F8011FB1
:103C20000029F5D141F28842C2F20002136873B94B
:103C30000948FFF735FD41F28843C2F200031868D6
:103C400003B0BDE8F08F0548FFF72AFDF3E604480E
:103C5000FFF726FDEFE700BF6CA3000860A3000894
:103C600074A30008AFF30080AFF30080AFF30080CF
:103C7000F8B5524EF3699C68651C2846FDF7F0FDC7
:103C8000031B5942594107460120FFF741FD00B18E
:103C9000F8BDF36902209968B5EB010CDCF1000175
:103CA00051EB0C01FFF734FD0028F1D13846FDF748
:103CB000D7FDB5EB000EDEF1000151EB0E01032044
:103CC000FFF726FD0028E3D1F369042099680F1B54
:103CD00079427941FFF71CFD07460028D8D12023FF
:103CE00083F31188FDF74CFAF3699A6802329A60FF
:103CF000FDF75EFA3B4683F31188F369A71C9968C8
:103D00000520CA1B51425141FFF702FD0028BFD1D7
:103D10002846FDF7A5FD031B594259410620FFF730
:103D2000F7FC0028B4D1F36907209968B7EB010CC0
:103D3000DCF1000151EB0C01FFF7EAFC0028A7D1F0
:103D4000F3690820596CB5EB010EDEF1000151EB6F
:103D50000E01FFF7DDFC00289AD1E71C3846FDF77D
:103D60007FFD281A414241410920FFF7D1FC00287C
:103D70008ED1F3690A2099687A1A51425141FFF7AE
:103D8000C7FC002884D1F3690B20596C7B1A594277
:103D90005941FFF7BDFC054600287FF479AF202389
:103DA00083F31188FDF7ECF9F3699C605C64FDF71F
:103DB000FFF92B4683F311886AE700BF3C0E002011
:103DC000F0B540F63C67C2F20007FB694AF2E02614
:103DD0009A6843F6B1754BF2084183B0C0F600060D
:103DE000C0F60005C0F60001043A2B460091706849
:103DF0004FF49871FDF7FCFC41F2A044FB69C2F25C
:103E000000049A68316860604AF26050C0F60000B1
:103E1000053A2B46009008464FF49871FDF7E8FCF0
:103E2000FB6931699A6820604AF25050C0F6000080
:103E3000013A2B46009008464FF49871FDF7D8FCE4
:103E4000FB69F1689A6820614AF25450C0F600009C
:103E50002B460090023A08464FF49871FDF7C8FCD3
:103E60002023E06083F31188FDF78AF9FB694FF4A2
:103E700098719A682B464AF25855C0F60005033AE5
:103E8000B0680095FDF764FCA060FDF791F9002390
:103E900083F31188A068FDF70BFDFFF7A9FC4AF238
:103EA0005C510120C0F6000103B0BDE8F040FFF70F
:103EB00047BC00BFAFF30080AFF30080AFF30080DA
:103EC0002DE9F04140F63C68C2F20008D8F81C30F9
:103ED0004AF2E0269A6843F6B1754AF2605482B01D
:103EE000C0F60005C0F60006C0F60004053A2B46F1
:103EF000009430684FF49871FDF77AFC41F2A044C9
:103F0000D8F81C30C2F200049A68776820604BF23F
:103F10000840C0F60000043A2B4600904FF4987118
:103F20003846FDF765FCD8F81C30B7689A686060C1
:103F30004AF25850C0F60000033A2B4600904FF466
:103F400098713846FDF754FCD8F81C30F7689A6829
:103F5000A0604AF25450C0F60000023A2B4600908E
:103F60004FF498713846FDF743FCD8F81C30366999
:103F70009A68E0604AF25050C0F600004FF4987121
:103F8000013A2B4600903046FDF732FC2061FFF7E6
:103F90002FFC4AF25C510120C0F6000102B0BDE8DE
:103FA000F041FFF7CDBB00BFAFF30080AFF300805F
:103FB00008B50078FFF794FB002008BDAFF3008040
:103FC00038B51C4DFFF75CFCEC686420FDF7A8FCDD
:103FD000012004F1640104F16502FFF7E1FB00B187
:103FE00038BDEC686420FDF79BFC022004F16401FD
:103FF00004F16502FFF7D4FB0028F1D1EC684FF41F
:104000007A70FDF78DFC032004F57A7104F2E93231
:10401000FFF7C6FB0028E3D1EC6804F164052846ED
:10402000FDF796FC0420294604F16502BDE83840FE
:10403000FFF7B6BB2C0E0020AFF30080AFF300807B
:1040400040F60400C2F200000021FDF741BE00BFAF
:1040500040F60400C2F200000021FDF739BE00BFA7
:1040600040F60400C2F200000021FDF731BE00BF9F
:1040700000B587B0002103A8FDF72AFE002103A8A0
:10408000FDF776FE059901200029CCBF0021012112
:10409000FFF73EFB08B107B000BD334B03A8DB6957
:1040A0004FF498719A6800903048013A304B00689C
:1040B000FDF79EFB2F4B186003A8FDF7A9FE05999D
:1040C00002200029CCBF00210121FFF721FB00289D
:1040D000E1D1202383F31188FDF752F8059B002BD3
:1040E0003ADDFDF7E5FAFDF763F8002383F3118865
:1040F000059903209942D4BF00210121FFF708FB55
:104100000028C8D1059904204A1E51425141FFF7A9
:10411000FFFA0028BFD1202383F31188FDF730F880
:10412000059B002B1CDDFDF7C3FAFDF741F80023CA
:1041300083F31188059903209942D4BF00210121FE
:10414000FFF7E6FA0028A6D1059905204B1E594233
:104150005941FFF7DDFA9EE703A8FDF7F9FEC0E736
:1041600003A8FDF7F5FEDEE73C0E0020E0A2000804
:1041700081410008A0140020AFF30080AFF300805D
:1041800010B52023044683F31188FCF7F9FFA368D8
:10419000002B08DDFDF78CFAFDF70AF8002383F306
:1041A0001188184610BD2046FDF7D2FEF2E700BF89
:1041B00010B540F60404C2F200042046FDF728FEC4
:1041C0002046FDF795FE002010BD00BFAFF3008034
:1041D00010B5044640F60400C2F20000FDF718FED8
:1041E0002078FFF77DFA002010BD00BFAFF30080FC
:1041F00008B53220FDF794FB202383F31188FCF7E8
:10420000BFFF40F60400C2F20000FDF7A1FEFDF77B
:104210004FFAFCF7CDFF002383F31188184608BD41
:104220002DE9F043DFF84881474CD8F81C30276867
:104230009A68464E85B04FF498710532444B00960B
:104240003846FDF7D5FAD8F81C30424D9A686368B5
:104250002860414803934FF4987101323C4B009021
:104260000398FDF7C5FAA268D8F81C3003929A6843
:1042700068603A484FF498710332354B00900398C8
:10428000FDF7B6FAE268D8F81C3003929A68A86085
:1042900033484FF4987104322D4B00900398FDF78A
:1042A000A7FAD8F81C3024699A68E8602D484FF4C2
:1042B00098710232264B00902046FDF799FA2A4C5D
:1042C00028612046FDF714FE2046FDF711FE20462A
:1042D000FDF70EFE2046FDF70BFE2046FDF708FE1B
:1042E000FFF786FA01202149FFF72AFA814610B12B
:1042F00005B0BDE8F083D8F81C3038469A684FF412
:10430000987100960532124BFDF772FA202328604F
:1043100083F31188FCF734FF20460221FDF748FEA5
:10432000FCF746FF4B4683F31188FFF761FAA1685B
:104330000220B1F1010EDEF1000151EB0E0105B0DA
:10434000BDE8F043FFF7E4B9E0A2000850A500087B
:10435000D1410008A014002054A5000858A5000869
:1043600008B4000860A50008040800205CA5000847
:104370003C0E0020AFF30080AFF30080AFF300806D
:1043800010B5224B82B0DB6900209A68009020486B
:1043900001324FF498711F4B0068FDF729FA1E4C4B
:1043A0001E4B214618602046FDF73AFE2168012089
:1043B0000B1B59425941FFF7ABF908B102B010BDD0
:1043C000A1680220D1F1010138BF0021FFF7A0F957
:1043D0000028F3D121462046FDF722FE2168032064
:1043E000B1EB040CDCF1000151EB0C01FFF790F98B
:1043F0000028E3D1A1680420D1F1010138BF0021D8
:1044000002B0BDE81040FFF783B900BF3C0E0020AA
:10441000E0A20008B141000804080020A014002018
:1044200070B54C4C002182B02046FDF749FDB0F13B
:10443000FF33594259410120FFF76AF908B102B030
:1044400070BD21680220B1EB040CDCF1000151EBDE
:104450000C01FFF75DF90028F1D1A1680320D1F12B
:10446000010138BF0021FFF753F90028E7D13A4B8B
:104470004FF49871DB699A6800903848013A384BDC
:104480000068FDF7B5F9374B4FF4FA711860204614
:10449000FDF716FD0546FFF7ABF90420D5F1010144
:1044A00038BF0021FFF734F90028C8D12168052062
:1044B000B1EB040EDEF1000151EB0E01FFF728F91C
:1044C0000028BCD1A1680620D1F1010138BF00212C
:1044D000FFF71EF90028B2D1FFF7D2F9224B412590
:1044E000DE682846FFF7FCF84FF4FA711948FDF72B
:1044F000E7FCB0F1FF30414241410720FFF708F9E6
:1045000000289CD1216808200A1B51425141FFF725
:10451000FFF8002893D1A1680920D1F1010138BF2B
:104520000021FFF7F5F80135EDB2002887D1462DBF
:10453000D7D10A200D49FFF703F900287FF47FAF98
:104540000B2006F6C41106F6C91202B0BDE8704091
:10455000FFF726B9040800203C0E0020E0A2000866
:10456000F1410008A01400202C0E00205CA50008DA
:10457000F0B540F63C63C2F20003DB694AF2E02585
:104580009E684AF2505483B0C0F60005C0F600049D
:1045900044F29163721C009428684FF49871C0F63D
:1045A0000003FDF725F941F2A044C2F200046F6850
:1045B00020604AF25850C0F6000044F26163B21C19
:1045C00000904FF49871C0F600033846FDF710F9DB
:1045D000AD6860604AF25450C0F6000044F22163B6
:1045E0004FF49871F21CC0F6000300902846FDF7C6
:1045F000FFF840F63005C2F20005A0602846FDF73E
:104600000FFF2846FDF70CFFFFF7F2F84AF2E061D2
:104610000120C0F6000103B0BDE8F040FFF790B8FC
:1046200010B5044640F62000C2F20000FDF7E8FD98
:104630002078FFF755F8FDF72BFE002010BD00BFD6
:1046400010B5044640F61000C2F20000FDF7D8FD98
:104650002078FFF745F8FDF71BFE002010BD00BFD6
:1046600010B5044640F61000C2F20000FDF7C8FD88
:1046700040F63000C2F20000FDF77AFF2078FFF725
:104680002FF8FDF705FE002010BD00BFAFF300803E
:1046900010B5044640F62000C2F20000FDF7B0FD60
:1046A00040F61000C2F20000FDF7AAFD40F630000F
:1046B0004FF0FF31C2F20000FDF7B2FF2078FFF7A4
:1046C0000FF8FDF7E5FDFDF7E3FD002010BD00BF8D
:1046D00040F6300008B5C2F20000FDF791FE40F64A
:1046E0001000C2F20000FDF7FBFC40F62000C2F211
:1046F0000000BDE80840FDF7F3BC00BFAFF3008049
:1047000040F6300008B5C2F20000FDF779FE40F631
:104710001000C2F20000BDE80840FDF7E1BC00BF98
:1047200040F6300008B5C2F20000FDF769FE40F621
:104730001000C2F20000BDE80840FDF7D1BC00BF88
:1047400040F61000C2F20000FDF7CABCAFF30080D3
:1047500040F6100008B5C2F20000FDF7C1FC40F6BB
:104760002000C2F20000BDE80840FDF7B9BC00BF60
:1047700040F6100008B5C2F20000FDF7B1FC40F6AB
:104780002000C2F20000BDE80840FDF7A9BC00BF50
:1047900040F61000C2F20000FDF7A2BCAFF30080AB
:1047A00040F61000C2F20000FDF79ABCAFF30080A3
:1047B000F0B540F63C63C2F20003DB694AF2E02642
:1047C0009F6844F261654AF2605483B0C0F6000508
:1047D000C0F60006C0F600047A1C2B460094306830
:1047E0004FF49871FDF704F841F2A044C2F20004BE
:1047F00020604BF20840C0F60000BA1C2B46009027
:104800004FF498717068FCF7F3FF60604AF25850FB
:10481000C0F60000FA1C2B4600904FF49871B06867
:10482000FCF7E6FFA0604AF25450C0F600003A1DC3
:104830002B4600904FF49871F068FCF7D9FF366969
:10484000E0604AF25050C0F600004FF498717A1DB3
:104850002B4600903046FCF7CBFF206140F630003D
:10486000C2F20000FDF734FEFEF7C2FF4AF25C51CF
:104870000120C0F6000103B0BDE8F040FEF760BFC4
:10488000F0B540F63C63C2F20003DB694AF2E02671
:104890009F6844F261654AF2605183B0C0F6000639
:1048A000C0F60005C0F600017A1C2B460091306866
:1048B0004FF49871FCF79CFF41F2A044C2F200044F
:1048C000716820604BF20840C0F60000BA1C2B460D
:1048D000009008464FF49871FCF78AFFB168606059
:1048E0004AF25850C0F60000FA1C2B4600900846C9
:1048F0004FF49871FCF77CFFF168A0604AF25450C5
:10490000C0F600003A1D2B46009008464FF49871FF
:10491000FCF76EFF32694AF25051C0F60001E060C8
:104920002B46009110464FF498717A1DFCF760FFFA
:104930002023206183F3118840F63004C2F2000482
:10494000FCF71EFC2046FDF78BFD2046FDF788FD99
:104950002046FDF785FD2046FDF782FD2046FDF748
:104960007FFDFCF7A5FEFCF723FC002383F31188F1
:10497000FEF73EFF4AF25C510120C0F6000103B091
:10498000BDE8F040FEF7DCBEAFF30080AFF300807F
:10499000F0B52C4F2C4EFB692C4D9C6885B02C48F3
:1049A000FDF72EFC621C30684FF49871294B00957E
:1049B000FCF71EFF284D7368286028480393A21C4B
:1049C0004FF49871234B00900398FCF711FFB368E4
:1049D000686023480393E21C4FF498711D4B0090CC
:1049E0000398FCF705FFF368A8601E480393221D97
:1049F0004FF49871174B00900398FCF7F9FE366955
:104A0000E86019484FF49871621D124B00903046CF
:104A1000FCF7EEFE2861FDF73BFCFEF7E9FEFB69C3
:104A2000012099680B1B59425941FEF771FE08B1EC
:104A300005B0F0BD0D49022005B0BDE8F040FEF71D
:104A40007FBE00BF3C0E0020E0A2000860A5000869
:104A50001008002041460008A014002008B40008F7
:104A600058A5000854A5000850A500085CA500083A
:104A7000F8B5304D304CEB6920469E68FDF7F0FBF1
:104A800001460120FEF744FE00B1F8BD2046FDF7C7
:104A9000E7FBD0F1010138BF00210220FEF738FE0C
:104AA00007460028F1D1202383F31188FCF768FB27
:104AB000FDF736FCFCF77CFB3B4683F3118821684D
:104AC0000320B1EB040CDCF1000151EB0C01FEF70B
:104AD0001FFE0028D9D1A1680420D1F1010138BFFF
:104AE0000021FEF715FE0028CFD1EB69052099685B
:104AF000B1EB060EDEF1000151EB0E01FEF708FEF0
:104B00000028C2D12046FDF77BFBFDF749FC216858
:104B100006200A1B51425141FEF7FAFD0028B4D18C
:104B2000A1680720D1F1010138BF0021BDE8F8409C
:104B3000FEF7EEBD3C0E002010080020AFF3008011
:104B40002DE9F0468C4D8D4EEB6932689C6885B03E
:104B50008B48039204F101094FF498714A46894B3E
:104B600000900398FCF744FE874F766838608748CA
:104B700004F1020A4FF498715246854B009030467A
:104B8000FCF736FE78608348FDF73AFBEB690120BD
:104B900099680A1B51425141FEF7BAFD10B105B0A8
:104BA000BDE8F0866420FCF7BBFEEB690220996843
:104BB000B1EB090359425941FEF7AAFD0028EED195
:104BC0007548FDF71DFBEB6903209968B1EB090CF3
:104BD000DCF1000151EB0C01FEF79AFD0028DED15B
:104BE0006420FCF79DFEEB6904209968B1EB0A0E86
:104BF000DEF1000151EB0E01FEF78AFD0028CED157
:104C0000FDF746FBEB6905209968B1EB09025142BB
:104C10005141FEF77DFD0028C1D16420FCF780FEE4
:104C2000EB6906209968B1EB090359425941FEF737
:104C30006FFD0028B3D1FDF7B3FBEB69072099683E
:104C4000B1EB040CDCF1000151EB0C01FEF760FD4F
:104C50000028A4D1FEF7CCFD50484FF498714A4685
:104C6000484B00900398FCF7C3FD38604C484FF464
:104C70009871474B524600903046FCF7B9FD78607A
:104C80004448FDF7BDFAEB6908209968B1EB040EC2
:104C9000DEF1000151EB0E01FEF73AFD00287FF432
:104CA0007EAF6420FCF73CFEEB6909209968B1EB0C
:104CB000090251425141FEF72BFD00287FF46FAFEE
:104CC0003548FDF79DFAEB690A209968B1EB0903B5
:104CD00059425941FEF71CFD00287FF460AF642063
:104CE000FCF71EFEEB690B209968B1EB0A0CDCF1B6
:104CF000000151EB0C01FEF70BFD064600287FF486
:104D00004EAF202383F31188FCF73AFAFDF708FB36
:104D1000FCF74EFA334683F31188EB690C2099684F
:104D2000B1EB090EDEF1000151EB0E01FEF7F0FCD4
:104D300000287FF434AF6420FCF7F2FDEB690D200E
:104D40009968B1EB090251425141FEF7E1FC00289C
:104D50007FF425AFFDF724FBEB690E2099680B1B50
:104D600059425941FEF7D4FC00287FF418AF05B032
:104D7000BDE8F046FEF73CBD3C0E0020E0A2000876
:104D800054A50008D14D0008A014002050A500082B
:104D9000B14D0008200800201008002008B40008C9
:104DA00058A50008AFF30080AFF30080AFF3008098
:104DB00008B59620FCF7B4FD40F61000C2F20000E2
:104DC000FDF71EFAFDF764FA002008BDAFF300807E
:104DD00008B53220FCF7A4FD40F62000C2F2000026
:104DE000FDF70EFAFDF754FA002008BDAFF300807E
:104DF0002DE9F041304E84B0FEF742FDF369DFF853
:104E0000DC809A6800252D4C4FF49871053A2C4BA4
:104E10000095D8F80000E768FCF7EAFCF369294C34
:104E20009A68D8F80430206003934FF49871043ADC
:104E3000254B00950398FCF7DBFCF369D8F80820B4
:104E40004FF4987103929A686060033A1F4B009583
:104E50000398FCF7CDFCF369D8F80C204FF4987157
:104E600003929A68A060023A194B00950398FCF7E8
:104E7000BFFCF369D8F810609A684FF49871E0604D
:104E8000013A144B00953046FCF7B2FC2061FEF766
:104E9000AFFC01201049FEF753FC10B104B0BDE88F
:104EA000F081022007F16E0107F1730204B0BDE842
:104EB000F041FEF775BC00BF3C0E00202C0E002018
:104EC00061500008A014002011500008E14F0008B4
:104ED000C14F0008914F00085CA50008E0A200083F
:104EE0002DE9F041224E84B0FEF7CAFCF369DFF8E9
:104EF0009C809A6800251F4C4FF49871013A1E4B14
:104F00000095D8F80000E768FCF772FCF3691B4CC9
:104F10009A68D8F80430206003934FF49871023AED
:104F2000174B00950398FCF763FCF369D8F8086009
:104F30009A684FF498716060033A124B00953046BE
:104F4000FCF756FCA060FEF753FC01200E49FEF76B
:104F5000F7FB10B104B0BDE8F081022007F1640155
:104F600007F1690204B0BDE8F041FEF719BC00BFCB
:104F70003C0E00202C0E0020E1500008A014002060
:104F8000C150000891500008E0A60008E0A2000807
:104F900008B53220FCF7C4FC40F62000C2F2000045
:104FA000FDF72EF90A20FEF73BFCFDF771F94120D1
:104FB000FEF796FB002008BDAFF30080AFF3008042
:104FC00008B52820FCF7ACFC1420FEF729FC422091
:104FD000FEF786FB002008BDAFF30080AFF3008032
:104FE00008B51420FCF79CFC40F62000C2F200003B
:104FF000FDF706F90A20FEF713FCFDF749F94320F7
:10500000FEF76EFB002008BDAFF30080AFF3008019
:1050100008B50A20FCF784FC40F62000C2F200002C
:10502000FDF7EEF81420FEF7FBFB40F61000C2F28D
:105030000000FDF7E5F80A20FEF7F2FBFDF728F97E
:105040000A20FEF7EDFBFDF723F94420FEF748FBAD
:10505000002008BDAFF30080AFF30080AFF3008005
:1050600040F6100008B5C2F20000FDF7C9F81E2096
:10507000FEF7D6FBFDF70CF94520FEF731FB0020CB
:1050800008BD00BFAFF30080AFF30080AFF3008036
:1050900040F6100008B5C2F20000FDF7B1F8282074
:1050A000FEF7BEFBFDF7F4F80A20FEF7B9FB43203C
:1050B000FEF716FB002008BDAFF30080AFF30080C1
:1050C00008B51420FCF72CFC2820FEF7A9FB422091
:1050D000FEF706FB002008BDAFF30080AFF30080B1
:1050E00008B52820FCF71CFC40F61000C2F20000B6
:1050F000FDF786F80A20FEF793FBFDF7C9F841207B
:10510000FEF7EEFA002008BDAFF30080AFF3008099
:1051100010B540F63C63C2F20003DC694AF2E023BA
:10512000A268C0F6000382B0186845F2A1130132EC
:105130004FF498710094C0F60003FCF759FB41F25C
:10514000A043C2F200031860FDF7D2FC846B214635
:10515000FDF7F6FCE0B2FEF7C3FAFDF7C9FC846B7D
:105160002146FDF7EDFCE0B2FEF7BAFAFDF7C0FC10
:10517000846B2146FDF7E4FCE0B2FEF7B1FA4AF297
:10518000E0610120C0F6000102B0BDE81040FEF76A
:10519000D7BA00BFAFF30080AFF30080AFF3008059
:1051A00010B541210446FDF773FC42212046FDF76E
:1051B0006FFC20464321FDF76BFC002010BD00BFB3
:1051C000F0B54A4E0120716A83B04B1F59425941D4
:1051D000FEF79EFA00BB4224444D214628464FF07C
:1051E000FF32FDF745FDD0F1010138BF002102205B
:1051F0000134FEF78DFA78B9462CEDD141212846CD
:105200004FF0FF32FDF79CFDD0F1010138BF0021C6
:105210000320FEF77DFA08B103B0F0BD582101224A
:105220002846FDF725FDB0F1FF3CDCF1000151EB14
:105230000C010420FEF76CFA04460028ECD1202370
:1052400083F31188FBF79CFF58212846FDF728FDC2
:105250000746FBF7ADFF234683F311880520B7F11E
:10526000FF3EDEF1000151EB0E01FEF751FA00287E
:10527000D2D1582101222846FDF762FDB0F1FF325C
:10528000514251410620FEF743FA04460028C3D19B
:10529000202383F31188FBF773FF58212846FDF77D
:1052A00067FD0746FBF784FF234683F31188072039
:1052B000B7F1FF3359425941FEF72AFA0746002851
:1052C000AAD1202383F31188FBF75AFF696A0820CB
:1052D000D1F1010138BF0021FEF71AFA044638B1B6
:1052E000FBF766FF3B4683F3118895E738080020FB
:1052F000FBF75EFF234683F31188202383F3118895
:10530000FBF73EFFA9690920B1F1050CDCF10001B2
:1053100051EB0C01FEF7FCF90746002840F0B4827F
:10532000FBF746FF3B4683F31188202383F3118864
:10533000FBF726FFE968AB680A20B1EB030EDEF14C
:10534000000151EB0E01FEF7E3F9002840F09682D0
:10535000FBF72EFF002383F311880525B84C01A924
:105360004FF0FF322046FDF75BFDD0F1010138BF61
:1053700000210B20FEF7CCF900287FF44DAF9DF8FB
:105380000400FEF7ADF9013DE8D10C20AD49FEF770
:10539000D7F900287FF440AF472120464FF0FF3275
:1053A000FDF766FCD0F1010138BF00210D20FEF7AA
:1053B000AFF900287FF430AF01A920464FF0FF324B
:1053C000FDF72EFDD0F1010138BF00210E20FEF7C0
:1053D0009FF900287FF420AF2168A3680F20CA1A24
:1053E00051425141FEF794F900287FF415AF21682E
:1053F000E3681020CB1A59425941FEF789F9002879
:105400007FF40AAF01A901222046FDF709FDB0F1A2
:10541000FF3CDCF1000151EB0C011120FEF778F9A3
:1054200000287FF4F9AE202383F31188FBF7A8FE50
:1054300001A92046FDF70CFD0746FBF7B9FE2B46F8
:1054400083F311881220B7F1FF3EDEF1000151EB2A
:105450000E01FEF75DF900287FF4DEAE202383F312
:105460001188FBF78DFE616A13204A1F514251419A
:10547000FEF74EF9002840F00182FBF799FE002369
:1054800083F31188202383F31188FBF779FEB16938
:105490001420D1F1010138BF0021FEF739F9684C21
:1054A0000546002840F0EA81FBF782FE2B4683F395
:1054B0001188202383F31188FBF762FEE168A3685B
:1054C0001520CB1A59425941FEF722F90646002809
:1054D00040F0AF80FBF76CFE334683F31188202346
:1054E00083F31188FBF74CFE41212046FDF7D8FBE2
:1054F000D0F1010138BF00211620FEF709F900287C
:105500007FF48AAE42212046FDF7CAFBD0F10101AB
:1055100038BF00211720FEF7FBF800287FF47CAE8F
:1055200043212046FDF7BCFBD0F1010138BF00212B
:105530001820FEF7EDF800287FF46EAE44212046D7
:10554000FDF7AEFBD0F1010138BF00211920FEF7B5
:10555000DFF8054600287FF45FAE45212046FDF7C1
:105560009FFB0646FBF724FE2B4683F311881A2087
:10557000D6F1010138BF0021FEF7CAF800287FF4F8
:105580004BAEE168A3681B20B1EB030CDCF100011A
:1055900051EB0C01FEF7BCF800287FF43DAE052569
:1055A000202383F31188264CFBF7EAFD01A920464E
:1055B000FDF74EFC0646FBF7FBFD002383F3118845
:1055C0001C20B6EB030EDEF1000151EB0E01FEF7DD
:1055D0009FF800287FF420AE9DF80400FEF780F8C5
:1055E000013DDDD11D201749FEF7AAF800287FF400
:1055F00013AE202383F31188FBF7C2FD616A1E20DE
:105600004A1F51425141FEF783F890B9FBF7D0FD94
:105610002B4683F31188202383F31188FBF7B0FD19
:10562000A1691F20D1F1010138BF0021FEF770F8F8
:1056300050B1FBF7BDFD2B4683F31188ECE500BFAD
:10564000380800205CA50008FBF7B2FD2B4683F369
:105650001188E168A3682020CB1A59425941FEF70E
:1056600057F800287FF4D8AD202383F31188FBF787
:1056700087FD45212046FDF77BFBD0F1010138BFB6
:1056800000212120FEF744F800287FF4C5AD442115
:105690002046FDF76DFBD0F1010138BF002122202B
:1056A000FEF736F800287FF4B7AD43212046FDF71A
:1056B0005FFBD0F1010138BF00212320FEF728F85D
:1056C00000287FF4A9AD42212046FDF751FBD0F11F
:1056D000010138BF00212420FEF71AF800287FF4CA
:1056E0009BAD6C4C41212046FDF742FB0546FBF784
:1056F0005FFD002383F311882520B5EB030CDCF15B
:10570000000151EB0C01FEF703F800287FF484AD93
:10571000E168A3682620B1EB030EDEF1000151EB36
:105720000E01FDF7F5FF00287FF476AD0524202358
:1057300083F31188574DFBF723FD01A92846FDF798
:1057400087FB0646FBF734FD002383F311882720EF
:10575000F21A51425141FDF7DBFF00287FF45CADA6
:105760009DF80400FDF7BCFF013CE0D128204A4928
:10577000FDF7E6FF00287FF44FAD202383F3118867
:10578000FBF7FEFC696A29204B1F59425941FDF77E
:10579000BFFF002878D1FBF70BFD234683F3118868
:1057A000202383F31188FBF7EBFCA9692A20D1F1B0
:1057B000010138BF0021FDF7ABFF002864D1FBF7E2
:1057C000F7FC234683F31188E968AB682B20B1EB23
:1057D000030CDCF1000151EB0C01FDF799FF0028EF
:1057E0007FF41AAD2846FDF7F3F9202383F31188DF
:1057F000FBF7C6FC696A2C20B1F1050EDEF1000151
:1058000051EB0E01FDF784FF00283DD1FBF7D0FCE2
:10581000234683F31188202383F31188FBF7B0FC20
:10582000A9692D20D1F1010138BF0021FDF770FFDA
:1058300050BBFBF7BDFC234683F31188202383F381
:105840001188FBF79DFC2968AB682E20CA1A5142CB
:105850005141FDF75DFFB8B9FBF7AAFC234683F37E
:105860001188202383F31188FBF78AFC2968EB68F1
:105870002F20CB1A59425941FDF74AFFFBF798FCFC
:10588000002383F31188C7E4FBF792FC234683F3DC
:105890001188C1E4380800205CA50008AFF300803F
:1058A00040F6380040F68861C2F20000C2F2000102
:1058B0000522FDF765B900BFAFF30080AFF30080AC
:1058C0004FF0FF30FCF714BFAFF30080AFF3008060
:1058D0004FF0FF30FCF70CBFAFF30080AFF3008058
:1058E0004FF0FF30FCF704BFAFF30080AFF3008050
:1058F0002DE9F04205208AB0FCF712FF4FF0FF308F
:10590000FCF7C6FF0138414241410120FDF700FF8D
:1059100010B10AB0BDE8F0824FF0FF30FCF7B8FFDD
:10592000021F514251410220FDF7F2FE0028F0D142
:105930004FF0FF30FCF7DCFED0F1010138BF002151
:105940000320FDF7E5FE0028E3D1754DFDF798FF34
:10595000744BEC691B68A2680393734F4FF4987102
:10596000013A724B00940398FC68FBF741FF704EBC
:1059700030604FF0FF30FCF78BFF04F132018146BD
:1059800004F137020420FDF70BFF0028C1D10520E8
:10599000B9F1010359425941FDF7BAFE0028B8D1C7
:1059A0004FF0FF30FCF7A4FED0F1010138BF002119
:1059B0000620FDF7ADFE0028ABD1FDF719FF05204D
:1059C000FCF7AEFE4FF0FF30FCF78AFFB0F1050C9C
:1059D000DCF1000151EB0C010720FDF799FE0028D6
:1059E00097D14FF0FF30FCF783FED0F1010138BFB3
:1059F00000210820FDF78CFE00288AD1FDF740FF2A
:105A0000E8694FF498718268484B013A0090039816
:105A1000FC68FBF7EDFE30604FF0FF30FCF760FFF5
:105A200004F13201814604F137020920FDF7B8FE86
:105A300000287FF46EAF0A20B9F1010EDEF10001FB
:105A400051EB0E01FDF764FE00287FF462AF4FF0CA
:105A5000FF30FCF74DFED0F1010138BF00210B20D3
:105A6000FDF756FE00287FF454AFDFF8D490314C98
:105A7000FDF7BEFE484604A90122C9F80090246043
:105A8000FCF7E6FD07A904222046FCF7E1FDFDF73F
:105A9000F7FEEB6928489A684FF49871013A009034
:105AA000264B0398FD68FBF7A3FE30600520FCF74A
:105AB00037FF0C2005F1320105F13702FDF770FECA
:105AC00000287FF426AF4FF0FF30FCF711FED0F135
:105AD000010138BF00210D20FDF71AFE00287FF4D8
